:020000040000FA
:1000000080422020D5000000D9000000DB00000065
:1000100000000000000000000000000000000000E0
:10002000000000000000000000000000DD000000F3
:100030000000000000000000DF000000892A00002E
:10004000E3000000E3000000E3000000E300000024
:10005000E3000000E3000000E3000000E300000014
:1000600000000000E3000000E300000000000000CA
:1000700000000000E3000000E3000000E3000000D7
:10008000E3000000E3000000912A0000E30000000C
:10009000E3000000E300000000000000000000009A
:1000A000E3000000E300000000000000000000008A
:1000B000E300000000000000E3000000E300000097
:1000C0000348854600F038FC00480047CD2F00006B
:1000D0008042202003480047FEE7FEE7FEE7FEE7F8
:1000E000FEE7FEE7C1000000F8B502464A40D40F23
:1000F00042004B0052085B089A4202D20246084670
:1001000011464A0023D0C30D4A00DDB2120EAD1ACB
:10011000202D35DA49020126490AF6058A19002CF4
:1001200000D0524220214F1B1146B9402A411018DD
:10013000C20D9A4221D0002C17D0012D08DCDA051F
:10014000801AD20F8019D207DBB200F0C5F9F8BDD2
:10015000DA05801A012340001B06C01880185A4295
:100160008018CA0F1043490007E04908C20711432D
:10017000DA05801A80194008801800F0A5F9F8BD4A
:1001800061000122511A001BF7E70122D2075140FA
:10019000AAE70122D2075040A6E7024670B54A40BE
:1001A000D30FDB0740002DD04A002AD0010E140ED9
:1001B000000212020919400A520A8418E501044695
:1001C0005443000A120A2E045043A4194219200C69
:1001D000C543AA18120C0125AD03521C5219120472
:1001E0007F39240400D0521C104301D44000491E22
:1001F000C2B20C06C0092018401C4008802A02D058
:1002000003E0002070BD40084000002900DA002013
:10021000184370BD70B502464A40D50F40004A00F1
:10022000ED0740085208002814D0002A12D0C40D4F
:10023000D30D41020120C0055202490A520AE41AB4
:10024000091812187D34914201D3641C00E0490062
:10025000002C01DA002070BD0023914201D3891ADD
:100260000343400849000028F7D100290AD09142F1
:1002700002D10121C90705E0914201D2012101E02B
:100280000121C943E005C018401900F01DF970BDF7
:10029000F0B51FB488B00B9909980024484009991B
:1002A000C00F490049080991C0070B990090490007
:1002B00049080B9109990898A64608431CD00B9948
:1002C0000A98084318D0099801244000420D4800BC
:1002D000410D099824050003000B204309900B9859
:1002E0000003000B20430B9050181C4940180022BB
:1002F00001901446104605E0002001460DB0F0BD07
:10030000032801DA034600E003239C46C11A0AAE23
:100310000AE05F0008ADED5B4F00F75B7D4300270F
:10032000AA187C41491C5B1E6145F2DD410004AB0B
:100330005A522104120C0A43240C401C0828DFDB0B
:10034000019802900099704601910090059B049AD3
:100350000799069800F03EF9D0E700000DFCFFFF7A
:100360000122D207002800DB101A002900DB511AF5
:10037000814201D801207047002070470122D20736
:10038000002800DB101A002900DB511A814201D33A
:1003900001207047002070470122D207002800DBAF
:1003A000101A002900DB511A814201D10120704747
:1003B00000207047C217C10F504010B54018CA073F
:1003C0009623002100F088F810BDC20FD20740002C
:1003D00040080BD0C10D0723DB01C91840020905F5
:1003E000400A1143C20840071143704700200146EC
:1003F0007047CB0FDB07490010B5490802460A4396
:1004000007D00A0D07240903E401090B121B002A77
:1004100001DC002010BDC900440F0C43C100E018EE
:10042000D205801800F050F810BD70B504460029C0
:1004300003D000202022012310E0002801D000205A
:10044000C043C046C0460DE02546D5408D4205D389
:100450000D469540641B1D46954040191546521E99
:10046000002DF1DC214670BDF0B51FB4064600201A
:1004700082B005464024019100901BE0019922467C
:100480000F46304600F080FA049A059B801A994185
:1004900010D310461946224600F066FA361A8F41EC
:1004A0000197224601200021009F00F05DFA3818D4
:1004B0004D4100902046641E0028DFDC019B00981F
:1004C0002946324607B0F0BD002904DA401C490035
:1004D00001D140084000704770B40024050C05D1DC
:1004E0001024000402D1002921D01124050E01D1CD
:1004F00000020834050F01D10001241D850F01D130
:100500008000A41C002801DB4000641C002908D0E6
:1005100020252E1B0D46F540A14000D00121294386
:10052000084301061B1B000ADB1D02D5002070BC1E
:100530007047DB05181880180029F8DA401C4900BC
:10054000F5D170BC400840007047420005D0420021
:10055000120E52428A4201DB00207047C90508187A
:10056000704770B5002801DC002070BD41004002DA
:100570000126400AF605090E8019CA0701D140007C
:10058000491E4D10002211463F353346CB409B1883
:10059000D418844201D8001B1A464000491C172970
:1005A000F3DD5100814202D20021C94300E0002165
:1005B000E8058018FFF788FF70BD10B5002B08DA3A
:1005C0000024401C614192185B411A4301D140084C
:1005D000400010BDF0B51FB482B005460C0003D03A
:1005E000084602F01DFD02E002F01AFD203002462E
:1005F00000902146284600F0B7F9049B059A04466E
:100600000F4618431143084314D0184610431BD01B
:10061000009840210A1A1846059900F0B5F90546D8
:100620000E46009A0599049800F09EF9084305D0FB
:10063000012004E02046394607B0F0BD0020C11774
:1006400005430E432C43374300990E986305401A27
:100650007905E40A00220C43FD0A0A3002D5002085
:100660000146E9E70105101969410C9C0D9D00192F
:100670006941FFF7A2FFDFE7F0B50746084658409B
:1006800087B0C00F049048000E4659004008490842
:10069000BC1A884105D2384631461E4617460B46DD
:1006A00002465800400810434CD0300D03904005DE
:1006B0005900400D490D0590401A0290402872DA09
:1006C00018030121000B09050843019004980092CA
:1006D000002805D0019952420020884100920190E3
:1006E000029840210A1A0199009800F03DF9054648
:1006F0000C466B4607CB00F058F9C0197141039ABC
:100700000E0D0023D71756401A467A40164344D0A0
:10071000049A002A2DD0029A012A039A15DC1205A8
:10072000C01A914101263605001C7141D20F059E69
:10073000D2070093019202962A462346FFF74AFF0A
:1007400007B0F0BD38463146FAE71605224A0F4693
:10075000B218C01AB74101210905001C4F41001809
:100760007F41114618187941E20F10436D19644119
:1007700013E0E2076D0815436408C2071443039AA7
:1007800001261205C01A91413605001C7141CE07A1
:10079000400830434908C01851412A462346FFF714
:1007A0000CFFCDE7FFE7049801224000C117121AA1
:1007B00000238B4104983146C417381AA141EEE753
:1007C00030B40124E407634030BC55E730B4012461
:1007D000E407614030BC4FE70000E0FFF0B50C4695
:1007E0005C4085B0E40FE40703944C0000266408E5
:1007F00059009446490802460296224321D0624697
:100800000A431ED06200570D4A000E032303550D04
:10081000012402462C492405781B1B0B360B40187B
:1008200023432643614600901C46501AB44103D32B
:100830000098401C009002E0921800985B4100284C
:1008400003DA0020014605B0F0BD002001210905B2
:100850000746864611E064461D46141BB54106D383
:100860006546521BB341744607430C43A646CD0769
:1008700040084908284392185B4105460D43EAD1D8
:100880001046184313D06046194650407140084343
:1008900006D06046101AB34106D20122002306E0BA
:1008A00000220123DB0702E00122D243531000980B
:1008B00074460105381C6141029C039D0019694181
:1008C000FFF77BFEBFE70000FD0300004A000903BD
:1008D0000123090B1B0519430A4B10B5520D9A420F
:1008E00002DA0020014610BD064B34339A4203DC85
:1008F0009A1A00F049F810BD034BD21800F034F8F2
:1009000010BD0000FF030000CDFBFFFF10B5002964
:1009100004DB0124E40740428C412146002B04DB28
:100920001C460123DB075242A341994200D1904269
:1009300010BD0000000000001CB5094800900948E7
:10094000019005460126009C05E0E36807CC33438F
:100950000C3C98471034AC42F7D3FFF7B5FB0000CE
:10096000C04F0000E04F000010B5202A04DB014614
:10097000203A9140002010BD914020239C1A03464C
:10098000E3401943904010BD10B5202A04DB08460F
:10099000203AD040002110BD0B46D340D040202447
:1009A000A21A91400843194610BD10B5202A06DB53
:1009B000CB170846203A1041C1170B4306E00B46FF
:1009C0001341D0402024A21A91400843194610BD7B
:1009D000811E091F00BFFCD2704784B003900291B2
:1009E0000192039800680090009801998843009054
:1009F00000980299019A114008430399086004B0D5
:100A0000704784B0039002910192039800680090AF
:100A1000009801998843009000980299019A11402A
:100A200008430399086004B0704782B001900091B8
:100A30000098019995225201885002B0704782B007
:100A4000019000910098019995225201885002B0BE
:100A50007047000081B00090009881003E4A88589D
:100A600001235B061843885001B0704782B00190A3
:100A7000009100980199024A885002B07047C04620
:100A8000D012000081B0009000990120C2025F489E
:100A9000885001B07047C04610B584B0069C0390E2
:100AA000029101920093029801990843009908432A
:100AB000069908430349084303998900264A885048
:100AC00004B010BD8100040081B000900098810046
:100AD000214A8120885001B07047C04681B0009003
:100AE000009881001C4A0020885001B07047C04621
:100AF00082B0019000910098104908430199890043
:100B0000154A885002B0704710B584B0079C069C07
:100B10000390029101920093029801990843009971
:100B20000843069908430799084304490843039971
:100B30008900094A885004B010BDC04680000400F6
:100B400082B00190009100988021084301998900AA
:100B5000014A885002B070470480424082B0019040
:100B6000009101982721C90140580099084002B01E
:100B70007047000081B000900099424A4248885076
:100B800001B0704782B00190009100980199024A2B
:100B9000885002B07047C0469012000082B00190A9
:100BA000009100980199024A885002B07047C046EF
:100BB000B012000081B000900099092042028858CC
:100BC00001231B021843885001B0704781B0009088
:100BD0000099084A885801231843885001B070478B
:100BE00081B000900099034A885804231843885024
:100BF00001B070472812000081B0009000990120D8
:100C0000C202EA48885001B07047C0460100002681
:100C100010B5002A0FD091235B01C3180020DC69B6
:100C20002405240F05D00C5C1C60401C8242F6D1C8
:100C3000104680B210BD002080B210BD3C4A8358DF
:100C400080210B43835080180F2212024368134007
:100C50000122D2029342F7D102688A4302607047B0
:100C600081B00090009802494058C0B201B070476E
:100C70001C12000081B000900099024A024888507E
:100C800001B0704704080000030000B181B000907B
:100C90000099404A0020885001B0704780B584B068
:100CA000019101460198039102A908800398092245
:100CB00052028018098803225202FFF78EFE04B008
:100CC00080BD70B50A780C231A400124240305194D
:100CD0006E689E43B2186A60497807221140035932
:100CE00093435918015170BD80B584B001910146FC
:100CF0000198039102A9088003980D4A8018098879
:100D000007221202FFF769FE04B080BD80B584B0EF
:100D1000019101460198039102A908700398044AC1
:100D2000801809780722FFF758FE04B080BDC0463E
:100D30003812000082B00190684601700078019975
:100D4000014A885002B070472412000010B586B0E6
:100D50000192024601980592049103AA107002A81C
:100D600003800598094940180499490012781143F5
:100D7000074AFFF746FE05980649401802990904FC
:100D8000C91D054AFFF73DFE06B010BD1012000058
:100D9000FF070000141200000700FF0FF0B584B039
:100DA00001242202344B19680392914319606E4961
:100DB0000D686D04FCD5457E25409E69A6437419D7
:100DC0009C612024045D03252C40DE69AE43341968
:100DD000DC611F4C256805262660466A37681F625D
:100DE00076685E6207262E402660C4697F252D0244
:100DF000DE69AE436406640C3419DC61076845683B
:100E000082680092C66802690192426902929A69F8
:100E1000104C14403A07120B2D03ADB2AA183243FE
:100E2000009D2D072D0D1543019A1543029A154378
:100E3000007E2843084A0240101998611868039AF6
:100E40001043186008688005FCD504B0F0BDC046AA
:100E5000001340408D00F0FF72FF0F000649086844
:100E6000012290430860704703490868012212027A
:100E7000904308607047C04608010B403949086834
:100E800001221203104308607047C04681B001463A
:100E90006846017000780249086001B07047C0469A
:100EA00008030B4080B582B0014601A8018001888B
:100EB0000F2002022B48FFF790FD02B080BDC04614
:100EC000F0B5124B1D46083D2E680124A6432E6046
:100ED0000326360330401F68B74338181860186877
:100EE000FF26B043C9B24018186028682043286024
:100EF00018682107002A06D0084318601A480168BC
:100F0000C905FCD5F0BD88431860F0BD10010B4049
:100F100080B582B0014601A8017001780248032221
:100F2000FFF75BFD02B080BD00010B4080B582B0D1
:100F3000014601A8017001780A483022FFF74DFDF3
:100F400002B080BD07498860074802689202FCD55C
:100F5000012212040B6813430B600168C906FCD51B
:100F60007047C04604010B4004020B4081B0009062
:100F70000099024A0120885001B070470811000012
:100F800082B001900091009B0199614A88581843F2
:100F9000885002B07047C04681B00090009901208F
:100FA000C2026148885001B07047C0460100002667
:100FB00081B000900098812149014058C0B201B031
:100FC00070470000B0B54A68364BC250364A8018A8
:100FD0000A78222A58D8930001A4E3589F46C046B5
:100FE0007F100000891000007F10000089100000B1
:100FF000891000008910000089100000891000008D
:10100000891000008910000089100000891000007C
:10101000891000008910000089100000891000006C
:101020006D100000891000006D1000008910000094
:10103000891000008910000089100000891000004C
:10104000891000008910000089100000891000003C
:10105000891000008910000089100000891000002C
:101060006D100000891000006D10000003231B07A5
:1010700004689C4301235B07E318036004E0032337
:101080001B0704689C4304600B69C360CB68074C72
:101090001C40C36A064D1D402B19C362097A1143D7
:1010A0000160B0BD08180000041800007777020046
:1010B0008888FDFF81B000900099324A32488850FC
:1010C00001B0704710B50122120383180C789C60A0
:1010D0004B7883508978014A815010BD0C11000073
:1010E00081B0009000991120020288580123184312
:1010F000885001B07047000082B001900091009BC1
:101100000199034A88581843885002B07047C04676
:101110002810000081B0009000990120C20202480E
:10112000885001B07047C04601000026B0B51122BA
:10113000120283580124A34383500B888C781C43EC
:101140008B882343094C1C408358094D1D4063196B
:1011500083508B79CC791C43097A21437E23194033
:10116000801842689A4351184160B0BD186700006A
:10117000E798FDFF81B000900099024A024888502C
:1011800001B0704704080000030000B180B584B0CE
:1011900003900291019203980B49401802990B4A5F
:1011A000FFF71BFC03980A49401801993F22FFF7FB
:1011B00014FC0399074A8818895801221140FFF747
:1011C0000CFC04B080BDC04610110000FFFF000001
:1011D000141100000411000010B50122120383183D
:1011E0000C789C604978815010BD80B582B0019028
:1011F0000091019811210902401800990322D2039D
:10120000FFF7EBFB02B080BD80B582B012200090EA
:10121000012100F0D9F9322001F06AFD0098442143
:1012200000F0D2F913200A2100F0CEF91520032195
:1012300000F0CAF9C3480190022101720D49896A80
:10124000C160002101700C4989684160007A80000A
:1012500060210843C1B2112000F0B6F9019800786E
:10126000800062210843C1B2102000F0ADF902B045
:1012700080BDC046844E0000C04D000080B58AB0DD
:1012800000F062F90021CF480190405EFFF792F82C
:101290007B21C905FEF781FF5149FEF725FF014675
:1012A0000198504A089211600221405EFFF782F8CF
:1012B000A44902914968FEF7ADFF089A01460198DA
:1012C00051600421405EFFF775F802994968FEF706
:1012D000A1FF089A0146019891600621405EFFF740
:1012E00069F802994968FEF795FF089A0146019846
:1012F000D1600821405EFFF75DF80299C968FEF7EA
:1013000089FF8E4903910969FEF73FFF089A01465C
:10131000019811610A21405EFFF74CF80299C968F3
:10132000FEF778FF03994969FEF72FFF089A0146F7
:10133000019851610C21405EFFF73CF80299C968A1
:10134000FEF768FF03998969FEF71FFF01460898B9
:101350008161006901F0C2F90146089801614069A4
:1013600001F0BCF9014608984161806901F0B6F9C5
:101370000899886148680590486804908868896879
:10138000FEF70BFF0499024605980692FEF705FF4B
:101390000699FEF7A9FE08990790C868C968FEF784
:1013A000FCFE0799FEF7A0FE02F0CAFC0146089871
:1013B000099109994068FEF72DFF014608984160A0
:1013C00009998068FEF726FF01460898816009990F
:1013D000C068FEF71FFF0899C8600AB080BDC0460C
:1013E0000000C8411001202080B584B003AB187004
:1013F000029101A80280694600200880FFE7684644
:10140000008801A90988884210DAFFE70398694635
:101410000A88801802998918C0B2012200F008F8E1
:10142000FFE70098401C69460880E8E704B080BDEB
:1014300080B588B001920346019807AA13700691FF
:1014400005A902910880694803906A21049101234B
:1014500001F0F2FB029B03980499069A1B8801F0A5
:10146000B7FB08B080BDC04680B586B0FFF7CCFEA4
:101470007D20800001F03CFC00200590FFE70598EE
:101480002D4988423FDCFFE700F05EF84D480290AE
:101490000821405EFEF78EFF2A490391C968FEF7D6
:1014A000B9FE0146254804900069FEF71DFE049A26
:1014B0000146029811610A21405EFEF77BFF039905
:1014C000C968FEF7A7FE014604984069FEF70CFEC6
:1014D000049A0146029851610C21405EFEF76AFFB2
:1014E0000399C968FEF796FE014604988069FEF7E5
:1014F000FBFD04998861022001F0FAFBFFE70598E3
:10150000401C0590BBE70D48019000690C49009113
:10151000FEF780FE00990246019802614069FEF7DD
:1015200079FE00990246019842618069FEF772FED9
:101530000199886106B080BDE70300004C012020BE
:1015400000007A443C01202080B586B0202002A90A
:1015500000910E22FFF748FF009A507800021178A0
:10156000401818490880D07800029378C018088184
:10157000507900021379C0184881D079000293791C
:10158000C0188881507A0002137AC0184880D07A37
:101590000002937AC0188880507B0002127B80186A
:1015A000C880888801AA1080C88888800198404235
:1015B000C880488910808889488101984042888184
:1015C00006B080BD2C01202080B584B003AA107025
:1015D00002A80170039801AA107002985070034885
:1015E0006A21022301F028FB04B080BD00000F40F7
:1015F00010B58AB0FFE701F099FB099009987D4981
:101600000968401A002801D5FFE7F1E001F08EFBE0
:10161000143078490860FFE700200890FFE7089839
:10162000042800D9E4E00898182205924243724841
:101630000690811880584968FFF790FA059902468C
:101640000698531E9A4107AB1A70089A51434018E6
:10165000007CC007002811D1FFE707A80078C00769
:1016600000280BD1FFE70898182141436248401831
:10167000807D01210840012815D0FFE70898182136
:1016800041435D484018407D0121084001280AD0AF
:10169000FFE708981821414357484018007DC007CC
:1016A000002809D0FFE70898182141435248411803
:1016B000002048610861FFE70898182141434E481F
:1016C0004018007CC007002822D1FFE707A8007857
:1016D000C00700281CD0FFE7089918220392104683
:1016E0004843454904910B1801209875089C1346FE
:1016F0006343CB185874089B5A438918C87401F087
:1017000015FB039A0499089B5A4389188860FFE7E0
:1017100008981821414338484018007CC007002829
:1017200018D0FFE707A80078C007002812D1FFE70C
:1017300008981821019141432F4802904118012037
:10174000887401F0F3FA019A0299089B5A438918A8
:10175000C860FFE708981821414327484018807D5A
:10176000C007002835D1FFE70898182141432248D7
:101770004118C8688968884201D1FFE728E00898C5
:10178000182141431C484118C8688968401A8008DC
:101790004A280ED8FFE7089818210A4642431648FF
:1017A000831801225A75089A514341188868C86005
:1017B0000DE0089818210A4642430F488318012279
:1017C0001A75089A514341188868C860FFE7FFE717
:1017D000FFE707A80078089918224A4306498918A4
:1017E000012210400874FFE70898401C089016E793
:1017F0000AB010BD680120200400202080B59CB0F4
:101800001B90FFE701F092FA1A901A986D49096847
:10181000401A002801D5FFE7D1E001F087FA143023
:1018200068490860FFE71B986749FEF7F3FC1990C9
:10183000199800F0EFF87149139108680D90486805
:101840000C908868C968FEF7A8FC0C9902460D98B0
:101850000E92FEF7A2FC0E99FEF746FC01460846E2
:10186000FEF742FC139912904868109048680F9058
:1018700088688968FEF791FC0F99024610981192CA
:10188000FEF78BFC1199FEF72FFC01460846FEF788
:101890002BFC01467F20C0051790FEF776FC014621
:1018A000129802F0FFF81399484A90600868159062
:1018B00088681490C8684968FEF76FFC149902465E
:1018C00015981692FEF769FC1699FEF75EFC014624
:1018D0000846FEF709FC179918901898FEF740FD86
:1018E000002804D1FFE77F20C0050B900FE0189877
:1018F0003749FEF743FD002803D1FFE734480A903B
:1019000002E018980A90FFE70A980B90FFE70B98FF
:101910001890189802F03AF82C4909914860374914
:10192000039108680190C868009048688968FEF7CC
:1019300034FC0099024601980292FEF72EFC0299AF
:10194000FEF7D2FB01460846FEF7CEFB039907904F
:101950008868059088680490C868C968FEF71DFC0F
:101960000499024605980692FEF717FC0699FEF7C1
:10197000BBFB01460846FEF7B7FB01467F20C005CA
:10198000FEF703FC0146079802F08CF8014609981F
:10199000016000680F490891FEF7FFFB08990246B5
:1019A000099802604068FEF7F8FB0899024609981A
:1019B00042608068FEF7F1FB09998860FFE71CB080
:1019C00080BDC0467801202000007A446C012020B0
:1019D000000080BFE12E654280B5FFF745FD074955
:1019E0007F20C2050A60002048608860C860CA6124
:1019F000034A0A6208614861886180BD7C01202039
:101A0000CDCC4C3D80B582B001900198FFF7F6FE39
:101A100002B080BD80B5C6B04590FFF72FFC564898
:101A200040680021FEF7B8FC002811D0FFE75248BB
:101A300080680021FEF7B0FC002809D0FFE74E487F
:101A4000C0680021FEF7A8FC002801D0FFE736E2BD
:101A50004A49359148682C90C8682B900868896875
:101A6000FEF79BFB2B9902462C982D92FEF795FBD7
:101A70002D99FEF78AFB01460846FEF735FB35999E
:101A8000449008682F9048682E908868C968FEF7CF
:101A900084FB2E9902462F983092FEF77EFB3099F8
:101AA000FEF722FB01460846FEF71EFB35994390E0
:101AB000086832900868319048684968FEF76DFB05
:101AC0003199024632983392FEF767FB3399FEF75D
:101AD0005CFB3599349088688968FEF75EFB0146A7
:101AE0003498FEF752FB35993690C868C968FEF7FE
:101AF00054FB3699FEF7F8FA4290F24841683A9161
:101B000081683991C06838900020002806D1FFE72D
:101B10003A9801F061F9002808D12BE03A98FEF7D5
:101B200054FC01F04BF9002824D0FFE700200028E6
:101B300006D1FFE7399801F04FF9002808D119E0E4
:101B40003998FEF742FC01F039F9002812D0FFE77E
:101B50000020002806D1FFE7389801F03DF9002861
:101B60000ED107E03898FEF730FC01F027F9002885
:101B700006D1FFE7A3E1C046100120207C01202010
:101B8000399801904298009038984399FEF705FBE8
:101B90000099024601980292FEF7FFFA0299FEF7B9
:101BA000F4FA419038980490449803903A984299F6
:101BB000FEF7F3FA0399024604980592FEF7EDFA50
:101BC0000599FEF7E2FA40903A98079043980690FC
:101BD00039984499FEF7E1FA069902460798089267
:101BE000FEF7DBFA0899FEF7D0FA3F90B6482A9044
:101BF000006A4199FEF7D1FA2A9A45991269099229
:101C0000FEF7CBFA0999FEF76FFA01462A980161AF
:101C1000006A4099FEF7C1FA2A9A459952690A92D8
:101C2000FEF7BBFA0A99FEF75FFA01462A9841616E
:101C3000006A3F99FEF7B1FA2A9A459992690B9288
:101C4000FEF7ABFA0B99FEF74FFA2A9A9061D0692A
:101C5000419912690C92FEF7A0FA0C99FEF744FA2A
:101C6000014698481E900069FEF73EFA1E992A9A8E
:101C70000861D069409952690D92FEF78EFA0D996C
:101C8000FEF732FA01461E984069FEF72DFA1E99BA
:101C90002A9A4861D0693F9992690E92FEF77DFABF
:101CA0000E99FEF721FA01461E988069FEF71CFA8C
:101CB0001E9902462A988A61426810920A690F9218
:101CC00080684969FEF769FA0F9902461098012366
:101CD000DB075A401192FEF760FA01461198FEF7B1
:101CE00054FA1E9902462A981292C0688969FEF732
:101CF00054FA01461298FEF748FA3F21090620914E
:101D0000FEF74BFA1E9902462A983E9202681492F8
:101D10000A69139280688969FEF73FFA13990246AF
:101D200014981592FEF739FA1599FEF7DDF91E9908
:101D300002462A981692C0684969FEF72EFA0146B3
:101D40001698FEF722FA2099FEF727FA1E99024606
:101D50002A983D92026818924A69179240688969E8
:101D6000FEF71BFA1799024618981992FEF715FA12
:101D70001999FEF70AFA1E9902462A981A92C06823
:101D80000969FEF70AFA1A99FEF7AEF92099FEF7EB
:101D900004FA1E9902462A983C9202681C928A69AB
:101DA0001B9240684969FEF7F8F91B9902461C9896
:101DB0001D92FEF7F2F91D99FEF796F91E9902465B
:101DC0002A981F9280680969FEF7E7F901461F9873
:101DD000FEF7DBF92099FEF7E0F92A9A3B903E984E
:101DE000459912682192FEF7D8F92199FEF77CF9FE
:101DF0002A9A10603D98459952682292FEF7CDF9D3
:101E00002299FEF771F92A9A50603C984599926898
:101E10002392FEF7C2F92399FEF766F92A9A906099
:101E20003B984599D2682492FEF7B7F92499FEF7BA
:101E30005BF92A99C8600868269008682590486868
:101E40004968FEF7AAF92599024626982792FEF7D7
:101E5000A4F92799FEF748F92A9928908868896893
:101E6000FEF79BF92899FEF73FF92A992990C8684F
:101E7000C968FEF792F92999FEF736F901F060FF7B
:101E800001462A98379137990068FEF7C3F9014651
:101E90002A98016037994068FEF7BCF901462A98F4
:101EA000416037998068FEF7B5F901462A9881604C
:101EB0003799C068FEF7AEF92A99C860FFE746B0C7
:101EC00080BDC046100120207C012020E54800682C
:101ED000806800280BD0FFE7E24908688068086046
:101EE000002008714871AD4901200870FFE7704774
:101EF000C849012008707047C6490520087070471E
:101F0000C449042008707047C24903200870704714
:101F1000C04902200870704780B582B00D49019118
:101F200071310D4800F00EFF019959310B4800F056
:101F300009FF019929310A4800F004FF0199413154
:101F4000084800F0FFFE01991131074800F0FAFE41
:101F500002B080BD04002020F11E0000111F00000F
:101F6000091F0000011F0000F91E000010B586B017
:101F7000BC480068007B0290002804D0FFE702986C
:101F8000012863D090E085480078C00700285CD025
:101F9000FFE700F06BF9B34800684069002805D0FE
:101FA000FFE7B048006840698047FFE705A90020C7
:101FB0000870FFE705A80078032842DCFFE7A9497D
:101FC0004879059A821804A802700078096809798E
:101FD000884201DBFFE734E004A80078A1490979D1
:101FE000884214D1FFE705A80078410004A80478CE
:101FF000601C9C4A126812680C236343D2580192F9
:1020000000902C4B0020082200F0DFF913E005A817
:102010000078410004A80478601C924A1268126893
:102020000C236343D25801920090224B00200822D7
:1020300000F0ACF9FFE7FFE70598401C05A9087020
:10204000B8E7564900200870FFE72EE053480078B3
:10205000C00700280AD0FFE700F008F981480068AF
:10206000406980474D4900200870FFE77D480068BF
:102070000069002817D0FFE7FFE700F057FE039044
:1020800003980B490968401A002801D5FFE70CE0C6
:1020900000F04CFE323006490860FFE771480068E6
:1020A00000698047FFE700E0FFE706B010BDC046CB
:1020B000A0012020914F00006A480068007B0128A1
:1020C00001D1FFE71AE06749086800680A790C2126
:1020D000514340188068002810D0FFE76149086824
:1020E00000680B790C225A43801880680860002031
:1020F00008714871294901200870FFE77047C04600
:1021000058490879401C087108790968097988429A
:1021100005DBFFE75349002008714871FFE751498B
:1021200008794979401A042805DBFFE74D494879C9
:10213000401C4871FFE71949012008707047C046EC
:102140004848007900280FD0FFE746490879401E2B
:10215000087108794979884205DAFFE741494879E9
:10216000401E4871FFE714E03E4801680979491EA6
:10217000017100680079052806DBFFE73949086826
:102180000079001F487103E0364900204871FFE7DD
:10219000FFE70249012008707047C046DC0020209C
:1021A00080B582B01B480078019005282FD801988F
:1021B000810001A040588746D1210000D3210000B2
:1021C000DF210000EB210000F721000003220000C6
:1021D0001EE0FFF795FF0F490020087018E0FFF799
:1021E000AFFF0C490020087012E0FFF765FF0949B6
:1021F000002008700CE0FFF769FE06490020087017
:1022000006E000F009F803490020087000E0FFE74D
:1022100002B080BD7402202080B512480068007BA7
:10222000012801D1FFE714E00E49086800680A7927
:102230000C2151434018406800280AD0FFE70949A3
:10224000086800680A790C215143401840688047AB
:10225000FFE780BD03490448086000200871487109
:102260007047C0466C022020E000202080B584B07A
:1022700000200390FFE7039807281BDCFFE703A873
:1022800001780020019000F0BFF801980290FFE76C
:1022900002987F2809DCFFE70120002100F074FD8F
:1022A000FFE70298401C0290F2E7FFE70398401C0A
:1022B0000390E0E704B080BD80B582B06420019057
:1022C00000F016FD00200090AE2100F05DFD0098AA
:1022D000D52100F059FD0098802100F055FD0098AF
:1022E000A82100F051FD00983F2100F04DFD00981D
:1022F000D32100F049FD0099084600F045FD009803
:10230000402100F041FD0098A12100F03DFD009822
:10231000C82100F039FD0098DA2100F035FD009861
:10232000122100F031FD0098812100F02DFD009870
:10233000CF2100F029FD0098D92100F025FD00985B
:10234000F12100F021FD0098D82100F01DFD00983A
:10235000302100F019FD0098A42100F015FD00982F
:10236000A62100F011FD00988D2100F00DFD0098D0
:10237000142100F009FD0098AF2100F005FD01983F
:1023800000F0B6FCFFF772FF02B080BD10B5CAB016
:1023900049AC0494208048A80190018047A802908D
:1023A000027046934CA805904699059A06A803909A
:1023B00000F024FE0199029B039A049800780978A2
:1023C0001B7800F035F94AB010BD10B5CAB049AC61
:1023D0000494208048A80190018047A802900270D0
:1023E00046934CA805904699059A06A8039000F0DC
:1023F00005FE0199029B039A0498007809781B78DE
:1024000000F041F94AB010BD80B586B0024605A87B
:102410000190027004AA0292117001780F2001400D
:102420000020039000F0B0FC019903980978090995
:10243000103100F0A9FC029903980978B0221143E9
:1024400000F0A2FC06B080BD10B588B007AC2070CB
:1024500006A8017005A8027004A803700078062879
:1024600020D1FFE707A8007806A90978FFF7CCFF7D
:1024700000200390FFE70398052812DCFFE705A87A
:102480000178062048432B49401803994018C0386A
:102490000178012000F078FCFFE70398401C0390CE
:1024A000E9E743E004A8007808283ED1FFE707A841
:1024B000007806A90978FFF7A7FF00200290FFE740
:1024C0000298072811DCFFE705A8007800011849E9
:1024D0004018029940185449415C012000F054FC16
:1024E000FFE70298401C0290EAE707A800780699E7
:1024F000491CC9B2FFF788FF00200190FFE701984F
:10250000072811DCFFE705A80078000108494018FA
:10251000019940184349415C012000F035FCFFE778
:102520000198401C0190EAE7FFE7FFE708B010BD03
:10253000E04100006C3D000010B588B007AC207091
:1025400006A8017005A8027004A803700078062888
:1025500020D1FFE707A8007806A90978FFF754FF04
:1025600000200390FFE70398052812DCFFE705A889
:102570000178062048432D49401803994018C03877
:102580000178012000F000FCFFE70398401C039055
:10259000E9E743E004A8007808283ED1FFE707A850
:1025A000007806A90978FFF72FFF00200290FFE7C7
:1025B0000298072811DCFFE705A8007800011849F8
:1025C0004018029940181849415C012000F0DCFBDA
:1025D000FFE70298401C0290EAE707A800780699F6
:1025E000491CC9B2FFF710FF00200190FFE70198D6
:1025F000072811DCFFE705A800780001084940180A
:10260000019940180749415C012000F0BDFBFFE73C
:102610000198401C0190EAE7FFE7FFE708B010BD12
:10262000D047000008FEFFFF00FEFFFFA63F0000AE
:1026300010B586B005AC207004A80170039202A802
:10264000037001A900200870FFE7039801A9097829
:10265000405C002815D0FFE7059801A900910C788F
:1026600002A90B7819466143401804A90978039A16
:10267000125DC0B2FFF7E8FE00990198401C087097
:10268000E3E706B010BD10B586B005AC207004A815
:102690000170039202A8037001A900200870FFE7EF
:1026A000039801A90978405C002815D0FFE7059838
:1026B00001A900910C7802A90B78194661434018D2
:1026C00004A90978039A125DC0B2FFF735FF00999B
:1026D0000198401C0870E3E706B010BD80B582B0D9
:1026E00001900198FDF771FE034A044BFDF7D0FD00
:1026F000FDF77FFE02B080BDD1A05DD046DF913FE7
:1027000080B582B00F49CB480190FEF765FD019876
:102710000D49FEF70BFD01980021FEF766FD0198BB
:1027200002210B22FEF732FD019801218902FEF7FA
:10273000E3FC0F20032100F085FB0198FEF7D0FC9D
:1027400002B080BD304E0000324E000080B58EB029
:102750000920FEF7C3F90A20FEF7C0F90023099308
:10276000019301200890C0040B9000900F2003906B
:10277000042102911A46FEF7C7F90299099B0B98AA
:10278000019300900E2004901A46FEF7BDF90398BD
:10279000FEF760F90498FEF75DF9099B0B98019329
:1027A000009002200790032105911A46FEF7ACF92C
:1027B0000599099B0B9801930090052006901A46F5
:1027C000FEF7A2F90798FEF745F90698FEF742F9D9
:1027D00007991420FEF7B4F907991520FEF788F938
:1027E000089809990B9B009102040A923B20FEF77E
:1027F00053F909990A9A0B9B00913620FEF74CF980
:1028000009990A9A0B9B00912F20FEF745F9099927
:102810000A9A0B9B00912320FEF73EF909990A9A28
:102820000B9B00913720FEF737F93920FEF74CF962
:102830002B20FEF749F9D8480C9005490D91FEF779
:10284000F4F80C980D99FEF711F90EB080BDC04652
:102850000000040880B582B00A4994480190FEF750
:1028600031FC01980849FEF7ADFB01980121FEF704
:1028700087FB1220022100F0E5FA0198FEF776FBB3
:1028800002B080BD3C4E0000404E000080B582B0DA
:10289000124966480190FEF714FA01980321490293
:1028A000FEF7FCF90198FEF785F90198FEF7EEF9BD
:1028B00001982721FEF73EFA019800210091FEF7CA
:1028C00025FA00990198FEF70FFA0198FEF788F9AA
:1028D0000198FEF77BF902B080BDC046544E00005F
:1028E00080B582B000200190FEF7D0FA0120009060
:1028F0004002FEF7D7FA0198FEF70AFBFEF7AEFAA0
:10290000FEF7B2FA009A032000030A21FEF7D8FA74
:102910000648FEF743FA1020FEF708FBFEF7AEFA72
:102920000198FEF70FFB02B080BDC046584E000074
:1029300080B5024800F080F880BDC04680380100B4
:1029400080B582B012493A480190FEF7BAF9019871
:1029500003214902FEF7A2F90198FEF72BF901982D
:10296000FEF794F901980921FEF7E4F90198002196
:102970000091FEF7CBF900990198FEF7B5F901989F
:10298000FEF72EF90198FEF721F902B080BDC0468E
:10299000804E000080B500F015F8FFF7D7FEFFF776
:1029A0009FFFFFF757FFFFF771FFFFF7C9FFFFF723
:1029B000A7FEFFF7BDFF0249B8220020885480BD62
:1029C000B001202080B586B017480090FEF7D2F8FD
:1029D00071480190FEF7CEF834480290FEF76AFB8A
:1029E000F5480390FEF746F911480490FEF742F9C6
:1029F00010480590FEF7BEFB0098FEF743F80198DB
:102A0000FEF740F80298FEF7C7FA0398FEF7F4F8CD
:102A10000498FEF7F1F80598FEF77CFB1020FDF70F
:102A2000D7FF06B080BDC04600000A4000200F401E
:102A300000000F400080104080B584B002900298E2
:102A4000401E000E002803D0FFE70120039011E094
:102A50000298401E0949086000200190C0430321EC
:102A600000F0F0F9019806490860064A0721116054
:102A70000390FFE7039804B080BDC04614E000E077
:102A800018E000E010E000E080B500F053F980BDF0
:102A900080B50648FEF78CFA012804D1FFE7044808
:102AA000FEF7B0FF00E0FFE780BDC04600008640B3
:102AB0000000F04180B584B03548007801900028CE
:102AC00008D0FFE7019801280AD0FFE70198022803
:102AD0000CD025E0012081042F48FDF7B0FF20E055
:102AE000012081042C48FEF74DF81AE0FFE700F0C2
:102AF0001DF90390039827490968401A002801D559
:102B0000FFE743E000F012F97D21890040182149D8
:102B10000860FFE7012081041F48FEF73FF800E04E
:102B2000FFE7F14800780090002808D0FFE7009800
:102B300001280AD0FFE7009802280CD025E00120E8
:102B4000C1061548FDF77BFF20E00120C1061248B1
:102B5000FEF718F81AE0FFE700F0E8F80290029894
:102B60000E490968401A002801D5FFE70EE000F081
:102B7000DDF87D21C900401808490860FFE7012001
:102B8000C1060548FEF70AF800E0FFE704B080BD83
:102B9000AD012020A801202000200A40A40120200F
:102BA00080B5034B052003210822FFF70EFC80BDF2
:102BB000974F000080B5FFF77FFBFFF74BFB80BD11
:102BC00080B5FFF7A9F9FFF7EBFAFFF7CFF980BD62
:102BD00010B586B0009101460098059104A90870CF
:102BE000039202AA13800598097813880122FEF740
:102BF000ADF8FFE705983D4940588006002801D40C
:102C0000FFE7F7E701A900200880FFE701A8008897
:102C100002A9098888420DDAFFE70598FEF720F837
:102C2000039901AA12888854FFE70198401C01A962
:102C30000880EBE706B010BD10B588B0079006A875
:102C40000170059204A803800088012809DBFFE7D2
:102C500004A80088082804DCFFE70020002805D12C
:102C600003E00120002801D1FFE719E004A8018852
:102C70000020012903900DDBFFE704A80188012053
:102C8000002201920929029001DB0198029002982A
:102C90000390FFE703990120884300F015F9FFE74F
:102CA000FFE70798114940588006002801D4FFE744
:102CB000F7E70798059904AA00921288FDF7A8FF84
:102CC000009A079806A9097813880022FEF73EF8B3
:102CD000FFE70798054940588006002801D4FFE720
:102CE000F7E70798FDF7AAFF08B010BD181200001B
:102CF00080B584B0039000F019F802900398019019
:102D00000198401C002804D0FFE70198401C019066
:102D1000FFE7FFE700F00AF80299401A019988429C
:102D200001D2FFE7F6E704B080BD00000448006868
:102D30007047C04602490868401C08607047C0469A
:102D40007802202080B582B001900091019800287F
:102D500001D1FFE70BE000980078C007002806D0FB
:102D6000FFE701988047009900200870FFE702B054
:102D700080BD80B582B01220019000F037F8019834
:102D800000F04AF802B080BD80B584B0024603A8C6
:102D9000027002AA117001AA002111800078411E60
:102DA0008841800110700298507003483C21022332
:102DB000FFF742FF04B080BD00200F4082B00191B8
:102DC000009001984000400D0249401A411E884180
:102DD00002B07047FF07000081B000900098C00D5E
:102DE000C0B2FF38411E884101B0704781B0014632
:102DF0006846017000214056002809D4FFE7684664
:102E000001781F2001400120884002490860FFE747
:102E100001B0704780E200E081B001466846017071
:102E200000214056002809D4FFE7684601781F209A
:102E300001400120884002490860FFE701B0704767
:102E400000E100E070B582B0024601A80270009176
:102E500000214056002816D4FFE7002401A9085796
:102E60000322D3431840174A805809578C07E50EB0
:102E7000FF24AC40A043009CA401E4B2AC4020433A
:102E8000194088501AE001A908780F24204008381A
:102E90000322D34318400A4A8058002549578D071A
:102EA000EE0EFF25B540A843009DAD01EDB2B54043
:102EB00028432140083919408850FFE702B070BD0F
:102EC0001CED00E000E400E081B00090FFE7FEE7C9
:102ED00005490020087070470349012008707047B9
:102EE0000149022008707047AC01202080B5034BD7
:102EF000642000210622FFF749FA80BD8C4F0000B4
:102F000010B588B0184803900068FDF75EFA01918B
:102F10000090164B05932A20069000210622049269
:102F2000FFF734FA03984068FDF74FFA049A059BBF
:102F30000446069802940C460299019400910121DE
:102F4000FFF724FA03988068FDF73FFA049A059B7F
:102F50000446069807940C460799019400910221B3
:102F6000FFF714FA08B010BD6C012020134F0000C9
:102F700080B582B0FFF7BAFF0A4B0021009106220C
:102F800001920846FFF702FA0098019A064B0121C8
:102F9000FFF7FCF90098019A044B0221FFF7F6F9BC
:102FA00002B080BD0C4F0000214F00001A4F0000FE
:102FB00005490020087070470349012008707047D8
:102FC0000149022008707047AD01202080B582B011
:102FD00000200190FFF7DEFCFFF7ECFDFFF7E0FDBE
:102FE000FEF7FAFCFFF742F9FFF7C3FEFFE7FEF733
:102FF000FFFAFFF75FFDFFF7E3FDF8E737B514468B
:103000000846064B6A46214600F01EF9044669460A
:10301000002000F0B5FC20463EBD000081390000D4
:103020002021020C01D010211046020A01D01046C6
:103030000839020901D01046091F820801D0104644
:10304000891E420801D0881E7047081A7047410047
:10305000080200D004200A0E01D001221043090EFC
:10306000FF2901D102210843012800D10520704722
:1030700010B50121FDF769FA10BD10B5FDF734F860
:1030800010BD10B500210846FDF7C4F810BD5E2143
:1030900010B5C9430807FDF758FA10BD000000003D
:1030A00002E008C8121F08C1002AFAD170470000C8
:1030B0007047000000000000002001E001C1121F65
:1030C000002AFBD1704700000149086070470000EA
:1030D00000002020F0B51FB486B00998089A030DAF
:1030E0000021024314D05148514A18185043051486
:1030F0001198012810981AD0281A401C00264D4F0C
:103100004D49009601910490002812DA444211E0E2
:103110001198012449A3012801D11098C1430698B0
:10312000119A84600360C26041600BB0F0BD404200
:10313000E4E70446210500203F4A001C5141039169
:10314000029012E0E00707D032463B460199009812
:10315000FDF79EF80191009032463B461046194615
:10316000FDF796F806460F466410002CEAD1049845
:10317000039B0028029A0999089806DAFDF788F857
:10318000019B009AFDF784F805E0FDF727FB019B02
:10319000009AFDF723FB04460E460022284BFDF75C
:1031A000B5FB03D80020C043014607E00022254BB1
:1031B00020463146FDF760FAFDF788FB102409E050
:1031C000002C0ADB0A220023FDF74EF9079B303260
:1031D0001A55641E02460A43F2D11122641C079B51
:1031E000121B1C19119B012B03D0012308430ED184
:1031F0000AE0084304D0112010900020119077E7D6
:103200001098151A6D1E0BE01098824202DD002303
:103210006D1C03E0824201DA00236D1E002BEED00C
:10322000069811998260C16030C07EE701FCFFFF03
:10323000104D0000000014400000F03F300000007E
:103240000000F0430000E03FFFB597B006460025C0
:1032500018E2252877D100242746FD49049400E090
:103260000443761C32780120203A90400842F7D17E
:1032700030782A280ED002223078014630390929C8
:1032800016D804990A235943303940181443761C40
:103290000490F1E7189802C804911890002904DA04
:1032A0000120400304434842049002200443761C5A
:1032B00030782E2814D1042004437078761C2A28F4
:1032C00009D11898761C80C8189009E00A214F434C
:1032D000303FC719761C3078014630390929F5D9B5
:1032E00030786C2810D006DC4C281AD068280ED014
:1032F0006A2817D104E0742813D07A2812D110E07C
:103300000120400504430CE00121090501E00321EF
:1033100009050C437178814203D10120000524186E
:10332000761C761C3078119066280BD013DC582858
:103330007DD009DC00287BD04528F6D04628F4D083
:1033400047281AD1A5E118E0632835D0642870D049
:10335000652812D19DE170286CD008DC6728F1D077
:1033600069287BD06E280DD06F2806D1BAE073286B
:103370002ED0752871D0782859D01A9A199990476B
:103380006D1C7EE16002400F022809D003280DD099
:103390000428189801680DD00D60001D189070E188
:1033A0001898EA1701680D604A60F6E718980168F6
:1033B0000D80F2E70D70F0E718986A4601781172F7
:1033C000001D18900020507202A80090012005E016
:1033D000189802C8189000200091C04361070DD5CD
:1033E000002101E00199491C0191B94212DA8142A0
:1033F000F8DB009A515C0029F4D10BE0002101E0D8
:103400000199491C01918142FADB019A0099895C7A
:103410000029F5D1019904981A9B471A214638468C
:10342000199A00F097FA0199401945180BE04FE0FE
:103430002CE113E04EE0009800990078491C0091BF
:103440001A9A199990470198401E0190401CF2D198
:10345000214638461A9B199A10E137E00A200021CC
:10346000009001916002410F022907D0189A01CA09
:103470001892C2179446032908D00AE01898C01D74
:10348000C108C90005C91891944607E000B2C217E7
:103490009446042902D140B2C1178C4600226146ED
:1034A000944506DA0A460021404291418C462D217E
:1034B00002E0210504D52B216A461173012103E0A6
:1034C000E10701D02021F7E7029155E00A200AE048
:1034D000102008E0102000900021042004430191F6
:1034E000082703E008200021019100906002410FAD
:1034F000022907D0189A01CA18920022944603297B
:1035000008D008E01898C01DC108C90005C9189165
:10351000944603E080B2042900D1C0B20021029198
:10352000210729D51199702906D0009A1021019BF5
:103530004A401A4305D00EE040216A46117301212A
:1035400008E06146014306D030216A4611731199A3
:10355000517302210291009A0821019B4A401A43AB
:103560000AD16146014301D1610705D530216A4680
:10357000117301217F1E02911199582904D035A1A0
:103580000E910DA90D910DE037A1F9E76146019B60
:10359000009AFCF769FF0E9B8C469B5C0D9A521EAD
:1035A0000D92137061460143F0D10D9805A9081AD8
:1035B00020300190600703D501200004844300E01F
:1035C00001270198874201DD381A00E000200199A7
:1035D00000904118029809180498401A0490E003DA
:1035E00006D421461A9B199A049800F0B3F945199C
:1035F000002706E003A81A9AC05D199990476D1C30
:103600007F1C02988742F5DBE0030CD521461A9B0C
:10361000199A049800F09EF9451904E01A9A30208E
:10362000199990476D1C0099481E00900029F5DCFF
:1036300008E00D980D990078491C0D911A9A199976
:1036400090476D1C0199481E01900029F1DC63E14F
:103650000928010030313233343536373839616268
:10366000636465660000000030313233343536372C
:1036700038394142434445460000000000F05AF901
:103680004519761C3078002800D0E2E528461BB0AA
:10369000F0BD600700D406271898C01DC108C900F6
:1036A00048680A680831C30FDB071891190001D078
:1036B0009CA108E0210501D59BA104E0E10701D010
:1036C0009AA100E09AA1430011985B081091652827
:1036D0000CD006DC452809D046281DD0472841D10A
:1036E00041E0662818D067283CD13CE00021112F2A
:1036F00001DB112000E0781C0191009008A911A8BD
:10370000FFF7E8FC139905910021119A15927F1C8F
:1037100012980197009150E00120C007039001200A
:10372000019008A9009711A8FFF7D4FC139A1499E7
:1037300005920022119B009212981593059A01920E
:10374000002901D0104602E0791C40180190381A77
:1037500001D5019804E04042401E0090781C019081
:10376000C01B029043E0012F00DA01270021112F36
:1037700001DD112000E038460191009008A911A850
:10378000FFF7A8FC13990591119A00211298159240
:103790000091019721070CD40599B94201DB0199E9
:1037A00000E00191012904DD159A491E515C302980
:1037B00006D0B84201DA011D05DA0121029115E0B7
:1037C0000199491EEDE7002805DC00994118009198
:1037D0000199091A03E0019A411C914200DD01910F
:1037E0000099401A401C02900120C0070390200756
:1037F00006D402990198814202DB0020C043029066
:1038000000206946C87707AF012103980337C9072D
:10381000884224D0022011902B2012900398002877
:103820000CDA404203902D20129007E00A21039801
:10383000FCF7FBFD30317F1E039039701199481E53
:1038400011900029F2DC03980028EFD1791E12981C
:1038500008703078202108404530BF1E387006A817
:10386000C01BC01D039010980078002800D00120D4
:10387000019941180298C01709180398091804986B
:10388000401A401E0490E00306D421461A9B199A60
:10389000049800F05FF8451910980078002803D0CC
:1038A0001A9A199990476D1CE00324D521461A9B5A
:1038B000199A049800F04EF845191CE00098002869
:1038C00007DB00990598884203DD1598405C19993B
:1038D00001E0199930201A9A904700986D1C401CFD
:1038E00000900298401E0290002804D11A9A2E20BF
:1038F000199990476D1C0199481E01900029DDDC43
:1039000005E038781A9A7F1C199990476D1C039925
:10391000481E03900029F4DC21461A9B199A04984A
:10392000ACE600002D0000002B000000200000008D
:1039300000000000F8B5044600251E46174688041E
:1039400004D405E039462020B0476D1C641EF9D52B
:103950002846F8BDFFB50446002581B01E46C803C1
:1039600001D5302700E02027880404D505E038463B
:103970000399B0476D1C641EF9D5284605B0F0BD0B
:103980000A68531C0B60107070470000F8B50446BD
:103990004721400049060D2241181206914253D892
:1039A0003F21490688421BD960007F214008C90594
:1039B000FCF7EFFB0021C943FCF7C7FD074600F009
:1039C000BFF9002C04DA2F4D2D4EA907484001E025
:1039D0002D4E2E4D03218907FCF7DFFB044606E040
:1039E0000026214635460846FCF7D7FB07462849FE
:1039F0003846FCF7D2FB2749FCF776FB3946FCF743
:103A0000CCFB2549FCF770FB3946FCF7C6FB234984
:103A1000FCF76AFB3946FCF7C0FB2149FCF764FB65
:103A2000009039462046FCF7B8FB0099FCF7B5FB3F
:103A3000074629462046FCF757FB3946FCF754FB5E
:103A40003146FCF751FBF8BD39214906884208D2BE
:103A50002046FFF7FCFA042801D1FFF718FB2046A7
:103A6000F8BDFF210906884203D92046FFF700FB75
:103A7000F8BD0120FFF728FBFFF703FBF8BD0000AE
:103A80000000C9BF22AAFDB90000C93F22AAFD3922
:103A900024FE1C3DC78AD83C1E67383D1B93993DC8
:103AA000AFAA2A3EF0B50C4601461D224B00D206B5
:103AB0009F18E52605463606620087B02046B742C5
:103AC0007BD21D27FF06D719B74276D24F0043009D
:103AD0003E0E1A0EB21A1B2A07DD002902DA8548AB
:103AE00007B0F0BD844807B0F0BD1A26F2422FDAC5
:103AF000002807DA002902DA804807B0F0BD8048C4
:103B000007B0F0BD21462846FCF784FB0646FFF7C8
:103B10009EFA042801D1FFF7BAFA2846FFF797FA70
:103B200005462046FFF793FA04463046FFF78FFA22
:103B3000042D01D0052D08D1042C01D0052C04D171
:103B4000002802D10220FFF7BFFA304607B0F0BDCF
:103B50009F4211D9002902DA6A4F6B4E01E06B4F88
:103B60006B4E23462C461D4601220346D2070846CB
:103B70005440504019460BE0002807DA002902DAC9
:103B8000644F654E04E0654F654E01E00026374600
:103B9000421A012352001B069A422FD24840614923
:103BA0000CD5BF20000602903846FCF7EEFA074617
:103BB0005D493046FCF7E9FA0BE053E03F20000690
:103BC00002903846FCF790FA074657493046FCF712
:103BD0008BFA064628460299FCF7DFFA2146FCF7E5
:103BE00083FA009021460298FCF7D7FA2946FCF7A1
:103BF000D0FA0099FCF70EFB044604E02146284663
:103C0000FCF708FB04460146FCF7C7FA4749009059
:103C1000FCF7C3FA4649FCF767FA0099FCF7BDFACE
:103C20004449FCF761FA0099FCF7B7FA4249FCF7FE
:103C30005BFA0099FCF7B1FA4049FCF755FA0546E2
:103C400020460099FCF7A9FA2946FCF7A6FA314666
:103C5000FCF74AFA2146FCF747FA3946FCF744FAE2
:103C600007B0F0BDFF263606B34201D8B24205D9EF
:103C700001462846FFF701FA07B0F0BD2F4607437B
:103C80007F000AD0B3420CD1B2420AD1012292077E
:103C9000904391430D46044618E7FF22D205104396
:103CA000F9E7B3420CD047000AD0B2420ED04E0022
:103CB0000CD05340F0D4002A0EDB9F26F6050DE011
:103CC000FF22D2051143E00FC007FFE6C90FC90765
:103CD000FF22D2051043F9E65F26F6053146284655
:103CE000FCF75BFA054631462046FCF756FA0446D7
:103CF0002946EBE6DB0FC9BFDB0FC93FDB0F49C02D
:103D0000DB0F49400000C9BF22AAFDB90000C93F2E
:103D100022AAFD39000049C022AA7DBA000049400C
:103D200022AA7D3A0060ED3EC30ACE372DAD65BDB7
:103D30008FB8D53D0FB511BE61C84C3EA8AAAABE2A
:103D400070B50546FCF70DFC41000446FF2049080C
:103D5000C005411AC90F07D069004908401AC00FB1
:103D600002D10120FFF7B0F9204670BD000000002D
:103D700000000000002F00000000070007000014F2
:103D80007F147F1400242A7F2A1200231308646200
:103D900000364955225000000007000000001C2298
:103DA0004100000041221C000014083E08140008D5
:103DB000083E0808000000A0600000080808080885
:103DC000000060600000002010080402003E51491D
:103DD000453E0000427F40000042615149460021BB
:103DE00041454B31001814127F10002745454539D5
:103DF000003C4A4949300001710905030036494930
:103E0000493600064949291E0000363600000000E8
:103E10005636000000081422410000141414141433
:103E2000000041221408000201510906003E4955D4
:103E3000592E007C1211127C007F49494936003E00
:103E400041414122007F4141221C007F49494941B3
:103E5000007F09090901003E4149497A007F0808AD
:103E6000087F0000417F4100002040413F01007F6A
:103E700008142241007F40404040007F020C027F36
:103E8000007F0408107F003E4141413E007F090948
:103E90000906003E4151215E007F0919294600466E
:103EA000494949310001017F0101003F4040403F45
:103EB000001F2040201F003F4038403F006314088F
:103EC000146300070870080700615149454300006A
:103ED0007F414100000204081020000041417F00A2
:103EE0000004020102040040404040400000010282
:103EF0000400002054545478007F4844443800386B
:103F00004444442000384444487F003854545418F2
:103F100000087E0901020018A4A4A47C007F080404
:103F200004780000447D4000004080847D00007FD4
:103F3000102844000000417F4000007C04180478F1
:103F4000007C0804047800384444443800FC2424ED
:103F500024180018242418FC007C080404080048D5
:103F60005454542000043F444020003C4040207CF6
:103F7000001C2040201C003C4030403C00442810E5
:103F80002844001CA0A0A07C004464544C440000C1
:103F9000087F41000000007F00000000417F080012
:103FA000000804081008FFFFFFFFFFFFFFFFB3BF7B
:103FB000FFFFFFFDFDFDFFFFDF83D7D7C1DFFF93CD
:103FC000B58BDBFFF3ADC383AD8FCFB38593AFBFAD
:103FD000FFFDFFFFFFFFFFFFFF837DFFFFBDC3FF6F
:103FE000FFFFFFE7C7EFE7FFFFFFEFE7EFFFFF3F51
:103FF000FFFFFFFFF7F7F7F7F7F7FFBFFFFFFFFF41
:10400000FFBFCFF7F9FFFF83BDBD83FFFFFFBB837A
:10401000FFFFFF9B9DADB3FFFF9BBDB583FFFFEF90
:10402000D783DFFFFF93B3B38FFFFF83B5B58BFF5C
:10403000FFFB9BE3FBFFFF83B5AD83FFFFA3ADADAC
:10404000C3FFFFFFB7B7FFFFFFFF37FFFFFFFFE72C
:10405000D7DBBDFFFFE7E7E7E7FFFFBDDBD7E7FF04
:10406000FFFB9DADF3FFE79B85A993E7BFCFE3E39C
:104070008FFFFF83ABABA3DFE79BBDBDBDDBFF8342
:10408000BBBBDBE7FF83ABABBBFFFF83EBEBE3FB30
:10409000C7BBBDBD9BFFFF83EFEF83FFFFFF83BB6C
:1040A000FFFF7F7F7F03FBFFFF83F7CBBFFFFF8314
:1040B000BFBFBFFF8FB38FEF83FFFF83F7EFC3FF58
:1040C000E79BBDBDBBC7FF83EBEBF3FBC7BB9DBD50
:1040D0003BC7FF83EBEB93FFFFB3B5AD8BFFFBFB60
:1040E00083FBFBFBFF83BFBF83FFFFF3CFCFF3FF58
:1040F000FFC3EBC3E3FBFFBBD7C7BBFFFFFB87F7E8
:10410000FBFFFF9BABB3BBFFFFFF017D7FFFFFF911
:10411000F7CFBFFFFF7F7D01FFFFFFFEFEFEFEFF2B
:104120007F7F7F7F7F7FFFFEFEFFFFFFFF9FA7A7B1
:104130008FBFFF81B7B78FFFFF8FB7B7BFFFFF8F6D
:10414000B7B781BFFF8F9797AFFFFFF783F3F3FFF9
:10415000FF0F171727F7FF81F7F78FFFFFF787BFCD
:10416000FFFFFF7F7F7785FFFF81EFC7B7FFFFFF6F
:1041700081BFFFFF87B7B78FB78FF787F7F78FFF3D
:10418000FF8FB7B78FFFF707B7B78FFFFF8FB7B7AF
:104190000FFFF7B78FF7F7FFFFAFA79797FFFFF76F
:1041A00083B7B7FFF787BFBF87BFF7E7DFDFE7FF5B
:1041B000F7C7D7C7C7F7FFB7C7C7B7FFFF675F9F87
:1041C000E7F7FFB797A7B7FFFFFFFF817FFFFFFF6D
:1041D000FF00FFFFFF7F81FFFFFFFFFEFEFDFDFFF2
:1041E00000000000000000000000000000000000CF
:1041F000000000F800000000000000333000000064
:1042000000160E00160E0000000000000000000066
:1042100040C07840C0784000043F04043F040400DC
:10422000007088FC08300000001820FF211E0000EC
:10423000F008F000E018000000211C031E211E0001
:1042400000F00888700000001E2123241927211087
:10425000000000160E00000000000000000000003A
:10426000000000E0180402000000000718204000D1
:1042700000020418E00000000040201807000000C1
:10428000404080F0804040000202010F0102020025
:10429000000000F0000000000101011F0101010009
:1042A000000000000000000000B0700000000000EE
:1042B00000000000000000000001010101010101F7
:1042C000000000000000000000303000000000008E
:1042D0000000000080601804006018060100000063
:1042E00000E010080810E000000F102020100F0060
:1042F000001010F8000000000020203F20200000E7
:10430000007008080888700000302824222130003E
:1043100000300888884830000018202020110E0046
:104320000000C02010F8000000070424243F2400EF
:1043300000F80888880808000019212020110E00C4
:1043400000E0108888180000000F112020110E00D6
:1043500000380808C83808000000003F00000000CE
:104360000070880808887000001C222121221C008F
:1043700000E010080810E0000000312222110F00B8
:10438000000000C0C000000000000030300000004D
:10439000000000C0C0000000000080B070000000FD
:1043A00000008040201008000001020408102000D6
:1043B0004040404040404000040404040404040021
:1043C00000081020408000000020100804020100B6
:1043D000007048080808F0000000003036010000B6
:1043E000C030C828E810E0000718272423140B0069
:1043F0000000C038E0000000203C230202273820E3
:1044000008F8888888700000203F202020110E00C6
:10441000C0300808080838000718202020100800BD
:1044200008F808080810E000203F202020100F00A6
:1044300008F88888E8081000203F20202320180072
:1044400008F88888E8081000203F200003000000DA
:10445000C03008080838000007182020221E02007B
:1044600008F808000008F808203F210101213F203A
:10447000000808F8080800000020203F2020000065
:1044800000000808F8080800C08080807F00000055
:1044900008F888C028180800203F2001263820008E
:1044A00008F8080000000000203F202020203000F5
:1044B00008F8F800F8F80800203F003F003F20000F
:1044C00008F830C00008F808203F200007183F0017
:1044D000E01008080810E0000F10202020100F0046
:1044E00008F808080808F000203F21010101000039
:1044F000E01008080810E0000F18242438504F007E
:1045000008F8888888887000203F2000030C30203D
:1045100000708808080838000038202121221C007B
:10452000180808F8080818000000203F20000000C4
:1045300008F808000008F808001F202020201F00AD
:104540000878880000C83808000007380E0100000D
:10455000F80800F80008F800033C0700073C0300D7
:10456000081868808068180820302C03032C30203D
:104570000838C800C83808000000203F20000000AC
:1045800010080808C8380800203826212020180004
:10459000000000FE020202000000007F40404000D8
:1045A000000C30C000000000000000010638C00010
:1045B00000020202FE000000004040407F000000B8
:1045C0000020100804081020000000000000000077
:1045D00000000000000000008080808080808080DB
:1045E00000020408000000000000000000000000BD
:1045F00000008080808000000019242222223F20B9
:1046000008F8008080000000003F112020110E00FB
:104610000000008080800000000E1120202011008A
:10462000000000808088F800000E112020103F203C
:104630000000808080800000001F222222221300C0
:10464000008080F0888888180020203F202000000B
:104650000000808080808000006B949494936000C0
:1046600008F8008080800000203F210000203F20CB
:1046700000809898000000000020203F20200000CB
:10468000000000809898000000C08080807F0000BB
:1046900008F8000080808000203F24022D30200098
:1046A000000808F8000000000020203F2020000043
:1046B0008080808080808000203F20003F20003F5D
:1046C000008080008080000000203F2100203F20EB
:1046D0000000808080800000001F202020201F001C
:1046E000808000808000000080FFA12020110E004B
:1046F0000000008080808000000E112020A0FF803C
:10470000808080008080800020203F2120000100E8
:10471000000080808080800000332424242419003D
:10472000008080E0808000000000001F202000004A
:104730008080000000808000001F202020103F208B
:10474000808080000080808000010E30080601001B
:1047500080800080008080800F300C030C300F00C0
:1047600000808000808080000020312E0E312000EB
:10477000808080000080808080818E70180601001B
:1047800000808080808080000021302C2221300039
:1047900000000000807C020200000000003F40405A
:1047A00000000000FF00000000000000FF0000000B
:1047B0000002027C800000000040403F000000003A
:1047C00000804040800000800000000000010100E7
:1047D000FFFFFFFFFFFFFFFFFFFFFFFFFFFFFFFFE9
:1047E000FFFFFF07FFFFFFFFFFFFFFCCFFFFFFFF04
:1047F000FFEFF3FDEFF3FDFFFFFFFFFFFFFFFFFF05
:10480000FFBF3F87BF3F87FFFFFBC0FBFBC0FBFF36
:10481000FF8F777703F7CFFFFFE7DFDF00DEE1FFF2
:104820000FF70F7F9FE7FFFFFFCEF3FCE1DEE1FF15
:10483000FF0FF7778FFFFFFFE1DEDCD3E6D8DEEF77
:10484000FFEDF1FFFFFFFFFFFFFFFFFFFFFFFFFF98
:10485000FFFFFF1FE7FBFDFFFFFFFFF8E7DFBFFFE5
:10486000FFFDFBE71FFFFFFFFFBFDFE7F8FFFFFFD5
:10487000BFBF7F0F7FBFBFFFFDFDFEF0FEFDFDFF51
:10488000FFFFFFFF1FFFFFFFFFFEFEFEF0FEFEFE2D
:10489000FFFFFFFFFFFFFFFFFF6F8FFFFFFFFFFF28
:1048A000FFFFFFFFFFFFFFFFFFFEFEFEFEFEFEFF1E
:1048B000FFFFFFFFFFFFFFFFFFCFCFFFFFFFFFFF68
:1048C000FFFFFFFF3FC7FBFFFF9FE7F8FFFFFFFF73
:1048D000FF1FEFF7F7EF1FFFFFF0EFDFDFEFF0FF56
:1048E000FFFFEFEF07FFFFFFFFFFDFDFC0DFDFFFAF
:1048F000FF8FF7F7F7F70FFFFFCFD7DBDDDECFFF37
:10490000FFCFF7F7F7778FFFFFE7DFDEDEDDE3FFAF
:10491000FFFF7FBFCF07FFFFFFF9FADBDBC0DBDB69
:10492000FF07777777F7F7FFFFE6DFDFDFEEF1FFCF
:10493000FF1FEF77776FFFFFFFF0EEDFDFDFE0FFB6
:10494000FFE7F7F77797E7FFFFFFFFC1FEFFFFFFE6
:10495000FF8F77F7F7778FFFFFE3DDDEDEDDE3FF25
:10496000FF0FF7F7F7EF1FFFFFFEEDDDDDEEF0FFC6
:10497000FFFFFF3F3FFFFFFFFFFFFFCFCFFFFFFF27
:10498000FFFFFF7FFFFFFFFFFFFFFF1FFFFFFFFF97
:10499000FFFF7FBFDFEFF7FFFFFEFDFBF7EFDFFF5E
:1049A000FFBFBFBFBFBFBFFFFFFDFDFDFDFDFDFFA3
:1049B000FFF7EFDFBF7FFFFFFFDFEFF7FBFDFEFF3E
:1049C000FF8FB7F7F7778FFFFFFFFFCFC8FFFFFF1E
:1049D0003FCF37D717EF1FFFF8E7D8D7D0D7E8FF7B
:1049E000FFFF3FC71FFFFFFFDFC3DCFDFDD8C7DFB1
:1049F000F7077777778FFFFFDFC0DFDFDFEEF1FFAD
:104A00003FCFF7F7F7F7C7FFF8E7DFDFDFEFF7FF95
:104A1000F707F7F7F7EF1FFFDFC0DFDFDFEFF0FF8C
:104A2000F707777717F7EFFFDFC0DFDFDCDFE7FFA0
:104A3000F707777717F7EFFFDFC0DFFFFCFFFFFF18
:104A40003FCFF7F7F7C7FFFFF8E7DFDFDDE1FDFF57
:104A5000F707F7FFFFF707F7DFC0DEFEFEDEC0DF78
:104A6000FFF7F707F7F7FFFFFFDFDFC0DFDFFFFF2D
:104A7000FFFFF7F707F7F7FF3F7F7F7F80FFFFFF1D
:104A8000F707773FD7E7F7FFDFC0DFFED9C7DFFFC4
:104A9000F707F7FFFFFFFFFFDFC0DFDFDFDFCFFF3D
:104AA000F70707FF0707F7FFDFC0FEC1FEC0DFFF04
:104AB000F707CF3FFFF707F7DFC0DFFFF8E7C0FFDB
:104AC0001FEFF7F7F7EF1FFFF0EFDFDFDFEFF0FF8C
:104AD000F707F7F7F7F70FFFDFC0DEFEFEFEFFFF79
:104AE0001FEFF7F7F7EF1FFFF0EFD7D7CFAFB0FF0C
:104AF000F707777777778FFFDFC0DFFFFCF3CFDF34
:104B0000FF8F77F7F7F7C7FFFFC7DFDEDEDDE3FFD5
:104B1000E7F7F707F7F7E7FFFFFFDFC0DFFFFFFF6C
:104B2000F707F7FFFFF707F7FFE0DFDFDFDFE0FF63
:104B3000F78777FFFF37C7F7FFFFF8C7F1FEFFFFE3
:104B4000F707FF07FF07F7FFFFFCC1FEC1FCFFFFF0
:104B5000F7E7977F7F97E7F7DFCFD3FCFCD3CFDF73
:104B6000F7C737FF37C7F7FFFFFFDFC0DFFFFFFFE4
:104B7000EFF7F7F737C7F7FFDFC7D9DEDFDFE7FF6C
:104B8000FFFFFF01FDFDFDFFFFFFFF80BFBFBFFF78
:104B9000FFFBC73FFFFFFFFFFFFFFFFEF9C73FFF20
:104BA000FFFDFDFD01FFFFFFFFBFBFBF80FFFFFF58
:104BB000FFFFFBFDFDFBFFFFFFFFFFFFFFFFFFFF11
:104BC000FFFFFFFFFFFFFFFF7F7F7F7F7F7F7F7FF5
:104BD000FFFDFDFBFFFFFFFFFFFFFFFFFFFFFFFFED
:104BE000FFFF7F7F7FFFFFFFFFE6DBDBEDC0DFFF27
:104BF000EF0FFF7F7FFFFFFFFFC0EEDFDFEEF1FF74
:104C0000FFFFFF7F7F7FFFFFFFF1EEDFDFDFEEFFC4
:104C1000FFFF7F7F7F6F0FFFFFE0DFDFDFEFC0DF92
:104C2000FFFF7F7F7F7FFFFFFFE0DBDBDBDBE8FF5A
:104C3000FF7F7F1F6F6FDFFFFFDFDFC0DFDFFFFF63
:104C4000FFFF7F7F7F7F7FFFFF946B6B6B6C9FFF0E
:104C5000EF0FFF7F7F7FFFFFDFC0DEFFFFDFC0DFE3
:104C6000FF7F6767FFFFFFFFFFDFDFC0DFDFFFFFC3
:104C7000FFFFFF7F6767FFFFFF3F7F7F7F80FFFFB3
:104C8000EF0FFFFF7F7F7FFFDFC0DBF9D6CFDFFFB6
:104C9000FFEFEF07FFFFFFFFFFDFDFC0DFDFFFFFFB
:104CA0007F7F7F7F7F7F7FFFDFC0DFFFC0DFFFC0B1
:104CB0007F7FFF7F7F7FFFFFDFC0DEFFFFDFC0DF83
:104CC000FFFF7F7F7F7FFFFFFFE0DFDFDFDFE0FFB2
:104CD0007F7FFF7F7FFFFFFF7F006EDFDFEEF1FF53
:104CE000FFFFFF7F7FFF7FFFFFF1EEDFDF6E007FC3
:104CF0007F7F7FFF7F7F7FFFDFDFC0DEDFFFFEFF85
:104D0000FFFF7F7F7F7F7FFFFFCCDBDBDBDBE6FF0F
:104D1000FF7F7F1F7F7FFFFFFFFFFFE0DFDFEFFFF2
:104D20007F7FFFFFFF7F7FFFFFE0DFDFDFEFC0DF81
:104D30007F7F7FFF7F7F7FFFFFFCF3CFF3FCFFFFD1
:104D40007F7FFF7F7FFF7F7FFEF1CFF3F8C7F9FE04
:104D5000FF7F7F7FFF7F7FFFFFDFCEF1D1CEDFFFC1
:104D60007F7F7FFFFF7F7F7FFF7E7987E7F9FEFFF1
:104D7000FF7F7F7F7F7F7FFFFFDECFD3DDDECFFF33
:104D8000FFFFFFFFFF03FDFDFFFFFFFFFEC1BFBFF2
:104D9000FFFFFFFF00FFFFFFFFFFFFFF00FFFFFF21
:104DA000FDFD03FFFFFFFFFFBFBFC1FEFFFFFFFFD2
:104DB000FFFDFEFDFDFBFDFFFFFFFFFFFFFFFFFF10
:104DC0000000000000000040E31280466001000087
:104DD0000200000000008040E21200466001000076
:104DE0000300000000000041E31280456001000064
:104DF0000100000000008041E11200456001000058
:104E0000564F0000D12E0000000000007B4F000034
:104E1000D92E000000000000404F0000E12E0000ED
:104E200000000000284F000000000000AC0020201F
:104E300004000000180000000030000008076300B4
:104E400002000000B70B000001000000000000009D
:104E50000000000008000000010000000000000049
:104E60000000000000000000000000001000000032
:104E70000001000003000000000000003400C441F5
:104E8000080000000000000000007A436F92E44236
:104E900060000000010000000000FA436F926442CD
:104EA000600000000200000000007A446891E441C4
:104EB00060000000030000000000FA4475936441A4
:104EC000600000004E4F0000B12F00000000000005
:104ED000744F0000B92F000000000000354F0000A3
:104EE000C12F0000000000006F4F00000000000014
:104EF000F8002020694F00000000000094002020EE
:104F0000614F000000000000000000007961773A66
:104F1000202000252E3266202000726F6C6C3A2013
:104F20000070697463683A00696D75363630726274
:104F3000006C6564006C65645F746F67676C650026
:104F400062757A7A65725F746F67676C65006C650D
:104F5000645F6F66660062757A7A65725F6F666617
:104F60000053657474696E67004465627567005428
:104F700061736B006C65645F6F6E0062757A7A6551
:104F8000725F6F6E0062757A7A657200526E6E792A
:104F90000025642E257300494D5520697320496E04
:104FA00069742E2E2E000000314F0000000000001A
:104FB000C4002020854F0000000000007C0020205D
:104FC000E04F00000000202010010000A030000091
:104FD000F05000001001202070410000B8300000A7
:104FE0000000000000000A4000000008000000006F
:104FF00000000000000000000000000000000A4067
:10500000000000020000000000000000000000009E
:105010000000000000200A40000010000000000016
:1050200000000000000000000000000000000A4036
:105030000040000000000000000000000000000030
:105040000000000000200A400000000200000000F4
:10505000000000000000000000000000004E000002
:1050600003000000F8002020000000000000000005
:10507000ED2E0000244E000001000000E000202082
:105080000000000000000000ED2E00000000000005
:10509000000000009400202001000000012F00000B
:1050A000712F0000C44E000003000000F800202013
:1050B0000000000000000000ED2E000001000000D4
:1050C000E84E0000030000000000000000000000A7
:1050D00000000000ED2E0000A84F000002000000BC
:1050E000E00020200000000000000000ED2E000085
:04000005000000C136
:00000001FF
