:020000040000FA
:1000000018472020D5000000D9000000DB000000C8
:1000100000000000000000000000000000000000E0
:10002000000000000000000000000000DD000000F3
:100030000000000000000000DF000000B9360000F2
:10004000E3000000E3000000E3000000E300000024
:10005000E3000000E3000000E3000000E300000014
:1000600000000000E3000000E300000000000000CA
:1000700000000000E300000029390000F138000012
:10008000E136000001370000C1360000E300000047
:10009000E3000000E300000000000000000000009A
:1000A000E3000000E300000000000000000000008A
:1000B000E300000000000000E3000000E300000097
:1000C0000348854600F0ECFC004800473D3D000039
:1000D0001847202003480047FEE7FEE7FEE7FEE75B
:1000E000FEE7FEE7C100000005B508461A460ABD56
:1000F00000B500F004F8FFF7F7FF10BCA646C20DEC
:100100004002400A0124E4052043FF2AD2B200D96C
:100110004042013AFE2A01D27E3A7047002820462A
:1001200000D540427E3A920080327047C40FE40707
:1001300004D5002D00D00130404203D4013A00180C
:1001400012D0FBD5813201D1803005D2803003D26C
:10015000002D0FD04000013AFE2A06DA013207DDF9
:10016000400AD205104320437047FF20C005FAE73C
:10017000002070470506EDD1400A8002EBE700B58C
:10018000FFF7B6FF80018901D41A07DA1A4605463F
:1001900064422041202C07D3002000BD0D462141A0
:1001A000202C01D3002100BD64422034A54000BDB5
:1001B0000122D207514030B5FFF7E1FF401803D1CB
:1001C000C82A01DB01204007FFF7B0FF30BD83B232
:1001D0000C14634304148DB26C431B1984B26C433A
:1001E0002504240C1B19001409144843C002D90625
:1001F0000D435911401870470122D307184200D00F
:10020000181A194200D0591A401A02D000DC524282
:100210001046704730B5FFF76BFF1A440432FFF702
:10022000D6FFD1E730B5FFF763FF0125002801D5E0
:10023000404249420024002901D54942E443C82BE9
:100240000EDA5242C82A0BDAD2184023091A00D219
:1002500001445B410944F9D318016040B4E700242C
:100260000846FF22F9E730B5FFF742FF002801D525
:1002700040424942C82BF2DA5242C82AEFDAD21879
:1002800026A4083C030DE45CA300434324025B1551
:1002900063431B13E41A2346444324145C431B02A8
:1002A000E4131B1BDC014343DB13200C43431B14EF
:1002B000E01A07300009B2E730B5FFF720FF010070
:1002C000CDD4501000D34900043216A4043C4B0D89
:1002D000E45CC80960436043001360434013240298
:1002E000241A20464043000CCB09584300136043B6
:1002F0004015241A20464043030B4B430005000DD4
:100300000D0B68431844C013604364030014201AA3
:100310005210CED340084900CBE7C046F1D8C3B253
:10032000A4988D84F1DAC9BBB0A69E97918B868282
:10033000002110B5FFF7E3FE0A44173A07DB072A4E
:1003400017DDC117C9430120C007484010BD524204
:10035000202A00DB2022104110BD002110B5FFF73C
:10036000CEFE0A440100F0D4173AF0DBC143082A5C
:10037000EBDC904010BD002130B51D22521A002543
:1003800022E7002130B50028F7DA1E22521AC507ED
:10039000400819E70025A4460DE0002902DC05E02D
:1003A000002A03DA891B7F42121901E08919121B06
:1003B00064466743C01B10CB640800D20135064673
:1003C0002E410F462F4164087047C0B5FFF7E2FF8A
:1003D000FFF7E6FFFCD386138F13D2105643574323
:1003E0006446674336133F13C01B8919C0BDC0B5AF
:1003F000FFF7D0FFFFF7D1FFFCD3002902DC8919FA
:10040000121B01E0891B121976106410F5D1EDE77B
:1004100030B51821FFF78DFF484C2409001BFDDA89
:100420000019FDD4820065003E480021A24202DB93
:10043000521B4042FAE7D20040A30124FFF7C5FF58
:100440000931002200230025FFF770FEFFF74CFE64
:1004500095E700B5FFF7DCFF084600BD30B5FFF7B4
:10046000D7FF01E730B51821FFF763FF01142E4ACB
:100470005143C9140131491002B442012B48414390
:10048000521A2B4800213AA3CC43FFF79EFF0844A1
:1004900004BC74E730B5FFF732FE010015D42549DE
:1004A000FFF795FE511001D30131401002B401460F
:1004B000204B9B00C018C91A00222DA3D443FFF77C
:1004C00096FF114604BC130059E7FF22FBE730B545
:1004D000FFF7E0FF462BF8DC5B42462B06DC1648B4
:1004E000584308310911081A052248E7C043ECE7D0
:1004F00030B5FFF744FE401049100022002802DA10
:10050000404249420D4A0DA30124FFF770FF1046F7
:100510000A4A841802D2841A00D4A01A0138002290
:100520002DE7C046B49D6E1315170000FF422E162E
:10053000CA159E2CB9C2930530E4620151ED87645F
:100540000CCE583BF8755B1F4CDDEA0FEC56FD07EF
:10055000B8AAFF0354F5FF01ACFEFF00D4FF7F00F3
:10056000FCFF3F00FCFF1F0000001000020008001D
:10057000ECA94F46EDA94F46F45DB1201C8915103A
:1005800044AC020845AC020864550004AC0A000201
:10059000540100012C0080000400400004002000F1
:1005A000000010000000080003000800D2B201E0C3
:1005B0000270401C491EFBD270470022F6E710B5BE
:1005C00013460A4604461946FFF7F0FF204610BDC1
:1005D000F8B502464A40D40F42004B0052085B086F
:1005E0009A4202D20246084611464A0023D0C30D61
:1005F0004A00DDB2120EAD1A202D35DA490201266D
:10060000490AF6058A19002C00D0524220214F1BBE
:100610001146B9402A411018C20D9A4221D0002C2F
:1006200017D0012D08DCDA05801AD20F8019D20705
:10063000DBB200F09DF9F8BDDA05801A0123400015
:100640001B06C01880185A428018CA0F1043490070
:1006500007E04908C2071143DA05801A80194008EB
:10066000801800F07DF9F8BD61000122511A001BCD
:10067000F7E70122D2075140AAE70122D2075040F2
:10068000A6E7024670B54A40D30FDB0740002DD0E5
:100690004A002AD0010E140E000212020919400A63
:1006A000520A8418E50104465443000A120A2E0433
:1006B0005043A4194219200CC543AA18120C012555
:1006C000AD03521C521912047F39240400D0521C6D
:1006D000104301D44000491EC2B20C06C0092018C4
:1006E000401C4008802A02D003E0002070BD400872
:1006F0004000002900DA0020184370BD70B50246A2
:100700004A40D50F40004A00ED0740085208002833
:1007100014D0002A12D0C40DD30D41020120C0050F
:100720005202490A520AE41A091812187D349142F9
:1007300001D3641C00E04900002C01DA002070BDE8
:100740000023914201D3891A03434008490000283D
:10075000F7D100290AD0914202D10121C90705E051
:10076000914201D2012101E00121C943E005C018F5
:10077000401900F0F5F870BDF0B51FB488B00B99C2
:100780000998002448400999C00F49004908099177
:10079000C0070B990090490049080B9109990898E6
:1007A000A64608431CD00B990A98084318D009980C
:1007B00001244000420D4800410D09982405000322
:1007C000000B204309900B980003000B20430B9073
:1007D00050181C494018002201901446104605E0AC
:1007E000002001460DB0F0BD032801DA034600E009
:1007F00003239C46C11A0AAE0AE05F0008ADED5B18
:100800004F00F75B7D430027AA187C41491C5B1E03
:100810006145F2DD410004AB5A522104120C0A4337
:10082000240C401C0828DFDB0198029000997046D8
:1008300001910090059B049A0799069800F0DEF854
:10084000D0E700000DFCFFFF0122D207002800DBEB
:10085000101A002900DB511A814201D8012070478B
:10086000002070470122D207002800DB101A00295F
:1008700000DB511A814201D30120704700207047EC
:100880000122D207002800DB101A002900DB511AD0
:10089000814201D901207047002070470122D20710
:1008A000002800DB101A002900DB511A814201D117
:1008B0000120704700207047C217C10F504010B58B
:1008C0004018CA079623002100F052F810BDC20F4D
:1008D000410040020123400ADB05D207090EC0187F
:1008E0007F2901DA00207047962903DC9623591AE4
:1008F000C84001E096398840002AF4D04042704751
:10090000C20FD207400040080BD0C10D0723DB0106
:10091000C91840020905400A1143C20840071143A3
:100920007047002001467047CB0FDB07490010B528
:10093000490802460A4307D00A0D07240903E401C7
:10094000090B121B002A01DC002010BDC900440F56
:100950000C43C100E018D205801800F001F810BD6A
:10096000002904DA401C490001D1400840007047CA
:1009700070B40024050C05D11024000402D1002914
:1009800021D01124050E01D100020834050F01D138
:100990000001241D850F01D18000A41C002801DB6B
:1009A0004000641C002908D020252E1B0D46F54070
:1009B000A14000D001212943084301061B1B000A66
:1009C000DB1D02D5002070BC7047DB0518188018AD
:1009D0000029F8DA401C4900F5D170BC40084000FD
:1009E000704710B5002B08DA0024401C61419218B2
:1009F0005B411A4301D14008400010BDF0B51FB45F
:100A000082B005460C0003D0084603F0EBF902E083
:100A100003F0E8F92030024600902146284600F015
:100A200057F8049B059A04460F46184311430843A0
:100A300014D0184610431BD0009840210A1A1846BB
:100A4000059900F055F805460E46009A0599049858
:100A500000F03EF8084305D0012004E02046394666
:100A600007B0F0BD0020C11705430E432C433743A8
:100A700000990E986305401A7905E40A00220C4398
:100A8000FD0A0A3002D500200146E9E701051019E8
:100A900069410C9C0D9D00196941FFF7A2FFDFE73A
:100AA0001CB5094800900948019005460126009CA4
:100AB00005E0E36807CC33430C3C98471034AC4264
:100AC000F7D3FFF701FB0000DC3E0000FC3E000016
:100AD00010B5202A04DB0146203A9140002010BDC9
:100AE000914020239C1A0346E3401943904010BDD7
:100AF00010B5202A04DB0846203AD040002110BD62
:100B00000B46D340D0402024A21A914008431946F6
:100B100010BD30B58C180278401C13071B0F01D193
:100B20000378401C120906D10278401C03E00578C6
:100B30000D70401C491C5B1EF9D101E00B70491C73
:100B4000521EFBD1A142E6D3002030BD811E091FF9
:100B500000BFFCD2704784B00390029101920398C9
:100B600000680090009801998843009000980299CD
:100B7000019A114008430399086004B0704784B09B
:100B800003900291019203980068009000980199E7
:100B90008843009000980299019A114008430399F4
:100BA000086004B0704782B00190009100980199EC
:100BB00095225201885002B0704782B00190009196
:100BC0000098019995225201885002B0704782B076
:100BD000019000910098019995225201885002B02D
:100BE0007047000081B0009000988100444A885806
:100BF00001235B061843885001B0704782B0019012
:100C0000009100980199024A885002B07047C0468E
:100C1000D012000081B0009000990120C2027948F2
:100C2000885001B07047C04610B584B0069C039050
:100C30000291019200930298019908430099084398
:100C40000699084303490843039989002C4A8850B0
:100C500004B010BD8100040081B0009000988100B4
:100C6000274A8120885001B07047C04681B000906B
:100C700000988100224A0020885001B07047C04689
:100C800082B00190009100981649084301998900AB
:100C90001B4A885002B0704782B0019000910098C2
:100CA0001049084301998900154A885002B07047DD
:100CB00010B584B0079C069C0390029101920093AA
:100CC0000298019908430099084306990843079937
:100CD00008430449084303998900094A885004B02D
:100CE00010BDC0468000040082B0019000910098C1
:100CF0008021084301998900014A885002B0704759
:100D00000480424082B00190009101982721C901DE
:100D100040580099084002B0704782B0019000919D
:100D200001982721C90140580099084002B0704736
:100D300081B0009000995E4A5E48885001B07047CB
:100D400082B001900091009801990C4A885002B03D
:100D50007047C04682B00190009100980199074AFF
:100D6000885002B07047C04682B001900091009850
:100D70000199024A885002B07047C04690120000A4
:100D800082B00190009100980199074A885002B002
:100D90007047C04682B00190009100980199024AC4
:100DA000885002B07047C046B012000081B0009079
:100DB000009909204202885801231B0218438850D9
:100DC00001B0704781B000900099084A885801230B
:100DD0001843885001B0704781B000900099034AD1
:100DE000885804231843885001B070472812000027
:100DF00081B0009000990120C2020248885001B0E1
:100E00007047C0460100002610B5002A0FD091237C
:100E10005B01C3180020DC692405240F05D00C5C9D
:100E20001C60401C8242F6D1104680B210BD0020EA
:100E300080B210BD494A835880210B4383508018EB
:100E40000F221202436813400122D2029342F7D1CB
:100E500002688A430260704781B0009000980A4996
:100E600040580F2108404142484101B07047C046F8
:100E700081B000900098044940580F2109020840B1
:100E80004142484101B070473C12000081B00090DF
:100E9000009802494058C0B201B070471C120000CF
:100EA00081B000900099024A0248885001B0704712
:100EB00004080000030000B181B000900099404A8E
:100EC0000020885001B0704780B584B00191014680
:100ED0000198039102A90880039809225202801800
:100EE000098803225202FFF736FE04B080BD70B5B8
:100EF0000A780C231A400124240305196E689E43C6
:100F0000B2186A604978072211400359934359186F
:100F1000015170BD80B584B00191014601980391E3
:100F200002A9088003980D4A801809880722120236
:100F3000FFF711FE04B080BD80B584B00191014679
:100F40000198039102A908700398044A801809784F
:100F50000722FFF700FE04B080BDC0463812000033
:100F600082B001906846017000780199014A88506A
:100F700002B070472412000010B586B001920246FC
:100F800001980592049103AA107002A803800598A5
:100F9000094940180499490012781143074AFFF79C
:100FA000EEFD05980649401802990904C91D054A35
:100FB000FFF7E5FD06B010BD10120000FF070000AE
:100FC000141200000700FF0FF0B584B001242202C4
:100FD000344B19680392914319606E490D686D0492
:100FE000FCD5457E25409E69A64374199C6120244A
:100FF000045D03252C40DE69AE433419DC611F4CCF
:10100000256805262660466A37681F6276685E6234
:1010100007262E402660C4697F252D02DE69AE4377
:101020006406640C3419DC610768456882680092C4
:10103000C66802690192426902929A69104C144092
:101040003A07120B2D03ADB2AA183243009D2D07AB
:101050002D0D1543019A1543029A1543007E28432E
:10106000084A0240101998611868039A10431860E2
:1010700008688005FCD504B0F0BDC04600134040B0
:101080008D00F0FF72FF0F000649086801229043AF
:101090000860704703490868012212029043086003
:1010A0007047C04608010B40394908680122120305
:1010B000104308607047C04681B001466846017021
:1010C00000780249086001B07047C04608030B4031
:1010D00080B582B0014601A8018001880F2002027C
:1010E0002B48FFF738FD02B080BDC046F0B5124B6B
:1010F0001D46083D2E680124A6432E6003263603B4
:1011000030401F68B743381818601868FF26B0438E
:10111000C9B2401818602868204328601868210761
:10112000002A06D0084318601A480168C905FCD592
:10113000F0BD88431860F0BD10010B4080B582B04F
:10114000014601A80170017802480322FFF703FD60
:1011500002B080BD00010B4080B582B0014601A8FD
:10116000017001780A483022FFF7F5FC02B080BD1B
:1011700007498860074802689202FCD501221204E0
:101180000B6813430B600168C906FCD57047C04665
:1011900004010B4004020B4010B585B000930B46D0
:1011A0000099049003A80380029201AB197004997E
:1011B0001A7892008A18AF4C084911510299049A82
:1011C0001B789B00D2183123DB01D15000880449E1
:1011D00008430499D74A885005B010BD01000200A9
:1011E0001200001081B000900099024A012088503E
:1011F00001B070470811000082B001900091009B7F
:101200000199D94A88581843885002B07047C0469F
:1012100081B0009000990120C202D948885001B0E5
:101220007047C04681B00090009881214901405824
:10123000C0B201B0704781B0009000980321C9028C
:10124000405801B070470000F0B5BA4A82183B4BD5
:10125000C31808794E793A4D764C002E23D02028B9
:1012600004D00526F601002803D003E0354E0028FF
:1012700000D18826576F2F4037435767976F2F400D
:1012800037439767566B26405663966B26409663A6
:101290000026566596658F26F6435F6837405F6087
:1012A0009F6837409F608E79096820280BD00028FE
:1012B00019D1491E5160D76E2F4088210F43D76640
:1012C0001746703719E0491E5160D16E29401D4FF5
:1012D0003943D166116F294039431167012149070C
:1012E000194D174609E049085160D76E2F40052176
:1012F000C9010F43D766174670373C682C400C4332
:101300003C60D16A4B4C2140D162116B214011638A
:101310000021D16411658F21C943D46F0C40D4677B
:101320001C680C401C600643BD2030401168074B10
:101330000B40C018801C1060F0BDC046841800002F
:1013400024493E0001040000FFFFFFCF4000FFCF13
:10135000B0B54A686C4BC250764A80180A78222A87
:1013600058D8930001A4E3589F46C0460B140000D0
:10137000151400000B1400001514000015140000D3
:1013800015140000151400001514000015140000B9
:1013900015140000151400001514000015140000A9
:1013A000151400001514000015140000F9130000B6
:1013B00015140000F91300001514000015140000A6
:1013C0001514000015140000151400001514000079
:1013D0001514000015140000151400001514000069
:1013E000151400001514000015140000F913000076
:1013F00015140000F913000003231B0704689C4325
:1014000001235B07E318036004E003231B07046860
:101410009C4304600B69C360CB68054C1C40C36AE5
:10142000044D1D402B19C362097A11430160B0BD00
:10143000777702008888FDFF81B000900099714A9B
:101440007148885001B0704782B0019000910098B7
:10145000019911221202885002B0704710B507237B
:101460009B04194092008018024A84589C436118DA
:10147000815010BD3018000010B5029CA400001966
:1014800011431943014A815010BDC0465018000055
:1014900092008018014A81507047C0461018000021
:1014A00010B50122120383180C789C604B7883508E
:1014B0008978014A815010BD0C11000010B586B02A
:1014C00001930B4601460198059104A90B8003ABDB
:1014D0001A8002AA10800598164C001909881B88EA
:1014E000194312881143024AFFF735FB06B010BDBD
:1014F00080FF000082B00190009100980199024A9B
:10150000885002B07047C0460818000082B00190B1
:101510000091009801990322D202885002B07047CE
:1015200081B000900099034A8858012318438850DD
:1015300001B070470418000081B00090009911209C
:101540000202885801231843885001B070470000F8
:1015500082B001900091009B0199034A885818437A
:10156000885002B07047C0462810000081B000903B
:1015700000990120C2020248885001B07047C0465D
:101580000100002681B00090009881214901405857
:10159000C0B201B070470000B0B5112212028358EA
:1015A0000124A34383500B888C781C438B882343EE
:1015B000094C1C408358094D1D40631983508B7999
:1015C000CC791C43097A21437E2319408018426854
:1015D0009A4351184160B0BD18670000E798FDFFBD
:1015E00081B00090009802494058C0B201B07047E5
:1015F0002411000081B000900099024A02488850EE
:1016000001B0704704080000030000B180B584B049
:1016100003900291019203980B49401802990B4ADA
:10162000FFF799FA03980A49401801993F22FFF7FA
:1016300092FA0399074A8818895801221140FFF746
:101640008AFA04B080BDC04610110000FFFF000000
:10165000141100000411000010B5012212038318B8
:101660000C789C604978815010BD80B582B00190A3
:101670000091019811210902401800990322D20318
:10168000FFF769FA02B080BD034A801802681206AB
:10169000FCD481617047C0460811000080B586B057
:1016A0009B480078092827D1FFE79E480078012849
:1016B00015D1FFE7012081059C48FFF761FB99499F
:1016C0000020029008709848007800F031F99348A3
:1016D0002021FEF772FF02988D4908700BE09149B6
:1016E0000020019008708D482021FEF766FF0198C8
:1016F00087490870FFE709E1864805A901F01CFC4D
:10170000002801D1FFE701E1814800780090082816
:1017100000D9FAE00098810001A040588746C046F1
:10172000451700005F17000089170000B31700007D
:10173000DD170000F11700002118000075180000E7
:101740009D18000005A80078AA2807D1FFE7059892
:10175000724908706E4901200870FFE7D6E005A8BD
:101760000078552807D1FFE705986C49487068490B
:101770000220087007E069482021FEF71EFF644937
:1017800000200870FFE7C1E005A80078012807D114
:10179000FFE70598614988705D490320087007E0FC
:1017A0005E482021FEF709FF594900200870FFE735
:1017B000ACE005A80078012807D1FFE70598574954
:1017C000C87053490420087007E054482021FEF7F0
:1017D000F4FE4F4900200870FFE797E005984F4955
:1017E00008710598504908704949052008708DE036
:1017F00005A8007838280AD1FFE74A490120087077
:1018000005984649487142490620087007E0434858
:101810002021FEF7D2FE3E4900200870FFE775E068
:101820000598411F3C4801700078002819D4FFE753
:1018300039480078182814DCFFE705983749887183
:1018400035480078002804D1FFE7314908200870A6
:1018500006E03349002008702D4907200870FFE793
:1018600007E02E482021FEF7A8FE29490020087035
:10187000FFE74BE005992A480278284BD218D1712E
:101880000178491C0170007823490978884204DBFB
:10189000FFE71F4908200870FFE737E004A9002090
:1018A000087003A903200870FFE703A800781A490D
:1018B0000978C91D88420EDAFFE703A801781748A6
:1018C000415C0498401804A90870FFE70398401C85
:1018D00003A90870E9E704A8007805A909788842F7
:1018E0000AD1FFE705980C4909780C4A8918C87194
:1018F00007490920087007E008482021FEF75DFE2F
:10190000034900200870FFE700E0FFE706B080BD54
:10191000080720201C032020070720203901202051
:1019200006072020140720201507202000200A4049
:1019300080B584B003A9087000200290019003983C
:1019400086306946087001A9AA20087055204870A1
:1019500001208870039ACA700871802048710520A0
:1019600088710098C8710348082202F005F904B094
:1019700080BDC0460020104080B586B0034605A853
:10198000037004AB0293197003920078182141434D
:10199000184840181021405EFEF78EFF0190039812
:1019A0001549FEF76EFE01460198FEF7A7FE029963
:1019B0000978CA001149885006B080BD80B584B04E
:1019C000024603A8027002AA019211700078182141
:1019D0004143084840184069FEF76EFF0649FEF78C
:1019E0008DFE01990978CA0004498918486004B03D
:1019F00080BDC046000020200000B6443C042020EA
:101A000080B582B00190019802F060F902B080BD0B
:101A100080B582B00190019900910846FEF731FE31
:101A200001467F20C005FEF724FEFEF733FD014688
:101A30000098FEF75DFD02B080BD000080B584B067
:101A40000290019102F07AF80090FFE702980D49A8
:101A50004058800600280DD4FFE702F06FF8009987
:101A6000401A0199884204D3FFE703A901200870B6
:101A700004E0EBE703A900200870FFE703A8007863
:101A800004B080BD1812000080B58AB000F0D4F810
:101A9000002188480190405EFEF70EFF7B21C905BA
:101AA000FEF7EFFD5149FEF793FD01460198504ABC
:101AB000089211600221405EFEF7FEFE4D49029140
:101AC0004968FEF71BFE089A0146019851600421FF
:101AD000405EFEF7F1FE02994968FEF70FFE089A94
:101AE0000146019891600621405EFEF7E5FE0299ED
:101AF0004968FEF703FE089A01460198D160082163
:101B0000405EFEF7D9FE0299C968FEF7F7FD3A4933
:101B100003910969FEF7ADFD089A0146019811612C
:101B20000A21405EFEF7C8FE0299C968FEF7E6FD8D
:101B300003994969FEF79DFD089A01460198516194
:101B40000C21405EFEF7B8FE0299C968FEF7D6FD8B
:101B500003998969FEF78DFD014608988161006946
:101B600001F0D8F9014608980161406901F0D2F905
:101B7000014608984161806901F0CCF908998861B3
:101B8000486805904868049088688968FEF779FD80
:101B90000499024605980692FEF773FD0699FEF732
:101BA00017FD08990790C868C968FEF76AFD07998C
:101BB000FEF70EFDFEF76EFC0146089809910999A3
:101BC0004068FEF79BFD01460898416009998068CE
:101BD000FEF794FD0146089881600999C068FEF7F8
:101BE0008DFD0899C8600AB080BDC0460000C8419C
:101BF0005C012020880120209801202080B588B039
:101C000001920346019807AA1370069105A9029153
:101C10000880084803906A210491012301F00FFF16
:101C2000029B03980499069A1B8801F0CDFE08B028
:101C300080BDC04600000F4080B586B0202002A9BC
:101C400000910E22FFF7DAFF009A50780002117817
:101C5000401818490880D07800029378C01808818D
:101C6000507900021379C0184881D0790002937925
:101C7000C0188881507A0002137AC0184880D07A40
:101C80000002937AC0188880507B0002127B801873
:101C9000C880888801AA1080C8888880019840423E
:101CA000C88048891080888948810198404288818D
:101CB00006B080BD7801202010B58AB0FFE701F0A2
:101CC0003DFF099009987D490968401A002801D50F
:101CD000FFE7F1E001F032FF143078490860FFE7D8
:101CE00000200890FFE70898042800D9E4E008984D
:101CF000182205924243724806908118805849681C
:101D0000FFF700F8059902460698531E9A4107AB63
:101D10001A70089A51434018007CC007002811D15E
:101D2000FFE707A80078C00700280BD1FFE7089855
:101D30001821414362484018807D01210840012854
:101D400015D0FFE70898182141435D484018407DB1
:101D50000121084001280AD0FFE7089818214143D3
:101D600057484018007DC007002809D0FFE70898B1
:101D70001821414352484118002048610861FFE79B
:101D80000898182141434E484018007CC00700289D
:101D900022D1FFE707A80078C00700281CD0FFE782
:101DA00008991822039210464843454904910B189C
:101DB00001209875089C13466343CB185874089B00
:101DC0005A438918C87401F0B9FE039A0499089B14
:101DD0005A4389188860FFE708981821414338481A
:101DE0004018007CC007002818D0FFE707A800783B
:101DF000C007002812D1FFE708981821019141433C
:101E00002F48029041180120887401F097FE019A32
:101E10000299089B5A438918C860FFE7089818215F
:101E2000414327484018807DC007002835D1FFE78F
:101E300008981821414322484118C8688968884297
:101E400001D1FFE728E00898182141431C484118B8
:101E5000C8688968401A80084A280ED8FFE70898A1
:101E600018210A4642431648831801225A75089AD7
:101E7000514341188868C8600DE0089818210A4647
:101E800042430F48831801221A75089A514341189A
:101E90008868C860FFE7FFE7FFE707A800780899B0
:101EA00018224A4306498918012210400874FFE7A6
:101EB0000898401C089016E70AB010BDB401202015
:101EC0003000202080B59CB01B901B98FEF7F4FCDE
:101ED0006549FEF713FC1A901A9800F0D7F8634989
:101EE000149108680E9048680D908868C968FEF7DC
:101EF000C8FB0D9902460E980F92FEF7C2FB0F9990
:101F0000FEF766FB01460846FEF762FB1499139044
:101F1000486811904868109088688968FEF7B1FB9E
:101F20001099024611981292FEF7ABFB1299FEF738
:101F30004FFB01460846FEF74BFB01467F20C005DC
:101F40001890FEF796FB01461398FEF7D1FA149904
:101F5000474A90600868169088681590C868496874
:101F6000FEF78FFB1599024616981792FEF789FB2C
:101F70001799FEF77EFB01460846FEF729FB1899E4
:101F800019901998FEF760FC002804D1FFE77F2024
:101F9000C0050C900FE019983649FEF763FC002845
:101FA00003D1FFE733480B9002E019980B90FFE74D
:101FB0000B980C90FFE70C9819901998FFF728FDE3
:101FC0002B490A9148602949049108680290C86821
:101FD000019048688968FEF754FB0199024602980F
:101FE0000392FEF74EFB0399FEF7F2FA014608460C
:101FF000FEF7EEFA049908908868069088680590C4
:10200000C868C968FEF73DFB059902460698079225
:10201000FEF737FB0799FEF7DBFA01460846FEF7A5
:10202000D7FA01467F20C005FEF723FB014608983A
:10203000FEF75EFA01460A98016000680E490991B0
:10204000FEF71FFB099902460A9802604068FEF7F6
:1020500018FB099902460A9842608068FEF711FB56
:102060000A9988601CB080BD00007A44C401202019
:10207000B8012020000080BFE12E654280B582B00B
:1020800001900198FFF71EFF02B080BD80B5C6B079
:102090004590FFF7F9FC564840680021FEF7FEFB2B
:1020A000002811D0FFE7524880680021FEF7F6FBB8
:1020B000002809D0FFE74E48C0680021FEF7EEFB7C
:1020C000002801D0FFE736E24A49359148682C9054
:1020D000C8682B9008688968FEF7D3FA2B990246E6
:1020E0002C982D92FEF7CDFA2D99FEF7C2FA0146F3
:1020F0000846FEF76DFA3599449008682F904868B5
:102100002E908868C968FEF7BCFA2E9902462F986F
:102110003092FEF7B6FA3099FEF75AFA01460846B1
:10212000FEF756FA35994390086832900868319066
:1021300048684968FEF7A5FA319902463298339209
:10214000FEF79FFA3399FEF794FA35993490886830
:102150008968FEF796FA01463498FEF78AFA3599AF
:102160003690C868C968FEF78CFA3699FEF730FADF
:102170004290F24841683A9181683991C06838903C
:102180000020002806D1FFE73A9801F023FD00283F
:1021900008D12BE03A98FEF7B3FB01F00DFD0028C3
:1021A00024D0FFE70020002806D1FFE7399801F08E
:1021B00011FD002808D119E03998FEF7A1FB01F0C4
:1021C000FBFC002812D0FFE70020002806D1FFE723
:1021D000389801F0FFFC00280ED107E03898FEF790
:1021E0008FFB01F0E9FC002806D1FFE7A3E1C04620
:1021F0005C012020C4012020399801904298009071
:1022000038984399FEF73DFA0099024601980292E8
:10221000FEF737FA0299FEF72CFA419038980490AD
:10222000449803903A984299FEF72BFA0399024694
:1022300004980592FEF725FA0599FEF71AFA4090E0
:102240003A9807904398069039984499FEF719FAFE
:102250000699024607980892FEF713FA0899FEF7C6
:1022600008FA3F90B6482A90006A4199FEF709FAA9
:102270002A9A459912690992FEF703FA0999FEF71D
:10228000A7F901462A980161006A4099FEF7F9F919
:102290002A9A459952690A92FEF7F3F90A99FEF7CC
:1022A00097F901462A984161006A3F99FEF7E9F9DA
:1022B0002A9A459992690B92FEF7E3F90B99FEF77A
:1022C00087F92A9A9061D069419912690C92FEF7B8
:1022D000D8F90C99FEF77CF9014698481E900069E0
:1022E000FEF776F91E992A9A0861D06940995269D9
:1022F0000D92FEF7C6F90D99FEF76AF901461E9890
:102300004069FEF765F91E992A9A4861D0693F999C
:1023100092690E92FEF7B5F90E99FEF759F901464A
:102320001E988069FEF754F91E9902462A988A6120
:10233000426810920A690F9280684969FEF7A1F914
:102340000F99024610980123DB075A401192FEF7BD
:1023500098F901461198FEF78CF91E9902462A98C1
:102360001292C0688969FEF78CF901461298FEF74F
:1023700080F93F2109062091FEF783F91E99024654
:102380002A983E92026814920A69139280688969B9
:10239000FEF777F91399024614981592FEF771F932
:1023A0001599FEF715F91E9902462A981692C068EB
:1023B0004969FEF766F901461698FEF75AF9209921
:1023C000FEF75FF91E9902462A983D92026818921C
:1023D0004A69179240688969FEF753F917990246CE
:1023E00018981992FEF74DF91999FEF742F91E99BE
:1023F00002462A981A92C0680969FEF742F91A99AA
:10240000FEF7E6F82099FEF73CF91E9902462A9855
:102410003C9202681C928A691B9240684969FEF7E7
:1024200030F91B9902461C981D92FEF72AF91D9956
:10243000FEF7CEF81E9902462A981F928068096915
:10244000FEF71FF901461F98FEF713F92099FEF7D2
:1024500018F92A9A3B903E98459912682192FEF706
:1024600010F92199FEF7B4F82A9A10603D98459921
:1024700052682292FEF705F92299FEF7A9F82A9AE6
:1024800050603C98459992682392FEF7FAF8239998
:10249000FEF79EF82A9A90603B984599D26824925C
:1024A000FEF7EFF82499FEF793F82A99C8600868B8
:1024B00026900868259048684968FEF7E2F8259953
:1024C000024626982792FEF7DCF82799FEF780F857
:1024D0002A99289088688968FEF7D3F82899FEF72A
:1024E00077F82A992990C868C968FEF7CAF8299927
:1024F000FEF76EF8FDF7CEFF01462A98379137991F
:102500000068FEF7FBF801462A9801603799406899
:10251000FEF7F4F801462A98416037998068FEF783
:10252000EDF801462A9881603799C068FEF7E6F811
:102530002A99C860FFE746B080BDC0465C012020F4
:10254000C401202081B000200090FFE700980128FE
:1025500015D8FFE70098182242435B498918030108
:10256000084AD018D2588A60C2684A6182680A61F3
:102570004068C860FFE70098401C0090E6E701B0A3
:102580007047C046E400202080B58CB002460BA8FE
:1025900002700AAA11800078022801D3FFE790E0B8
:1025A00000210AA8405E012830DBFFE700210AA8CD
:1025B000405E4849884204D3FFE70AA9464808809C
:1025C000FFE70BA8079000781821089141433E4887
:1025D000099041188868C968FEF7BCFB079A0899FA
:1025E000099812785143411808694969FEF7E5FADC
:1025F000079A0899099812785143421840580023C5
:102600000AA9C95E1279FEF743FF5AE000210AA821
:10261000405E002831D5FFE700210AA8405E2B4923
:10262000884204DCFFE70AA929480880FFE70BA8D5
:1026300004900078182105914143234806904118E1
:1026400008694969FEF786FB049A0599069812788D
:10265000514341188868C968FEF7AFFA049A059992
:102660000698127851434218405800230AA9C95EBF
:1026700049421279FEF70CFF22E00BA80190007886
:102680001821029141431048039041188868C96895
:10269000FEF760FB019A02990398127851434118A2
:1026A00008694969FEF756FB0199029A039809786F
:1026B0004A43811880580A790021FEF7E9FEFFE7B6
:1026C000FFE70CB080BDC04604012020EFD8FFFF1B
:1026D000F0D80000112700001027000080B586B058
:1026E00005900491059800680499FDF7C2FF0390D6
:1026F000FFE703981649FEF7A7F8002806D1FFE781
:1027000003981649FDF764FF0390F2E7FFE703988B
:102710001049FEF7A7F8002806D1FFE703980E49F5
:10272000FDF756FF0390F2E70598006802900599BF
:1027300000200860059803990122D207514000F05B
:102740000FF80190029805990860019806B080BDC5
:1027500000003443000034C30000B4430000B4C39D
:1027600080B5B0B02E902D912E983D21405C002870
:1027700003D1FFE700202F903AE22E983E21405CE3
:10278000002807D0FFE72E9800682D99FDF771FF0C
:102790002C9006E02D982E990968FDF76AFF2C9081
:1027A000FFE72C982E99C8602E983F21405C0028A6
:1027B00010D0FFE72E99C8680122D2079043896A9A
:1027C000FEF75EF8002804D1FFE72E9840682F90AE
:1027D0000EE2FFE72E983C21405C2B90002805D0AC
:1027E000FFE72B98012800D116E1FCE12E9841214A
:1027F000405C002819D0FFE72E99C8680122D20753
:102800009043896BFEF73CF8002809D1FFE72E982A
:102810002A90C1688068FDF7DBFE2A99886003E092
:102820002E9900208860FFE708E02E982990C16863
:102830008068FDF7CDFE29998860FFE72E9840213A
:10284000405C002829D0FFE72E998868496BFDF786
:10285000FBFF002804D1FFE72E98406B289018E07A
:102860002E998868496B0122D2075140FDF7FAFF83
:10287000002807D1FFE72E98406B0121C907484087
:10288000279003E02E9880682790FFE727982890EC
:10289000FFE728982E998860FFE72E984221405C38
:1028A000002829D1FFE72E992691C8692190C86890
:1028B0002390086A8968FDF7E4FE2399024621986F
:1028C0002292FDF7DEFE2299FDF782FE269902464E
:1028D000239825924A6A24920969FDF7CAFE0146A7
:1028E0002498FDF7CEFE2599FDF772FE26994860E3
:1028F0002E99C868086129E02E992091C8691C901A
:10290000C8681B90086A8968FDF7BBFE1B990246E0
:102910001C981D92FDF7B5FE1D99FDF759FE014665
:1029200020981F91416A1E912D998069FDF7A1FEA3
:1029300001461E98FDF7A5FE01461F98FDF748FECB
:10294000209948602D982E998861FFE72E984321A1
:10295000405C002829D1FFE72E994868C96AFDF735
:1029600073FF002804D1FFE72E98C06A1A9018E080
:102970002E994868C96A0122D2075140FDF772FFBB
:10298000002807D1FFE72E98C06A0121C9074840F7
:10299000199003E02E9840681990FFE719981A9053
:1029A000FFE71A982E99486035E02E9918914868EB
:1029B000096BFDF70DFE1899C96AFDF745FF002860
:1029C00004D1FFE72E98C06A179020E02E99169147
:1029D0004868096BFDF7FCFD1699C96A0122D20708
:1029E0005140FDF73FFF002807D1FFE72E98C06A4E
:1029F0000121C9074840159006E02E994868096BE7
:102A0000FDF7E6FD1590FFE715981790FFE717987B
:102A10002E994860FFE7E7E02E984221405C0028AD
:102A200040D1FFE72E991491C8690E90C8681190A3
:102A300009691091FDF71DFE1199024614980D9237
:102A4000006AFDF71EFE0D9902460E980F92FDF7E3
:102A500018FE0F99FDF7BCFD1099024614981392C9
:102A6000406A12900846FDF7B3FD01461198FDF744
:102A700000FE14994969FDF7ABFD01461298FDF778
:102A800000FE1399FDF7A4FD014614984068FDF778
:102A90009FFD149948602E99086948612E99C8686D
:102AA00008613AE02E990C91C8690890C8680690B0
:102AB0000969FDF7DEFD069902460C980792006A47
:102AC000FDF7DFFD0799024608980992FDF7D9FD49
:102AD0000999FDF77DFD01460C980B91416A0A9119
:102AE0002D998069FDF7C5FD01460A98FDF7C9FDDE
:102AF00001460B98FDF76CFD01460C984068FDF708
:102B000067FD0C9948602E99086948612E99C8683C
:102B100008612D982E998861FFE72E984321405C2B
:102B2000002829D1FFE72E994868C96AFDF78CFE75
:102B3000002804D1FFE72E98C06A059018E02E996E
:102B40004868C96A0122D2075140FDF78BFE002870
:102B500007D1FFE72E98C06A0121C90748400490B9
:102B600003E02E9840680490FFE704980590FFE783
:102B700005982E99486035E02E9903914868096BB5
:102B8000FDF726FD0399C96AFDF75EFE002804D112
:102B9000FFE72E98C06A029020E02E9901914868C4
:102BA000096BFDF715FD0199C96A0122D207514051
:102BB000FDF758FE002807D1FFE72E98C06A0121D3
:102BC000C9074840009006E02E994868096BFDF758
:102BD000FFFC0090FFE700980290FFE702982E9913
:102BE0004860FFE700E0FFE72E9840682F90FFE77E
:102BF0002F9830B080BD000080B586B005AA107057
:102C000004910498A249FDF71FFE002803D1FFE7B5
:102C10009F4803900FE004981249FDF723FE002817
:102C200003D1FFE70F48029002E004980290FFE70B
:102C300002980390FFE70398049005A8007801909C
:102C4000002804D0FFE70198012804D007E0049889
:102C50008849086004E004988A49086000E0FFE7BA
:102C600006B080BD0000C0C080B588B000200790CD
:102C70004D4800780590002808D0FFE70598012806
:102C80001BD0FFE70598022847D066E079483D2130
:102C9000405C002810D0FFE77A483D21405C0028C6
:102CA0000AD0FFE7002104910846FFF7A5FF049929
:102CB0000120FFF7A1FFFFE750E074483D21405C91
:102CC000002829D0FFE73A4801687048FFF748FD1F
:102CD00007903848022100F01DFF014606A8017048
:102CE0000078C007002804D0FFE76849002088600A
:102CF000FFE707987F21C9050391FDF769FC0146AD
:102D00000020FFF779FF03980799FDF7B2FC014611
:102D10000120FFF771FFFFE720E05E483D21405CA6
:102D2000002819D0FFE7214801685A48FFF7D6FC70
:102D3000079007987F21C9050291FDF749FC0146DC
:102D40000020FFF759FF02980799FDF792FC014612
:102D50000120FFF751FFFFE700E0FFE745483D2175
:102D6000405C00281ED0FFE746483D21405C00281B
:102D700018D0FFE71048019001683E48FFF7F0FCCB
:102D8000FDF7A5FD01460020FFF7FEFB01988168D5
:102D90003C48FFF7E5FCFDF79AFD01460120FFF7EF
:102DA000F3FBFFE708B080BDE8012020B801202038
:102DB000340420202C0420203C042020F0B587B0CF
:102DC000FFF7C0FB2B4C2C48E0612C49216200210D
:102DD000069161623D22029201230393A3543C2792
:102DE000E3553E26A355422504956155244BE362E5
:102DF000244CE0612448206203986162A054E055AD
:102E0000A0556155E362214CE16121626162A154E8
:102E1000E155A055412561551D490091E1624021D0
:102E200001916054E06A216AFDF768FC009B019AF9
:102E3000069960630498215402988121C905216094
:102E4000069C14490591CC610C624C620C540398A9
:102E5000CC5588554C55CB628854C86A096AFDF731
:102E60004DFC049A0599034606984B63885407B0B5
:102E7000F0BDC0465002202000409C45A4509D4318
:102E800000401C46940220205C4F4243D802202080
:102E90000000C0400C02202070B584B003AC20704C
:102EA00002A80090017019480190FEF7C4F901468C
:102EB0000098227818231D465543154A5519298232
:102EC00025781946694351181025495F26781D4613
:102ED000754355191226AD5F4E1925781946694379
:102EE0005518696989196961257819466943511826
:102EF000098A24786343D2185182007800F032FFA7
:102F000001980021FEF702FB04B070BD00000940EB
:102F10000000202080B582B001900198FDF7F0FC00
:102F2000034A044BFDF728FCFDF7FEFC02B080BD10
:102F3000D1A05DD046DF913F80B584B00290019171
:102F4000029800F028F8002804D0FFE703A9002029
:102F500008700FE0029901200302CA58895C019AA7
:102F600011700299C958491CC9B2029AD15003A9DB
:102F70000870FFE703A8007804B080BD81B000901E
:102F800000990120020200208850009941229200FD
:102F9000885001B0704781B000900098012109026B
:102FA00040580099412292008958401A41424841B4
:102FB00001B0704781B000900098412189004058CD
:102FC000401CC0B20099012212028958401A4142A5
:102FD000484101B0704780B584B0029001A80170EB
:102FE0000298FFF7E7FF002804D0FFE703A90020BD
:102FF00008700FE001980299412292008B58C85442
:1030000002988058401CC0B20299885003A9012040
:103010000870FFE703A8007804B080BD80B582B0D7
:103020000F4910480190FEF717FB01980E49FEF773
:10303000B3FA01980021FEF718FB019802210B2238
:10304000FEF7E4FA019801218902FEF781FA0F20C8
:10305000032100F0F5FD0198FEF76EFA02B080BD85
:103060003E3E000000801040403E000080B582B02F
:10307000104911480190FEF7EFFA01980F49FEF749
:103080008BFA01980021FEF7F0FA019802210B2239
:10309000FEF7BCFA0198012100918902FEF758FA67
:1030A00000990E2000F0CCFD0198FEF745FA02B021
:1030B00080BDC0464A3E0000002010404C3E00004B
:1030C00080B582B00B490C480190FEF7E9F90198F0
:1030D0000A49FEF73DF9019801210091FEF78CF8AD
:1030E0000099102000F0ACFD0198FEF77BF802B0CB
:1030F00080BDC046563E0000004008405C3E0000D7
:1031000080B590B00920FDF7B1FD0A20FDF7AEFDB6
:103110001020029004210391FDF7E6FD029970480A
:103120000F90FDF76BFD03991120FDF7DDFD0F9862
:103130002021FDF763FD012008900721FDF7A0FD88
:10314000002009900621FDF79BFD03990898099B33
:103150000193C0040B9000900F2004901A46FDF7D5
:10316000A7FD0399099B0B98019300900E200590F1
:103170001A46FDF79DFD0498FDF734FD0598FDF70F
:1031800031FD099B0B9801930090022007900321C9
:103190000E911A46FDF78CFD099B0B980E99019331
:1031A0000090052006901A46FDF782FD0798FDF76E
:1031B00019FD0698FDF716FD07991420FDF794FDFB
:1031C00007991520FDF75CFD07992A20FDF78CFD76
:1031D00007992E20FDF754FD3920FDF73DFD2B20EA
:1031E000FDF73AFD089809990B9B009102040A9299
:1031F0003B20FDF719FD09990A9A0B9B0091362097
:10320000FDF712FD09990A9A0B9B00912F20FDF7FB
:103210000BFD09990A9A0B9B00912320FDF704FDF1
:1032200009990A9A0B9B00913720FDF7FDFC0B20B2
:10323000FDF712FD0C20FDF70FFD2520FDF70CFD1D
:103240002620FDF709FD09990A9A0B9B00910D2094
:10325000FDF7EAFC09990A9A0B9B00911220FDF7F1
:10326000E3FC09990A9A0B9B00911320FDF7DCFC03
:1032700009990A9A0B9B00912120FDF7D5FC099929
:103280000A9A0B9B00912220FDF7CEFC09990A9A1D
:103290000B9B00912420FDF7C7FC09990A9A0B9B10
:1032A00000912D20FDF7C0FC3120FDF7D5FC0E98D4
:1032B00001040D91C1480C90FDF742FD0C980D9949
:1032C000FDF79CFC0F980749FDF76DFC0E990F98D0
:1032D000FDF736FD0F980449FDF790FC10B080BD56
:1032E00000200A40000044080300440880B582B072
:1032F0000B49B4480190FEF7D3F801980949FEF74D
:1033000027F8019801210091FDF776FF009911201F
:1033100000F096FC0198FDF765FF02B080BDC04645
:10332000703E0000743E000080B582B01249A6488D
:103330000190FDF7DCFD019803214902FDF7C4FD72
:103340000198FDF733FD0198FDF7B6FD019827219F
:10335000FDF706FE019800210091FDF7EDFD0099B3
:103360000198FDF7D7FD0198FDF736FD0198FDF7AF
:1033700029FD02B080BDC046883E000080B582B005
:103380000A49D6480190FEF78BF801980849FDF7E5
:10339000DFFF01980121FDF72FFF1220022100F02D
:1033A0004FFC0198FDF71EFF02B080BD8A3E000071
:1033B000903E000080B582B000200190FDF77CFEB9
:1033C000012000904002FDF783FE0198FDF7B6FE54
:1033D000FDF75AFEFDF75EFE009A032000030A2166
:1033E000FDF784FE0648FDF7EFFD1020FDF7B4FE63
:1033F000FDF75AFE0198FDF7BBFE02B080BDC04646
:10340000A43E000080B5024800F02EF980BDC04601
:103410008038010080B584B00F4969480390FEF7F9
:103420003FF80398492149020191002302931A466B
:10343000FDF7B2FE0199029A03980123FDF7ACFE55
:1034400003980649FEF756F80398FDF7CBFE03985C
:10345000FEF766F804B080BDCC3E0000FFFF000020
:1034600080B582B0124959480190FDF740FD01989E
:1034700003214902FDF728FD0198FDF797FC01980B
:10348000FDF71AFD01980921FDF76AFD0198002159
:103490000091FDF751FD00990198FDF73BFD019862
:1034A000FDF79AFC0198FDF78DFC02B080BDC04687
:1034B000CF3E000080B500F02DF8FFF721FEFFF7AA
:1034C00079FF00F087F8FFF7A5FFFFF70FFFFFF781
:1034D000F7FDFFF753FFFFF727FFFFF7C1FFFFF7E8
:1034E0009DFDFFF7C3FDFFF78DFF0649B8220020C1
:1034F000885405499C23C8540449C8540449885435
:1035000080BDC04648062020A80520204C0420206D
:10351000EC04202080B58CB028480190FDF708FC11
:10352000B8480290FDF704FC4C480390FDF784FF77
:1035300023480490FDF780FF78480590FDF77CFF55
:103540006E480690FDF778FF64480790FDF774FF1A
:103550001D480890FDF7A4FC1C480990FDF7A0FC4D
:10356000EF480A90FEF746F819480B90FEF742F82C
:103570000198FDF74FFB0298FDF74CFB0398FDF710
:1035800047FE0498FDF744FE0598FDF741FE0698B6
:10359000FDF73EFE0798FDF73BFE0898FDF728FC77
:1035A0000998FDF725FC0A98FDF7E0FF0B98FDF759
:1035B000DDFF1020FDF7CAFA0CB080BD00000A4004
:1035C000000009400080864000200F4000000F40AE
:1035D0000020104080B586B01F4920480590FDF7B7
:1035E0005FFF05981E49FDF72FFE05980023029303
:1035F00019461A46FDF762FF029B059800931022B8
:1036000001921946FDF738FF029A05981146FDF719
:1036100025FF029A059813490391FDF739FF019A96
:10362000029B05980121049100911946FDF724FFA2
:103630000299049A0598FDF711FF0399049A0598D9
:10364000FDF726FF0598FDF7CDFD05980321FDF751
:10365000FBFE06B080BDC046D13E00000020864083
:10366000D43E00001127000080B584B0029002987B
:10367000401E000E002803D0FFE70120039011E058
:103680000298401E0949086000200190C0430321B0
:1036900000F0D6FA019806490860064A0721116031
:1036A0000390FFE7039804B080BDC04614E000E03B
:1036B00018E000E010E000E080B500F043FA80BDC3
:1036C00080B50648FDF7AEFD012805D1FFE700F003
:1036D0009FF8FFF7C9FA00E0FFE780BD00008640D1
:1036E00080B50648FDF79EFD012804D1FFE70520BF
:1036F000FEF786F900E0FFE780BDC04600400840C5
:1037000080B50648FDF78EFD012804D1FFE70520AE
:10371000FEF7B4FC00E0FFE780BDC04600808640B5
:1037200080B584B0354800780190002808D0FFE7C4
:10373000019801280AD0FFE7019802280CD025E063
:10374000012081042F48FDF742FA20E00120810486
:103750002C48FDF709FB1AE0FFE700F0EFF90390B2
:10376000039827490968401A002801D5FFE743E07C
:1037700000F0E4F97D218900401821490860FFE745
:10378000012081041F48FDF705FB00E0FFE71E480C
:1037900000780090002808D0FFE7009801280AD0A0
:1037A000FFE7009802280CD025E00120C10615484B
:1037B000FDF70DFA20E00120C1061248FDF7D4FA0A
:1037C0001AE0FFE700F0BAF9029002980F49096881
:1037D000401A002801D5FFE70EE000F0AFF97D2187
:1037E000C900401809490860FFE70120C1060548E3
:1037F000FDF7D0FA00E0FFE704B080BD39042020D7
:103800002804202000200A403804202024042020FE
:1038100080B584B030490020087003A9087002A95F
:103820000870FFE702A8007806282DD8FFE702A855
:103830000078C2002C48811880584968FDF76DFA5D
:1038400000280AD0FFE702A80278284901208854FE
:1038500021490878401C087005E002A80278234935
:1038600000208854FFE702A801782048405C0299B4
:10387000491C41430398401803A90870FFE70298C8
:10388000401C02A90870CDE713480078002809D130
:10389000FFE712480068124908601248022100F050
:1038A00044F917E003A80078FDF706F801900A48EC
:1038B0000078FDF701F801460198FCF71FFF01466B
:1038C000074801600068054908600648012100F0CA
:1038D0002CF9FFE704B080BD05072020E000202080
:1038E000340420202C042020A800202009072020B8
:1038F00080B582B00A48FDF745FE0B280CD1FFE7E2
:103900000748FDF76DFE014601A8017001780548E2
:10391000402200F029F800E0FFE702B080BDC04679
:1039200000801040E901202080B582B00948FDF7F1
:1039300029FE0B280BD1FFE70648FDF751FE014693
:1039400001A8017001780748FFF745FB00E0FFE799
:1039500002B080BD0020104080B50248FFF70EFB8A
:1039600080BDC0461C03202010B583B0029001A882
:10397000017069460A7000780D280AD1FFE7029AA3
:103980000F490B780020D0540E4B01221A7008709A
:1039900014E00B48007869460978491E884208DA25
:1039A000FFE701980299064C2278531C2370885433
:1039B00003E0034900200870FFE7FFE703B010BDF4
:1039C000300420203801202010B586B00091014637
:1039D0000098059104A90870039202AA1380059823
:1039E000097813880122FDF7C7FA01A90020088091
:1039F000FFE701A8008802A90988884215DAFFE7D5
:103A0000FFE70598FDF728FA002801D0FFE7F8E75F
:103A10000598FDF73BFA039901AA12888854FFE73D
:103A20000198401C01A90880E3E705986421FEF78E
:103A300005F8002801D0FFE7FFE706B010BD10B57C
:103A40008AB0099008A80170079206A80380008830
:103A5000012804DBFFE70020002805D103E0012056
:103A6000002801D1FFE70DE006A80188012000220F
:103A700003920129049001DB03980490049800F05C
:103A800021F9FFE709986421FDF7D8FF002801D04C
:103A9000FFE73DE00998079906AA02921288FDF710
:103AA000B3F9029A05A90880099808A9097813882A
:103AB0000022FDF761FAFFE705A8008806A909883A
:103AC000884219DAFFE7FFE70998FDF7D1F90028E6
:103AD00001D0FFE7F8E70998079905AA0192138832
:103AE000C918069AD21A92B2FDF78EF901990246C8
:103AF000059880180880DFE709986421FDF79EFF8C
:103B0000002801D0FFE703E00998FDF793F9FFE7EC
:103B10000AB010BD82B00190009101980068009930
:103B20000840411E884102B0704782B00190009168
:103B300000980199086002B07047000004480068CE
:103B40007047C04602490868401C08607047C0467C
:103B50001007202080B582B00F20009000F044F8BC
:103B6000009800F057F80E20019000F03DF8019801
:103B700000F050F802B080BD80B584B0039002918F
:103B800001A80280694600200880FFE76846008897
:103B900001A9098888420DDAFFE7039802996A466D
:103BA0001288895CFDF770FDFFE70098401C6946AC
:103BB0000880EBE704B080BD82B0019100900198CD
:103BC0004000400D0249401A411E884102B0704732
:103BD000FF07000081B000900098C00DC0B2FF3810
:103BE000411E884101B0704781B0014668460170AE
:103BF00000214056002809D4FFE7684601781F20BD
:103C000001400120884002490860FFE701B0704789
:103C100080E200E081B00146684601700021405614
:103C2000002809D4FFE7684601781F2001400120E1
:103C3000884002490860FFE701B0704700E100E0FA
:103C400070B582B0024601A8027000910021405672
:103C5000002816D4FFE7002401A908570322D34304
:103C60001840174A805809578C07E50EFF24AC40CE
:103C7000A043009CA401E4B2AC402043194088500A
:103C80001AE001A908780F24204008380322D34302
:103C900018400A4A8058002549578D07EE0EFF2527
:103CA000B540A843009DAD01EDB2B5402843214089
:103CB000083919408850FFE702B070BD1CED00E0E4
:103CC00000E400E081B00090FFE7FEE780B586B039
:103CD00005900598FCF7F0FD1749FCF70FFD0490DF
:103CE0003E4800780390002804D0FFE7039801289D
:103CF0000FD01DE0002002900121FFF7CDF80299BE
:103D00000846FDF75BFE0299049A0846FDF734FE6B
:103D10000FE0012001900021FFF7BEF8019908464D
:103D2000FDF74CFE0199049A0846FDF725FE00E0D8
:103D3000FFE706B080BDC04600007A4480B582B07F
:103D400000200190FFF7B6FBFFF738F8FFF704FEFD
:103D5000FFF700FFFFE7FDF7AFFFFFF7E1FCFDF71F
:103D60009DFCF8E710B586B005A9019108701B48C5
:103D7000049000781821029141431948039040585B
:103D800000210091FCF788FF0099029A0398049B98
:103D90001B785A4380188068FCF77EFF019B029ACB
:103DA00003991C781046604308581B785A438918B9
:103DB0004968FCF771FF019B029A03991C78104631
:103DC0006043081880681B785A438918C968FCF753
:103DD00063FF04990598087006B010BD0407202001
:103DE000000020202021020C01D010211046020AE0
:103DF00001D010460839020901D01046091F820877
:103E000001D01046891E420801D0881E7047081A4A
:103E1000704700000000000002E008C8121F08C13F
:103E2000002AFAD17047000070470000000000002F
:103E3000002001E001C1121F002AFBD170470400DD
:103E4000000018000000003000000400000018000E
:103E500000000030000008076300000002000000BE
:103E6000F900000001000000000000000000000058
:103E70000807630002000000F301000001000000D9
:103E800000000000000000000800080763000000B8
:103E90000200000087130000010000000000000085
:103EA0000000000001000000000000000000000011
:103EB00000000000000000001000000000010000F1
:103EC00003000000000000003400C441080700089F
:103ED000000807001127000000000100003F00005B
:103EE0000000202038010000120B0000783F000085
:103EF00038012020E0450000303E000000000000B6
:103F000042018207C206421F42054220E205430ADF
:103F100040021308430A4002120234200A400214ED
:103F20001005140A40004044200A40021302640AAB
:103F30004080550A400001550A400002550A4000E1
:103F400010550A400020550A400080330A404220A4
:103F500058804000200A400165200A4002330A4090
:103F60004201330A4032020416208640051820869A
:083F7000400100000000000008
:04000005000000C136
:00000001FF
