:020000040000FA
:10000000204A2020D5000000D9000000DB000000BD
:1000100000000000000000000000000000000000E0
:10002000000000000000000000000000DD000000F3
:100030000000000000000000DF0000001D4700007D
:10004000E3000000E3000000E3000000E300000024
:10005000E3000000E3000000E3000000E300000014
:1000600000000000E3000000E300000000000000CA
:1000700000000000E3000000E3000000554900001C
:10008000454700006547000025470000E3000000E9
:10009000E3000000E300000000000000000000009A
:1000A000E3000000E300000000000000000000008A
:1000B000E300000000000000E3000000E300000097
:1000C0000348854600F028FF00480047ED50000037
:1000D000204A202003480047FEE7FEE7FEE7FEE750
:1000E000FEE7FEE7C100000005B508461A460ABD56
:1000F00000B500F004F8FFF7F7FF10BCA646C20DEC
:100100004002400A0124E4052043FF2AD2B200D96C
:100110004042013AFE2A01D27E3A7047002820462A
:1001200000D540427E3A920080327047C40FE40707
:1001300004D5002D00D00130404203D4013A00180C
:1001400012D0FBD5813201D1803005D2803003D26C
:10015000002D0FD04000013AFE2A06DA013207DDF9
:10016000400AD205104320437047FF20C005FAE73C
:10017000002070470506EDD1400A8002EBE700B58C
:10018000FFF7B6FF80018901D41A07DA1A4605463F
:1001900064422041202C07D3002000BD0D462141A0
:1001A000202C01D3002100BD64422034A54000BDB5
:1001B0000122D207514030B5FFF7E1FF401803D1CB
:1001C000C82A01DB01204007FFF7B0FF30BD83B232
:1001D0000C14634304148DB26C431B1984B26C433A
:1001E0002504240C1B19001409144843C002D90625
:1001F0000D435911401870470122D307184200D00F
:10020000181A194200D0591A401A02D000DC524282
:100210001046704730B5FFF76BFF1A440432FFF702
:10022000D6FFD1E730B5FFF763FF0125002801D5E0
:10023000404249420024002901D54942E443C82BE9
:100240000EDA5242C82A0BDAD2184023091A00D219
:1002500001445B410944F9D318016040B4E700242C
:100260000846FF22F9E730B5FFF742FF002801D525
:1002700040424942C82BF2DA5242C82AEFDAD21879
:1002800026A4083C030DE45CA300434324025B1551
:1002900063431B13E41A2346444324145C431B02A8
:1002A000E4131B1BDC014343DB13200C43431B14EF
:1002B000E01A07300009B2E730B5FFF720FF010070
:1002C000CDD4501000D34900043216A4043C4B0D89
:1002D000E45CC80960436043001360434013240298
:1002E000241A20464043000CCB09584300136043B6
:1002F0004015241A20464043030B4B430005000DD4
:100300000D0B68431844C013604364030014201AA3
:100310005210CED340084900CBE7C046F1D8C3B253
:10032000A4988D84F1DAC9BBB0A69E97918B868282
:10033000002110B5FFF7E3FE0A44173A07DB072A4E
:1003400017DDC117C9430120C007484010BD524204
:10035000202A00DB2022104110BD002110B5FFF73C
:10036000CEFE0A440100F0D4173AF0DBC143082A5C
:10037000EBDC904010BD002130B51D22521A002543
:1003800022E7002130B50028F7DA1E22521AC507ED
:10039000400819E70025A4460DE0002902DC05E02D
:1003A000002A03DA891B7F42121901E08919121B06
:1003B00064466743C01B10CB640800D20135064673
:1003C0002E410F462F4164087047C0B5FFF7E2FF8A
:1003D000FFF7E6FFFCD386138F13D2105643574323
:1003E0006446674336133F13C01B8919C0BDC0B5AF
:1003F000FFF7D0FFFFF7D1FFFCD3002902DC8919FA
:10040000121B01E0891B121976106410F5D1EDE77B
:1004100030B51821FFF78DFF484C2409001BFDDA89
:100420000019FDD4820065003E480021A24202DB93
:10043000521B4042FAE7D20040A30124FFF7C5FF58
:100440000931002200230025FFF770FEFFF74CFE64
:1004500095E700B5FFF7DCFF084600BD30B5FFF7B4
:10046000D7FF01E730B51821FFF763FF01142E4ACB
:100470005143C9140131491002B442012B48414390
:10048000521A2B4800213AA3CC43FFF79EFF0844A1
:1004900004BC74E730B5FFF732FE010015D42549DE
:1004A000FFF795FE511001D30131401002B401460F
:1004B000204B9B00C018C91A00222DA3D443FFF77C
:1004C00096FF114604BC130059E7FF22FBE730B545
:1004D000FFF7E0FF462BF8DC5B42462B06DC1648B4
:1004E000584308310911081A052248E7C043ECE7D0
:1004F00030B5FFF744FE401049100022002802DA10
:10050000404249420D4A0DA30124FFF770FF1046F7
:100510000A4A841802D2841A00D4A01A0138002290
:100520002DE7C046B49D6E1315170000FF422E162E
:10053000CA159E2CB9C2930530E4620151ED87645F
:100540000CCE583BF8755B1F4CDDEA0FEC56FD07EF
:10055000B8AAFF0354F5FF01ACFEFF00D4FF7F00F3
:10056000FCFF3F00FCFF1F0000001000020008001D
:10057000ECA94F46EDA94F46F45DB1201C8915103A
:1005800044AC020845AC020864550004AC0A000201
:10059000540100012C0080000400400004002000F1
:1005A00000001000000008000300080003460B4391
:1005B0009B0703D009E008C9121F08C0042AFAD219
:1005C00003E00B780370401C491C521EF9D270479F
:1005D000D2B201E00270401C491EFBD270470022DB
:1005E000F6E710B513460A4604461946FFF7F0FF32
:1005F000204610BDCAB2401E4178401C8A4202D03B
:100600000029F9D100207047421C0178401C0029C4
:10061000FBD1801A704710B5002200E0521C835CA9
:100620008C5CA34201D1002BF8D1D8B2E1B2401AC0
:1006300010BDF8B502464A40D40F42004B005208A4
:100640005B089A4202D20246084611464A0023D06D
:10065000C30D4A00DDB2120EAD1A202D35DA490263
:100660000126490AF6058A19002C00D052422021A1
:100670004F1B1146B9402A411018C20D9A4221D091
:10068000002C17D0012D08DCDA05801AD20F801952
:10069000D207DBB200F048FAF8BDDA05801A012370
:1006A00040001B06C01880185A428018CA0F104319
:1006B000490007E04908C2071143DA05801A80198A
:1006C0004008801800F028FAF8BD61000122511A94
:1006D000001BF7E70122D2075140AAE70122D20707
:1006E0005040A6E7024670B54A40D30FDB074000F2
:1006F0002DD04A002AD0010E140E00021202091950
:10070000400A520A8418E50104465443000A120ABA
:100710002E045043A4194219200CC543AA18120CE8
:100720000125AD03521C521912047F39240400D054
:10073000521C104301D44000491EC2B20C06C0092D
:100740002018401C4008802A02D003E0002070BD21
:1007500040084000002900DA0020184370BD70B541
:1007600002464A40D50F40004A00ED0740085208B3
:10077000002814D0002A12D0C40DD30D410201204C
:10078000C0055202490A520AE41A091812187D34A7
:10079000914201D3641C00E04900002C01DA0020E2
:1007A00070BD0023914201D3891A034340084900D8
:1007B0000028F7D100290AD0914202D10121C907AE
:1007C00005E0914201D2012101E00121C943E00588
:1007D000C018401900F0A0F970BD0000F0B51FB4BA
:1007E00088B00B990998002448400999C00F490026
:1007F00049080991C0070B990090490049080B91DD
:1008000009990898A64608431CD00B990A980843F2
:1008100018D0099801244000420D4800410D099864
:1008200024050003000B204309900B980003000BE4
:1008300020430B9050181C49401800220190144688
:10084000104605E0002001460DB0F0BD032801DA96
:10085000034600E003239C46C11A0AAE0AE05F008B
:1008600008ADED5B4F00F75B7D430027AA187C4184
:10087000491C5B1E6145F2DD410004AB5A52210464
:10088000120C0A43240C401C0828DFDB019802905C
:100890000099704601910090059B049A079906986B
:1008A00000F088F9D0E700000DFCFFFF0122D2071D
:1008B000002800DB101A002900DB511A814201D800
:1008C00001207047002070470122D207002800DB7A
:1008D000101A002900DB511A814201D30120704710
:1008E000002070470122D207002800DB101A0029DF
:1008F00000DB511A814201D9012070470020704766
:100900000122D207002800DB101A002900DB511A4F
:10091000814201D10120704700207047C217C10FEA
:10092000504010B54018CA079623002100F0FCF88B
:1009300010BDC20F410040020123400ADB05D2076F
:10094000090EC0187F2901DA00207047962903DCC0
:100950009623591AC84001E096398840002AF4D0FD
:1009600040427047C20FD207400040080BD0C10D73
:100970000723DB01C91840020905400A1143C208D8
:10098000400711437047002001467047CB0FDB073B
:10099000490010B5490802460A4307D00A0D07244A
:1009A0000903E401090B121B002A01DC002010BD21
:1009B000C900440F0C43C100E018D205801800F0B4
:1009C000ABF810BD70B50446002903D000202022EA
:1009D000012310E0002801D00020C043C046C046DB
:1009E0000DE02546D5408D4205D30D469540641B4C
:1009F0001D46954040191546521E002DF1DC21463A
:100A000070BDF0B51FB40646002082B005464024F4
:100A1000019100901BE0019922460F46304600F0FC
:100A2000A3FA049A059B801A994110D310461946DF
:100A3000224600F089FA361A8F410197224601209A
:100A40000021009F00F080FA38184D4100902046A8
:100A5000641E0028DFDC019B00982946324607B05F
:100A6000F0BD00000FB400B589B00A460DA9009191
:100A700000230C99002ACB60234B0693234B07934A
:100A800001D0042300E00023214A0292214A089267
:100A9000019302466B46002000F021FB09B008BC20
:100AA00004B01847F0B585B007460020C043019058
:100AB0001E46002015460C460091029104903B46CC
:100AC0006A46314604A8FFF7CDFF04990246601834
:100AD000002D05D0002901D0034600E023462B60FD
:100AE00000290ED0002A02DD0099814209D0001BA6
:100AF000019000943B466A463146029404A8FFF7F1
:100B0000B1FF05B0F0BD0000351300005513000023
:100B1000FFFFFF7FB10F0000002904DA401C4900ED
:100B200001D140084000704770B40024050C05D185
:100B30001024000402D1002921D01124050E01D176
:100B400000020834050F01D10001241D850F01D1D9
:100B50008000A41C002801DB4000641C002908D090
:100B600020252E1B0D46F540A14000D00121294330
:100B7000084301061B1B000ADB1D02D5002070BCC8
:100B80007047DB05181880180029F8DA401C490066
:100B9000F5D170BC40084000704710B5002B08DA52
:100BA0000024401C614192185B411A4301D1400866
:100BB000400010BDF0B51FB482B005460C0003D054
:100BC000084604F05FFB02E004F05CFB20300246C4
:100BD00000902146284600F0B7F9049B059A044688
:100BE0000F4618431143084314D0184610431BD036
:100BF000009840210A1A1846059900F0B5F90546F3
:100C00000E46009A0599049800F09EF9084305D015
:100C1000012004E02046394607B0F0BD0020C1178E
:100C200005430E432C43374300990E986305401A41
:100C30007905E40A00220C43FD0A0A3002D500209F
:100C40000146E9E70105101969410C9C0D9D001949
:100C50006941FFF7A2FFDFE7F0B5074608465840B5
:100C600087B0C00F049048000E465900400849085C
:100C7000BC1A884105D2384631461E4617460B46F7
:100C800002465800400810434CD0300D03904005F8
:100C90005900400D490D0590401A0290402872DA23
:100CA00018030121000B09050843019004980092E4
:100CB000002805D0019952420020884100920190FD
:100CC000029840210A1A0199009800F03DF9054662
:100CD0000C466B4607CB00F058F9C0197141039AD6
:100CE0000E0D0023D71756401A467A40164344D0BB
:100CF000049A002A2DD0029A012A039A15DC1205C3
:100D0000C01A914101263605001C7141D20F059E83
:100D1000D2070093019202962A462346FFF74AFF24
:100D200007B0F0BD38463146FAE71605224A0F46AD
:100D3000B218C01AB74101210905001C4F41001823
:100D40007F41114618187941E20F10436D19644133
:100D500013E0E2076D0815436408C2071443039AC1
:100D600001261205C01A91413605001C7141CE07BB
:100D7000400830434908C01851412A462346FFF72E
:100D80000CFFCDE7FFE7049801224000C117121ABB
:100D900000238B4104983146C417381AA141EEE76D
:100DA00030B40124E407634030BC55E730B401247B
:100DB000E407614030BC4FE70000E0FFF0B50C46AF
:100DC0005C4085B0E40FE40703944C0000266408FF
:100DD00059009446490802460296224321D06246B1
:100DE0000A431ED06200570D4A000E032303550D1F
:100DF000012402462C492405781B1B0B360B401896
:100E000023432643614600901C46501AB44103D345
:100E10000098401C009002E0921800985B41002866
:100E200003DA0020014605B0F0BD002001210905CC
:100E30000746864611E064461D46141BB54106D39D
:100E40006546521BB341744607430C43A646CD0783
:100E500040084908284392185B4105460D43EAD1F2
:100E60001046184313D0604619465040714008435D
:100E700006D06046101AB34106D20122002306E0D4
:100E800000220123DB0702E00122D2435310009825
:100E900074460105381C6141029C039D001969419B
:100EA000FFF77BFEBFE70000FD0300004A000903D7
:100EB0000123090B1B0519430A4B10B5520D9A4229
:100EC00002DA0020014610BD064B34339A4203DC9F
:100ED0009A1A00F049F810BD034BD21800F034F80C
:100EE00010BD0000FF030000CDFBFFFF10B500297F
:100EF00004DB0124E40740428C412146002B04DB43
:100F00001C460123DB075242A341994200D1904283
:100F100010BD0000000000001CB509480090094801
:100F2000019005460126009C05E0E36807CC3343A9
:100F30000C3C98471034AC42F7D3FFF7C5F80000DB
:100F400090700000B070000010B5202A04DB01464C
:100F5000203A9140002010BD914020239C1A034666
:100F6000E3401943904010BD10B5202A04DB084629
:100F7000203AD040002110BD0B46D340D040202461
:100F8000A21A91400843194610BD10B5202A06DB6D
:100F9000CB170846203A1041C1170B4306E00B4619
:100FA0001341D0402024A21A91400843194610BD95
:100FB00010B50F21C0B2490200F0F6F910BD0000D3
:100FC000FFB5087889B01546FF2805D0491C2D28A3
:100FD00004D00022002407E000240BE00122F9E7FE
:100FE0000A235C430419491C0878FF28F8D1002A19
:100FF00000D06442002004902A7801462D2A01D0B6
:101000002B2A0FD16D1C2D2A02D00022049209E058
:101010000122FBE700260A2233466D1C00F0ACF9E2
:10102000381871412F78FF2FF4D10C9AA21806922C
:1010300002460A4304D0FF23069A9133DA4205DAC6
:10104000002109980A4606C00DB0F0BD0024B74A39
:10105000B54D2646079200F0B9F902900698039123
:10106000002801DA474200E0074639050020AF4A70
:10107000001C51410191009012E0F80707D0224670
:101080002B4630460799FFF7A9FB064607912246F3
:101090002B4610461946FFF7A1FB04460D467F106C
:1010A000002FEAD10698019B0028009A0399029824
:1010B00006DAFFF783FE3246079BFFF77FFE05E067
:1010C000FFF78CFB3246079BFFF788FB049A002A48
:1010D00002D00122D2075140099A03C2B4E7FFB5FA
:1010E00091B0002009900025ED432E209E685C6899
:1010F0001F460190B9696D1C129888470090396AA3
:1011000088470028F6D10098401C0AD00D20C00165
:101110008443002E12DD00982B2809D02D280DD1F4
:1011200003E00020C04315B0F0BD0120800204435D
:10113000B9696D1C12988847761E009003A9600556
:1011400001D52D2000E02B206A461073491C0CA805
:101150000F9102900AE0B9696D1C129888470090BF
:101160000120400204431398761E0560002E02DD24
:1011700000983028EFD001990098884245D180200E
:10118000044308E00998401E0990012040020443EE
:101190001399681C0860B9696D1C761E12988847FF
:1011A00000903028EED030E00199884205D1200629
:1011B00003D480200443761E1DE0009804F054F907
:1011C000002825D0012149020C43009807AA0F9955
:1011D00003323038761E914208D208700F98401CB6
:1011E0000F90200607D50998401E03E0200602D480
:1011F0000998401C0990A00502D51399681C086045
:10120000B9696D1C129888470090002ECCDC59E01B
:10121000002E57DD0098652801D0452852D1A00541
:1012200050D5032000028443B9696D1C761E1298C4
:1012300088470090002E0CDD2B2804D02D2808D1E3
:10124000FF2001300443B9696D1C12988847761E4F
:101250000090E00501D52D2100E02B2102980170BE
:101260000298401C0290019025E0012040020443B6
:101270000EA902980131761E88420ED2009802997A
:1012800030380006000E087003D10299019881429F
:101290000AD90298401C029006E0E00501D52448D6
:1012A00001E0234840420990B9696D1C12988847B3
:1012B000009013980560002E04DD009804F0D4F827
:1012C0000028D2D1F969129888470F99FF20087039
:1012D000029903AA087000200A900B900CA90AA892
:1012E000099BFFF76DFEA00502D40120C0431AE759
:1012F0002420044209D0E00713D138680B9A0A99D8
:10130000031D3B60006806C00BE00B990A98FFF7CD
:101310003DFB0146E00704D13868021D3A600068D1
:1013200001602846FFE60000000014400000F03F86
:10133000F1D8FFFF4268002A08D001680B78491CE9
:10134000002B03D0521E06C0184670470121C16011
:10135000881E70474268002A0BD0C3680168002BC2
:1013600007D183688B4204D0491E521C06C000205E
:1013700070470020C043704730B5434351435C1869
:10138000010C130C0D465D432C1980B292B2054638
:10139000554351430A0C09044D1962415843010C4D
:1013A00000044019514130BD7F2801D9002207E0D7
:1013B000054B42089A5CC00700D112091207120FB0
:1013C0000120904008407047E65B00000EB5054ADA
:1013D00002920022009213460192FFF7EBFB03B04A
:1013E00000BD00003304000030B58C180278401CAA
:1013F00013071B0F01D10378401C120906D1027894
:10140000401C03E005780D70401C491C5B1EF9D19F
:1014100001E00B70491C521EFBD1A142E6D3002013
:1014200030BD811E091F00BFFCD2704784B00390FD
:1014300002910192039800680090009801998843F6
:10144000009000980299019A11400843039908609E
:1014500004B0704784B00390029101920398006831
:101460000090009801998843009000980299019A91
:10147000114008430399086004B0704782B001909E
:1014800000910098019995225201885002B070474E
:1014900082B00190009100980199952252018850E4
:1014A00002B0704782B00190009100980199952296
:1014B0005201885002B0704781B0009000988100BE
:1014C000444A885801235B061843885001B070478E
:1014D00082B00190009100980199024A885002B0B0
:1014E0007047C046D012000081B0009000990120E2
:1014F000C2027448885001B07047C04610B584B02D
:10150000069C03900291019200930298019908436E
:101510000099084306990843034908430399890041
:101520002C4A885004B010BD8100040081B00090A6
:1015300000988100274A8120885001B07047C0463A
:1015400081B0009000988100224A0020885001B0AC
:101550007047C04682B00190009100981649084338
:10156000019989001B4A885002B0704782B00190EF
:10157000009100981049084301998900154A885044
:1015800002B0704710B584B0079C069C039002918E
:101590000192009302980199084300990843069923
:1015A0000843079908430449084303998900094AF5
:1015B000885004B010BDC0468000040082B0019085
:1015C000009100988021084301998900014A8850C0
:1015D00002B070470480424082B0019000910198AF
:1015E0002721C90140580099084002B0704782B0D5
:1015F0000190009101982721C901405800990840A5
:1016000002B0704781B000900099594A59488850FB
:1016100001B0704782B001900091009801990C4A86
:10162000885002B07047C04682B001900091009887
:101630000199074A885002B07047C04682B00190B5
:10164000009100980199024A885002B07047C04644
:101650009012000082B00190009100980199024A16
:10166000885002B07047C046B012000081B00090B0
:10167000009909204202885801231B021843885010
:1016800001B0704781B000900099084A8858012342
:101690001843885001B0704781B000900099034A08
:1016A000885804231843885001B07047281200005E
:1016B00081B0009000990120C2020248885001B018
:1016C0007047C0460100002610B5002A0FD09123B4
:1016D0005B01C3180020DC692405240F05D00C5CD5
:1016E0001C60401C8242F6D1104680B210BD002022
:1016F00080B210BD494A835880210B438350801823
:101700000F221202436813400122D2029342F7D102
:1017100002688A430260704781B0009000980A49CD
:1017200040580F2108404142484101B07047C0462F
:1017300081B000900098044940580F2109020840E8
:101740004142484101B070473C12000081B0009016
:10175000009802494058C0B201B070471C12000006
:1017600081B000900099024A0248885001B0704749
:1017700004080000030000B181B000900099404AC5
:101780000020885001B0704780B584B001910146B7
:101790000198039102A90880039809225202801837
:1017A000098803225202FFF741FE04B080BD70B5E4
:1017B0000A780C231A400124240305196E689E43FD
:1017C000B2186A60497807221140035993435918A7
:1017D000015170BD80B584B001910146019803911B
:1017E00002A9088003980D4A80180988072212026E
:1017F000FFF71CFE04B080BD80B584B001910146A6
:101800000198039102A908700398044A8018097886
:101810000722FFF70BFE04B080BDC046381200005F
:1018200082B001906846017000780199014A8850A1
:1018300002B070472412000010B586B00192024633
:1018400001980592049103AA107002A803800598DC
:10185000094940180499490012781143074AFFF7D3
:10186000F9FD05980649401802990904C91D054A61
:10187000FFF7F0FD06B010BD10120000FF070000DA
:10188000141200000700FF0FF0B584B001242202FB
:10189000344B19680392914319606E490D686D04C9
:1018A000FCD5457E25409E69A64374199C61202481
:1018B000045D03252C40DE69AE433419DC611F4C06
:1018C000256805262660466A37681F6276685E626C
:1018D00007262E402660C4697F252D02DE69AE43AF
:1018E0006406640C3419DC610768456882680092FC
:1018F000C66802690192426902929A69104C1440CA
:101900003A07120B2D03ADB2AA183243009D2D07E2
:101910002D0D1543019A1543029A1543007E284365
:10192000084A0240101998611868039A1043186019
:1019300008688005FCD504B0F0BDC04600134040E7
:101940008D00F0FF72FF0F000649086801229043E6
:10195000086070470349086801221202904308603A
:101960007047C04608010B4039490868012212033C
:10197000104308607047C04681B001466846017058
:1019800000780249086001B07047C04608030B4068
:1019900080B582B0014601A8018001880F200202B3
:1019A0002B48FFF743FD02B080BDC046F0B5124B97
:1019B0001D46083D2E680124A6432E6003263603EB
:1019C00030401F68B743381818601868FF26B043C6
:1019D000C9B2401818602868204328601868210799
:1019E000002A06D0084318601A480168C905FCD5CA
:1019F000F0BD88431860F0BD10010B4080B582B087
:101A0000014601A80170017802480322FFF70EFD8C
:101A100002B080BD00010B4080B582B0014601A834
:101A2000017001780A483022FFF700FD02B080BD46
:101A300007498860074802689202FCD50122120417
:101A40000B6813430B600168C906FCD57047C0469C
:101A500004010B4004020B4010B585B000930B4607
:101A60000099049003A80380029201AB19700499B5
:101A70001A7892008A18AF4C084911510299049AB9
:101A80001B789B00D2183123DB01D1500088044918
:101A900008430499D74A885005B010BD01000200E0
:101AA0001200001081B000900099024A0120885075
:101AB00001B070470811000082B001900091009BB6
:101AC0000199D94A88581843885002B07047C046D7
:101AD00081B0009000990120C202D948885001B01D
:101AE0007047C04681B0009000988121490140585C
:101AF000C0B201B0704781B0009000980321C902C4
:101B0000405801B070470000F0B5BA4A82183B4B0C
:101B1000C31808794E793A4D764C002E23D02028F0
:101B200004D00526F601002803D003E0354E002836
:101B300000D18826576F2F4037435767976F2F4044
:101B400037439767566B26405663966B26409663DD
:101B50000026566596658F26F6435F6837405F60BE
:101B60009F6837409F608E79096820280BD0002835
:101B700019D1491E5160D76E2F4088210F43D76677
:101B80001746703719E0491E5160D16E29401D4F2C
:101B90003943D166116F2940394311670121490743
:101BA000194D174609E049085160D76E2F400521AD
:101BB000C9010F43D766174670373C682C400C4369
:101BC0003C60D16A4B4C2140D162116B21401163C2
:101BD0000021D16411658F21C943D46F0C40D467B3
:101BE0001C680C401C600643BD2030401168074B48
:101BF0000B40C018801C1060F0BDC0468418000067
:101C000024493E0001040000FFFFFFCF4000FFCF4A
:101C1000B0B54A686C4BC250764A80180A78222ABE
:101C200058D8930001A4E3589F46C046CB1C00003F
:101C3000D51C0000CB1C0000D51C0000D51C0000EA
:101C4000D51C0000D51C0000D51C0000D51C0000D0
:101C5000D51C0000D51C0000D51C0000D51C0000C0
:101C6000D51C0000D51C0000D51C0000B91C0000CC
:101C7000D51C0000B91C0000D51C0000D51C0000BC
:101C8000D51C0000D51C0000D51C0000D51C000090
:101C9000D51C0000D51C0000D51C0000D51C000080
:101CA000D51C0000D51C0000D51C0000B91C00008C
:101CB000D51C0000B91C000003231B0704689C43CB
:101CC00001235B07E318036004E003231B07046898
:101CD0009C4304600B69C360CB68054C1C40C36A1D
:101CE000044D1D402B19C362097A11430160B0BD38
:101CF000777702008888FDFF81B000900099714AD3
:101D00007148885001B0704782B0019000910098EE
:101D1000019911221202885002B0704710B50723B2
:101D20009B04194092008018024A84589C43611811
:101D3000815010BD3018000010B5029CA40000199D
:101D400011431943014A815010BDC046501800008C
:101D500092008018014A81507047C0461018000058
:101D600010B50122120383180C789C604B788350C5
:101D70008978014A815010BD0C11000010B586B061
:101D800001930B4601460198059104A90B8003AB12
:101D90001A8002AA10800598164C001909881B8821
:101DA000194312881143024AFFF740FB06B010BDE9
:101DB00080FF000082B00190009100980199024AD2
:101DC000885002B07047C0460818000082B00190E9
:101DD0000091009801990322D202885002B0704706
:101DE00081B000900099034A885801231843885015
:101DF00001B070470418000081B0009000991120D4
:101E00000202885801231843885001B0704700002F
:101E100082B001900091009B0199034A88581843B1
:101E2000885002B07047C0462810000081B0009072
:101E300000990120C2020248885001B07047C04694
:101E40000100002681B0009000988121490140588E
:101E5000C0B201B070470000B0B511221202835821
:101E60000124A34383500B888C781C438B88234325
:101E7000094C1C408358094D1D40631983508B79D0
:101E8000CC791C43097A21437E231940801842688B
:101E90009A4351184160B0BD18670000E798FDFFF4
:101EA00081B00090009802494058C0B201B070471C
:101EB0002411000081B000900099024A0248885025
:101EC00001B0704704080000030000B180B584B081
:101ED00003900291019203980B49401802990B4A12
:101EE000FFF7A4FA03980A49401801993F22FFF727
:101EF0009DFA0399074A8818895801221140FFF773
:101F000095FA04B080BDC04610110000FFFF00002C
:101F1000141100000411000010B5012212038318EF
:101F20000C789C604978815010BD80B582B00190DA
:101F30000091019811210902401800990322D2034F
:101F4000FFF774FA02B080BD81B0009000990120C3
:101F5000C20213204006885001B0704780B586B099
:101F6000034605A8037004AB02931970039200782E
:101F700018214143184840181021405EFEF7CEFC5E
:101F8000019003981549FEF7ADFB01460198FEF755
:101F9000E6FB02990978CA001149885006B080BD55
:101FA00080B584B0024603A8027002AA01921170A3
:101FB000007818214143084840184069FEF7AEFCFC
:101FC0000649FEF7CCFB01990978CA000449891833
:101FD000486004B080BDC046040020200000B64424
:101FE0004003202080B582B00190019802F070FF7C
:101FF00002B080BD80B582B0019001990091084681
:10200000FEF770FB01467F20C005FEF763FBFEF77D
:1020100041FA01460098FEF76BFA02B080BD00005D
:1020200080B584B00290019102F052FE0090FFE76B
:1020300002980D494058800600280DD4FFE702F0B1
:1020400047FE0099401A0199884204D3FFE703A98B
:102050000120087004E0EBE703A900200870FFE707
:1020600003A8007804B080BD1812000080B582B0CB
:1020700012200090012100F0B5F9322002F0F8FDA5
:102080000098442100F0AEF913200A2100F0AAF9CB
:102090001520032100F0A6F9B14801900221017238
:1020A0000D49896AC160002101700C49896841604D
:1020B000007A800060210843C1B2112000F092F93B
:1020C00001980078800062210843C1B2102000F01E
:1020D00089F902B080BDC046DC6D00007C6C000058
:1020E00080B58AB000F03EF90021BD480190405E05
:1020F000FEF714FC7B21C905FEF7F4FA5149FEF7FF
:1021000098FA01460198504A089211600221405EF7
:10211000FEF704FC924902914968FEF720FB089AF9
:102120000146019851600421405EFEF7F7FB0299D9
:102130004968FEF714FB089A014601989160062150
:10214000405EFEF7EBFB02994968FEF708FB089A30
:1021500001460198D1600821405EFEF7DFFB02993D
:10216000C968FEF7FCFA7C4903910969FEF7B2FAE7
:10217000089A0146019811610A21405EFEF7CEFBE4
:102180000299C968FEF7EBFA03994969FEF7A2FACA
:10219000089A0146019851610C21405EFEF7BEFB92
:1021A0000299C968FEF7DBFA03998969FEF792FA8A
:1021B000014608988161006901F08EFF0146089888
:1021C0000161406901F088FF01460898416180691A
:1021D00001F082FF0899886148680590486804907A
:1021E00088688968FEF77EFA049902460598069287
:1021F000FEF778FA0699FEF71CFA08990790C86866
:10220000C968FEF76FFA0799FEF713FAFEF742F96D
:1022100001460898099109994068FEF7A0FA01461D
:102220000898416009998068FEF799FA0146089874
:1022300081600999C068FEF792FA0899C8600AB0EF
:1022400080BDC0460000C8414401202080B588B050
:1022500001920346019807AA1370069105A90291FD
:102260000880694803906A210491012302F095FCDB
:10227000029B03980499069A1B8802F053FC08B04D
:1022800080BDC04680B586B0FFF7F0FE7D2080009F
:1022900002F0EEFC00200590FFE705982D498842EA
:1022A0003FDCFFE700F05EF84D4802900821405EF9
:1022B000FEF734FB2A490391C968FEF750FA01463C
:1022C000254804900069FEF7B4F9049A0146029883
:1022D00011610A21405EFEF721FB0399C968FEF7F0
:1022E0003EFA014604984069FEF7A3F9049A0146B4
:1022F000029851610C21405EFEF710FB0399C968FA
:10230000FEF72DFA014604988069FEF792F90499C8
:102310008861022002F0ACFCFFE70598401C0590A4
:10232000BBE70D48019000690C490091FEF717FAD0
:1023300000990246019802614069FEF710FA00997F
:102340000246019842618069FEF709FA01998861A5
:1023500006B080BDE70300008001202000007A4421
:102360007001202080B586B0202002A900910E22A5
:10237000FFF76CFF009A5078000211784018184956
:102380000880D07800029378C01808815079000244
:102390001379C0184881D07900029379C0188881D8
:1023A000507A0002137AC0184880D07A0002937ADB
:1023B000C0188880507B0002127B8018C8808888F3
:1023C00001AA1080C888888001984042C880488946
:1023D00010808889488101984042888106B080BD7C
:1023E0006001202080B584B003AA107002A801709B
:1023F000039801AA10700298507003486A210223C2
:1024000002F0CBFB04B080BD00000F4010B58AB0D5
:10241000FFE702F05DFC099009987D490968401AC0
:10242000002801D5FFE7F1E002F052FC14307849B2
:102430000860FFE700200890FFE70898042800D90B
:10244000E4E00898182205924243724806908118E9
:1024500080584968FFF7C0F8059902460698531E50
:102460009A4107AB1A70089A51434018007CC00784
:10247000002811D1FFE707A80078C00700280BD17A
:10248000FFE708981821414362484018807D0121E8
:102490000840012815D0FFE70898182141435D48FE
:1024A0004018407D0121084001280AD0FFE7089824
:1024B0001821414357484018007DC007002809D023
:1024C000FFE708981821414352484118002048610D
:1024D0000861FFE70898182141434E484018007CE6
:1024E000C007002822D1FFE707A80078C00700280E
:1024F0001CD0FFE70899182203921046484345492B
:1025000004910B1801209875089C13466343CB185F
:102510005874089B5A438918C87402F0D9FB039A6F
:102520000499089B5A4389188860FFE70898182186
:10253000414338484018007CC007002818D0FFE706
:1025400007A80078C007002812D1FFE708981821D3
:10255000019141432F48029041180120887402F0F4
:10256000B7FB019A0299089B5A438918C860FFE794
:1025700008981821414327484018807DC00700284B
:1025800035D1FFE708981821414322484118C8680F
:102590008968884201D1FFE728E008981821414363
:1025A0001C484118C8688968401A80084A280ED813
:1025B000FFE7089818210A4642431648831801226B
:1025C0005A75089A514341188868C8600DE0089808
:1025D00018210A4642430F48831801221A75089AA7
:1025E000514341188868C860FFE7FFE7FFE707A885
:1025F0000078089918224A43064989180122104098
:102600000874FFE70898401C089016E70AB010BD50
:102610009C0120203400202080B59CB01B901B988A
:10262000FEF77CF96549FEF79AF81A901A9800F0BF
:10263000EBF86F49149108680E9048680D9088680F
:10264000C968FEF74FF80D9902460E980F92FEF7F3
:1026500049F80F99FDF7EDFF01460846FDF7E9FF40
:102660001499139048681190486810908868896898
:10267000FEF738F81099024611981292FEF732F8D8
:102680001299FDF7D6FF01460846FDF7D2FF014635
:102690007F20C0051890FEF71DF801461398FDF73E
:1026A00027FF1499464A906008681690886815902C
:1026B000C8684968FEF716F81599024616981792E9
:1026C000FEF710F81799FEF705F801460846FDF7E2
:1026D000B0FF189919901998FEF7E8F8002804D16E
:1026E000FFE77F20C0050C900FE019983549FEF7F1
:1026F000EBF8002803D1FFE732480B9002E019986D
:102700000B90FFE70B980C90FFE70C981990199825
:10271000FFF770FC2A490A9148603549049108681E
:102720000290C868019048688968FDF7DBFF01994D
:10273000024602980392FDF7D5FF0399FDF779FF52
:1027400001460846FDF775FF0499089088680690D1
:1027500088680590C868C968FDF7C4FF05990246F6
:1027600006980792FDF7BEFF0799FDF762FF014645
:102770000846FDF75EFF01467F20C005FDF7AAFF72
:1027800001460898FDF7B4FE01460A98016000680A
:102790000D490991FDF7A6FF099902460A980260C2
:1027A0004068FDF79FFF099902460A9842608068D9
:1027B000FDF798FF0A9988601CB080BD00007A443C
:1027C000A0012020000080BFE12E654280B5FFF708
:1027D00059FD07497F20C2050A60002048608860D3
:1027E000C860CA61034A0A6208614861886180BDA5
:1027F000AC012020CDCC4C3D80B582B00190019839
:10280000FFF70AFF02B080BD80B5C6B04590FFF764
:1028100067FC564840680021FEF772F8002811D086
:10282000FFE7524880680021FEF76AF8002809D0C7
:10283000FFE74E48C0680021FEF762F8002801D08B
:10284000FFE736E24A49359148682C90C8682B90DA
:1028500008688968FDF746FF2B9902462C982D924F
:10286000FDF740FF2D99FDF735FF01460846FDF7BE
:10287000E0FE3599449008682F9048682E9088684B
:10288000C968FDF72FFF2E9902462F983092FDF769
:1028900029FF3099FDF7CDFE01460846FDF7C9FE38
:1028A00035994390086832900868319048684968C3
:1028B000FDF718FF3199024632983392FDF712FF67
:1028C0003399FDF707FF3599349088688968FDF7DB
:1028D00009FF01463498FDF7FDFE35993690C8682A
:1028E000C968FDF7FFFE3699FDF7A3FE4290F24856
:1028F00041683A9181683991C06838900020002879
:1029000006D1FFE73A9802F04FFA002808D12BE0F1
:102910003A98FEF727F802F039FA002824D0FFE7AA
:102920000020002806D1FFE7399802F03DFA002880
:1029300008D119E03998FEF715F802F027FA0028B7
:1029400012D0FFE70020002806D1FFE7389802F0F8
:102950002BFA00280ED107E03898FEF703F802F0B2
:1029600015FA002806D1FFE7A3E1C0464401202064
:10297000AC012020399801904298009038984399F2
:10298000FDF7B0FE0099024601980292FDF7AAFEFB
:102990000299FDF79FFE4190389804904498039067
:1029A0003A984299FDF79EFE0399024604980592D3
:1029B000FDF798FE0599FDF78DFE40903A98079037
:1029C0004398069039984499FDF78CFE0699024683
:1029D00007980892FDF786FE0899FDF77BFE3F9069
:1029E000B6482A90006A4199FDF77CFE2A9A4599DB
:1029F00012690992FDF776FE0999FDF71AFE014664
:102A00002A980161006A4099FDF76CFE2A9A45995F
:102A100052690A92FDF766FE0A99FDF70AFE014621
:102A20002A984161006A3F99FDF75CFE2A9A459910
:102A300092690B92FDF756FE0B99FDF7FAFD2A9A63
:102A40009061D069419912690C92FDF74BFE0C9987
:102A5000FDF7EFFD014698481E900069FDF7E9FD7E
:102A60001E992A9A0861D069409952690D92FDF722
:102A700039FE0D99FDF7DDFD01461E984069FDF711
:102A8000D8FD1E992A9A4861D0693F9992690E92A1
:102A9000FDF728FE0E99FDF7CCFD01461E988069D2
:102AA000FDF7C7FD1E9902462A988A614268109276
:102AB0000A690F9280684969FDF714FE0F99024672
:102AC00010980123DB075A401192FDF70BFE0146D7
:102AD0001198FDF7FFFD1E9902462A981292C068D0
:102AE0008969FDF7FFFD01461298FDF7F3FD3F21CF
:102AF00009062091FDF7F6FD1E9902462A983E929E
:102B0000026814920A69139280688969FDF7EAFDE8
:102B10001399024614981592FDF7E4FD1599FDF7F7
:102B200088FD1E9902462A981692C0684969FDF7E9
:102B3000D9FD01461698FDF7CDFD2099FDF7D2FD90
:102B40001E9902462A983D92026818924A69179285
:102B500040688969FDF7C6FD1799024618981992D1
:102B6000FDF7C0FD1999FDF7B5FD1E9902462A989B
:102B70001A92C0680969FDF7B5FD1A99FDF759FD6C
:102B80002099FDF7AFFD1E9902462A983C920268F3
:102B90001C928A691B9240684969FDF7A3FD1B9945
:102BA00002461C981D92FDF79DFD1D99FDF741FD04
:102BB0001E9902462A981F9280680969FDF792FDC6
:102BC00001461F98FDF786FD2099FDF78BFD2A9A97
:102BD0003B903E98459912682192FDF783FD21991B
:102BE000FDF727FD2A9A10603D9845995268229278
:102BF000FDF778FD2299FDF71CFD2A9A50603C985C
:102C0000459992682392FDF76DFD2399FDF711FD1B
:102C10002A9A90603B984599D2682492FDF762FD0C
:102C20002499FDF706FD2A99C8600868269008686F
:102C3000259048684968FDF755FD25990246269874
:102C40002792FDF74FFD2799FDF7F3FC2A9928906D
:102C500088688968FDF746FD2899FDF7EAFC2A99FE
:102C60002990C868C968FDF73DFD2999FDF7E1FC89
:102C7000FDF710FC01462A98379137990068FDF757
:102C80006EFD01462A98016037994068FDF767FD9F
:102C900001462A98416037998068FDF760FD01463A
:102CA0002A9881603799C068FDF759FD2A99C86054
:102CB000FFE746B080BDC04644012020AC01202083
:102CC000E7480068806800280BD0FFE7E4490868FF
:102CD00080680860002008714871AF4901200870C1
:102CE000FFE7704780B582B00D49019171310D4801
:102CF00001F0FAFF019959310B4801F0F5FF0199F4
:102D000029310A4801F0F0FF01994131084801F0EA
:102D1000EBFF01991131074801F0E6FF02B080BDD9
:102D200034002020392D0000592D0000512D0000C5
:102D3000492D0000412D0000B54901200870704761
:102D4000B349052008707047B149042008707047E6
:102D5000AF49032008707047AD49022008707047E2
:102D600010B586B0BE480068007B0290002804D0F1
:102D7000FFE70298012865D094E087480078C007F3
:102D800000285ED0FFE700F055FAB54800684069BA
:102D9000002805D0FFE7B248006840698047FFE798
:102DA00005A900200870FFE705A80078032842DC89
:102DB000FFE7AB494879059A821804A802700078A9
:102DC00009680979884201DBFFE734E004A800784C
:102DD000A3490979884214D1FFE705A8007841008A
:102DE00004A80478601C9E4A126812680C2363438E
:102DF000D258019200902E4B0020082200F00BFBCD
:102E000013E005A80078410004A80478601C944AE7
:102E1000126812680C236343D25801920090244B2D
:102E20000020082200F0D8FAFFE7FFE70598401CD1
:102E300005A90870B8E700F033FA57490020087078
:102E4000FFE730E054480078C00700280CD0FFE7C7
:102E500000F0F0F9824800684069804700F020FAED
:102E60004D4900200870FFE77D4800680069002890
:102E700017D0FFE7FFE701F02BFF039003980B4902
:102E80000968401A002801D5FFE70CE001F020FF97
:102E9000323006490860FFE77148006800698047E2
:102EA000FFE700E0FFE706B010BDC046D0012020DC
:102EB000017000006A480068007B012801D1FFE72B
:102EC0001AE06749086800680A790C2151434018E4
:102ED0008068002810D0FFE76149086800680B7916
:102EE0000C225A43801880680860002008714871DD
:102EF000294901200870FFE77047C0465849087902
:102F0000401C0871087909680979884205DBFFE7E8
:102F10005349002008714871FFE751490879497900
:102F2000401A042805DBFFE74D494879401C4871E9
:102F3000FFE71949012008707047C04648480079EA
:102F400000280FD0FFE746490879401E087108792C
:102F50004979884205DAFFE741494879401E4871BE
:102F6000FFE714E03E4801680979491E01710068D5
:102F70000079052806DBFFE7394908680079001F5A
:102F8000487103E0364900204871FFE7FFE7024936
:102F9000012008707047C046E800202080B582B04C
:102FA0001B480078019005282FD80198810001A0C6
:102FB00040588746CD2F0000CF2F0000DB2F0000A8
:102FC000E72F0000F32F0000FF2F00001EE0FFF7A7
:102FD00095FF0F490020087018E0FFF7AFFF0C497C
:102FE0000020087012E0FFF765FF09490020087013
:102FF0000CE0FFF765FE06490020087006E000F0CF
:1030000009F803490020087000E0FFE702B080BD26
:103010001006202080B512480068007B012801D1ED
:10302000FFE714E00E49086800680A790C21514353
:103030004018406800280AD0FFE70949086800687E
:103040000A790C215143401840688047FFE780BD52
:103050000349044808600020087148717047C04661
:1030600008062020946E000081B000200090FFE749
:103070000098012815D8FFE70098182242435B49C1
:1030800089180301084AD018D2588A60C2684A6178
:1030900082680A614068C860FFE70098401C0090A1
:1030A000E6E701B07047C046EC00202080B58CB048
:1030B00002460BA802700AAA11800078022801D3E8
:1030C000FFE790E000210AA8405E012830DBFFE71F
:1030D00000210AA8405E4849884204D3FFE70AA9B4
:1030E00046480880FFE70BA8079000781821089150
:1030F00041433E48099041188868C968FEF794FA30
:10310000079A089909981278514341180869496942
:10311000FEF7BEF9079A08990998127851434218A8
:10312000405800230AA9C95E1279FEF711FE5AE041
:1031300000210AA8405E002831D5FFE700210AA837
:10314000405E2B49884204DCFFE70AA92948088031
:10315000FFE70BA80490007818210591414323480C
:103160000690411808694969FEF75EFA049A0599C4
:1031700006981278514341188868C968FEF788F9A3
:10318000049A059906981278514342184058002332
:103190000AA9C95E49421279FEF7DAFD22E00BA8BE
:1031A0000190007818210291414310480390411882
:1031B0008868C968FEF738FA019A0299039812786C
:1031C0005143411808694969FEF72EFA0199029A9C
:1031D000039809784A43811880580A790021FEF73C
:1031E000B7FDFFE7FFE70CB080BDC0460C01202013
:1031F000EFD8FFFFF0D800001127000010270000D3
:1032000082B0014668460170007820280ADBFFE79B
:10321000684600787E2805DCFFE70098203801A981
:10322000087003E001A900200870FFE701A80078FA
:1032300002B0704780B5314801218902FDF7CFF90E
:1032400080BDC04610B586B005AC207004A80170E2
:10325000039202A90B700078082801DBFFE71CE04D
:1032600005998020401A01A9087002A80078097801
:10327000884204DDFFE7019802A90870FFE704A86F
:103280000078C1011D48401805A909784018039924
:1032900002AA1278FDF78AF9FFE706B010BDC04612
:1032A00080B5A4B003A94020087002A900200870CE
:1032B000FFE702A8007807281DDCFFE703A80190BC
:1032C000401C02A900910978CA010C498918802282
:1032D000FDF76CF900980178002000F0BBF8019A26
:1032E00007483C21812301F058FCFFE70298401C6D
:1032F00002A90870DDE724B080BDC0461206202078
:1033000000200F4080B582B06420019001F0B0FC35
:1033100000200090AE2101F01FFD0098D52101F0A2
:103320001BFD0098802101F017FD0098A82101F0F5
:1033300013FD00983F2101F00FFD0098D32101F00B
:103340000BFD0099084601F007FD0098402101F0AF
:1033500003FD0098A12101F0FFFC0098C82101F0B5
:10336000FBFC0098DA2101F0F7FC0098122101F033
:10337000F3FC0098812101F0EFFC0098CF2101F0CF
:10338000EBFC0098D92101F0E7FC0098F12101F055
:10339000E3FC0098D82101F0DFFC0098302101F017
:1033A000DBFC0098A42101F0D7FC0098A62101F0D5
:1033B000D3FC00988D2101F0CFFC0098142101F07E
:1033C000CBFC0098AF2101F0C7FC019801F050FC44
:1033D000FFF730FF02B080BD10B5CAB049AC04940D
:1033E000208048A80190018047A80290027046936F
:1033F0004CA805904699059A06A8039001F030FF65
:103400000199029B039A0498007809781B7800F0D0
:1034100041F84AB010BD10B5CAB049AC0494208040
:1034200048A80190018047A80290027046934CA8DA
:1034300005904699059A06A8039001F011FF01999D
:10344000029B039A0498007809781B7800F020F911
:103450004AB010BD80B586B0024605A80190027042
:1034600004AA0292117001780F20014000200390FD
:1034700001F072FC0199039809780909103101F0F3
:103480006BFC029903980978B022114301F064FCA7
:1034900006B080BD10B5D0B04FAC20704EA8017002
:1034A0004D924CA803704D98FDF7AEF801464BA81D
:1034B00001700078002801D1FFE7E2E04CA8017814
:1034C0008020FDF77FFA4AA908704BA80078097898
:1034D000884204DDFFE74A984BA90870FFE74CA833
:1034E0000078062844D1FFE729A900200870FFE7EB
:1034F00029A800784BA9097888422DDAFFE74D9872
:1035000029A90978405CFFF77BFE28A9087027A944
:1035100000200870FFE727A80078052816DCFFE7E1
:1035200028A8007806210A4642435848801827AA4E
:103530001278805C29AB1B7859438A182AA98854D1
:10354000FFE72798401C27A90870E4E7FFE72998C0
:10355000401C29A90870CBE74FA800784EA909782C
:103560004B9B06225A43D3B22AAAFFF76BFE88E090
:103570004CA80078082800D082E006A90020087036
:10358000FFE706A800784BA9097888422BDAFFE705
:103590004D9806A90978405CFFF732FE05A908702E
:1035A00004A900200870FFE704A80078072814DCAD
:1035B000FFE705A8007801013348401804A90A78FC
:1035C000805C06A90978C9008A1807A98854FFE712
:1035D0000498401C04A90870E6E7FFE70698401C21
:1035E00006A90870CDE74FA800784EA909784B9A34
:1035F000D206130E07AAFFF725FE03A900200870C4
:10360000FFE703A800784BA9097888422CDAFFE786
:103610004D9803A90978405CFFF7F2FD02A90870F4
:1036200001A900200870FFE701A80078072815DC31
:10363000FFE702A8007801011348401801A90A78A1
:103640001018007A03A90978C9008A1807A98854B4
:10365000FFE70198401C01A90870E5E7FFE7039820
:10366000401C03A90870CCE74FA800784E99491C6C
:103670004B9AD200C9B2D3B207AAFFF7E3FDFFE726
:10368000FFE750B010BDC0469A600000265C000005
:1036900010B5D0B04FAC20704EA801704D924CA820
:1036A00003704D98FCF7B0FF01464BA801700078FD
:1036B000002801D1FFE7E2E04CA801788020FDF767
:1036C00081F94AA908704BA800780978884204DD7E
:1036D000FFE74A984BA90870FFE74CA80078062836
:1036E00044D1FFE729A900200870FFE729A8007846
:1036F0004BA9097888422DDAFFE74D9829A9097866
:10370000405CFFF77DFD28A9087027A900200870FC
:10371000FFE727A80078052816DCFFE728A800782F
:1037200006210A4642435848801827AA1278805C2E
:1037300029AB1B7859438A182AA98854FFE7279890
:10374000401C27A90870E4E7FFE72998401C29A935
:103750000870CBE74FA800784EA909784B9B06224A
:103760005A43D3B22AAAFFF76DFD88E04CA800782F
:10377000082800D082E006A900200870FFE706A80C
:1037800000784BA9097888422BDAFFE74D9806A903
:103790000978405CFFF734FD05A9087004A90020F2
:1037A0000870FFE704A80078072814DCFFE705A8E5
:1037B000007801013348401804A90A78805C06A902
:1037C0000978C9008A1807A98854FFE70498401CA3
:1037D00004A90870E6E7FFE70698401C06A90870F0
:1037E000CDE74FA800784EA909784B9AD206130E60
:1037F00007AAFFF727FD03A900200870FFE703A829
:1038000000784BA9097888422CDAFFE74D9803A984
:103810000978405CFFF7F4FC02A9087001A90020B8
:103820000870FFE701A80078072815DCFFE702A869
:10383000007801011348401801A90A781018007A8D
:1038400003A90978C9008A1807A98854FFE70198D5
:10385000401C01A90870E5E7FFE70398401C03A995
:103860000870CCE74FA800784E99491C4B9AD200BB
:10387000C9B2D3B207AAFFF7E5FCFFE7FFE750B0F4
:1038800010BDC0468A660000605E000080B586B04C
:1038900005900491059800680499FCF71BFF0390BC
:1038A000FFE703981649FDF701F8002806D1FFE766
:1038B00003981649FCF7BDFE0390F2E7FFE7039873
:1038C0001049FDF701F8002806D1FFE703980E49DB
:1038D000FCF7AFFE0390F2E70598006802900599A7
:1038E00000200860059803990122D207514000F09A
:1038F0000FF80190029805990860019806B080BD04
:1039000000003443000034C30000B4430000B4C3DB
:1039100080B5B0B02E902D912E983D21405C0028AE
:1039200003D1FFE700202F903AE22E983E21405C21
:10393000002807D0FFE72E9800682D99FCF7CAFEF3
:103940002C9006E02D982E990968FCF7C3FE2C9068
:10395000FFE72C982E99C8602E983F21405C0028E4
:1039600010D0FFE72E99C8680122D2079043896AD8
:10397000FCF7B8FF002804D1FFE72E9840682F908D
:103980000EE2FFE72E983C21405C2B90002805D0EA
:10399000FFE72B98012800D116E1FCE12E98412188
:1039A000405C002819D0FFE72E99C8680122D20791
:1039B0009043896BFCF796FF002809D1FFE72E980A
:1039C0002A90C1688068FCF734FE2A99886003E079
:1039D0002E9900208860FFE708E02E982990C168A2
:1039E0008068FCF726FE29998860FFE72E98402121
:1039F000405C002829D0FFE72E998868496BFCF7C6
:103A000055FF002804D1FFE72E98406B289018E05E
:103A10002E998868496B0122D2075140FCF754FF68
:103A2000002807D1FFE72E98406B0121C9074840C5
:103A3000279003E02E9880682790FFE7279828902A
:103A4000FFE728982E998860FFE72E984221405C76
:103A5000002829D1FFE72E992691C8692190C868CE
:103A60002390086A8968FCF73DFE23990246219855
:103A70002292FCF737FE2299FCF7DBFD26990246DD
:103A8000239825924A6A24920969FCF723FE01468D
:103A90002498FCF727FE2599FCF7CBFD2699486072
:103AA0002E99C868086129E02E992091C8691C9058
:103AB000C8681B90086A8968FCF714FE1B990246C7
:103AC0001C981D92FCF70EFE1D99FCF7B2FD0146F5
:103AD00020981F91416A1E912D998069FCF7FAFD8B
:103AE00001461E98FCF7FEFD01461F98FCF7A1FD5C
:103AF000209948602D982E998861FFE72E984321E0
:103B0000405C002829D1FFE72E994868C96AFCF774
:103B1000CDFE002804D1FFE72E98C06A1A9018E065
:103B20002E994868C96A0122D2075140FCF7CCFEA1
:103B3000002807D1FFE72E98C06A0121C907484035
:103B4000199003E02E9840681990FFE719981A9091
:103B5000FFE71A982E99486035E02E991891486829
:103B6000096BFCF766FD1899C96AFCF79FFE0028EF
:103B700004D1FFE72E98C06A179020E02E99169185
:103B80004868096BFCF755FD1699C96A0122D207EE
:103B90005140FCF799FE002807D1FFE72E98C06A34
:103BA0000121C9074840159006E02E994868096B25
:103BB000FCF73FFD1590FFE715981790FFE7179862
:103BC0002E994860FFE7E7E02E984221405C0028EC
:103BD00040D1FFE72E991491C8690E90C8681190E2
:103BE00009691091FCF776FD1199024614980D921F
:103BF000006AFCF777FD0D9902460E980F92FCF7CC
:103C000071FD0F99FCF715FD109902461498139257
:103C1000406A12900846FCF70CFD01461198FCF72B
:103C200059FD14994969FCF704FD01461298FCF707
:103C300059FD1399FCF7FDFC014614984068FCF708
:103C4000F8FC149948602E99086948612E99C86853
:103C500008613AE02E990C91C8690890C8680690EE
:103C60000969FCF737FD069902460C980792006A2D
:103C7000FCF738FD0799024608980992FCF732FDD7
:103C80000999FCF7D6FC01460C980B91416A0A9100
:103C90002D998069FCF71EFD01460A98FCF722FD6C
:103CA00001460B98FCF7C5FC01460C984068FCF7F0
:103CB000C0FC0C9948602E99086948612E99C86823
:103CC00008612D982E998861FFE72E984321405C6A
:103CD000002829D1FFE72E994868C96AFCF7E6FD5C
:103CE000002804D1FFE72E98C06A059018E02E99AD
:103CF0004868C96A0122D2075140FCF7E5FD002857
:103D000007D1FFE72E98C06A0121C90748400490F7
:103D100003E02E9840680490FFE704980590FFE7C1
:103D200005982E99486035E02E9903914868096BF3
:103D3000FCF77FFC0399C96AFCF7B8FD002804D1A1
:103D4000FFE72E98C06A029020E02E990191486802
:103D5000096BFCF76EFC0199C96A0122D207514038
:103D6000FCF7B2FD002807D1FFE72E98C06A0121B9
:103D7000C9074840009006E02E994868096BFCF797
:103D800058FC0090FFE700980290FFE702982E99F8
:103D90004860FFE700E0FFE72E9840682F90FFE7BC
:103DA0002F9830B080BD000080B586B005AA107095
:103DB00004910498A749FCF779FD002803D1FFE797
:103DC000A44803900FE004981249FCF77DFD0028F9
:103DD00003D1FFE70F48029002E004980290FFE74A
:103DE00002980390FFE70398049005A800780190DB
:103DF000002804D0FFE70198012804D007E00498C8
:103E00008D49086004E004988F49086000E0FFE7EE
:103E100006B080BD0000C0C082B00190684601704D
:103E2000009801993D22885402B0704780B588B04F
:103E3000002007904D4800780590002808D0FFE743
:103E4000059801281BD0FFE70598022847D066E0B7
:103E500079483D21405C002810D0FFE77A483D2199
:103E6000405C00280AD0FFE7002104910846FFF7D4
:103E70009BFF04990120FFF797FFFFE750E074488C
:103E80003D21405C002829D0FFE73A48016870488E
:103E9000FFF73EFD07903848022100F006FF01467B
:103EA00006A801700078C007002804D0FFE7684921
:103EB00000208860FFE707987F21C9050391FCF780
:103EC000B8FB01460020FFF76FFF03980799FCF746
:103ED00001FC01460120FFF767FFFFE720E05E4895
:103EE0003D21405C002819D0FFE7214801685A486D
:103EF000FFF7CCFC079007987F21C9050291FCF7DA
:103F000098FB01460020FFF74FFF02980799FCF746
:103F1000E1FB01460120FFF747FFFFE700E0FFE775
:103F200045483D21405C00281ED0FFE746483D2122
:103F3000405C002818D0FFE71048019001683E4817
:103F4000FFF7E6FCFCF7F5FC01460020FFF7AEF8B2
:103F5000019881683C48FFF7DBFCFCF7EAFC01466E
:103F60000120FFF7A3F8FFE708B080BDD4012020AF
:103F7000A0012020380320203003202040032020EF
:103F8000F0B587B0FFF770F82B4C2C48E0612C4956
:103F900021620021069161623D2202920123039376
:103FA000A3543C27E3553E26A3554225049561556D
:103FB000244BE362244CE061244820620398616250
:103FC000A054E055A0556155E362214CE1612162A6
:103FD0006162A154E155A055412561551D490091EB
:103FE000E162402101916054E06A216AFCF7B7FB6D
:103FF000009B019A069960630498215402988121DC
:10400000C9052160069C14490591CC610C624C6283
:104010000C540398CC5588554C55CB628854C86ACB
:10402000096AFCF79CFB049A0599034606984B63C2
:10403000885407B0F0BDC0465C02202000409C457B
:10404000A4509D4300401C46A00220205C4F4243E8
:10405000E40220200000C0401802202070B584B087
:1040600003AC207002A80090017019480190FDF780
:1040700042FD01460098227818231D465543154AF3
:104080005519298225781946694351181025495F29
:1040900026781D46754355191226AD5F4E192578B1
:1040A000194669435518696989196961257819465E
:1040B00069435118098A24786343D21851820078E1
:1040C00001F036F801980021FDF780FE04B070BDC4
:1040D000000009400400202080B582B001900198C2
:1040E000FCF740FC034A044BFCF778FBFCF74EFC62
:1040F00002B080BDD1A05DD046DF913F80B582B0D7
:104100000F4910480190FDF707FF01980E49FDF790
:10411000A3FE01980021FDF708FF019802210B2260
:10412000FDF7D4FE019801218902FDF771FE0F20F1
:10413000032100F06FFE0198FDF75EFE02B080BD26
:104140004C6D0000008010404E6D000080B582B0C4
:104150000B490C480190FDF703FE01980A49FDF751
:1041600057FD019801210091FDF7A6FC0099102050
:1041700000F050FE0198FDF795FC02B080BDC046EE
:10418000586D0000004008405C6D000080B590B0A4
:104190000920FDF7D5F90A20FDF7D2F91020029089
:1041A00004210391FDF70AFA02996B480F90FDF77D
:1041B0008FF903991120FDF701FA0F982021FDF7DF
:1041C00087F9012008900721FDF7C4F90020099024
:1041D0000621FDF7BFF903990898099B0193C004D4
:1041E0000B9000900F2004901A46FDF7CBF903992D
:1041F000099B0B98019300900E2005901A46FDF73D
:10420000C1F90498FDF758F90598FDF755F9099B90
:104210000B98019300900220079003210E911A46FB
:10422000FDF7B0F9099B0B980E99019300900520BA
:1042300006901A46FDF7A6F90798FDF73DF906988E
:10424000FDF73AF907991420FDF7B8F907991520F9
:10425000FDF780F93920FDF769F92B20FDF766F9A4
:10426000089809990B9B009102040A923B20FDF7E4
:1042700045F909990A9A0B9B00913620FDF73EF902
:1042800009990A9A0B9B00912F20FDF737F909999C
:104290000A9A0B9B00912320FDF730F909990A9A9D
:1042A0000B9B00913720FDF729F90B20FDF73EF914
:1042B0000C20FDF73BF92520FDF738F92620FDF706
:1042C00035F909990A9A0B9B00910D20FDF716F913
:1042D00009990A9A0B9B00911220FDF70FF9099991
:1042E0000A9A0B9B00911320FDF708F909990A9A85
:1042F0000B9B00912120FDF701F909990A9A0B9B6C
:1043000000912220FDF7FAF809990A9A0B9B009177
:104310002420FDF7F3F809990A9A0B9B00912D20B0
:10432000FDF7ECF80E9801040D91BE480C90FDF7D6
:1043300071F90C980D99FDF7CBF80F980749FDF727
:104340009DF80E990F98FDF765F90F980449FDF750
:10435000BFF810B080BDC04600200A40000004082D
:104360000300040880B582B00B49B0480190FDF706
:10437000F7FC01980949FDF74BFC019801210091D8
:10438000FDF79AFB0099112000F044FD0198FDF71C
:1043900089FB02B080BDC046706D0000746D0000E6
:1043A00080B582B01249A2480190FDF700FA019849
:1043B00003214902FDF7E8F90198FDF757F9019843
:1043C000FDF7DAF901982721FDF72AFA0198002173
:1043D0000091FDF711FA00990198FDF7FBF901989A
:1043E000FDF75AF90198FDF74DF902B080BDC046BE
:1043F000886D000080B582B00A49D1480190FDF770
:10440000AFFC01980849FDF703FC01980121FDF775
:1044100053FB1220022100F0FDFC0198FDF742FB46
:1044200002B080BD8A6D0000906D000080B582B042
:1044300000200190FDF7A0FA012000904002FDF756
:10444000A7FA0198FDF7DAFAFDF77EFAFDF782FA8E
:10445000009A032000030A21FDF7A8FA0648FDF799
:1044600013FA1020FDF7D8FAFDF77EFA0198FDF750
:10447000DFFA02B080BDC046A46D000080B50248DE
:1044800000F024F980BDC0468038010080B584B0BA
:104490000F4965480390FDF763FC039849214902E1
:1044A0000191002302931A46FDF7D6FA0199029A68
:1044B00003980123FDF7D0FA03980649FDF77AFC2B
:1044C0000398FDF7EFFA0398FDF78AFC04B080BD6E
:1044D000CC6D0000FFFF000080B582B01249554846
:1044E0000190FDF764F9019803214902FDF74CF9A9
:1044F0000198FDF7BBF80198FDF73EF901980921F5
:10450000FDF78EF9019800210091FDF775F90099EA
:104510000198FDF75FF90198FDF7BEF80198FDF7E6
:10452000B1F802B080BDC046CF6D000080B500F08C
:104530002BF8FFF72BFEFFF779FF00F07DF8FFF770
:10454000A5FFFFF70FFFFFF701FEFFF753FFFFF790
:1045500027FFFFF7C1FFFFF7D1FDFFF78FFF0649E8
:10456000B8220020885405499C23C8540449C854E3
:104570000449885480BDC0464C052020AC0420204E
:1045800050032020F003202080B58AB025480090F9
:10459000FDF738F8B4480190FDF734F84848029028
:1045A000FDF7AAFB20480390FDF7A6FB7448049092
:1045B000FDF7A2FB6A480590FDF79EFB6048069058
:1045C000FDF79AFB1A480790FDF7CAF819480890BA
:1045D000FDF7C6F8EB480990FDF76CFC0098FCF776
:1045E00083FF0198FCF780FF0298FDF771FA0398AA
:1045F000FDF76EFA0498FDF76BFA0598FDF768FA77
:104600000698FDF765FA0798FDF752F80898FDF748
:104610004FF80998FDF70AFC1020FCF702FF0AB0DA
:1046200080BDC04600000A4000000940008086406E
:1046300000200F4000000F4080B586B01F49204881
:104640000590FDF78DFB05981E49FDF75DFA05986D
:104650000023029319461A46FDF790FB029B05982A
:104660000093102201921946FDF766FB029A059805
:104670001146FDF753FB029A059813490391FDF784
:1046800067FB019A029B059801210491009119464C
:10469000FDF752FB0299049A0598FDF73FFB039939
:1046A000049A0598FDF754FB0598FDF7FBF905986A
:1046B0000321FDF729FB06B080BDC046D16D000087
:1046C00000208640D46D00001127000080B584B022
:1046D00002900298401E000E002803D0FFE7012040
:1046E000039011E00298401E0949086000200190E3
:1046F000C043032100F08EFB019806490860064A7A
:10470000072111600390FFE7039804B080BDC04605
:1047100014E000E018E000E010E000E080B500F0F8
:10472000DBFA80BD80B50648FDF7DCF9012805D12C
:10473000FFE700F09FF8FFF779FB00E0FFE780BD9F
:104740000000864080B50648FDF7CCF9012804D169
:10475000FFE70520FDF746FC00E0FFE780BDC0460F
:104760000040084080B50648FDF7BCF9012804D197
:10477000FFE70520FEF740F800E0FFE780BDC046F8
:104780000080864080B584B03548007801900028CC
:1047900008D0FFE7019801280AD0FFE70198022816
:1047A0000CD025E0012081042F48FCF77BFE20E09F
:1047B000012081042C48FCF741FF1AE0FFE700F0DC
:1047C00087FA0390039827490968401A002801D501
:1047D000FFE743E000F07CFA7D2189004018214981
:1047E0000860FFE7012081041F48FCF733FF00E069
:1047F000FFE71E4800780090002808D0FFE70098E7
:1048000001280AD0FFE7009802280CD025E00120FB
:10481000C1061548FCF746FE20E00120C1061248FB
:10482000FCF70CFF1AE0FFE700F052FA0290029842
:104830000F490968401A002801D5FFE70EE000F093
:1048400047FA7D21C900401809490860FFE70120A7
:10485000C1060548FCF7FEFE00E0FFE704B080BD9E
:104860003D0320202C03202000200A403C03202070
:104870002803202080B584B030490020087003A9A7
:10488000087002A90870FFE702A8007806282DD852
:10489000FFE702A80078C2002C48811880584968B8
:1048A000FCF7A5FE00280AD0FFE702A802782849F5
:1048B0000120885421490878401C087005E002A8AE
:1048C0000278234900208854FFE702A80178204895
:1048D000405C0299491C41430398401803A90870A1
:1048E000FFE70298401C02A90870CDE71348007842
:1048F000002809D1FFE712480068124908601248F1
:10490000022100F0DDF917E003A80078FCF706F8B3
:1049100001900A480078FCF701F801460198FBF77E
:104920001EFF014607480160006805490860064807
:10493000012100F0C5F9FFE704B080BD120A202074
:10494000E40020203803202030032020AC00202069
:10495000130A202080B582B00A48FDF773FA0B28AD
:104960000CD1FFE70748FDF79BFA014601A801704B
:1049700001784248402200F08BF800E0FFE702B0E7
:1049800080BDC0460080104080B586B00590574875
:104990000078C007002801D1FFE76DE053490020EF
:1049A000087036483D21FBF725FE04900498002846
:1049B00005D1FFE731484021FBF711FE5CE0049987
:1049C000002008702D4803900498401C0290039822
:1049D0002B49FBF720FE002808D1FFE7029801F0E1
:1049E000ECF8FBF7D3FF0599C86140E0039825492F
:1049F000FBF711FE002819D1FFE7029801F0DDF85E
:104A0000FBF7C4FF059908620598006A0021FBF7CF
:104A100077FF002809D1FFE705990191C86A096A63
:104A2000FBF79DFE01994863FFE71FE003981649D5
:104A3000FBF7F1FD002808D1FFE7029801F0BDF86F
:104A4000FBF7A4FF059948620FE003980F49FBF7B5
:104A5000E2FD002808D1FFE7029801F0AEF8FBF76D
:104A600095FF05990860FFE7FFE7FFE7FFE70348C9
:104A70004021FBF7B4FDFFE706B080BDD501202043
:104A8000126F00000F6F00000C6F0000156F000028
:104A900010B583B0029001A8017069460A700078D1
:104AA0000D280AD1FFE7029A0F490B780020D05455
:104AB0000E4B01221A70087014E00B48007869460A
:104AC0000978491E884208DAFFE701980299064CE6
:104AD0002278531C2370885403E003490020087097
:104AE000FFE7FFE703B010BD340320204001202082
:104AF00080B5044B052003210822FEF78CFCFEF74D
:104B0000CFFB80BD0770000080B5FEF7FBFBFEF712
:104B10009FFA80BD80B5FEF7E5F8FEF73FFAFEF795
:104B20001FF980BD10B586B000910146009805912F
:104B300004A90870039202AA1380059809781388C3
:104B40000122FCF779FE01A900200880FFE701A8F7
:104B5000008802A90988884215DAFFE7FFE705986F
:104B6000FCF7DAFD002801D0FFE7F8E70598FCF72D
:104B7000EDFD039901AA12888854FFE70198401CB3
:104B800001A90880E3E705986421FDF749FA0028A8
:104B900001D0FFE7FFE706B010BD10B58AB009905D
:104BA00008A80170079206A803800088012804DB8A
:104BB000FFE70020002805D103E00120002801D1F3
:104BC000FFE70DE006A801880120002203920129D9
:104BD000049001DB03980490049800F05DF9FFE76E
:104BE00009986421FDF71CFA002801D0FFE73DE099
:104BF0000998079906AA02921288FCF765FD029AA5
:104C000005A90880099808A9097813880022FCF7EB
:104C100013FEFFE705A8008806A90988884219DA6B
:104C2000FFE7FFE70998FCF783FD002801D0FFE7C5
:104C3000F8E70998079905AA01921388C918069AF6
:104C4000D21A92B2FCF740FD0199024605988018ED
:104C50000880DFE709986421FDF7E2F9002801D018
:104C6000FFE703E00998FCF745FDFFE70AB010BD38
:104C700080B584B0039000F02BF802900398019067
:104C80000198401C002804D0FFE70198401C0190C7
:104C9000FFE7FFE700F01CF80299401A01998842EB
:104CA00001D2FFE7F6E704B080BD82B00190009129
:104CB0000198006800990840411E884102B0704781
:104CC00082B00190009100980199086002B070478D
:104CD000044800687047C04602490868401C0860E4
:104CE0007047C0461C0A202080B582B00190009118
:104CF0000198002801D1FFE70BE000980078C00779
:104D0000002806D0FFE7019880470099002008702E
:104D1000FFE702B080BD80B584B01120009000F0A4
:104D20004DF8009800F060F81020019000F046F86F
:104D3000019800F059F81220029000F03FF8029814
:104D400000F052F80F20039000F038F8039800F0BC
:104D50004BF804B080BD000080B584B0024603A8C3
:104D6000027002AA117001AA002111800078411E70
:104D70008841800110700298507003483C21022342
:104D8000FFF70BFF04B080BD00200F4082B00191FF
:104D9000009001984000400D0249401A411E884190
:104DA00002B07047FF07000081B000900098C00D6E
:104DB000C0B2FF38411E884101B0704781B0014642
:104DC0006846017000214056002809D4FFE7684674
:104DD00001781F2001400120884002490860FFE758
:104DE00001B0704780E200E081B001466846017082
:104DF00000214056002809D4FFE7684601781F20AB
:104E000001400120884002490860FFE701B0704777
:104E100000E100E070B582B0024601A80270009186
:104E200000214056002816D4FFE7002401A90857A6
:104E30000322D3431840174A805809578C07E50EC0
:104E4000FF24AC40A043009CA401E4B2AC4020434A
:104E5000194088501AE001A908780F24204008382A
:104E60000322D34318400A4A8058002549578D072A
:104E7000EE0EFF25B540A843009DAD01EDB2B54053
:104E800028432140083919408850FFE702B070BD1F
:104E90001CED00E000E400E081B00090FFE7FEE7D9
:104EA00005490020087070470349012008707047C9
:104EB00001490220087070473C03202080B5034B55
:104EC000642000210622FEF787FA80BDFC6F0000F7
:104ED00080B586B005900598FBF720FD1749FBF7D4
:104EE0003EFC0490B04800780390002804D0FFE70F
:104EF000039801280FD01DE0002002900121FFF748
:104F0000ADF802990846FDF74BF80299049A084655
:104F1000FDF724F80FE0012001900021FFF79EF833
:104F200001990846FDF73CF80199049A0846FDF7F7
:104F300015F800E0FFE706B080BDC04600007A44E7
:104F400010B58AB0214805900068FBF70BFD019170
:104F50000090B14B07934120089000210622069251
:104F6000FEF73AFA05988068FBF7FCFC069A079B67
:104F70000446089803940C4603990194009101217A
:104F8000FEF72AFA05984068FBF7ECFC069A079BA7
:104F90000446089804940C46049901940091022157
:104FA000FEF71AFA0598C068FBF7DCFC069A079B27
:104FB0000446089809940C4609990194009103212C
:104FC000FEF70AFAFEF76CF90AB010BD4003202084
:104FD00080B582B0FFF772FF0D4B002100910622D1
:104FE00001920846FEF7F8F90098019A094B012151
:104FF000FEF7F2F90098019A074B0221FEF7ECF94F
:105000000098019A054B0321FEF7E6F902B080BD36
:105010002E6F00003A6F00004D6F0000596F0000C6
:1050200010B588B0194803900068FBF79BFC01910C
:105030000090794B05932A200690002106220492C5
:10504000FEF7CAF903984068FBF78CFC049A059BAD
:105050000446069802940C4602990194009101219D
:10506000FEF7BAF903988068FBF77CFC049A059B6D
:105070000446069807940C46079901940091022172
:10508000FEF7AAF9FEF70CF908B010BDA001202028
:1050900080B582B0FFF712FF0A4B00210091062273
:1050A00001920846FEF798F90098019A064B0121F3
:1050B000FEF792F90098019A044B0221FEF78CF951
:1050C00002B080BD196F0000466F0000276F00001E
:1050D0000549002008707047034901200870704797
:1050E00001490220087070473D03202080B582B03E
:1050F00000200190FFF71AFA0C48FCF725FFFFF794
:1051000003FDFFF7F5FCFDF761FBFEF739FFFEF746
:1051100091F8FFF700FEFFE7FDF778F9FFF732FBA4
:10512000FFF7F8FC3148FFF72FFCF5E700000840D7
:1051300010B586B005A9019108701B48049000784D
:1051400018210291414319480390405800210091D1
:10515000FCF70CFA0099029A0398049B1B785A43B7
:1051600080188068FCF702FA019B029A03991C7868
:105170001046604308581B785A4389184968FCF761
:10518000F5F9019B029A03991C78104660430818B0
:1051900080681B785A438918C968FCF7E7F90499B5
:1051A0000598087006B010BD1106202004002020CC
:1051B00080B582B00C4800210191FEF72DFE0199C7
:1051C0000A48FEF729FE02B080BDC04680B582B015
:1051D000054801210191FEF71FFE01990348FEF7E2
:1051E0001BFE02B080BDC0465C022020A002202031
:1051F00080B582B007480068FBF7B4FB01910090CE
:10520000054B2A2000210622FEF7E6F8FEF748F8B3
:1052100002B080BD38032020206F000080B5FFF76A
:105220004DFE034B002106220846FEF7D5F880BD4F
:10523000B56F000080B508480021FEF7EDFD80BD88
:1052400080B582B0044801210191FEF7E5FD019887
:105250000249087002B080BDE4022020D401202061
:1052600037B514460846064B6A46214600F004F955
:1052700004466946002000F09BFC20463EBD00002D
:10528000B15B00002021020C01D010211046020A5F
:1052900001D010460839020901D01046091F8208C2
:1052A00001D01046891E420801D0881E7047081A96
:1052B000704700000148006870470000000020208F
:1052C00002E008C8121F08C1002AFAD17047000086
:1052D0007047000000000000002001E001C1121F23
:1052E000002AFBD1704700000149086070470000A8
:1052F00000002020F0B51FB486B00998089A030D6D
:105300000021024314D05148514A18185043051443
:105310001198012810981AD0281A401C00264D4FC9
:105320004D49009601910490002812DA444211E0A0
:105330001198012449A3012801D11098C14306986E
:10534000119A84600360C26041600BB0F0BD4042BE
:10535000E4E70446210500203F4A001C5141039127
:10536000029012E0E00707D032463B4601990098D0
:10537000FBF734FA0191009032463B46104619463D
:10538000FBF72CFA06460F466410002CEAD104986D
:10539000039B0028029A0999089806DAFBF71EFA7F
:1053A000019B009AFBF71AFA05E0FBF707FD019B4A
:1053B000009AFBF703FD04460E460022284BFBF73C
:1053C00095FD03D80020C043014607E00022254B8D
:1053D00020463146FBF740FCFBF768FD102409E04E
:1053E000002C0ADB0A220023FBF70BFB079B303261
:1053F0001A55641E02460A43F2D11122641C079B0F
:10540000121B1C19119B012B03D0012308430ED141
:105410000AE0084304D0112010900020119077E793
:105420001098151A6D1E0BE01098824202DD0023C1
:105430006D1C03E0824201DA00236D1E002BEED0CA
:10544000069811998260C16030C07EE701FCFFFFC1
:10545000104D0000000014400000F03F300000003C
:105460000000F0430000E03F30380A2801D201205C
:105470007047002070470000FFB597B00646002532
:1054800018E2252877D100242746FD49049400E03E
:105490000443761C32780120203A90400842F7D12C
:1054A00030782A280ED00222307801463039092976
:1054B00016D804990A235943303940181443761CEE
:1054C0000490F1E7189802C804911890002904DAB2
:1054D0000120400304434842049002200443761C08
:1054E00030782E2814D1042004437078761C2A28A2
:1054F00009D11898761C80C8189009E00A214F43FA
:10550000303FC719761C3078014630390929F5D962
:1055100030786C2810D006DC4C281AD068280ED0C1
:105520006A2817D104E0742813D07A2812D110E029
:105530000120400504430CE00121090501E003219D
:1055400009050C437178814203D10120000524181C
:10555000761C761C3078119066280BD013DC582806
:105560007DD009DC00287BD04528F6D04628F4D031
:1055700047281AD1A5E118E0632835D0642870D0F7
:10558000652812D19DE170286CD008DC6728F1D025
:1055900069287BD06E280DD06F2806D1BAE0732819
:1055A0002ED0752871D0782859D01A9A1999904719
:1055B0006D1C7EE16002400F022809D003280DD047
:1055C0000428189801680DD00D60001D189070E136
:1055D0001898EA1701680D604A60F6E718980168A4
:1055E0000D80F2E70D70F0E718986A4601781172A5
:1055F000001D18900020507202A80090012005E0C4
:10560000189802C8189000200091C04361070DD57A
:10561000002101E00199491C0191B94212DA81424D
:10562000F8DB009A515C0029F4D10BE0002101E085
:105630000199491C01918142FADB019A0099895C28
:105640000029F5D1019904981A9B471A214638463A
:10565000199A00F097FA0199401945180BE04FE0AC
:105660002CE113E04EE0009800990078491C00916D
:105670001A9A199990470198401E0190401CF2D146
:10568000214638461A9B199A10E137E00A2000217A
:10569000009001916002410F022907D0189A01CAB7
:1056A0001892C2179446032908D00AE01898C01D22
:1056B000C108C90005C91891944607E000B2C21795
:1056C0009446042902D140B2C1178C46002261469B
:1056D000944506DA0A460021404291418C462D212C
:1056E00002E0210504D52B216A461173012103E054
:1056F000E10701D02021F7E7029155E00A200AE0F6
:10570000102008E0102000900021042004430191A3
:10571000082703E008200021019100906002410F5A
:10572000022907D0189A01CA189200229446032928
:1057300008D008E01898C01DC108C90005C9189113
:10574000944603E080B2042900D1C0B20021029146
:10575000210729D51199702906D0009A1021019BA3
:105760004A401A4305D00EE040216A4611730121D8
:1057700008E06146014306D030216A461173119951
:10578000517302210291009A0821019B4A401A4359
:105790000AD16146014301D1610705D530216A462E
:1057A000117301217F1E02911199582904D035A14E
:1057B0000E910DA90D910DE037A1F9E76146019B0E
:1057C000009AFBF71EF90E9B8C469B5C0D9A521EAD
:1057D0000D92137061460143F0D10D9805A9081A86
:1057E00020300190600703D501200004844300E0CD
:1057F00001270198874201DD381A00E00020019955
:1058000000904118029809180498401A0490E00387
:1058100006D421461A9B199A049800F0B3F9451949
:10582000002706E003A81A9AC05D199990476D1CDD
:105830007F1C02988742F5DBE0030CD521461A9BBA
:10584000199A049800F09EF9451904E01A9A30203C
:10585000199990476D1C0099481E00900029F5DCAD
:1058600008E00D980D990078491C0D911A9A199924
:1058700090476D1C0199481E01900029F1DC63E1FD
:105880000928010030313233343536373839616216
:1058900063646566000000003031323334353637DA
:1058A00038394142434445460000000000F05AF9AF
:1058B0004519761C3078002800D0E2E528461BB058
:1058C000F0BD600700D406271898C01DC108C900A4
:1058D00048680A680831C30FDB071891190001D026
:1058E0009CA108E0210501D59BA104E0E10701D0BE
:1058F0009AA100E09AA1430011985B0810916528D5
:105900000CD006DC452809D046281DD0472841D1B7
:1059100041E0662818D067283CD13CE00021112FD7
:1059200001DB112000E0781C0191009008A911A86A
:10593000FFF7E0FC139905910021119A15927F1C45
:1059400012980197009150E00120C00703900120B8
:10595000019008A9009711A8FFF7CCFC139A14999D
:1059600005920022119B009212981593059A0192BC
:10597000002901D0104602E0791C40180190381A25
:1059800001D5019804E04042401E0090781C01902F
:10599000C01B029043E0012F00DA01270021112FE4
:1059A00001DD112000E038460191009008A911A8FE
:1059B000FFF7A0FC13990591119A002112981592F6
:1059C0000091019721070CD40599B94201DB019997
:1059D00000E00191012904DD159A491E515C30292E
:1059E00006D0B84201DA011D05DA0121029115E065
:1059F0000199491EEDE7002805DC00994118009146
:105A00000199091A03E0019A411C914200DD0191BC
:105A10000099401A401C02900120C0070390200703
:105A200006D402990198814202DB0020C043029013
:105A300000206946C87707AF012103980337C907DB
:105A4000884224D0022011902B2012900398002825
:105A50000CDA404203902D20129007E00A210398AF
:105A6000FAF7B0FF30317F1E039039701199481E4C
:105A700011900029F2DC03980028EFD1791E1298CA
:105A800008703078202108404530BF1E387006A8C5
:105A9000C01BC01D039010980078002800D0012082
:105AA000019941180298C017091803980918049819
:105AB000401A401E0490E00306D421461A9B199A0E
:105AC000049800F05FF8451910980078002803D07A
:105AD0001A9A199990476D1CE00324D521461A9B08
