:020000040000FA
:1000000020462020D5000000D9000000DB000000C1
:1000100000000000000000000000000000000000E0
:10002000000000000000000000000000DD000000F3
:100030000000000000000000DF000000813F000021
:10004000E3000000E3000000E3000000E300000024
:10005000E3000000E3000000E3000000E300000014
:1000600000000000E3000000E300000000000000CA
:1000700000000000E3000000E3000000A5410000D4
:10008000A93F0000C93F0000893F0000E3000000D5
:10009000E3000000E300000000000000000000009A
:1000A000E3000000E300000000000000000000008A
:1000B000E300000000000000E3000000E300000097
:1000C0000348854600F0E4FC00480047C1480000B2
:1000D0002046202003480047FEE7FEE7FEE7FEE754
:1000E000FEE7FEE7C1000000D2B201E00270401C52
:1000F000491EFBD270470022F6E710B513460A46A8
:1001000004461946FFF7F0FF204610BDCAB2401E54
:100110004178401C8A4202D00029F9D10020704762
:1001200010B5002200E0521C835C8C5CA34201D11C
:10013000002BF8D1D8B2E1B2401A10BDF8B5024692
:100140004A40D40F42004B0052085B089A4202D248
:100150000246084611464A0023D0C30D4A00DDB2CC
:10016000120EAD1A202D35DA49020126490AF6058C
:100170008A19002C00D0524220214F1B1146B94051
:100180002A411018C20D9A4221D0002C17D0012DFF
:1001900008DCDA05801AD20F8019D207DBB200F032
:1001A00047FAF8BDDA05801A012340001B06C01883
:1001B00080185A428018CA0F1043490007E04908C6
:1001C000C2071143DA05801A80194008801800F030
:1001D00027FAF8BD61000122511A001BF7E701223E
:1001E000D2075140AAE70122D2075040A6E70246B3
:1001F00070B54A40D30FDB0740002DD04A002AD00B
:10020000010E140E000212020919400A520A841843
:10021000E50104465443000A120A2E045043A4196F
:100220004219200CC543AA18120C0125AD03521C1B
:10023000521912047F39240400D0521C104301D4F7
:100240004000491EC2B20C06C0092018401C4008DC
:10025000802A02D003E0002070BD40084000002941
:1002600000DA0020184370BD70B502464A40D50F31
:1002700040004A00ED0740085208002814D0002A28
:1002800012D0C40DD30D41020120C0055202490A0B
:10029000520AE41A091812187D34914201D3641CE1
:1002A00000E04900002C01DA002070BD00239142DB
:1002B00001D3891A0343400849000028F7D10029D7
:1002C0000AD0914202D10121C90705E0914201D231
:1002D000012101E00121C943E005C018401900F0E7
:1002E0009FF970BDF0B51FB488B00B990998002430
:1002F00048400999C00F490049080991C0070B9966
:100300000090490049080B9109990898A6460843AE
:100310001CD00B990A98084318D009980124400072
:10032000420D4800410D099824050003000B2043AD
:1003300009900B980003000B20430B9050181C49A8
:100340004018002201901446104605E000200146A6
:100350000DB0F0BD032801DA034600E003239C46FC
:10036000C11A0AAE0AE05F0008ADED5B4F00F75B13
:100370007D430027AA187C41491C5B1E6145F2DDC4
:10038000410004AB5A522104120C0A43240C401CB5
:100390000828DFDB019802900099704601910090D7
:1003A000059B049A0799069800F0C0F9D0E7000071
:1003B0000DFCFFFF0122D207002800DB101A0029E4
:1003C00000DB511A814201D801207047002070479C
:1003D0000122D207002800DB101A002900DB511A85
:1003E000814201D301207047002070470122D207CB
:1003F000002800DB101A002900DB511A814201D9C4
:1004000001207047002070470122D207002800DB3E
:10041000101A002900DB511A814201D101207047D6
:1004200000207047C217C10F504010B54018CA07CE
:100430009623002100F0FCF810BDC20F41004002DD
:100440000123400ADB05D207090EC0187F2901DA13
:1004500000207047962903DC9623591AC84001E012
:1004600096398840002AF4D040427047C20FD20724
:10047000400040080BD0C10D0723DB01C918400222
:100480000905400A1143C208400711437047002084
:1004900001467047CB0FDB07490010B549080246FB
:1004A0000A4307D00A0D07240903E401090B121BB4
:1004B000002A01DC002010BDC900440F0C43C1001C
:1004C000E018D205801800F0ABF810BD70B50446F6
:1004D000002903D000202022012310E0002801D0B1
:1004E0000020C043C046C0460DE02546D5408D42A1
:1004F00005D30D469540641B1D4695404019154691
:10050000521E002DF1DC214670BDF0B51FB4064629
:10051000002082B005464024019100901BE0019923
:1005200022460F46304600F0DBFA049A059B801AFB
:10053000994110D310461946224600F0C1FA361AE6
:100540008F410197224601200021009F00F0B8FA58
:1005500038184D4100902046641E0028DFDC019BC6
:1005600000982946324607B0F0BD00000FB400B530
:1005700089B00A460DA9009100230C99002ACB608E
:10058000234B0693234B079301D0042300E0002361
:10059000214A0292214A0892019302466B460020AA
:1005A00000F059FB09B008BC04B01847F0B585B09D
:1005B00007460020C04301901E46002015460C4609
:1005C0000091029104903B466A46314604A8FFF729
:1005D000CDFF049902466018002D05D0002901D0F6
:1005E000034600E023462B6000290ED0002A02DDDE
:1005F0000099814209D0001B019000943B466A4655
:100600003146029404A8FFF7B1FF05B0F0BD000029
:10061000AD0E0000CD0E0000FFFFFF7F290B000094
:10062000002904DA401C490001D14008400070470D
:1006300070B40024050C05D11024000402D1002957
:1006400021D01124050E01D100020834050F01D17B
:100650000001241D850F01D18000A41C002801DBAE
:100660004000641C002908D020252E1B0D46F540B3
:10067000A14000D001212943084301061B1B000AA9
:10068000DB1D02D5002070BC7047DB0518188018F0
:100690000029F8DA401C4900F5D170BC4008400040
:1006A0007047420005D04200120E52428A4201DBDE
:1006B00000207047C9050818704770B5002801DC94
:1006C000002070BD410040020126400AF605090ED7
:1006D0008019CA0701D14000491E4D100022114661
:1006E0003F353346CB409B18D418844201D8001BB9
:1006F0001A464000491C1729F3DD5100814202D2FD
:100700000021C94300E00021E8058018FFF788FFB9
:1007100070BD10B5002B08DA0024401C614192180E
:100720005B411A4301D14008400010BDF0B51FB431
:1007300082B005460C0003D0084604F083F902E0BD
:1007400004F080F92030024600902146284600F04F
:10075000B7F9049B059A04460F4618431143084312
:1007600014D0184610431BD0009840210A1A18468E
:10077000059900F0B5F905460E46009A05990498CA
:1007800000F09EF9084305D0012004E020463946D8
:1007900007B0F0BD0020C11705430E432C4337437B
:1007A00000990E986305401A7905E40A00220C436B
:1007B000FD0A0A3002D500200146E9E701051019BB
:1007C00069410C9C0D9D00196941FFF7A2FFDFE70D
:1007D000F0B507460846584087B0C00F049048005F
:1007E0000E46590040084908BC1A884105D23846CF
:1007F00031461E4617460B46024658004008104335
:100800004CD0300D039040055900400D490D059026
:10081000401A0290402872DA18030121000B0905E2
:100820000843019004980092002805D00199524293
:100830000020884100920190029840210A1A0199F3
:10084000009800F03DF905460C466B4607CB00F0DA
:1008500058F9C0197141039A0E0D0023D71756405D
:100860001A467A40164344D0049A002A2DD0029AA0
:10087000012A039A15DC1205C01A9141012636059A
:10088000001C7141D20F059ED2070093019202967F
:100890002A462346FFF74AFF07B0F0BD38463146E7
:1008A000FAE71605224A0F46B218C01AB7410121CD
:1008B0000905001C4F4100187F4111461818794165
:1008C000E20F10436D19644113E0E2076D08154310
:1008D0006408C2071443039A01261205C01A914105
:1008E0003605001C7141CE07400830434908C01846
:1008F00051412A462346FFF70CFFCDE7FFE7049856
:1009000001224000C117121A00238B41049831467E
:10091000C417381AA141EEE730B40124E40763405C
:1009200030BC55E730B40124E407614030BC4FE7E8
:100930000000E0FFF0B50C465C4085B0E40FE40732
:1009400003944C0000266408590094464908024666
:100950000296224321D062460A431ED06200570D00
:100960004A000E032303550D012402462C49240599
:10097000781B1B0B360B401823432643614600901F
:100980001C46501AB44103D30098401C009002E06A
:10099000921800985B41002803DA0020014605B058
:1009A000F0BD0020012109050746864611E0644696
:1009B0001D46141BB54106D36546521BB341744610
:1009C00007430C43A646CD07400849082843921820
:1009D0005B4105460D43EAD11046184313D06046EB
:1009E000194650407140084306D06046101AB34182
:1009F00006D20122002306E000220123DB0702E0E9
:100A00000122D2435310009874460105381C6141FD
:100A1000029C039D00196941FFF77BFEBFE70000C0
:100A2000FD0300004A0009030123090B1B051943BC
:100A30000A4B10B5520D9A4202DA0020014610BD51
:100A4000064B34339A4203DC9A1A00F049F810BD81
:100A5000034BD21800F034F810BD0000FF03000073
:100A6000CDFBFFFF10B5002904DB0124E407404261
:100A70008C412146002B04DB1C460123DB0752423C
:100A8000A341994200D1904210BD00000000000037
:100A90001CB5094800900948019005460126009CB4
:100AA00005E0E36807CC33430C3C98471034AC4274
:100AB000F7D3FFF709FB0000806C0000A06C00007A
:100AC00010B5202A04DB0146203A9140002010BDD9
:100AD000914020239C1A0346E3401943904010BDE7
:100AE00010B5202A04DB0846203AD040002110BD72
:100AF0000B46D340D0402024A21A91400843194607
:100B000010BD10B5202A06DBCB170846203A10414D
:100B1000C1170B4306E00B461341D0402024A21A14
:100B200091400843194610BD10B50F21C0B24902CB
:100B300000F0F6F910BD0000FFB5087889B0154641
:100B4000FF2805D0491C2D2804D00022002407E0EE
:100B500000240BE00122F9E70A235C430419491C35
:100B60000878FF28F8D1002A00D0644200200490C1
:100B70002A7801462D2A01D02B2A0FD16D1C2D2A4F
:100B800002D00022049209E00122FBE700260A229B
:100B900033466D1C00F0ACF9381871412F78FF2FE7
:100BA000F4D10C9AA218069202460A4304D0FF23FD
:100BB000069A9133DA4205DA002109980A4606C0FE
:100BC0000DB0F0BD0024B74AB54D2646079200F09F
:100BD000B9F9029006980391002801DA474200E033
:100BE000074639050020AF4A001C51410191009091
:100BF00012E0F80707D022462B4630460799FFF748
:100C000071FB0646079122462B4610461946FFF710
:100C100069FB04460D467F10002FEAD10698019B20
:100C20000028009A0399029806DAFFF783FE3246FD
:100C3000079BFFF77FFE05E0FFF754FB3246079B5B
:100C4000FFF750FB049A002A02D00122D20751403C
:100C5000099A03C2B4E7FFB591B0002009900025BE
:100C6000ED432E209E685C681F460190B9696D1C9B
:100C7000129888470090396A88470028F6D1009872
:100C8000401C0AD00D20C0018443002E12DD0098C4
:100C90002B2809D02D280DD103E00020C04315B02A
:100CA000F0BD012080020443B9696D1C1298884789
:100CB000761E009003A9600501D52D2000E02B20B1
:100CC0006A461073491C0CA80F9102900AE0B9699A
:100CD0006D1C12988847009001204002044313982D
:100CE000761E0560002E02DD00983028EFD00199B5
:100CF0000098884245D18020044308E00998401EAE
:100D000009900120400204431399681C0860B969E6
:100D10006D1C761E1298884700903028EED030E087
:100D20000199884205D1200603D480200443761E11
:100D30001DE0009803F0A0FF002825D00121490202
:100D40000C43009807AA0F9903323038761E91425F
:100D500008D208700F98401C0F90200607D50998FC
:100D6000401E03E0200602D40998401C0990A0050B
:100D700002D51399681C0860B9696D1C12988847E0
:100D80000090002ECCDC59E0002E57DD009865283D
:100D900001D0452852D1A00550D50320000284433C
:100DA000B9696D1C761E129888470090002E0CDDE4
:100DB0002B2804D02D2808D1FF2001300443B96925
:100DC0006D1C12988847761E0090E00501D52D21F4
:100DD00000E02B21029801700298401C02900190C3
:100DE00025E00120400204430EA902980131761E3D
:100DF00088420ED20098029930380006000E087022
:100E000003D10299019881420AD90298401C0290AC
:100E100006E0E00501D5244801E02348404209905E
:100E2000B9696D1C12988847009013980560002ED0
:100E300004DD009803F020FF0028D2D1F969129850
:100E400088470F99FF200870029903AA08700020B4
:100E50000A900B900CA90AA8099BFFF76DFEA0054C
:100E600002D40120C0431AE72420044209D0E0073D
:100E700013D138680B9A0A99031D3B60006806C0BD
:100E80000BE00B990A98FFF705FB0146E00704D138
:100E90003868021D3A60006801602846FFE60000DD
:100EA000000014400000F03FF1D8FFFF4268002A24
:100EB00008D001680B78491C002B03D0521E06C0D5
:100EC000184670470121C160881E70474268002A99
:100ED0000BD0C3680168002B07D183688B4204D014
:100EE000491E521C06C0002070470020C0437047B6
:100EF00030B5434351435C18010C130C0D465D4360
:100F00002C1980B292B20546554351430A0C09048C
:100F10004D1962415843010C00044019514130BD44
:100F20007F2801D9002207E0054B42089A5CC007E0
:100F300000D112091207120F01209040084070479B
:100F4000D85700000EB5054A0292002200921346BF
:100F50000192FFF7EBFB03B000BD0000330400007B
:100F600030B58C180278401C13071B0F01D1037891
:100F7000401C120906D10278401C03E005780D7070
:100F8000401C491C5B1EF9D101E00B70491C521E2C
:100F9000FBD1A142E6D3002030BD811E091F00BF56
:100FA000FCD2704784B003900291019203980068CC
:100FB0000090009801998843009000980299019A46
:100FC000114008430399086004B0704784B003904F
:100FD000029101920398006800900098019988435B
:100FE000009000980299019A114008430399086003
:100FF00004B0704782B00190009100980199952249
:101000005201885002B0704782B001900091009860
:10101000019995225201885002B0704782B0019028
:1010200000910098019995225201885002B07047B2
:1010300081B0009000988100444A885801235B06E3
:101040001843885001B0704782B001900091009819
:101050000199024A885002B07047C046D012000081
:1010600081B0009000990120C2027448885001B0FC
:101070007047C04610B584B0069C0390029101925F
:101080000093029801990843009908430699084380
:1010900003490843039989002C4A885004B010BDC5
:1010A0008100040081B0009000988100274A8120CF
:1010B000885001B07047C04681B000900098810010
:1010C000224A0020885001B07047C04682B001908B
:1010D0000091009816490843019989001B4A8850DD
:1010E00002B0704782B00190009100981049084307
:1010F00001998900154A885002B0704710B584B034
:10110000079C069C0390029101920093029801991A
:10111000084300990843069908430799084304497E
:10112000084303998900094A885004B010BDC0469D
:101130008000040082B00190009100988021084353
:1011400001998900014A885002B0704704804240EA
:1011500082B00190009101982721C901405800995F
:10116000084002B0704782B0019000910198272199
:10117000C90140580099084002B0704781B0009002
:1011800000994C4A4C48885001B0704782B0019099
:101190000091009801990C4A885002B07047C046EF
:1011A00082B00190009100980199074A885002B0DE
:1011B0007047C04682B00190009100980199024AA0
:1011C000885002B07047C0469012000082B0019073
:1011D000009100980199024A885002B07047C046B9
:1011E000B012000081B00090009909204202885896
:1011F00001231B021843885001B0704781B0009052
:101200000099084A885801231843885001B0704754
:1012100081B000900099034A8858042318438850ED
:1012200001B070472812000081B0009000990120A1
:10123000C2020248885001B07047C0460100002633
:1012400010B5002A0FD091235B01C3180020DC6980
:101250002405240F05D00C5C1C60401C8242F6D192
:10126000104680B210BD002080B210BD3C4A8358A9
:1012700080210B43835080180F22120243681340D1
:101280000122D2029342F7D102688A43026070477A
:1012900081B00090009802494058C0B201B0704738
:1012A0001C12000081B000900099024A0248885048
:1012B00001B0704704080000030000B181B0009045
:1012C0000099404A0020885001B0704780B584B032
:1012D000019101460198039102A90880039809220F
:1012E00052028018098803225202FFF75BFE04B005
:1012F00080BD70B50A780C231A4001242403051917
:101300006E689E43B2186A604978072211400359FB
:1013100093435918015170BD80B584B001910146C5
:101320000198039102A9088003980D4A8018098842
:1013300007221202FFF736FE04B080BD80B584B0EC
:10134000019101460198039102A908700398044A8B
:10135000801809780722FFF725FE04B080BDC0463B
:101360003812000082B0019068460170007801993F
:10137000014A885002B070472412000010B586B0B0
:101380000192024601980592049103AA107002A8E6
:1013900003800598094940180499490012781143BF
:1013A000074AFFF713FE05980649401802990904F9
:1013B000C91D054AFFF70AFE06B010BD1012000055
:1013C000FF070000141200000700FF0FF0B584B003
:1013D00001242202344B19680392914319606E492B
:1013E0000D686D04FCD5457E25409E69A6437419A1
:1013F0009C612024045D03252C40DE69AE43341932
:10140000DC611F4C256805262660466A37681F6226
:1014100076685E6207262E402660C4697F252D020D
:10142000DE69AE436406640C3419DC610768456804
:1014300082680092C66802690192426902929A69C2
:10144000104C14403A07120B2D03ADB2AA183243C8
:10145000009D2D072D0D1543019A1543029A154342
:10146000007E2843084A0240101998611868039AC0
:101470001043186008688005FCD504B0F0BDC04674
:10148000001340408D00F0FF72FF0F00064908680E
:101490000122904308607047034908680122120244
:1014A000904308607047C04608010B4039490868FE
:1014B00001221203104308607047C04681B0014604
:1014C0006846017000780249086001B07047C04664
:1014D00008030B4080B582B0014601A80180018855
:1014E0000F2002022B48FFF75DFD02B080BDC04611
:1014F000F0B5124B1D46083D2E680124A6432E6010
:101500000326360330401F68B74338181860186840
:10151000FF26B043C9B240181860286820432860ED
:1015200018682107002A06D0084318601A48016885
:10153000C905FCD5F0BD88431860F0BD10010B4013
:1015400080B582B0014601A80170017802480322EB
:10155000FFF728FD02B080BD00010B4080B582B0CE
:10156000014601A8017001780A483022FFF71AFDF0
:1015700002B080BD07498860074802689202FCD526
:10158000012212040B6813430B600168C906FCD5E5
:101590007047C04604010B4004020B4010B585B0F3
:1015A00000930B460099049003A80380029201ABBC
:1015B000197004991A7892008A18AF4C0849115191
:1015C0000299049A1B789B00D2183123DB01D15079
:1015D0000088044908430499D74A885005B010BDD3
:1015E000010002001200001081B000900099024A30
:1015F0000120885001B070470811000082B00190AE
:101600000091009B0199D94A88581843885002B02C
:101610007047C04681B0009000990120C202D948AD
:10162000885001B07047C04681B000900098812179
:1016300049014058C0B201B0704781B00090009895
:101640000321C902405801B070470000F0B5BA4A02
:1016500082183B4BC31808794E793A4D764C002ED0
:1016600023D0202804D00526F601002803D003E06B
:10167000354E002800D18826576F2F4037435767D3
:10168000976F2F4037439767566B26405663966B8C
:10169000264096630026566596658F26F6435F685A
:1016A00037405F609F6837409F608E7909682028C7
:1016B0000BD0002819D1491E5160D76E2F408821C8
:1016C0000F43D7661746703719E0491E5160D16E37
:1016D00029401D4F3943D166116F294039431167A5
:1016E00001214907194D174609E049085160D76E95
:1016F0002F400521C9010F43D766174670373C6854
:101700002C400C433C60D16A4B4C2140D162116BA0
:10171000214011630021D16411658F21C943D46F29
:101720000C40D4671C680C401C600643BD20304050
:101730001168074B0B40C018801C1060F0BDC046FC
:101740008418000024493E0001040000FFFFFFCF81
:101750004000FFCFB0B54A686C4BC250764A801843
:101760000A78222A58D8930001A4E3589F46C0461D
:101770000F180000191800000F18000019180000B9
:101780001918000019180000191800001918000095
:101790001918000019180000191800001918000085
:1017A0001918000019180000191800001918000075
:1017B000FD17000019180000FD170000191800009F
:1017C0001918000019180000191800001918000055
:1017D0001918000019180000191800001918000045
:1017E0001918000019180000191800001918000035
:1017F000FD17000019180000FD17000003231B0748
:1018000004689C4301235B07E318036004E003239F
:101810001B0704689C4304600B69C360CB68054CDC
:101820001C40C36A044D1D402B19C362097A114341
:101830000160B0BD777702008888FDFF81B000901D
:101840000099714A7148885001B0704782B0019088
:1018500000910098019911221202885002B070473D
:1018600010B507239B04194092008018024A84583F
:101870009C436118815010BD3018000010B5029CC7
:10188000A400001911431943014A815010BDC046FC
:101890005018000092008018014A81507047C046DD
:1018A0001018000010B50122120383180C789C60F8
:1018B0004B7883508978014A815010BD0C1100008B
:1018C00010B586B001930B4601460198059104A915
:1018D0000B8003AB1A8002AA10800598164C0019E1
:1018E00009881B88194312881143024AFFF75AFBE3
:1018F00006B010BD80FF000082B0019000910098FA
:101900000199024A885002B07047C046081800008A
:1019100082B001900091009801990322D202885070
:1019200002B0704781B000900099034A88580123A3
:101930001843885001B070470418000081B000902F
:10194000009911200202885801231843885001B0E1
:101950007047000082B001900091009B0199034AFA
:1019600088581843885002B07047C04628100000BD
:1019700081B0009000990120C2020248885001B055
:101980007047C0460100002681B000900098812178
:1019900049014058C0B201B070470000B0B51122F3
:1019A000120283580124A34383500B888C781C4374
:1019B0008B882343094C1C408358094D1D406319F3
:1019C00083508B79CC791C43097A21437E231940BB
:1019D000801842689A4351184160B0BD18670000F2
:1019E000E798FDFF81B00090009802494058C0B2CE
:1019F00001B070472411000081B000900099024AA4
:101A00000248885001B0704704080000030000B18C
:101A100080B584B003900291019203980B4940185D
:101A200002990B4AFFF7BEFA03980A494018019938
:101A30003F22FFF7B7FA0399074A8818895801220D
:101A40001140FFF7AFFA04B080BDC046101100008E
:101A5000FFFF0000141100000411000010B5012266
:101A6000120383180C789C604978815010BD80B5B2
:101A700082B001900091019811210902401800994B
:101A80000322D203FFF78EFA02B080BD81B000902E
:101A900000990120C20213204006885001B070470F
:101AA00080B586B0034605A8037004AB0293197095
:101AB0000392007818214143184840181021405ED5
:101AC000FEF7B0FC019003981549FEF790FB014624
:101AD0000198FEF7C9FB02990978CA00114988509C
:101AE00006B080BD80B584B0024603A8027002AA89
:101AF000019211700078182141430848401840694C
:101B0000FEF790FC0649FEF7AFFB01990978CA0081
:101B100004498918486004B080BDC04604002020F4
:101B20000000B6443C03202080B582B001900198AB
:101B300002F0BCFD02B080BD80B582B012200090E2
:101B4000012100F0D9F9322002F092FC00984421E2
:101B500000F0D2F913200A2100F0CEF9152003215C
:101B600000F0CAF9C3480190022101720D49896A47
:101B7000C160002101700C4989684160007A8000D1
:101B800060210843C1B2112000F0B6F90198007835
:101B9000800062210843C1B2102000F0ADF902B00C
:101BA00080BDC046CC6900006C68000080B58AB07A
:101BB00000F062F90021CF480190405EFEF732FC50
:101BC0007B21C905FEF713FB5149FEF7B7FA014621
:101BD0000198504A089211600221405EFEF722FCF3
:101BE000A44902914968FEF73FFB089A0146019813
:101BF00051600421405EFEF715FC02994968FEF72A
:101C000033FB089A0146019891600621405EFEF779
:101C100009FC02994968FEF727FB089A01460198DA
:101C2000D1600821405EFEF7FDFB0299C968FEF70E
:101C30001BFB8E4903910969FEF7D1FA089A014608
:101C4000019811610A21405EFEF7ECFB0299C96818
:101C5000FEF70AFB03994969FEF7C1FA089A0146A3
:101C6000019851610C21405EFEF7DCFB0299C968C6
:101C7000FEF7FAFA03998969FEF7B1FA0146089866
:101C80008161006901F05AFE0146089801614069CE
:101C900001F054FE014608984161806901F04EFE52
:101CA0000899886148680590486804908868896840
:101CB000FEF79DFA0499024605980692FEF797FAF8
:101CC0000699FEF73BFA08990790C868C968FEF7BD
:101CD0008EFA0799FEF732FA03F068FD014608987C
:101CE000099109994068FEF7BFFA014608984160DA
:101CF00009998068FEF7B8FA014608988160099949
:101D0000C068FEF7B1FA0899C8600AB080BDC04645
:101D10000000C8414401202080B584B003AB187096
:101D2000029101A80280694600200880FFE768460A
:101D3000008801A90988884210DAFFE703986946FC
:101D40000A88801802998918C0B2012200F008F8A8
:101D5000FFE70098401C69460880E8E704B080BDB2
:101D600080B588B001920346019807AA13700691C6
:101D700005A902910880694803906A210491012312
:101D800002F01AFB029B03980499069A1B8802F042
:101D9000DFFA08B080BDC04680B586B0FFF7CCFE44
:101DA0007D20800002F064FB00200590FFE705988D
:101DB0002D4988423FDCFFE700F05EF84D48029075
:101DC0000821405EFEF72EFB2A490391C968FEF701
:101DD0004BFA0146254804900069FEF7AFF9049AD2
:101DE0000146029811610A21405EFEF71BFB039930
:101DF000C968FEF739FA014604984069FEF79EF972
:101E0000049A0146029851610C21405EFEF70AFBDC
:101E10000399C968FEF728FA014604988069FEF71D
:101E20008DF904998861022002F022FBFFE70598F2
:101E3000401C0590BBE70D48019000690C490091DA
:101E4000FEF712FA00990246019802614069FEF716
:101E50000BFA00990246019842618069FEF704FA84
:101E60000199886106B080BDE70300008001202051
:101E700000007A447001202080B586B0202002A99D
:101E800000910E22FFF748FF009A50780002117867
:101E9000401818490880D07800029378C01808814B
:101EA000507900021379C0184881D07900029379E3
:101EB000C0188881507A0002137AC0184880D07AFE
:101EC0000002937AC0188880507B0002127B801831
:101ED000C880888801AA1080C888888001984042FC
:101EE000C88048891080888948810198404288814B
:101EF00006B080BD6001202080B584B003AA1070B8
:101F000002A80170039801AA10700298507003484B
:101F10006A21022302F050FA04B080BD00000F4095
:101F200010B58AB0FFE702F0C1FA099009987D491F
:101F30000968401A002801D5FFE7F1E002F0B6FA7F
:101F4000143078490860FFE700200890FFE7089800
:101F5000042800D9E4E00898182205924243724808
:101F60000690811880584968FFF7F2F805990246F3
:101F70000698531E9A4107AB1A70089A51434018AD
:101F8000007CC007002811D1FFE707A80078C00730
:101F900000280BD1FFE708981821414362484018F8
:101FA000807D01210840012815D0FFE708981821FD
:101FB00041435D484018407D0121084001280AD076
:101FC000FFE708981821414357484018007DC00793
:101FD000002809D0FFE708981821414352484118CA
:101FE000002048610861FFE70898182141434E48E6
:101FF0004018007CC007002822D1FFE707A800781E
:10200000C00700281CD0FFE7089918220392104649
:102010004843454904910B1801209875089C1346C4
:102020006343CB185874089B5A438918C87402F04C
:102030003DFA039A0499089B5A4389188860FFE780
:1020400008981821414338484018007CC0070028F0
:1020500018D0FFE707A80078C007002812D1FFE7D3
:1020600008981821019141432F48029041180120FE
:10207000887402F01BFA019A0299089B5A43891846
:10208000C860FFE708981821414327484018807D21
:10209000C007002835D1FFE708981821414322489E
:1020A0004118C8688968884201D1FFE728E008988C
:1020B000182141431C484118C8688968401A8008A3
:1020C0004A280ED8FFE7089818210A4642431648C6
:1020D000831801225A75089A514341188868C860CC
:1020E0000DE0089818210A4642430F488318012240
:1020F0001A75089A514341188868C860FFE7FFE7DE
:10210000FFE707A80078089918224A43064989186A
:10211000012210400874FFE70898401C089016E759
:102120000AB010BD9C0120203400202080B59CB056
:102130001B90FFE702F0BAF91A901A986E490968E5
:10214000401A002801D5FFE7D3E002F0AFF91430C0
:1021500069490860FFE71B98FEF764F96749FEF7D5
:1021600083F81990199800F0EFF8714913910868F5
:102170000D9048680C908868C968FEF738F80C998B
:1021800002460D980E92FEF732F80E99FDF7D6FF33
:1021900001460846FDF7D2FF139912904868109047
:1021A00048680F9088688968FEF721F80F99024601
:1021B00010981192FEF71BF81199FDF7BFFF014629
:1021C0000846FDF7BBFF01467F20C0051790FEF7CC
:1021D00006F80146129803F085F91399484A906071
:1021E0000868159088681490C8684968FDF7FFFF73
:1021F0001499024615981692FDF7F9FF1699FDF706
:10220000EEFF01460846FDF799FF179918901898B8
:10221000FEF7D0F8002804D1FFE77F20C0050B901F
:102220000FE018983749FEF7D3F8002803D1FFE7ED
:1022300034480A9002E018980A90FFE70A980B9039
:10224000FFE70B981890189803F0C0F82C490991F3
:1022500048603749039108680190C8680090486851
:102260008968FDF7C4FF0099024601980292FDF7C4
:10227000BEFF0299FDF762FF01460846FDF75EFFCB
:10228000039907908868059088680490C868C968B1
:10229000FDF7ADFF0499024605980692FDF7A7FFEA
:1022A0000699FDF74BFF01460846FDF747FF01463B
:1022B0007F20C005FDF793FF0146079803F012F950
:1022C00001460998016000680F490891FDF78FFFEA
:1022D00008990246099802604068FDF788FF08994E
:1022E0000246099842608068FDF781FF099988607D
:1022F000FFE71CB080BDC046AC01202000007A443E
:10230000A0012020000080BFE12E654280B5FFF7CC
:1023100043FD07497F20C2050A60002048608860AD
:10232000C860CA61034A0A6208614861886180BD69
:10233000B0012020CDCC4C3D80B582B001900198F9
:10234000FFF7F4FE02B080BD80B5C6B04590FFF740
:102350002DFC564840680021FEF756F8002811D0A1
:10236000FFE7524880680021FEF74EF8002809D0A8
:10237000FFE74E48C0680021FEF746F8002801D06C
:10238000FFE736E24A49359148682C90C8682B909F
:1023900008688968FDF72BFF2B9902462C982D922F
:1023A000FDF725FF2D99FDF71AFF01460846FDF7B9
:1023B000C5FE3599449008682F9048682E9088682B
:1023C000C968FDF714FF2E9902462F983092FDF749
:1023D0000EFF3099FDF7B2FE01460846FDF7AEFE4E
:1023E0003599439008683290086831904868496888
:1023F000FDF7FDFE3199024632983392FDF7F7FE64
:102400003399FDF7ECFE3599349088688968FDF7BB
:10241000EEFE01463498FDF7E2FE35993690C86825
:10242000C968FDF7E4FE3699FDF788FE4290F24850
:1024300041683A9181683991C0683890002000283D
:1024400006D1FFE73A9802F09DF8002808D12BE06A
:102450003A98FEF70BF802F087F8002824D0FFE73F
:102460000020002806D1FFE7399802F08BF80028F9
:1024700008D119E03998FDF7F9FF02F075F8002846
:1024800012D0FFE70020002806D1FFE7389802F0BD
:1024900079F800280ED107E03898FDF7E7FF02F041
:1024A00063F8002806D1FFE7A3E1C04644012020DD
:1024B000B0012020399801904298009038984399B3
:1024C000FDF795FE0099024601980292FDF78FFEF6
:1024D0000299FDF784FE4190389804904498039047
:1024E0003A984299FDF783FE0399024604980592B3
:1024F000FDF77DFE0599FDF772FE40903A98079032
:102500004398069039984499FDF771FE0699024662
:1025100007980892FDF76BFE0899FDF760FE3F9063
:10252000B6482A90006A4199FDF761FE2A9A4599BA
:1025300012690992FDF75BFE0999FDF7FFFD01465F
:102540002A980161006A4099FDF751FE2A9A45993F
:1025500052690A92FDF74BFE0A99FDF7EFFD01461D
:102560002A984161006A3F99FDF741FE2A9A4599F0
:1025700092690B92FDF73BFE0B99FDF7DFFD2A9A5E
:102580009061D069419912690C92FDF730FE0C9967
:10259000FDF7D4FD014698481E900069FDF7CEFD79
:1025A0001E992A9A0861D069409952690D92FDF7E7
:1025B0001EFE0D99FDF7C2FD01461E984069FDF70C
:1025C000BDFD1E992A9A4861D0693F9992690E9281
:1025D000FDF70DFE0E99FDF7B1FD01461E988069CD
:1025E000FDF7ACFD1E9902462A988A614268109256
:1025F0000A690F9280684969FDF7F9FD0F99024653
:1026000010980123DB075A401192FDF7F0FD0146B7
:102610001198FDF7E4FD1E9902462A981292C068AF
:102620008969FDF7E4FD01461298FDF7D8FD3F21C9
:1026300009062091FDF7DBFD1E9902462A983E927D
:10264000026814920A69139280688969FDF7CFFDC8
:102650001399024614981592FDF7C9FD1599FDF7D7
:102660006DFD1E9902462A981692C0684969FDF7C9
:10267000BEFD01461698FDF7B2FD2099FDF7B7FDA6
:102680001E9902462A983D92026818924A6917924A
:1026900040688969FDF7ABFD1799024618981992B1
:1026A000FDF7A5FD1999FDF79AFD1E9902462A9896
:1026B0001A92C0680969FDF79AFD1A99FDF73EFD67
:1026C0002099FDF794FD1E9902462A983C920268D3
:1026D0001C928A691B9240684969FDF788FD1B9925
:1026E00002461C981D92FDF782FD1D99FDF726FDFF
:1026F0001E9902462A981F9280680969FDF777FDA6
:1027000001461F98FDF76BFD2099FDF770FD2A9A91
:102710003B903E98459912682192FDF768FD2199FA
:10272000FDF70CFD2A9A10603D9845995268229257
:10273000FDF75DFD2299FDF701FD2A9A50603C9856
:10274000459992682392FDF752FD2399FDF7F6FC17
:102750002A9A90603B984599D2682492FDF747FDEC
:102760002499FDF7EBFC2A99C86008682690086850
:10277000259048684968FDF73AFD25990246269854
:102780002792FDF734FD2799FDF7D8FC2A99289068
:1027900088688968FDF72BFD2899FDF7CFFC2A99F9
:1027A0002990C868C968FDF722FD2999FDF7C6FC84
:1027B00002F0FCFF01462A98379137990068FDF72F
:1027C00053FD01462A98016037994068FDF74CFD9A
:1027D00001462A98416037998068FDF745FD01461A
:1027E0002A9881603799C068FDF73EFD2A99C86034
:1027F000FFE746B080BDC04644012020B001202044
:10280000E5480068806800280BD0FFE7E2490868C7
:1028100080680860002008714871AD490120087087
:10282000FFE77047C849012008707047C649052076
:1028300008707047C449042008707047C2490320DB
:1028400008707047C04902200870704780B582B098
:102850000D49019171310D4801F034FE0199593152
:102860000B4801F02FFE019929310A4801F02AFE98
:1028700001994131084801F025FE019911310748BD
:1028800001F020FE02B080BD340020202528000089
:10289000452800003D280000352800002D280000B4
:1028A00010B586B0BC480068007B0290002804D0B8
:1028B000FFE70298012863D090E085480078C007C0
:1028C00000285CD0FFE700F037FAB34800684069A1
:1028D000002805D0FFE7B048006840698047FFE75F
:1028E00005A900200870FFE705A80078032842DC4E
:1028F000FFE7A9494879059A821804A80270007870
:1029000009680979884201DBFFE734E004A8007810
:10291000A1490979884214D1FFE705A80078410050
:1029200004A80478601C9C4A126812680C23634354
:10293000D258019200902C4B0020082200F0ABFAF4
:1029400013E005A80078410004A80478601C924AAE
:10295000126812680C236343D25801920090224BF4
:102960000020082200F078FAFFE7FFE70598401CF6
:1029700005A90870B8E7564900200870FFE72EE067
:1029800053480078C00700280AD0FFE700F0D4F9C8
:1029900081480068406980474D4900200870FFE782
:1029A0007D4800680069002817D0FFE7FFE701F0C5
:1029B0007DFD039003980B490968401A002801D552
:1029C000FFE70CE001F072FD323006490860FFE7D6
:1029D0007148006800698047FFE700E0FFE706B044
:1029E00010BDC046D4012020F16B00006A48006889
:1029F000007B012801D1FFE71AE0674908680068F9
:102A00000A790C21514340188068002810D0FFE754
:102A10006149086800680B790C225A438018806865
:102A20000860002008714871294901200870FFE7FB
:102A30007047C04658490879401C087108790968F0
:102A40000979884205DBFFE7534900200871487186
:102A5000FFE7514908794979401A042805DBFFE767
:102A60004D494879401C4871FFE719490120087019
:102A70007047C0464848007900280FD0FFE7464914
:102A80000879401E087108794979884205DAFFE71C
:102A900041494879401E4871FFE714E03E4801680B
:102AA0000979491E017100680079052806DBFFE7F6
:102AB000394908680079001F487103E03649002051
:102AC0004871FFE7FFE70249012008707047C046E0
:102AD000E800202080B582B01B48007801900528CE
:102AE0002FD80198810001A040588746052B00008F
:102AF000072B0000132B00001F2B00002B2B0000C6
:102B0000372B00001EE0FFF795FF0F4900200870EB
:102B100018E0FFF7AFFF0C490020087012E0FFF744
:102B200065FF0949002008700CE0FFF769FE0649BF
:102B30000020087006E000F009F803490020087042
:102B400000E0FFE702B080BD0C06202080B51248EF
:102B50000068007B012801D1FFE714E00E490868F6
:102B600000680A790C2151434018406800280AD0B7
:102B7000FFE70949086800680A790C2151434018A9
:102B800040688047FFE780BD034904480860002093
:102B9000087148717047C04604062020846A00000E
:102BA00081B000200090FFE70098012815D8FFE7CA
:102BB0000098182242435B4989180301084AD0183B
:102BC000D2588A60C2684A6182680A614068C860F7
:102BD000FFE70098401C0090E6E701B07047C04650
:102BE000EC00202080B58CB002460BA802700AAA27
:102BF00011800078022801D3FFE790E000210AA8A5
:102C0000405E012830DBFFE700210AA8405E48490A
:102C1000884204D3FFE70AA946480880FFE70BA8CB
:102C2000079000781821089141433E4809904118C7
:102C30008868C968FEF7B4FA079A08990998127863
:102C40005143411808694969FEF7DEF9079A089966
:102C50000998127851434218405800230AA9C95EC6
:102C60001279FEF717FE5AE000210AA8405E0028FC
:102C700031D5FFE700210AA8405E2B49884204DCD9
:102C8000FFE70AA929480880FFE70BA8049000780D
:102C90001821059141432348069041180869496964
:102CA000FEF77EFA049A0599069812785143411866
:102CB0008868C968FEF7A8F9049A059906981278F9
:102CC00051434218405800230AA9C95E494212796B
:102CD000FEF7E0FD22E00BA8019000781821029198
:102CE00041431048039041188868C968FEF758FAB4
:102CF000019A029903981278514341180869496969
:102D0000FEF74EFA0199029A039809784A4381180E
:102D100080580A790021FEF7BDFDFFE7FFE70CB000
:102D200080BDC0460C012020EFD8FFFFF0D8000086
:102D3000112700001027000080B584B00020039008
:102D4000FFE7039807281BDCFFE703A801780020B2
:102D5000019000F0BFF801980290FFE702987F28E9
:102D600009DCFFE70120002101F0E4FBFFE7029806
:102D7000401C0290F2E7FFE70398401C0390E0E755
:102D800004B080BD80B582B06420019001F070FB7A
:102D900000200090AE2101F0CDFB0098D52101F07C
:102DA000C9FB0098802101F0C5FB0098A82101F023
:102DB000C1FB00983F2101F0BDFB0098D32101F039
:102DC000B9FB0099084601F0B5FB0098402101F0DD
:102DD000B1FB0098A12101F0ADFB0098C82101F0E2
:102DE000A9FB0098DA2101F0A5FB0098122101F05F
:102DF000A1FB0098812101F09DFB0098CF2101F0FB
:102E000099FB0098D92101F095FB0098F12101F080
:102E100091FB0098D82101F08DFB0098302101F042
:102E200089FB0098A42101F085FB0098A62101F000
:102E300081FB00988D2101F07DFB0098142101F0A9
:102E400079FB0098AF2101F075FB019801F010FBB0
:102E5000FFF772FF02B080BD10B5CAB049AC049450
:102E6000208048A80190018047A8029002704693F4
:102E70004CA805904699059A06A8039001F0D0FD4C
:102E80000199029B039A0498007809781B7800F056
:102E900035F94AB010BD10B5CAB049AC04942080D1
:102EA00048A80190018047A80290027046934CA860
:102EB00005904699059A06A8039001F0B1FD019985
:102EC000029B039A0498007809781B7800F041F976
:102ED0004AB010BD80B586B0024605A801900270C8
:102EE00004AA0292117001780F2001400020039083
:102EF00001F020FB0199039809780909103101F0CC
:102F000019FB029903980978B022114301F012FBD2
:102F100006B080BD10B588B007AC207006A801705F
:102F200005A8027004A803700078062820D1FFE7E6
:102F300007A8007806A90978FFF7CCFF00200390C6
:102F4000FFE70398052812DCFFE705A801780620B3
:102F500048432B49401803994018C0380178012094
:102F600001F0E8FAFFE70398401C0390E9E743E02B
:102F700004A8007808283ED1FFE707A8007806A932
:102F80000978FFF7A7FF00200290FFE702980728C3
:102F900011DCFFE705A800780001184940180299E4
:102FA00040185449415C012001F0C4FAFFE702983F
:102FB000401C0290EAE707A800780699491CC9B2AC
:102FC000FFF788FF00200190FFE70198072811DC38
:102FD000FFE705A80078000108494018019940184A
:102FE0004349415C012001F0A5FAFFE70198401C2C
:102FF0000190EAE7FFE7FFE708B010BD8C5C000036
:103000001858000010B588B007AC207006A80170F1
:1030100005A8027004A803700078062820D1FFE7F5
:1030200007A8007806A90978FFF754FF002003904D
:10303000FFE70398052812DCFFE705A801780620C2
:1030400048432D49401803994018C03801780120A1
:1030500001F070FAFFE70398401C0390E9E743E0B2
:1030600004A8007808283ED1FFE707A8007806A941
:103070000978FFF72FFF00200290FFE7029807284A
:1030800011DCFFE705A800780001184940180299F3
:1030900040181849415C012001F04CFAFFE7029802
:1030A000401C0290EAE707A800780699491CC9B2BB
:1030B000FFF710FF00200190FFE70198072811DCBF
:1030C000FFE705A800780001084940180199401859
:1030D0000749415C012001F02DFAFFE70198401CEF
:1030E0000190EAE7FFE7FFE708B010BD7C6200004F
:1030F00008FEFFFF00FEFFFF525A000010B586B029
:1031000005AC207004A80170039202A8037001A905
:1031100000200870FFE7039801A90978405C0028A7
:1031200015D0FFE7059801A900910C7802A90B784A
:1031300019466143401804A90978039A125DC0B288
:10314000FFF7E8FE00990198401C0870E3E706B01D
:1031500010BD10B586B005AC207004A801700392B4
:1031600002A8037001A900200870FFE7039801A9D5
:103170000978405C002815D0FFE7059801A9009167
:103180000C7802A90B7819466143401804A9097804
:10319000039A125DC0B2FFF735FF00990198401CF9
:1031A0000870E3E706B010BD80B586B005900491C5
:1031B000059800680499FDF712F80390FFE703985B
:1031C0001649FDF7F7F8002806D1FFE703981649DE
:1031D000FCF7B4FF0390F2E7FFE703981049FDF70F
:1031E000F7F8002806D1FFE703980E49FCF7A6FF81
:1031F0000390F2E7059800680290059900200860A6
:10320000059803990122D207514000F00FF8019070
:10321000029805990860019806B080BD000034430B
:10322000000034C30000B4430000B4C380B5B0B0A4
:103230002E902D912E983D21405C002803D1FFE770
:1032400000202F903AE22E983E21405C002807D0C3
:10325000FFE72E9800682D99FCF7C1FF2C9006E03F
:103260002D982E990968FCF7BAFF2C90FFE72C984F
:103270002E99C8602E983F21405C002810D0FFE7AF
:103280002E99C8680122D2079043896AFDF7AEF8EB
:10329000002804D1FFE72E9840682F900EE2FFE748
:1032A0002E983C21405C2B90002805D0FFE72B98FE
:1032B000012800D116E1FCE12E984121405C002854
:1032C00019D0FFE72E99C8680122D2079043896B75
:1032D000FDF78CF8002809D1FFE72E982A90C168E5
:1032E0008068FCF72BFF2A99886003E02E99002064
:1032F0008860FFE708E02E982990C1688068FCF795
:103300001DFF29998860FFE72E984021405C002826
:1033100029D0FFE72E998868496BFDF74BF8002804
:1033200004D1FFE72E98406B289018E02E9988680A
:10333000496B0122D2075140FDF74AF8002807D116
:10334000FFE72E98406B0121C9074840279003E012
:103350002E9880682790FFE727982890FFE7289805
:103360002E998860FFE72E984221405C002829D1E1
:10337000FFE72E992691C8692190C8682390086AB2
:103380008968FCF734FF2399024621982292FCF7C2
:103390002EFF2299FCF7D2FE269902462398259209
:1033A0004A6A24920969FCF71AFF01462498FCF73F
:1033B0001EFF2599FCF7C2FE269948602E99C86821
:1033C000086129E02E992091C8691C90C8681B905B
:1033D000086A8968FCF70BFF1B9902461C981D922E
:1033E000FCF705FF1D99FCF7A9FE014620981F91E7
:1033F000416A1E912D998069FCF7F1FE01461E98E5
:10340000FCF7F5FE01461F98FCF798FE20994860EE
:103410002D982E998861FFE72E984321405C002863
:1034200029D1FFE72E994868C96AFCF7C3FF002835
:1034300004D1FFE72E98C06A1A9018E02E994868C8
:10344000C96A0122D2075140FCF7C2FF002807D108
:10345000FFE72E98C06A0121C9074840199003E090
:103460002E9840681990FFE719981A90FFE71A986C
:103470002E99486035E02E9918914868096BFCF741
:103480005DFE1899C96AFCF795FF002804D1FFE793
:103490002E98C06A179020E02E9916914868096B03
:1034A000FCF74CFE1699C96A0122D2075140FCF77D
:1034B0008FFF002807D1FFE72E98C06A0121C907B6
:1034C0004840159006E02E994868096BFCF736FED7
:1034D0001590FFE715981790FFE717982E99486009
:1034E000FFE7E7E02E984221405C002840D1FFE74B
:1034F0002E991491C8690E90C868119009691091AD
:10350000FCF76DFE1199024614980D92006AFCF7C3
:103510006EFE0D9902460E980F92FCF768FE0F9909
:10352000FCF70CFE1099024614981392406A129010
:103530000846FCF703FE01461198FCF750FE14996B
:103540004969FCF7FBFD01461298FCF750FE139900
:10355000FCF7F4FD014614984068FCF7EFFD149960
:1035600048602E99086948612E99C86808613AE058
:103570002E990C91C8690890C86806900969FCF7F3
:103580002EFE069902460C980792006AFCF72FFE61
:103590000799024608980992FCF729FE0999FCF759
:1035A000CDFD01460C980B91416A0A912D998069D5
:1035B000FCF715FE01460A98FCF719FE01460B9828
:1035C000FCF7BCFD01460C984068FCF7B7FD0C9970
:1035D00048602E99086948612E99C86808612D983D
:1035E0002E998861FFE72E984321405C002829D15D
:1035F000FFE72E994868C96AFCF7DCFE002804D171
:10360000FFE72E98C06A059018E02E994868C96AAD
:103610000122D2075140FCF7DBFE002807D1FFE76B
:103620002E98C06A0121C9074840049003E02E98F3
:1036300040680490FFE704980590FFE705982E99ED
:10364000486035E02E9903914868096BFCF776FDD8
:103650000399C96AFCF7AEFE002804D1FFE72E9853
:10366000C06A029020E02E9901914868096BFCF72E
:1036700065FD0199C96A0122D2075140FCF7A8FEF5
:10368000002807D1FFE72E98C06A0121C9074840EA
:10369000009006E02E994868096BFCF74FFD0090FA
:1036A000FFE700980290FFE702982E994860FFE735
:1036B00000E0FFE72E9840682F90FFE72F9830B08A
:1036C00080BD000080B584B003AA107002910298FA
:1036D0007449FCF76FFE002801D1FFE712E003A850
:1036E00000780190002804D0FFE70198012804D059
:1036F00007E002986449086004E00298664908609F
:1037000000E0FFE704B080BD80B586B02D4803908F
:1037100001685D48FFF78AFDFCF78FFE0146002037
:10372000FFF760FA039881685B48FFF77FFDFCF7BD
:1037300084FE01460120FFF755FA234801685848E6
:103740000490FFF773FD0146049805913D21405C0C
:10375000002813D0FFE705987F21C9050291FCF7E7
:10376000EDFC01460020FFF7ADFF02980599FCF73C
:1037700036FD01460120FFF7A5FFFFE7134801686A
:1037800049480190FFF710FD0146019805913D2140
:10379000405C002813D0FFE705987F21C905009100
:1037A000FCF7CCFC01460020FFF78CFF0098059940
:1037B000FCF715FD01460120FFF784FFFFE706B087
:1037C00080BDC0463C03202034032020A0012020DF
:1037D000F0B587B0FFF7E4F92B4C2C48E0612C4999
:1037E00021620021069161623D220292012303932E
:1037F000A3543C27E3553E26A35542250495615525
:10380000244BE362244CE061244820620398616207
:10381000A054E055A0556155E362214CE16121625D
:103820006162A154E155A055412561551D490091A2
:10383000E162402101916054E06A216AFCF714FDC5
:10384000009B019A06996063049821540298812193
:10385000C9052160069C14490591CC610C624C623B
:103860000C540398CC5588554C55CB628854C86A83
:10387000096AFCF7F9FC049A0599034606984B631C
:10388000885407B0F0BDC0465C02202000409C4533
:10389000A4509D4300401C46A00220205C4F4243A0
:1038A000E40220200000C0401802202082B00190D5
:1038B00068460170009801993D22885402B0704713
:1038C00070B584B003AC207002A800900170194854
:1038D0000190FDF7B2FE01460098227818231D469C
:1038E0005543154A551929822578194669435118B7
:1038F0001025495F26781D46754355191226AD5F80
:103900004E192578194669435518696989196961FD
:103910002578194669435118098A24786343D218D7
:103920005182007800F0EEFF01980021FDF7F0FFD2
:1039300004B070BD000009400400202080B582B0B2
:1039400001900198FCF792FD034A044BFCF7CAFC76
:10395000FCF7A0FD02B080BDD1A05DD046DF913F55
:1039600080B582B00F4910480190FEF777F80198B2
:103970000E49FEF713F801980021FEF778F8019838
:1039800002210B22FEF744F8019801218902FDF77C
:10399000E1FF0F20032100F02BFE0198FDF7CEFF81
:1039A00002B080BD3C690000008010403E6900000C
:1039B00080B582B00B490C480190FDF773FF019868
:1039C0000A49FDF7C7FE019801210091FDF716FE97
:1039D0000099102000F00CFE0198FDF705FE02B0E2
:1039E00080BDC04648690000004008404C690000A6
:1039F00080B590B00920FDF75FFB0A20FDF75CFB66
:103A00001020029004210391FDF794FB02996B486A
:103A10000F90FDF719FB03991120FDF78BFB0F9811
:103A20002021FDF711FB012008900721FDF74EFB37
:103A3000002009900621FDF749FB03990898099B8E
:103A40000193C0040B9000900F2004901A46FDF7DC
:103A500055FB0399099B0B98019300900E2005904C
:103A60001A46FDF74BFB0498FDF7E2FA0598FDF7BF
:103A7000DFFA099B0B980193009002200790032125
:103A80000E911A46FDF73AFB099B0B980E9901938C
:103A90000090052006901A46FDF730FB0798FDF7C9
:103AA000C7FA0698FDF7C4FA07991420FDF742FB00
:103AB00007991520FDF70AFB3920FDF7F3FA2B20B3
:103AC000FDF7F0FA089809990B9B009102040A92FD
:103AD0003B20FDF7CFFA09990A9A0B9B00913620FB
:103AE000FDF7C8FA09990A9A0B9B00912F20FDF760
:103AF000C1FA09990A9A0B9B00912320FDF7BAFAA3
:103B000009990A9A0B9B00913720FDF7B3FA0B2015
:103B1000FDF7C8FA0C20FDF7C5FA2520FDF7C2FA1B
:103B20002620FDF7BFFA09990A9A0B9B00910D20F8
:103B3000FDF7A0FA09990A9A0B9B00911220FDF754
:103B400099FA09990A9A0B9B00911320FDF792FAB2
:103B500009990A9A0B9B00912120FDF78BFA09998C
:103B60000A9A0B9B00912220FDF784FA09990A9A80
:103B70000B9B00912420FDF77DFA09990A9A0B9B73
:103B800000912D20FDF776FA0E9801040D91BE48A4
:103B90000C90FDF7FBFA0C980D99FDF755FA0F986C
:103BA0000749FDF727FA0E990F98FDF7EFFA0F98DE
:103BB0000449FDF749FA10B080BDC04600200A4014
:103BC000000004080300040880B582B00B49B04827
:103BD0000190FDF767FE01980949FDF7BBFD0198CB
:103BE00001210091FDF70AFD0099112000F000FD70
:103BF0000198FDF7F9FC02B080BDC0466069000085
:103C00006469000080B582B01249A2480190FDF7B6
:103C100070FB019803214902FDF758FB0198FDF75D
:103C2000E1FA0198FDF74AFB01982721FDF79AFB7D
:103C3000019800210091FDF781FB00990198FDF7A3
:103C40006BFB0198FDF7E4FA0198FDF7D7FA02B093
:103C500080BDC0467869000080B582B00A49D1486D
:103C60000190FDF71FFE01980849FDF773FD0198CB
:103C70000121FDF7C3FC1220022100F0B9FC0198DC
:103C8000FDF7B2FC02B080BD7A69000080690000D7
:103C900080B582B000200190FDF710FC012000905B
:103CA0004002FDF717FC0198FDF74AFCFDF7EEFB1B
:103CB000FDF7F2FB009A032000030A21FDF718FC30
:103CC0000648FDF783FB1020FDF748FCFDF7EEFBEF
:103CD0000198FDF74FFC02B080BDC046946900001A
:103CE00080B5024800F024F980BDC046803801004C
:103CF00080B584B00F4965480390FDF7D3FD039864
:103D0000492149020191002302931A46FDF746FC1E
:103D10000199029A03980123FDF740FC0398064994
:103D2000FDF7EAFD0398FDF75FFC0398FDF7FAFD48
:103D300004B080BDBC690000FFFF000080B582B008
:103D4000124955480190FDF7D4FA01980321490220
:103D5000FDF7BCFA0198FDF745FA0198FDF7AEFAB8
:103D600001980921FDF7FEFA019800210091FDF765
:103D7000E5FA00990198FDF7CFFA0198FDF748FAA6
:103D80000198FDF73BFA02B080BDC046BF69000054
:103D900080B500F02BF8FFF72BFEFFF779FF00F05E
:103DA0007DF8FFF7A5FFFFF70FFFFFF701FEFFF715
:103DB00053FFFFF727FFFFF7C1FFFFF7D1FDFFF725
:103DC0008FFF0649B8220020885405499C23C85417
:103DD0000449C8540449885480BDC0464805202081
:103DE000A80420204C032020EC03202080B58AB0BA
:103DF00025480090FDF7C2F9B4480190FDF7BEF9DF
:103E000048480290FDF71AFD20480390FDF716FD83
:103E100074480490FDF712FD6A480590FDF70EFD09
:103E200060480690FDF70AFD1A480790FDF73AFA38
:103E300019480890FDF736FAE6480990FDF7DCFDD1
:103E40000098FDF70DF90198FDF70AF90298FDF7C2
:103E5000E1FB0398FDF7DEFB0498FDF7DBFB05981B
:103E6000FDF7D8FB0698FDF7D5FB0798FDF7DCF9C1
:103E70000898FDF7D9F90998FDF77AFD1020FDF7AC
:103E80008CF80AB080BDC04600000A40000009401E
:103E90000080864000200F4000000F4080B586B0B3
:103EA0001F4920480590FDF7FDFC05981E49FDF7C8
:103EB000CDFB05980023029319461A46FDF700FD35
:103EC000029B05980093102201921946FDF7D6FC3B
:103ED000029A05981146FDF7C3FC029A059813490A
:103EE0000391FDF7D7FC019A029B059801210491EB
:103EF00000911946FDF7C2FC0299049A0598FDF756
:103F0000AFFC0399049A0598FDF7C4FC0598FDF7EA
:103F10006BFB05980321FDF799FC06B080BDC046F8
:103F2000C169000000208640C4690000112700001C
:103F300080B584B002900298401E000E002803D085
:103F4000FFE70120039011E00298401E0949086034
:103F500000200190C043032100F04AFB019806496C
:103F60000860064A072111600390FFE7039804B038
:103F700080BDC04614E000E018E000E010E000E082
:103F800080B500F097FA80BD80B50648FDF74CFB80
:103F9000012805D1FFE700F09FF8FFF7B5FB00E02F
:103FA000FFE780BD0000864080B50648FDF73CFB7A
:103FB000012804D1FFE70520FDF7B6FD00E0FFE78B
:103FC00080BDC0460040084080B50648FDF72CFB88
:103FD000012804D1FFE70A20FEF7AEF900E0FFE771
:103FE00080BDC0460080864080B584B035480078EA
:103FF0000190002808D0FFE7019801280AD0FFE7C8
:10400000019802280CD025E0012081042F48FDF7FB
:1040100005F820E0012081042C48FDF7CBF81AE0D8
:10402000FFE700F043FA0390039827490968401A14
:10403000002801D5FFE743E000F038FA7D21890030
:10404000401821490860FFE7012081041F48FDF75F
:10405000BDF800E0FFE71E4800780090002808D077
:10406000FFE7009801280AD0FFE7009802280CD04B
:1040700025E00120C1061548FCF7D0FF20E0012013
:10408000C1061248FDF796F81AE0FFE700F00EFAB5
:10409000029002980F490968401A002801D5FFE7ED
:1040A0000EE000F003FA7D21C900401809490860BC
:1040B000FFE70120C1060548FDF788F800E0FFE7AB
:1040C00004B080BD390320202C03202000200A40AA
:1040D000380320202803202080B584B02C490020FC
:1040E000087003A9087002A90870FFE702A8007809
:1040F00006282DD8FFE702A80078C20027488118BB
:1041000080584968FDF72FF800280AD0FFE702A879
:1041100002782349012088541D490878401C087002
:1041200005E002A802781E4900208854FFE702A893
:1041300001781B48405C0299491C41430398401890
:1041400003A90870FFE70298401C02A90870CDE798
:104150000F480078002805D1FFE70E4800680E4997
:10416000086013E003A80078FCF75CF901900848A8
:104170000078FCF757F901460198FCF775F80146FD
:1041800005480160006803490860FFE704B080BD8E
:104190000E062020E400202034032020AC00202044
:1041A0000F06202080B582B00A48FDF7EDFB0B28F2
:1041B0000CD1FFE70748FDF715FC014601A8017087
:1041C00001783A48402200F07BF800E0FFE702B0B7
:1041D00080BDC0460080104080B584B003904F4839
:1041E0000078C007002801D1FFE75CE04B490020C0
:1041F00008702E483D21FBF789FF029002980028A5
:1042000005D1FFE729484021FBF775FF4BE00299F4
:1042100000200870254801900298401C00900198E9
:104220002349FBF77DFF002808D1FFE7009801F044
:10423000A7FAFCF72FF90399C8612FE001981D49EF
:10424000FBF76EFF002808D1FFE7009801F098FA0D
:10425000FCF720F9039908621FE001981649FBF763
:104260005FFF002808D1FFE7009801F089FAFCF70A
:1042700011F9039948620FE001981049FBF750FFCC
:10428000002808D1FFE7009801F07AFAFCF702F95C
:1042900003990860FFE7FFE7FFE7FFE703484021D6
:1042A000FBF729FFFFE704B080BDC046D8012020FE
:1042B000026B0000FF6A0000FC6A0000056B000052
:1042C00010B583B0029001A8017069460A700078A9
:1042D0000D280AD1FFE7029A0F490B780020D0542D
:1042E0000E4B01221A70087014E00B4800786946E2
:1042F0000978491E884208DAFFE701980299064CBE
:104300002278531C2370885403E00349002008706E
:10431000FFE7FFE703B010BD30032020400120205D
:1043200080B5034B052003210822FEF7B4FD80BDB4
:10433000F76B000080B5FEF725FDFEF725FC80BD7C
:1043400080B5FEF783FAFEF7C5FBFEF7A9FA80BD3C
:1043500010B586B0009101460098059104A9087037
:10436000039202AA13800598097813880122FDF7A9
:1043700005F8FFE705983D4940588006002801D41C
:10438000FFE7F7E701A900200880FFE701A8008800
:1043900002A9098888420DDAFFE70598FCF778FF43
:1043A000039901AA12888854FFE70198401C01A9CB
:1043B0000880EBE706B010BD10B588B0079006A8DE
:1043C0000170059204A803800088012809DBFFE73B
:1043D00004A80088082804DCFFE70020002805D195
:1043E00003E00120002801D1FFE719E004A80188BB
:1043F0000020012903900DDBFFE704A801880120BC
:10440000002201920929029001DB01980290029892
:104410000390FFE703990120884300F02BF9FFE7A1
:10442000FFE70798114940588006002801D4FFE7AC
:10443000F7E70798059904AA00921288FCF700FF95
:10444000009A079806A9097813880022FCF796FFBE
:10445000FFE70798054940588006002801D4FFE788
:10446000F7E70798FCF702FF08B010BD181200002C
:1044700080B584B0039000F019F802900398019081
:104480000198401C002804D0FFE70198401C0190CF
:10449000FFE7FFE700F00AF80299401A0199884205
:1044A00001D2FFE7F6E704B080BD000004480068D1
:1044B0007047C04602490868401C08607047C04603
:1044C0001806202080B582B0019000910198002844
:1044D00001D1FFE70BE000980078C007002806D064
:1044E000FFE701988047009900200870FFE702B0BD
:1044F00080BD80B584B01120009000F04DF8009888
:1045000000F060F81020019000F046F8019800F0EB
:1045100059F81220029000F03FF8029800F052F88B
:104520000F20039000F038F8039800F04BF804B027
:1045300080BD000080B584B0024603A8027002AAC4
:10454000117001AA002111800078411E884180016C
:1045500010700298507003483C210223FFF72CFF93
:1045600004B080BD00200F4082B0019100900198FE
:104570004000400D0249401A411E884102B0704778
:10458000FF07000081B000900098C00DC0B2FF3856
:10459000411E884101B0704781B0014668460170F4
:1045A00000214056002809D4FFE7684601781F2003
:1045B00001400120884002490860FFE701B07047D0
:1045C00080E200E081B0014668460170002140565B
:1045D000002809D4FFE7684601781F200140012028
:1045E000884002490860FFE701B0704700E100E041
:1045F00070B582B0024601A80270009100214056B9
:10460000002816D4FFE7002401A908570322D3434A
:104610001840174A805809578C07E50EFF24AC4014
:10462000A043009CA401E4B2AC4020431940885050
:104630001AE001A908780F24204008380322D34348
:1046400018400A4A8058002549578D07EE0EFF256D
:10465000B540A843009DAD01EDB2B54028432140CF
:10466000083919408850FFE702B070BD1CED00E02A
:1046700000E400E081B00090FFE7FEE7054900207C
:1046800008707047034901200870704701490220F3
:10469000087070473803202080B5034B6420002148
:1046A0000622FEF7D9FB80BDEC6B000080B586B01A
:1046B00005900598FBF7B6FE1749FBF7D5FD04906A
:1046C000AE4800780390002804D0FFE70398012843
:1046D0000FD01DE0002002900121FFF7F1F80299B0
:1046E0000846FDF7FFF90299049A0846FDF7D8F944
:1046F0000FE0012001900021FFF7E2F80199084640
:10470000FDF7F0F90199049A0846FDF7C9F900E0B0
:10471000FFE706B080BDC04600007A4410B58AB0FD
:10472000204805900068FBF7A1FE01910090AE4B78
:10473000079341200890002106220692FEF78CFB89
:1047400005988068FBF792FE069A079B0446089836
:1047500003940C460399019400910121FEF77CFB20
:1047600005984068FBF782FE069A079B0446089866
:1047700004940C460499019400910221FEF76CFB0D
:104780000598C068FBF772FE069A079B04460898D6
:1047900009940C460999019400910321FEF75CFBF2
:1047A0000AB010BD3C03202080B582B0FFF774FF33
:1047B0000D4B00210091062201920846FEF74CFBAA
:1047C0000098019A094B0121FEF746FB0098019AD7
:1047D000074B0221FEF740FB0098019A054B03218D
:1047E000FEF73AFB02B080BD1E6B00002A6B000092
:1047F0003D6B0000496B000010B588B0184803906D
:104800000068FBF733FE01910090774B05932A2057
:104810000690002106220492FEF71EFB03984068D2
:10482000FBF724FE049A059B0446069802940C4666
:104830000299019400910121FEF70EFB0398806814
:10484000FBF714FE049A059B0446069807940C4651
:104850000799019400910221FEF7FEFA08B010BDFD
:10486000A001202080B582B0FFF716FF0A4B00217F
:104870000091062201920846FEF7EEFA0098019A8E
:10488000064B0121FEF7E8FA0098019A044B022139
:10489000FEF7E2FA02B080BD096B0000366B000043
:1048A000176B00000549002008707047034901207C
:1048B00008707047014902200870704739032020B2
:1048C00080B582B000200190FFF762FA0C48FDF736
:1048D000DDF8FFF72FFDFFF723FDFDF717FDFEF7CE
:1048E00077FFFEF729FAFFF704FEFFE7FDF718FB55
:1048F000FFF77AFBFFF724FD3148FFF76DFCF5E782
:104900000000084010B586B005A9019108701B4849
:1049100004900078182102914143194803904058AF
:1049200000210091FCF7DEFB0099029A0398049B9A
:104930001B785A4380188068FCF7D4FB019B029ACD
:1049400003991C781046604308581B785A4389180D
:104950004968FCF7C7FB019B029A03991C78104633
:104960006043081880681B785A438918C968FCF7A7
:10497000B9FB04990598087006B010BD0D062020FB
:104980000400202080B582B00C4800210191FEF780
:104990008DFF01990A48FEF789FF02B080BDC0462D
:1049A00080B582B0054801210191FEF77FFF019992
:1049B0000348FEF77BFF02B080BDC0465C022020AA
:1049C000A002202080B582B006480068FBF74EFDAB
:1049D00001910090044B2A2000210622FEF73CFAA8
:1049E00002B080BD34032020106B000080B5FFF7BB
:1049F00053FE034B002106220846FEF72DFA80BD28
:104A0000A56B000080B505480021FEF74FFF80BD73
:104A100080B502480121FEF749FF80BDE402202055
:104A200037B514460846064B6A46214600F02CF975
:104A300004466946002000F0C3FC20463EBD00004D
:104A4000C15300002021020C01D010211046020A9F
:104A500001D010460839020901D01046091F82080A
:104A600001D01046891E420801D0881E7047081ADE
:104A700070474100080200D004200A0E01D0012234
:104A80001043090EFF2901D102210843012800D15A
:104A90000520704710B50121FBF703FE10BD10B5CE
:104AA000FBF74CFB10BD10B500210846FBF7DCFB03
:104AB00010BD5E2110B5C9430807FBF7F2FD10BD1C
:104AC000014800687047000000002020000000003E
:104AD00002E008C8121F08C1002AFAD1704700007E
:104AE0007047000000000000002001E001C1121F1B
:104AF000002AFBD1704700000149086070470000A0
:104B000000002020F0B51FB486B00998089A030D64
:104B10000021024314D05148514A1818504305143B
:104B20001198012810981AD0281A401C00264D4FC1
:104B30004D49009601910490002812DA444211E098
:104B40001198012449A3012801D11098C143069866
:104B5000119A84600360C26041600BB0F0BD4042B6
:104B6000E4E70446210500203F4A001C514103911F
:104B7000029012E0E00707D032463B4601990098C8
:104B8000FBF7B0FB0191009032463B4610461946B8
:104B9000FBF7A8FB06460F466410002CEAD10498E8
:104BA000039B0028029A0999089806DAFBF79AFBFA
:104BB000019B009AFBF796FB05E0FBF7BBFE019B10
:104BC000009AFBF7B7FE04460E460022284BFBF77F
:104BD00049FF03D80020C043014607E00022254BCF
:104BE00020463146FBF7F4FDFBF71CFF102409E0DB
:104BF000002C0ADB0A220023FBF787FC079B3032DC
:104C00001A55641E02460A43F2D11122641C079B06
:104C1000121B1C19119B012B03D0012308430ED139
:104C20000AE0084304D0112010900020119077E78B
:104C30001098151A6D1E0BE01098824202DD0023B9
:104C40006D1C03E0824201DA00236D1E002BEED0C2
:104C5000069811998260C16030C07EE701FCFFFFB9
:104C6000104D0000000014400000F03F3000000034
:104C70000000F0430000E03F30380A2801D2012054
:104C80007047002070470000FFB597B0064600252A
:104C900018E2252877D100242746FD49049400E036
:104CA0000443761C32780120203A90400842F7D124
:104CB00030782A280ED0022230780146303909296E
:104CC00016D804990A235943303940181443761CE6
:104CD0000490F1E7189802C804911890002904DAAA
:104CE0000120400304434842049002200443761C00
:104CF00030782E2814D1042004437078761C2A289A
:104D000009D11898761C80C8189009E00A214F43F1
:104D1000303FC719761C3078014630390929F5D95A
:104D200030786C2810D006DC4C281AD068280ED0B9
:104D30006A2817D104E0742813D07A2812D110E021
:104D40000120400504430CE00121090501E0032195
:104D500009050C437178814203D101200005241814
:104D6000761C761C3078119066280BD013DC5828FE
:104D70007DD009DC00287BD04528F6D04628F4D029
:104D800047281AD1A5E118E0632835D0642870D0EF
:104D9000652812D19DE170286CD008DC6728F1D01D
:104DA00069287BD06E280DD06F2806D1BAE0732811
:104DB0002ED0752871D0782859D01A9A1999904711
:104DC0006D1C7EE16002400F022809D003280DD03F
:104DD0000428189801680DD00D60001D189070E12E
:104DE0001898EA1701680D604A60F6E7189801689C
:104DF0000D80F2E70D70F0E718986A46017811729D
:104E0000001D18900020507202A80090012005E0BB
:104E1000189802C8189000200091C04361070DD572
:104E2000002101E00199491C0191B94212DA814245
:104E3000F8DB009A515C0029F4D10BE0002101E07D
:104E40000199491C01918142FADB019A0099895C20
:104E50000029F5D1019904981A9B471A2146384632
:104E6000199A00F097FA0199401945180BE04FE0A4
:104E70002CE113E04EE0009800990078491C009165
:104E80001A9A199990470198401E0190401CF2D13E
:104E9000214638461A9B199A10E137E00A20002172
:104EA000009001916002410F022907D0189A01CAAF
:104EB0001892C2179446032908D00AE01898C01D1A
:104EC000C108C90005C91891944607E000B2C2178D
:104ED0009446042902D140B2C1178C460022614693
:104EE000944506DA0A460021404291418C462D2124
:104EF00002E0210504D52B216A461173012103E04C
:104F0000E10701D02021F7E7029155E00A200AE0ED
:104F1000102008E01020009000210420044301919B
:104F2000082703E008200021019100906002410F52
:104F3000022907D0189A01CA189200229446032920
:104F400008D008E01898C01DC108C90005C918910B
:104F5000944603E080B2042900D1C0B2002102913E
:104F6000210729D51199702906D0009A1021019B9B
:104F70004A401A4305D00EE040216A4611730121D0
:104F800008E06146014306D030216A461173119949
:104F9000517302210291009A0821019B4A401A4351
:104FA0000AD16146014301D1610705D530216A4626
:104FB000117301217F1E02911199582904D035A146
:104FC0000E910DA90D910DE037A1F9E76146019B06
:104FD000009AFBF79AFA0E9B8C469B5C0D9A521E28
:104FE0000D92137061460143F0D10D9805A9081A7E
:104FF00020300190600703D501200004844300E0C5
:1050000001270198874201DD381A00E0002001994C
:1050100000904118029809180498401A0490E0037F
:1050200006D421461A9B199A049800F0B3F9451941
:10503000002706E003A81A9AC05D199990476D1CD5
:105040007F1C02988742F5DBE0030CD521461A9BB2
:10505000199A049800F09EF9451904E01A9A302034
:10506000199990476D1C0099481E00900029F5DCA5
:1050700008E00D980D990078491C0D911A9A19991C
:1050800090476D1C0199481E01900029F1DC63E1F5
:10509000092801003031323334353637383961620E
:1050A00063646566000000003031323334353637D2
:1050B00038394142434445460000000000F05AF9A7
:1050C0004519761C3078002800D0E2E528461BB050
:1050D000F0BD600700D406271898C01DC108C9009C
:1050E00048680A680831C30FDB071891190001D01E
:1050F0009CA108E0210501D59BA104E0E10701D0B6
:105100009AA100E09AA1430011985B0810916528CC
:105110000CD006DC452809D046281DD0472841D1AF
:1051200041E0662818D067283CD13CE00021112FCF
:1051300001DB112000E0781C0191009008A911A862
:10514000FFF7E0FC139905910021119A15927F1C3D
:1051500012980197009150E00120C00703900120B0
:10516000019008A9009711A8FFF7CCFC139A149995
:1051700005920022119B009212981593059A0192B4
:10518000002901D0104602E0791C40180190381A1D
:1051900001D5019804E04042401E0090781C019027
:1051A000C01B029043E0012F00DA01270021112FDC
:1051B00001DD112000E038460191009008A911A8F6
:1051C000FFF7A0FC13990591119A002112981592EE
:1051D0000091019721070CD40599B94201DB01998F
:1051E00000E00191012904DD159A491E515C302926
:1051F00006D0B84201DA011D05DA0121029115E05D
:105200000199491EEDE7002805DC0099411800913D
:105210000199091A03E0019A411C914200DD0191B4
:105220000099401A401C02900120C00703902007FB
:1052300006D402990198814202DB0020C04302900B
:1052400000206946C87707AF012103980337C907D3
:10525000884224D0022011902B201290039800281D
:105260000CDA404203902D20129007E00A210398A7
:10527000FBF72CF930317F1E039039701199481ECD
:1052800011900029F2DC03980028EFD1791E1298C2
:1052900008703078202108404530BF1E387006A8BD
:1052A000C01BC01D039010980078002800D001207A
:1052B000019941180298C017091803980918049811
:1052C000401A401E0490E00306D421461A9B199A06
:1052D000049800F05FF8451910980078002803D072
:1052E0001A9A199990476D1CE00324D521461A9B00
:1052F000199A049800F04EF845191CE0009800280F
:1053000007DB00990598884203DD1598405C1999E0
:1053100001E0199930201A9A904700986D1C401CA2
:1053200000900298401E0290002804D11A9A2E2064
:10533000199990476D1C0199481E01900029DDDCE8
:1053400005E038781A9A7F1C199990476D1C0399CB
:10535000481E03900029F4DC21461A9B199A0498F0
:10536000ACE600002D0000002B0000002000000033
:1053700000000000F8B5044600251E4617468804C4
:1053800004D405E039462020B0476D1C641EF9D5D1
:105390002846F8BDFFB50446002581B01E46C80367
:1053A00001D5302700E02027880404D505E03846E1
:1053B0000399B0476D1C641EF9D5284605B0F0BDB1
:1053C0000A68531C0B60107070470000F8B5044663
:1053D0004721400049060D2241181206914253D838
:1053E0003F21490688421BD960007F214008C9053A
:1053F000FAF7F9FE0021C943FBF753F9074600F01D
:10540000D5F9002C04DA2F4D2D4EA907484001E0B4
:105410002D4E2E4D03218907FAF7E9FE044606E0DA
:105420000026214635460846FAF7E1FE0746284998
:105430003846FAF7DCFE2749FAF780FE3946FAF7D4
:10544000D6FE2549FAF77AFE3946FAF7D0FE234907
:10545000FAF774FE3946FAF7CAFE2149FAF76EFEEA
:10546000009039462046FAF7C2FE0099FAF7BFFECF
:10547000074629462046FAF761FE3946FAF75EFEEE
:105480003146FAF75BFEF8BD39214906884208D259
:105490002046FFF7EEFA042801D1FFF70AFB204669
:1054A000F8BDFF210906884203D92046FFF7F2FA2A
:1054B000F8BD0120FFF720FBFFF7F5FAF8BD00006B
:1054C0000000C9BF22AAFDB90000C93F22AAFD39C8
:1054D00024FE1C3DC78AD83C1E67383D1B93993D6E
:1054E000AFAA2A3EF0B50C4601461D224B00D2065B
:1054F0009F18E52605463606620087B02046B7426B
:105500007BD21D27FF06D719B74276D24F00430042
:105510003E0E1A0EB21A1B2A07DD002902DA854850
:1055200007B0F0BD844807B0F0BD1A26F2422FDA6A
:10553000002807DA002902DA804807B0F0BD804869
:1055400007B0F0BD21462846FAF78EFE0646FFF763
:1055500090FA042801D1FFF7ACFA2846FFF789FA40
:1055600005462046FFF785FA04463046FFF781FAE4
:10557000042D01D0052D08D1042C01D0052C04D117
:10558000002802D10220FFF7B7FA304607B0F0BD7D
:105590009F4211D9002902DA6A4F6B4E01E06B4F2E
:1055A0006B4E23462C461D4601220346D207084671
:1055B0005440504019460BE0002807DA002902DA6F
:1055C000644F654E04E0654F654E01E000263746A6
:1055D000421A012352001B069A422FD248406149C9
:1055E0000CD5BF20000602903846FAF7F8FD0746B2
:1055F0005D493046FAF7F3FD0BE053E03F2000062B
:1056000002903846FAF79AFD074657493046FAF7AE
:1056100095FD064628460299FAF7E9FD2146FAF774
:105620008DFD009021460298FAF7E1FD2946FAF730
:10563000DAFD0099FAF718FE044604E021462846F0
:10564000FAF712FE04460146FAF7D1FD47490090E9
:10565000FAF7CDFD4649FAF771FD0099FAF7C7FD53
:105660004449FAF76BFD0099FAF7C1FD4249FAF790
:1056700065FD0099FAF7BBFD4049FAF75FFD054665
:1056800020460099FAF7B3FD2946FAF7B0FD3146F6
:10569000FAF754FD2146FAF751FD3946FAF74EFD67
:1056A00007B0F0BDFF263606B34201D8B24205D995
:1056B00001462846FFF7F3F907B0F0BD2F46074330
:1056C0007F000AD0B3420CD1B2420AD10122920724
:1056D000904391430D46044618E7FF22D20510433C
:1056E000F9E7B3420CD047000AD0B2420ED04E00C8
:1056F0000CD05340F0D4002A0EDB9F26F6050DE0B7
:10570000FF22D2051143E00FC007FFE6C90FC9070A
:10571000FF22D2051043F9E65F26F60531462846FA
:10572000FAF765FD054631462046FAF760FD044666
:105730002946EBE6DB0FC9BFDB0FC93FDB0F49C0D2
:10574000DB0F49400000C9BF22AAFDB90000C93FD4
:1057500022AAFD39000049C022AA7DBA00004940B2
:1057600022AA7D3A0060ED3EC30ACE372DAD65BD5D
:105770008FB8D53D0FB511BE61C84C3EA8AAAABED0
:1057800030B583B00446FFF79BF905460020009032
:1057900002460190012321466846FAF707FF284692
:1057A000FFF7AAF90199009803B030BD70B505461E
:1057B000FAF783FF41000446FF204908C005411A5B
:1057C000C90F07D069004908401AC00F02D1012053
:1057D000FFF792F9204670BDDDDDDDDDDCBBBBDD12
:1057E000DDDDDDDDDDDDDDDD988888888888888881
:1057F00077777777778888888555555666666666A1
:10580000666666666668888883333332222222227F
:10581000222222222228888D0000000000000000A1
:10582000002F000000000700070000147F147F1401
:1058300000242A7F2A120023130864620036495587
:10584000225000000007000000001C224100000060
:1058500041221C000014083E08140008083E0808F5
:10586000000000A060000008080808080000606050
:105870000000002010080402003E5149453E00008F
:10588000427F4000004261514946002141454B3171
:10589000001814127F10002745454539003C4A493D
:1058A00049300001710905030036494949360006AF
:1058B0004949291E00003636000000005636000017
:1058C0000008142241000014141414140000412292
:1058D0001408000201510906003E4955592E007C6A
:1058E0001211127C007F49494936003E4141412254
:1058F000007F4141221C007F49494941007F09093D
:105900000901003E4149497A007F0808087F0000EC
:10591000417F4100002040413F01007F08142241A7
:10592000007F40404040007F020C027F007F04085F
:10593000107F003E4141413E007F09090906003EBB
:105940004151215E007F09192946004649494931E4
:105950000001017F0101003F4040403F001F204007
:10596000201F003F4038403F0063140814630007C5
:105970000870080700615149454300007F4141001C
:10598000000204081020000041417F0000040201D1
:10599000020400404040404000000102040000209A
:1059A00054545478007F48444438003844444420D8
:1059B00000384444487F00385454541800087E0985
:1059C00001020018A4A4A47C007F0804047800004D
:1059D000447D4000004080847D00007F102844000A
:1059E0000000417F4000007C04180478007C08041B
:1059F000047800384444443800FC24242418001857
:105A0000242418FC007C0804040800485454542042
:105A100000043F444020003C4040207C001C2040CB
:105A2000201C003C4030403C004428102844001C0E
:105A3000A0A0A07C004464544C440000087F4100B6
:105A40000000007F00000000417F080000080408FB
:105A50001008FFFFFFFFFFFFFFFFB3BFFFFFFFFDCA
:105A6000FDFDFFFFDF83D7D7C1DFFF93B58BDBFFE2
:105A7000F3ADC383AD8FCFB38593AFBFFFFDFFFF02
:105A8000FFFFFFFFFF837DFFFFBDC3FFFFFFFFE7BA
:105A9000C7EFE7FFFFFFEFE7EFFFFF3FFFFFFFFF6E
:105AA000F7F7F7F7F7F7FFBFFFFFFFFFFFBFCFF7EE
:105AB000F9FFFF83BDBD83FFFFFFBB83FFFFFF9B9C
:105AC0009DADB3FFFF9BBDB583FFFFEFD783DFFF26
:105AD000FF93B3B38FFFFF83B5B58BFFFFFB9BE352
