:020000040000FA
:1000000068442020D5000000D9000000DB0000007B
:1000100000000000000000000000000000000000E0
:10002000000000000000000000000000DD000000F3
:100030000000000000000000DF000000F5350000B7
:10004000E3000000E3000000E3000000E300000024
:10005000E3000000E3000000E3000000E300000014
:1000600000000000E3000000E300000000000000CA
:1000700000000000E3000000E30000002D37000056
:100080001D360000E3000000FD350000E300000025
:10009000E3000000E300000000000000000000009A
:1000A000E3000000E300000000000000000000008A
:1000B000E300000000000000E3000000E300000097
:1000C0000348854600F0BCFC00480047553E000050
:1000D0006844202003480047FEE7FEE7FEE7FEE70E
:1000E000FEE7FEE7C1000000D2B201E00270401C52
:1000F000491EFBD270470022F6E710B513460A46A8
:1001000004461946FFF7F0FF204610BDCAB2401E54
:100110004178401C8A4202D00029F9D10020704762
:1001200010B5002200E0521C835C8C5CA34201D11C
:10013000002BF8D1D8B2E1B2401A10BDF8B5024692
:100140004A40D40F42004B0052085B089A4202D248
:100150000246084611464A0023D0C30D4A00DDB2CC
:10016000120EAD1A202D35DA49020126490AF6058C
:100170008A19002C00D0524220214F1B1146B94051
:100180002A411018C20D9A4221D0002C17D0012DFF
:1001900008DCDA05801AD20F8019D207DBB200F032
:1001A0001FFAF8BDDA05801A012340001B06C018AB
:1001B00080185A428018CA0F1043490007E04908C6
:1001C000C2071143DA05801A80194008801800F030
:1001D000FFF9F8BD61000122511A001BF7E7012267
:1001E000D2075140AAE70122D2075040A6E70246B3
:1001F00070B54A40D30FDB0740002DD04A002AD00B
:10020000010E140E000212020919400A520A841843
:10021000E50104465443000A120A2E045043A4196F
:100220004219200CC543AA18120C0125AD03521C1B
:10023000521912047F39240400D0521C104301D4F7
:100240004000491EC2B20C06C0092018401C4008DC
:10025000802A02D003E0002070BD40084000002941
:1002600000DA0020184370BD70B502464A40D50F31
:1002700040004A00ED0740085208002814D0002A28
:1002800012D0C40DD30D41020120C0055202490A0B
:10029000520AE41A091812187D34914201D3641CE1
:1002A00000E04900002C01DA002070BD00239142DB
:1002B00001D3891A0343400849000028F7D10029D7
:1002C0000AD0914202D10121C90705E0914201D231
:1002D000012101E00121C943E005C018401900F0E7
:1002E00077F970BDF0B51FB488B00B990998002458
:1002F00048400999C00F490049080991C0070B9966
:100300000090490049080B9109990898A6460843AE
:100310001CD00B990A98084318D009980124400072
:10032000420D4800410D099824050003000B2043AD
:1003300009900B980003000B20430B9050181C49A8
:100340004018002201901446104605E000200146A6
:100350000DB0F0BD032801DA034600E003239C46FC
:10036000C11A0AAE0AE05F0008ADED5B4F00F75B13
:100370007D430027AA187C41491C5B1E6145F2DDC4
:10038000410004AB5A522104120C0A43240C401CB5
:100390000828DFDB019802900099704601910090D7
:1003A000059B049A0799069800F098F9D0E7000099
:1003B0000DFCFFFF0122D207002800DB101A0029E4
:1003C00000DB511A814201D801207047002070479C
:1003D0000122D207002800DB101A002900DB511A85
:1003E000814201D301207047002070470122D207CB
:1003F000002800DB101A002900DB511A814201D1CC
:100400000120704700207047C217C10F504010B53F
:100410004018CA079623002100F0E2F810BDC20F71
:10042000D207400040080BD0C10D0723DB01C918DB
:1004300040020905400A1143C208400711437047B2
:10044000002001467047CB0FDB07490010B5490873
:1004500002460A4307D00A0D07240903E401090BE9
:10046000121B002A01DC002010BDC900440F0C4300
:10047000C100E018D205801800F0AAF810BD70B5D0
:100480000446002903D000202022012310E0002888
:1004900001D00020C043C046C0460DE02546D540EF
:1004A0008D4205D30D469540641B1D46954040196D
:1004B0001546521E002DF1DC214670BDF0B51FB46B
:1004C0000646002082B005464024019100901BE0C2
:1004D000019922460F46304600F0DAFA049A059B4D
:1004E000801A994110D310461946224600F0C0FAEE
:1004F000361A8F410197224601200021009F00F00B
:10050000B7FA38184D4100902046641E0028DFDC01
:10051000019B00982946324607B0F0BD0FB400B5E4
:1005200089B00A460DA9009100230C99002ACB60DE
:10053000234B0693234B079301D0042300E00023B1
:10054000214A0292214A0892019302466B460020FA
:1005500000F059FB09B008BC04B01847F0B585B0ED
:1005600007460020C04301901E46002015460C4659
:100570000091029104903B466A46314604A8FFF779
:10058000CDFF049902466018002D05D0002901D046
:10059000034600E023462B6000290ED0002A02DD2E
:1005A0000099814209D0001B019000943B466A46A5
:1005B0003146029404A8FFF7B1FF05B0F0BD00007A
:1005C0005D0E00007D0E0000FFFFFF7FD90A0000D6
:1005D000002904DA401C490001D14008400070475E
:1005E00070B40024050C05D11024000402D10029A8
:1005F00021D01124050E01D100020834050F01D1CC
:100600000001241D850F01D18000A41C002801DBFE
:100610004000641C002908D020252E1B0D46F54003
:10062000A14000D001212943084301061B1B000AF9
:10063000DB1D02D5002070BC7047DB051818801840
:100640000029F8DA401C4900F5D170BC4008400090
:100650007047420005D04200120E52428A4201DB2E
:1006600000207047C9050818704770B5002801DCE4
:10067000002070BD410040020126400AF605090E27
:100680008019CA0701D14000491E4D1000221146B1
:100690003F353346CB409B18D418844201D8001B09
:1006A0001A464000491C1729F3DD5100814202D24D
:1006B0000021C94300E00021E8058018FFF788FF0A
:1006C00070BD10B5002B08DA0024401C614192185F
:1006D0005B411A4301D14008400010BDF0B51FB482
:1006E00082B005460C0003D0084603F05FFC02E030
:1006F00003F05CFC2030024600902146284600F0C2
:10070000B7F9049B059A04460F4618431143084362
:1007100014D0184610431BD0009840210A1A1846DE
:10072000059900F0B5F905460E46009A059904981A
:1007300000F09EF9084305D0012004E02046394628
:1007400007B0F0BD0020C11705430E432C433743CB
:1007500000990E986305401A7905E40A00220C43BB
:10076000FD0A0A3002D500200146E9E7010510190B
:1007700069410C9C0D9D00196941FFF7A2FFDFE75D
:10078000F0B507460846584087B0C00F04904800AF
:100790000E46590040084908BC1A884105D238461F
:1007A00031461E4617460B46024658004008104385
:1007B0004CD0300D039040055900400D490D059077
:1007C000401A0290402872DA18030121000B090533
:1007D0000843019004980092002805D001995242E4
:1007E0000020884100920190029840210A1A019944
:1007F000009800F03DF905460C466B4607CB00F02B
:1008000058F9C0197141039A0E0D0023D7175640AD
:100810001A467A40164344D0049A002A2DD0029AF0
:10082000012A039A15DC1205C01A914101263605EA
:10083000001C7141D20F059ED207009301920296CF
:100840002A462346FFF74AFF07B0F0BD3846314637
:10085000FAE71605224A0F46B218C01AB74101211D
:100860000905001C4F4100187F41114618187941B5
:10087000E20F10436D19644113E0E2076D08154360
:100880006408C2071443039A01261205C01A914155
:100890003605001C7141CE07400830434908C01896
:1008A00051412A462346FFF70CFFCDE7FFE70498A6
:1008B00001224000C117121A00238B4104983146CF
:1008C000C417381AA141EEE730B40124E4076340AD
:1008D00030BC55E730B40124E407614030BC4FE739
:1008E0000000E0FFF0B50C465C4085B0E40FE40783
:1008F00003944C00002664085900944649080246B7
:100900000296224321D062460A431ED06200570D50
:100910004A000E032303550D012402462C492405E9
:10092000781B1B0B360B401823432643614600906F
:100930001C46501AB44103D30098401C009002E0BA
:10094000921800985B41002803DA0020014605B0A8
:10095000F0BD0020012109050746864611E06446E6
:100960001D46141BB54106D36546521BB341744660
:1009700007430C43A646CD07400849082843921870
:100980005B4105460D43EAD11046184313D060463B
:10099000194650407140084306D06046101AB341D2
:1009A00006D20122002306E000220123DB0702E039
:1009B0000122D2435310009874460105381C61414E
:1009C000029C039D00196941FFF77BFEBFE7000011
:1009D000FD0300004A0009030123090B1B0519430D
:1009E0000A4B10B5520D9A4202DA0020014610BDA2
:1009F000064B34339A4203DC9A1A00F049F810BDD2
:100A0000034BD21800F034F810BD0000FF030000C3
:100A1000CDFBFFFF10B5002904DB0124E4074042B1
:100A20008C412146002B04DB1C460123DB0752428C
:100A3000A341994200D1904210BD00000000000087
:100A40001CB5094800900948019005460126009C04
:100A500005E0E36807CC33430C3C98471034AC42C4
:100A6000F7D3FFF731FB00000061000020610000B8
:100A700010B5202A04DB0146203A9140002010BD29
:100A8000914020239C1A0346E3401943904010BD37
:100A900010B5202A04DB0846203AD040002110BDC2
:100AA0000B46D340D0402024A21A91400843194657
:100AB00010BD10B5202A06DBCB170846203A10419E
:100AC000C1170B4306E00B461341D0402024A21A65
:100AD00091400843194610BD10B50F21C0B249021C
:100AE00000F0F6F910BD0000FFB5087889B0154692
:100AF000FF2805D0491C2D2804D00022002407E03F
:100B000000240BE00122F9E70A235C430419491C85
:100B10000878FF28F8D1002A00D064420020049011
:100B20002A7801462D2A01D02B2A0FD16D1C2D2A9F
:100B300002D00022049209E00122FBE700260A22EB
:100B400033466D1C00F0ACF9381871412F78FF2F37
:100B5000F4D10C9AA218069202460A4304D0FF234D
:100B6000069A9133DA4205DA002109980A4606C04E
:100B70000DB0F0BD0024B74AB54D2646079200F0EF
:100B8000B9F9029006980391002801DA474200E083
:100B9000074639050020AF4A001C514101910090E1
:100BA00012E0F80707D022462B4630460799FFF798
:100BB00099FB0646079122462B4610461946FFF739
:100BC00091FB04460D467F10002FEAD10698019B49
:100BD0000028009A0399029806DAFFF783FE32464E
:100BE000079BFFF77FFE05E0FFF77CFB3246079B84
:100BF000FFF778FB049A002A02D00122D207514065
:100C0000099A03C2B4E7FFB591B00020099000250E
:100C1000ED432E209E685C681F460190B9696D1CEB
:100C2000129888470090396A88470028F6D10098C2
:100C3000401C0AD00D20C0018443002E12DD009814
:100C40002B2809D02D280DD103E00020C04315B07A
:100C5000F0BD012080020443B9696D1C12988847D9
:100C6000761E009003A9600501D52D2000E02B2001
:100C70006A461073491C0CA80F9102900AE0B969EA
:100C80006D1C12988847009001204002044313987D
:100C9000761E0560002E02DD00983028EFD0019905
:100CA0000098884245D18020044308E00998401EFE
:100CB00009900120400204431399681C0860B96937
:100CC0006D1C761E1298884700903028EED030E0D8
:100CD0000199884205D1200603D480200443761E62
:100CE0001DE0009803F07CFA002825D0012149027C
:100CF0000C43009807AA0F9903323038761E9142B0
:100D000008D208700F98401C0F90200607D509984C
:100D1000401E03E0200602D40998401C0990A0055B
:100D200002D51399681C0860B9696D1C1298884730
:100D30000090002ECCDC59E0002E57DD009865288D
:100D400001D0452852D1A00550D50320000284438C
:100D5000B9696D1C761E129888470090002E0CDD34
:100D60002B2804D02D2808D1FF2001300443B96975
:100D70006D1C12988847761E0090E00501D52D2144
:100D800000E02B21029801700298401C0290019013
:100D900025E00120400204430EA902980131761E8D
:100DA00088420ED20098029930380006000E087072
:100DB00003D10299019881420AD90298401C0290FD
:100DC00006E0E00501D5244801E0234840420990AF
:100DD000B9696D1C12988847009013980560002E21
:100DE00004DD009803F0FCF90028D2D1F9691298CB
:100DF00088470F99FF200870029903AA0870002005
:100E00000A900B900CA90AA8099BFFF76DFEA0059C
:100E100002D40120C0431AE72420044209D0E0078D
:100E200013D138680B9A0A99031D3B60006806C00D
:100E30000BE00B990A98FFF706FB0146E00704D187
:100E40003868021D3A60006801602846FFE600002D
:100E5000000014400000F03FF1D8FFFF4268002A74
:100E600008D001680B78491C002B03D0521E06C025
:100E7000184670470121C160881E70474268002AE9
:100E80000BD0C3680168002B07D183688B4204D064
:100E9000491E521C06C0002070470020C043704706
:100EA00030B5434351435C18010C130C0D465D43B0
:100EB0002C1980B292B20546554351430A0C0904DD
:100EC0004D1962415843010C00044019514130BD95
:100ED0007F2801D9002207E0054B42089A5CC00731
:100EE00000D112091207120F0120904008407047EC
:100EF000404D00000EB5054A0292002200921346B2
:100F00000192FFF7EBFB03B000BD000033040000CB
:100F1000811E091F00BFFCD2704784B0039002916C
:100F2000019203980068009000980199884300900E
:100F300000980299019A114008430399086004B08F
:100F4000704784B00390029101920398006800906A
:100F5000009801998843009000980299019A1140E5
:100F600008430399086004B0704782B00190009173
:100F70000098019995225201885002B0704782B0C2
:100F8000019000910098019995225201885002B079
:100F90007047000081B0009000988100444A885852
:100FA00001235B061843885001B0704782B001905E
:100FB000009100980199024A885002B07047C046DB
:100FC000D012000081B0009000990120C2026A484E
:100FD000885001B07047C04610B584B0069C03909D
:100FE00002910192009302980199084300990843E5
:100FF0000699084303490843039989002C4A8850FD
:1010000004B010BD8100040081B000900098810000
:10101000274A8120885001B07047C04681B00090B7
:1010200000988100224A0020885001B07047C046D5
:1010300082B00190009100981649084301998900F7
:101040001B4A885002B0704782B00190009100980E
:101050001049084301998900154A885002B0704729
:1010600010B584B0079C069C0390029101920093F6
:101070000298019908430099084306990843079983
:1010800008430449084303998900094A885004B079
:1010900010BDC0468000040082B00190009100980D
:1010A0008021084301998900014A885002B07047A5
:1010B0000480424082B00190009101982721C9012B
:1010C00040580099084002B07047000081B000907D
:1010D0000099474A4748885001B0704782B0019054
:1010E000009100980199074A885002B07047C046A5
:1010F00082B00190009100980199024A885002B094
:101100007047C0469012000082B001900091009894
:101110000199024A885002B07047C046B0120000E0
:1011200081B00090009909204202885801231B02D7
:101130001843885001B0704781B000900099084A68
:10114000885801231843885001B0704781B000903F
:101150000099034A885804231843885001B0704707
:101160002812000081B0009000990120C2020248BC
:10117000885001B07047C0460100002610B5002A13
:101180000FD091235B01C3180020DC692405240FD4
:1011900005D00C5C1C60401C8242F6D1104680B227
:1011A00010BD002080B210BD3C4A835880210B4303
:1011B000835080180F221202436813400122D2028A
:1011C0009342F7D102688A430260704781B0009071
:1011D000009802494058C0B201B070471C1200008C
:1011E00081B000900099024A0248885001B07047CF
:1011F00004080000030000B181B000900099404A4B
:101200000020885001B0704780B584B0019101463C
:101210000198039102A908800398092252028018BC
:10122000098803225202FFF778FE04B080BD70B532
:101230000A780C231A400124240305196E689E4382
:10124000B2186A604978072211400359934359182C
:10125000015170BD80B584B00191014601980391A0
:1012600002A9088003980D4A8018098807221202F3
:10127000FFF753FE04B080BD80B584B001910146F4
:101280000198039102A908700398044A801809780C
:101290000722FFF742FE04B080BDC04638120000AE
:1012A00082B001906846017000780199014A885027
:1012B00002B070472412000010B586B001920246B9
:1012C00001980592049103AA107002A80380059862
:1012D000094940180499490012781143074AFFF759
:1012E00030FE05980649401802990904C91D054AAF
:1012F000FFF727FE06B010BD10120000FF07000028
:10130000141200000700FF0FF0B584B00124220280
:10131000344B19680392914319606E490D686D044E
:10132000FCD5457E25409E69A64374199C61202406
:10133000045D03252C40DE69AE433419DC611F4C8B
:10134000256805262660466A37681F6276685E62F1
:1013500007262E402660C4697F252D02DE69AE4334
:101360006406640C3419DC61076845688268009281
:10137000C66802690192426902929A69104C14404F
:101380003A07120B2D03ADB2AA183243009D2D0768
:101390002D0D1543019A1543029A1543007E2843EB
:1013A000084A0240101998611868039A104318609F
:1013B00008688005FCD504B0F0BDC046001340406D
:1013C0008D00F0FF72FF0F0006490868012290436C
:1013D00008607047034908680122120290430860C0
:1013E0007047C04608010B403949086801221203C2
:1013F000104308607047C04681B0014668460170DE
:1014000000780249086001B07047C04608030B40ED
:1014100080B582B0014601A8018001880F20020238
:101420002B48FFF77AFD02B080BDC046F0B5124BE5
:101430001D46083D2E680124A6432E600326360370
:1014400030401F68B743381818601868FF26B0434B
:10145000C9B240181860286820432860186821071E
:10146000002A06D0084318601A480168C905FCD54F
:10147000F0BD88431860F0BD10010B4080B582B00C
:10148000014601A80170017802480322FFF745FDDB
:1014900002B080BD00010B4080B582B0014601A8BA
:1014A000017001780A483022FFF737FD02B080BD95
:1014B00007498860074802689202FCD5012212049D
:1014C0000B6813430B600168C906FCD57047C04622
:1014D00004010B4004020B4010B585B000930B468D
:1014E0000099049003A80380029201AB197004993B
:1014F0001A7892008A18AF4C084911510299049A3F
:101500001B789B00D2183123DB01D150008804499D
:1015100008430499D74A885005B010BD0100020065
:101520001200001081B000900099024A01208850FA
:1015300001B070470811000082B001900091009B3B
:101540000199D94A88581843885002B07047C0465C
:1015500081B0009000990120C202D948885001B0A2
:101560007047C04681B000900098812149014058E1
:10157000C0B201B0704781B0009000980321C90249
:10158000405801B070470000F0B5BA4A82183B4B92
:10159000C31808794E793A4D764C002E23D0202876
:1015A00004D00526F601002803D003E0354E0028BC
:1015B00000D18826576F2F4037435767976F2F40CA
:1015C00037439767566B26405663966B2640966363
:1015D0000026566596658F26F6435F6837405F6044
:1015E0009F6837409F608E79096820280BD00028BB
:1015F00019D1491E5160D76E2F4088210F43D766FD
:101600001746703719E0491E5160D16E29401D4FB1
:101610003943D166116F29403943116701214907C8
:10162000194D174609E049085160D76E2F40052132
:10163000C9010F43D766174670373C682C400C43EE
:101640003C60D16A4B4C2140D162116B2140116347
:101650000021D16411658F21C943D46F0C40D46738
:101660001C680C401C600643BD2030401168074BCD
:101670000B40C018801C1060F0BDC04684180000EC
:1016800024493E0001040000FFFFFFCF4000FFCFD0
:10169000B0B54A686C4BC250764A80180A78222A44
:1016A00058D8930001A4E3589F46C0464B1700004A
:1016B000551700004B170000551700005517000084
:1016C000551700005517000055170000551700006A
:1016D000551700005517000055170000551700005A
:1016E0005517000055170000551700003917000066
:1016F0005517000039170000551700005517000056
:101700005517000055170000551700005517000029
:101710005517000055170000551700005517000019
:101720005517000055170000551700003917000025
:10173000551700003917000003231B0704689C435A
:1017400001235B07E318036004E003231B0704681D
:101750009C4304600B69C360CB68054C1C40C36AA2
:10176000044D1D402B19C362097A11430160B0BDBD
:10177000777702008888FDFF81B000900099774A52
:101780007748885001B0704782B00190009100986E
:10179000019911221202885002B0704710B5072338
:1017A0009B04194092008018024A84589C43611897
:1017B000815010BD3018000010B5029CA400001923
:1017C00011431943014A815010BDC0465018000012
:1017D00092008018014A81507047C04610180000DE
:1017E00010B50122120383180C789C604B7883504B
:1017F0008978014A815010BD0C11000010B586B0E7
:1018000001930B4601460198059104A90B8003AB97
:101810001A8002AA10800598164C001909881B88A6
:10182000194312881143024AFFF777FB06B010BD37
:1018300080FF000082B00190009100980199024A57
:10184000885002B07047C0460818000082B001906E
:101850000091009801990322D202885002B070478B
:1018600081B000900099034A88580123184388509A
:1018700001B070470418000081B000900099112059
:101880000202885801231843885001B070470000B5
:1018900082B001900091009B0199034A8858184337
:1018A000885002B07047C0462810000081B00090F8
:1018B00000990120C2020248885001B07047C0461A
:1018C0000100002681B00090009881214901405814
:1018D000C0B201B070470000B0B5112212028358A7
:1018E0000124A34383500B888C781C438B882343AB
:1018F000094C1C408358094D1D40631983508B7956
:10190000CC791C43097A21437E2319408018426810
:101910009A4351184160B0BD18670000E798FDFF79
:1019200081B000900098034940580121084001B05F
:101930007047C0460811000081B00090009802492D
:101940004058C0B201B070472411000081B000902F
:101950000099024A0248885001B07047040800000C
:10196000030000B180B584B0039002910192039806
:101970000B49401802990B4AFFF7CFFA03980A491E
:10198000401801993F22FFF7C8FA0399074A8818BF
:10199000895801221140FFF7C0FA04B080BDC0464B
:1019A00010110000FFFF00001411000004110000DE
:1019B00010B50122120383180C789C60497881507D
:1019C00010BD80B582B001900091019811210902EB
:1019D000401800990322D203FFF79FFA02B080BD9E
:1019E00080B586B0034605A8037004AB0293197056
:1019F0000392007818214143184840181021405E96
:101A0000FEF702FD019003981549FEF7F0FB014631
:101A10000198FEF729FC02990978CA0011498850FB
:101A200006B080BD80B584B0024603A8027002AA49
:101A3000019211700078182141430848401840690C
:101A4000FEF7E2FC0649FEF70FFC01990978CA008F
:101A500004498918486004B080BDC04608002020B1
:101A60000000B6443002202080B582B00190019879
:101A700002F0CEF802B080BD80B582B01220009096
:101A8000012100F0D9F9322001F0ACFF0098442187
:101A900000F0D2F913200A2100F0CEF9152003211D
:101AA00000F0CAF9C3480190022101720D49896A08
:101AB000C160002101700C4989684160007A800092
:101AC00060210843C1B2112000F0B6F901980078F6
:101AD000800062210843C1B2102000F0ADF902B0CD
:101AE00080BDC046105F0000D45D000080B58AB0A4
:101AF00000F062F90021CF480190405EFEF784FCBF
:101B00007B21C905FEF773FB5149FEF717FB014620
:101B10000198504A089211600221405EFEF774FC61
:101B2000A44902914968FEF79FFB089A0146019873
:101B300051600421405EFEF767FC02994968FEF798
:101B400093FB089A0146019891600621405EFEF7DA
:101B50005BFC02994968FEF787FB089A01460198E9
:101B6000D1600821405EFEF74FFC0299C968FEF77C
:101B70007BFB8E4903910969FEF731FB089A014608
:101B8000019811610A21405EFEF73EFC0299C96886
:101B9000FEF76AFB03994969FEF721FB089A0146A3
:101BA000019851610C21405EFEF72EFC0299C96834
:101BB000FEF75AFB03998969FEF711FB0146089865
:101BC0008161006901F026FA0146089801614069C7
:101BD00001F020FA014608984161806901F01AFA83
:101BE0000899886148680590486804908868896801
:101BF000FEF7FDFA0499024605980692FEF7F7FAF9
:101C00000699FEF79BFA08990790C868C968FEF71D
:101C1000EEFA0799FEF792FA03F07CF8014608986D
:101C2000099109994068FEF71FFB01460898416039
:101C300009998068FEF718FB0146089881600999A8
:101C4000C068FEF711FB0899C8600AB080BDC046A5
:101C50000000C8410C01202080B584B003AB18708F
:101C6000029101A80280694600200880FFE76846CB
:101C7000008801A90988884210DAFFE703986946BD
:101C80000A88801802998918C0B2012200F008F869
:101C9000FFE70098401C69460880E8E704B080BD73
:101CA00080B588B001920346019807AA1370069187
:101CB00005A902910880694803906A2104910123D3
:101CC00001F034FE029B03980499069A1B8801F0E8
:101CD000F9FD08B080BDC04680B586B0FFF7CCFEE8
:101CE0007D20800001F07EFE00200590FFE7059832
:101CF0002D4988423FDCFFE700F05EF84D48029036
:101D00000821405EFEF780FB2A490391C968FEF76F
:101D1000ABFA0146254804900069FEF70FFA049AD1
:101D20000146029811610A21405EFEF76DFB03999E
:101D3000C968FEF799FA014604984069FEF7FEF972
:101D4000049A0146029851610C21405EFEF75CFB4B
:101D50000399C968FEF788FA014604988069FEF77E
:101D6000EDF904998861022001F03CFEFFE7059837
:101D7000401C0590BBE70D48019000690C4900919B
:101D8000FEF772FA00990246019802614069FEF777
:101D90006BFA00990246019842618069FEF764FA85
:101DA0000199886106B080BDE7030000480120204A
:101DB00000007A443801202080B586B0202002A996
:101DC00000910E22FFF748FF009A50780002117828
:101DD000401818490880D07800029378C01808810C
:101DE000507900021379C0184881D07900029379A4
:101DF000C0188881507A0002137AC0184880D07ABF
:101E00000002937AC0188880507B0002127B8018F1
:101E1000C880888801AA1080C888888001984042BC
:101E2000C88048891080888948810198404288810B
:101E300006B080BD2801202080B584B003AA1070B0
:101E400002A80170039801AA10700298507003480C
:101E50006A21022301F06AFD04B080BD00000F403A
:101E600010B58AB0FFE701F0DBFD099009987D49C4
:101E70000968401A002801D5FFE7F1E001F0D0FD24
:101E8000143078490860FFE700200890FFE70898C1
:101E9000042800D9E4E008981822059242437248C9
:101EA0000690811880584968FFF704F905990246A1
:101EB0000698531E9A4107AB1A70089A514340186E
:101EC000007CC007002811D1FFE707A80078C007F1
:101ED00000280BD1FFE708981821414362484018B9
:101EE000807D01210840012815D0FFE708981821BE
:101EF00041435D484018407D0121084001280AD037
:101F0000FFE708981821414357484018007DC00753
:101F1000002809D0FFE7089818214143524841188A
:101F2000002048610861FFE70898182141434E48A6
:101F30004018007CC007002822D1FFE707A80078DE
:101F4000C00700281CD0FFE708991822039210460A
:101F50004843454904910B1801209875089C134685
:101F60006343CB185874089B5A438918C87401F00E
:101F700057FD039A0499089B5A4389188860FFE724
:101F800008981821414338484018007CC0070028B1
:101F900018D0FFE707A80078C007002812D1FFE794
:101FA00008981821019141432F48029041180120BF
:101FB000887401F035FD019A0299089B5A438918EB
:101FC000C860FFE708981821414327484018807DE2
:101FD000C007002835D1FFE708981821414322485F
:101FE0004118C8688968884201D1FFE728E008984D
:101FF000182141431C484118C8688968401A800864
:102000004A280ED8FFE7089818210A464243164886
:10201000831801225A75089A514341188868C8608C
:102020000DE0089818210A4642430F488318012200
:102030001A75089A514341188868C860FFE7FFE79E
:10204000FFE707A80078089918224A43064989182B
:10205000012210400874FFE70898401C089016E71A
:102060000AB010BD640120203800202080B59CB04B
:102070001B90FFE701F0D4FC1A901A986E4909688A
:10208000401A002801D5FFE7D3E001F0C9FC143065
:1020900069490860FFE71B98FEF7B6F96749FEF744
:1020A000E3F81990199800F0EFF871491391086856
:1020B0000D9048680C908868C968FEF798F80C99EC
:1020C00002460D980E92FEF792F80E99FEF736F83A
:1020D00001460846FEF732F81399129048681090AE
:1020E00048680F9088688968FEF781F80F99024662
:1020F00010981192FEF77BF81199FEF71FF8014630
:102100000846FEF71BF801467F20C0051790FEF732
:1021100066F80146129802F099FC1399484A9060BB
:102120000868159088681490C8684968FEF75FF8D9
:102130001499024615981692FEF759F81699FEF76B
:102140004EF801460846FDF7F9FF179918901898C0
:10215000FEF730F9002804D1FFE77F20C0050B907F
:102160000FE018983749FEF733F9002803D1FFE74D
:1021700034480A9002E018980A90FFE70A980B90FA
:10218000FFE70B981890189802F0D4FB2C4909919E
:1021900048603749039108680190C8680090486812
:1021A0008968FEF724F80099024601980292FEF72A
:1021B0001EF80299FDF7C2FF01460846FDF7BEFF73
:1021C000039907908868059088680490C868C96872
:1021D000FEF70DF80499024605980692FEF707F8F7
:1021E0000699FDF7ABFF01460846FDF7A7FF01463C
:1021F0007F20C005FDF7F3FF0146079802F026FC9B
:1022000001460998016000680F490891FDF7EFFF4A
:1022100008990246099802604068FDF7E8FF0899AE
:102220000246099842608068FDF7E1FF09998860DD
:10223000FFE71CB080BDC0467401202000007A4436
:1022400068012020000080BFE12E654280B5FFF7C5
:1022500043FD07497F20C2050A600020486088606E
:10226000C860CA61034A0A6208614861886180BD2A
:1022700078012020CDCC4C3D80B582B001900198F2
:10228000FFF7F4FE02B080BD80B5C6B04590FFF701
:102290002DFC564840680021FEF7A8F8002811D010
:1022A000FFE7524880680021FEF7A0F8002809D017
:1022B000FFE74E48C0680021FEF798F8002801D0DB
:1022C000FFE736E24A49359148682C90C8682B9060
:1022D00008688968FDF78BFF2B9902462C982D9290
:1022E000FDF785FF2D99FDF77AFF01460846FDF7BA
:1022F00025FF3599449008682F9048682E9088688B
:10230000C968FDF774FF2E9902462F983092FDF7A9
:102310006EFF3099FDF712FF01460846FDF70EFFEC
:102320003599439008683290086831904868496848
:10233000FDF75DFF3199024632983392FDF757FF62
:102340003399FDF74CFF3599349088688968FDF71B
:102350004EFF01463498FDF742FF35993690C86824
:10236000C968FDF744FF3699FDF7E8FE4290F24850
:1023700041683A9181683991C068389000200028FE
:1023800006D1FFE73A9801F0AFFB002808D12BE017
:102390003A98FEF744F801F099FB002824D0FFE7B3
:1023A0000020002806D1FFE7399801F09DFB0028A6
:1023B00008D119E03998FEF732F801F087FB0028C0
:1023C00012D0FFE70020002806D1FFE7389801F07F
:1023D0008BFB00280ED107E03898FEF720F801F0BB
:1023E00075FB002806D1FFE7A3E1C0460C012020C1
:1023F00078012020399801904298009038984399AC
:10240000FDF7F5FE0099024601980292FDF7EFFEF6
:102410000299FDF7E4FE41903898049044980390A7
:102420003A984299FDF7E3FE039902460498059213
:10243000FDF7DDFE0599FDF7D2FE40903A98079032
:102440004398069039984499FDF7D1FE06990246C3
:1024500007980892FDF7CBFE0899FDF7C0FE3F9064
:10246000B6482A90006A4199FDF7C1FE2A9A45991B
:1024700012690992FDF7BBFE0999FDF75FFE01465F
:102480002A980161006A4099FDF7B1FE2A9A4599A0
:1024900052690A92FDF7ABFE0A99FDF74FFE01461D
:1024A0002A984161006A3F99FDF7A1FE2A9A459951
:1024B00092690B92FDF79BFE0B99FDF73FFE2A9A5E
:1024C0009061D069419912690C92FDF790FE0C99C8
:1024D000FDF734FE014698481E900069FDF72EFE78
:1024E0001E992A9A0861D069409952690D92FDF7A8
:1024F0007EFE0D99FDF722FE01461E984069FDF70C
:102500001DFE1E992A9A4861D0693F9992690E92E0
:10251000FDF76DFE0E99FDF711FE01461E988069CC
:10252000FDF70CFE1E9902462A988A6142681092B5
:102530000A690F9280684969FDF759FE0F990246B2
:1025400010980123DB075A401192FDF750FE014617
:102550001198FDF744FE1E9902462A981292C0680F
:102560008969FDF744FE01461298FDF738FE3F21C8
:1025700009062091FDF73BFE1E9902462A983E92DD
:10258000026814920A69139280688969FDF72FFE28
:102590001399024614981592FDF729FE1599FDF737
:1025A000CDFD1E9902462A981692C0684969FDF72A
:1025B0001EFE01461698FDF712FE2099FDF717FE44
:1025C0001E9902462A983D92026818924A6917920B
:1025D00040688969FDF70BFE179902461898199211
:1025E000FDF705FE1999FDF7FAFD1E9902462A9896
:1025F0001A92C0680969FDF7FAFD1A99FDF79EFD68
:102600002099FDF7F4FD1E9902462A983C92026833
:102610001C928A691B9240684969FDF7E8FD1B9985
:1026200002461C981D92FDF7E2FD1D99FDF786FDFF
:102630001E9902462A981F9280680969FDF7D7FD06
:1026400001461F98FDF7CBFD2099FDF7D0FD2A9A92
:102650003B903E98459912682192FDF7C8FD21995B
:10266000FDF76CFD2A9A10603D98459952682292B8
:10267000FDF7BDFD2299FDF761FD2A9A50603C9857
:10268000459992682392FDF7B2FD2399FDF756FD17
:102690002A9A90603B984599D2682492FDF7A7FD4D
:1026A0002499FDF74BFD2A99C860086826900868B0
:1026B000259048684968FDF79AFD259902462698B5
:1026C0002792FDF794FD2799FDF738FD2A99289068
:1026D00088688968FDF78BFD2899FDF72FFD2A99F9
:1026E0002990C868C968FDF782FD2999FDF726FD84
:1026F00002F010FB01462A98379137990068FDF7E0
:10270000B3FD01462A98016037994068FDF7ACFD9A
:1027100001462A98416037998068FDF7A5FD01467A
:102720002A9881603799C068FDF79EFD2A99C86094
:10273000FFE746B080BDC0460C0120207801202074
:10274000E5480068806800280BD0FFE7E249086888
:1027500080680860002008714871AD490120087048
:10276000FFE77047C849012008707047C649052037
:1027700008707047C449042008707047C24903209C
:1027800008707047C04902200870704780B582B059
:102790000D49019171310D4801F04EF901995931FE
:1027A0000B4801F049F9019929310A4801F044F92F
:1027B00001994131084801F03FF901991131074869
:1027C00001F03AF902B080BD3800202065270000F2
:1027D000852700007D270000752700006D27000079
:1027E00010B586B0BC480068007B0290002804D079
:1027F000FFE70298012863D090E085480078C00781
:1028000000285CD0FFE700F08FF9B348006840690A
:10281000002805D0FFE7B048006840698047FFE71F
:1028200005A900200870FFE705A80078032842DC0E
:10283000FFE7A9494879059A821804A80270007830
:1028400009680979884201DBFFE734E004A80078D1
:10285000A1490979884214D1FFE705A80078410011
:1028600004A80478601C9C4A126812680C23634315
:10287000D258019200902C4B0020082200F003FA5D
:1028800013E005A80078410004A80478601C924A6F
:10289000126812680C236343D25801920090224BB5
:1028A0000020082200F0D0F9FFE7FFE70598401C60
:1028B00005A90870B8E7564900200870FFE72EE028
:1028C00053480078C00700280AD0FFE700F02CF931
:1028D00081480068406980474D4900200870FFE743
:1028E0007D4800680069002817D0FFE7FFE701F086
:1028F00097F8039003980B490968401A002801D5FE
:10290000FFE70CE001F08CF8323006490860FFE781
:102910007148006800698047FFE700E0FFE706B004
:1029200010BDC0469C012020BB6000006A480068C2
:10293000007B012801D1FFE71AE0674908680068B9
:102940000A790C21514340188068002810D0FFE715
:102950006149086800680B790C225A438018806826
:102960000860002008714871294901200870FFE7BC
:102970007047C04658490879401C087108790968B1
:102980000979884205DBFFE7534900200871487147
:10299000FFE7514908794979401A042805DBFFE728
:1029A0004D494879401C4871FFE7194901200870DA
:1029B0007047C0464848007900280FD0FFE74649D5
:1029C0000879401E087108794979884205DAFFE7DD
:1029D00041494879401E4871FFE714E03E480168CC
:1029E0000979491E017100680079052806DBFFE7B7
:1029F000394908680079001F487103E03649002012
:102A00004871FFE7FFE70249012008707047C046A0
:102A1000B000202080B582B01B48007801900528C6
:102A20002FD80198810001A040588746452A000010
:102A3000472A0000532A00005F2A00006B2A00008A
:102A4000772A00001EE0FFF795FF0F49002008706D
:102A500018E0FFF7AFFF0C490020087012E0FFF705
:102A600065FF0949002008700CE0FFF769FE064980
:102A70000020087006E000F009F803490020087003
:102A800000E0FFE702B080BD6004202080B512485E
:102A90000068007B012801D1FFE714E00E490868B7
:102AA00000680A790C2151434018406800280AD078
:102AB000FFE70949086800680A790C21514340186A
:102AC00040688047FFE780BD034904480860002054
:102AD000087148717047C04658042020C85F000044
:102AE00081B000200090FFE70098012815D8FFE78B
:102AF0000098182242430A4989180301094AD0184C
:102B0000D2588A60C2684A6182680A614068C860B7
:102B1000FFE70098401C0090E6E701B07047C04610
:102B2000D4002020B400202080B584B00020039081
:102B3000FFE7039807281BDCFFE703A801780020C4
:102B4000019000F0BFF801980290FFE702987F28FB
:102B500009DCFFE70120002100F09EFFFFE702985B
:102B6000401C0290F2E7FFE70398401C0390E0E767
:102B700004B080BD80B582B06420019000F032FFC7
:102B800000200090AE2100F087FF0098D52100F0D2
:102B900083FF0098802100F07FFF0098A82100F0BB
:102BA0007BFF00983F2100F077FF0098D32100F0D1
:102BB00073FF0099084600F06FFF0098402100F075
:102BC0006BFF0098A12100F067FF0098C82100F07A
:102BD00063FF0098DA2100F05FFF0098122100F0F7
:102BE0005BFF0098812100F057FF0098CF2100F093
:102BF00053FF0098D92100F04FFF0098F12100F019
:102C00004BFF0098D82100F047FF0098302100F0DA
:102C100043FF0098A42100F03FFF0098A62100F098
:102C20003BFF00988D2100F037FF0098142100F041
:102C300033FF0098AF2100F02FFF019800F0D2FE83
:102C4000FFF772FF02B080BD10B5CAB049AC049462
:102C5000208048A80190018047A802900270469306
:102C60004CA805904699059A06A8039001F08CF9A6
:102C70000199029B039A0498007809781B7800F068
:102C800035F94AB010BD10B5CAB049AC04942080E3
:102C900048A80190018047A80290027046934CA872
:102CA00005904699059A06A8039001F06DF90199DF
:102CB000029B039A0498007809781B7800F041F988
:102CC0004AB010BD80B586B0024605A801900270DA
:102CD00004AA0292117001780F2001400020039095
:102CE00000F0DAFE0199039809780909103100F023
:102CF000D3FE029903980978B022114300F0CCFE6C
:102D000006B080BD10B588B007AC207006A8017071
:102D100005A8027004A803700078062820D1FFE7F8
:102D200007A8007806A90978FFF7CCFF00200390D8
:102D3000FFE70398052812DCFFE705A801780620C5
:102D400048432B49401803994018C03801780120A6
:102D500000F0A2FEFFE70398401C0390E9E743E080
:102D600004A8007808283ED1FFE707A8007806A944
:102D70000978FFF7A7FF00200290FFE702980728D5
:102D800011DCFFE705A800780001184940180299F6
:102D900040185449415C012000F07EFEFFE7029894
:102DA000401C0290EAE707A800780699491CC9B2BE
:102DB000FFF788FF00200190FFE70198072811DC4A
:102DC000FFE705A80078000108494018019940185C
:102DD0004349415C012000F05FFEFFE70198401C81
:102DE0000190EAE7FFE7FFE708B010BDF4510000EB
:102DF000804D000010B588B007AC207006A80170A7
:102E000005A8027004A803700078062820D1FFE707
:102E100007A8007806A90978FFF754FF002003905F
:102E2000FFE70398052812DCFFE705A801780620D4
:102E300048432D49401803994018C03801780120B3
:102E400000F02AFEFFE70398401C0390E9E743E007
:102E500004A8007808283ED1FFE707A8007806A953
:102E60000978FFF72FFF00200290FFE7029807285C
:102E700011DCFFE705A80078000118494018029905
:102E800040181849415C012000F006FEFFE7029857
:102E9000401C0290EAE707A800780699491CC9B2CD
:102EA000FFF710FF00200190FFE70198072811DCD1
:102EB000FFE705A80078000108494018019940186B
:102EC0000749415C012000F0E7FDFFE70198401C45
:102ED0000190EAE7FFE7FFE708B010BDE457000004
:102EE00008FEFFFF00FEFFFFBA4F000010B586B0DE
:102EF00005AC207004A80170039202A8037001A918
:102F000000200870FFE7039801A90978405C0028B9
:102F100015D0FFE7059801A900910C7802A90B785C
:102F200019466143401804A90978039A125DC0B29A
:102F3000FFF7E8FE00990198401C0870E3E706B02F
:102F400010BD10B586B005AC207004A801700392C6
:102F500002A8037001A900200870FFE7039801A9E7
:102F60000978405C002815D0FFE7059801A9009179
:102F70000C7802A90B7819466143401804A9097816
:102F8000039A125DC0B2FFF735FF00990198401C0B
:102F90000870E3E706B010BD70B584B003AC2070D4
:102FA00002A80090017019480190FEF7E4FA01466A
:102FB0000098227818231D465543154A5519298231
:102FC00025781946694351181025495F26781D4612
:102FD000754355191226AD5F4E1925781946694378
:102FE0005518696989196961257819466943511825
:102FF000098A24786343D2185182007800F074FF64
:1030000001980021FEF722FC04B070BD00000940C9
:103010000800202080B582B001900198FDF7FFF9EB
:10302000034A044BFDF75EF9FDF70DFA02B080BDCF
:10303000D1A05DD046DF913F80B582B00F491048E6
:103040000190FEF7B5FC01980E49FEF745FC01988A
:103050000021FEF7B6FC019802210B22FEF782FC4C
:10306000019801218902FEF713FC0F20032100F0D3
:1030700071FD0198FEF700FC02B080BD985E000073
:10308000008010409A5E000080B582B00A490B486B
:103090000190FEF7A5FB01980949FEF7F9FA01989E
:1030A0000121FEF749FA1220022100F053FD019898
:1030B000FEF738FA02B080BDA45E00000000864032
:1030C000A85E000080B590B00920FDF7A7FF0A2098
:1030D000FDF7A4FF1020029004210391FDF7DCFF0F
:1030E00002996B480F90FDF761FF03991120FDF7DE
:1030F000D3FF0F982021FDF759FF012008900721E9
:10310000FDF796FF002009900621FDF791FF039936
:103110000898099B0193C0040B9000900F20049025
:103120001A46FDF79DFF0399099B0B9801930090A8
:103130000E2005901A46FDF793FF0498FDF72AFF2D
:103140000598FDF727FF099B0B980193009002203B
:10315000079003210E911A46FDF782FF099B0B98F9
:103160000E9901930090052006901A46FDF778FF0E
:103170000798FDF70FFF0698FDF70CFF079914203D
:10318000FDF78AFF07991520FDF752FF3920FDF75B
:103190003BFF2B20FDF738FF089809990B9B009106
:1031A00002040A923B20FDF717FF09990A9A0B9B2C
:1031B00000913620FDF710FF09990A9A0B9B0091A8
:1031C0002F20FDF709FF09990A9A0B9B00912320F4
:1031D000FDF702FF09990A9A0B9B00913720FDF732
:1031E000FBFE0B20FDF710FF0C20FDF70DFF252047
:1031F000FDF70AFF2620FDF707FF09990A9A0B9BA6
:1032000000910D20FDF7E8FE09990A9A0B9B0091A9
:103210001220FDF7E1FE09990A9A0B9B00911320F9
:10322000FDF7DAFE09990A9A0B9B00912120FDF720
:10323000D3FE09990A9A0B9B00912220FDF7CCFE40
:1032400009990A9A0B9B00912420FDF7C5FE099964
:103250000A9A0B9B00912D20FDF7BEFE0E980104EB
:103260000D91A8480C90FDF739FF0C980D99FDF7CA
:103270009DFE0F980749FDF778FE0E990F98FDF710
:103280002DFF0F980449FDF791FE10B080BDC04698
:1032900000200A40000004080300040880B582B042
:1032A0000A49E5480190FEF79BFA01980849FEF7A4
:1032B000EFF901980121FEF73FF91020022100F0FB
:1032C00049FC0198FEF72EF902B080BDBC5E0000FB
:1032D000C05E000080B582B012498C480190FDF7B5
:1032E000A6FF019803214902FDF78EFF0198FDF723
:1032F00017FF0198FDF780FF01982721FDF7D0FF08
:10330000019800210091FDF7B7FF00990198FDF7A2
:10331000A1FF0198FDF71AFF0198FDF70DFF02B01C
:1033200080BDC046D45E000080B582B00020019010
:10333000FEF762F8012000904002FEF769F801985C
:10334000FEF79CF8FEF740F8FEF744F8009A0320D9
:1033500000030A21FEF76AF80648FDF7D5FF1020A2
:10336000FEF79AF8FEF740F80198FEF7A1F802B0D0
:1033700080BDC046D85E000080B5024800F012F95A
:1033800080BDC0468038010080B584B00F495E48DA
:103390000390FEF725FA0398492149020191002381
:1033A00002931A46FEF798F80199029A03980123AE
:1033B000FEF792F803980649FEF73CFA0398FEF7E9
:1033C000B1F80398FEF74CFA04B080BD005F00002E
:1033D000FFFF000080B582B012494D480190FDF713
:1033E00026FF019803214902FDF70EFF0198FDF722
:1033F00097FE0198FDF700FF01980921FDF750FFA6
:10340000019800210091FDF737FF00990198FDF721
:1034100021FF0198FDF79AFE0198FDF78DFE02B09D
:1034200080BDC046035F000080B500F025F8FFF7BF
:1034300049FEFFF779FF00F06DF8FFF7A5FFFFF7F2
:103440002DFFFFF721FEFFF745FFFFF7C3FFFFF753
:10345000F3FDFFF791FF0549B82200208854044985
:103460009C23C8540349885480BDC0469C03202037
:10347000FC0220204002202080B58AB02148019023
:10348000FDF724FEA6480290FDF720FE4248039077
:10349000FEF772F91C480490FEF76EF96648059035
:1034A000FEF76AF95C480690FEF766F91748079040
:1034B000FDF796FE16480890FDF792FEA748099082
:1034C000FEF744FA0198FDF77DFD0298FDF77AFDBD
:1034D0000398FEF73DF80498FEF73AF80598FEF7D2
:1034E00037F80698FEF734F80798FDF73BFE089882
:1034F000FDF738FE0998FEF7D9F91020FDF708FD11
:103500000AB080BD00000A400000094000200F40C2
:1035100000000F4080B586B01E491F480590FEF799
:103520005FF905981D49FEF72FF8059800230293CF
:1035300019461A46FEF762F9029B0598009320216E
:103540001022FEF739F9029A05981146FEF726F97E
:10355000029A059812490391FEF73AF9029B0598E1
:1035600001210491009119461A46FEF725F90299A6
:10357000049A0598FEF712F90399049A0598FEF744
:1035800027F90598FDF7CEFF05980321FEF7FCF813
:1035900006B080BD055F000000208640085F000087
:1035A0001127000080B584B002900298401E000EE2
:1035B000002803D0FFE70120039011E00298401E8D
:1035C0000949086000200190C043032100F0C2FABD
:1035D000019806490860064A072111600390FFE739
:1035E000039804B080BDC04614E000E018E000E09D
:1035F00010E000E080B500F017FA80BD80B5064805
:10360000FDF7B0FF012804D1FFE70520FEF72CFAF3
:1036100000E0FFE780BDC0460000864080B5064858
:10362000FDF7A0FF012804D1FFE71E20FEF724FECE
:1036300000E0FFE780BDC0460040084080B584B090
:10364000354800780190002808D0FFE7019801284C
:103650000AD0FFE7019802280CD025E00120810460
:103660002F48FDF78CFC20E0012081042C48FDF759
:103670003FFD1AE0FFE700F0D3F9039003982749D4
:103680000968401A002801D5FFE743E000F0C8F9B7
:103690007D218900401821490860FFE7012081044D
:1036A0001F48FDF731FD00E0FFE71E48007800905D
:1036B000002808D0FFE7009801280AD0FFE700980B
:1036C00002280CD025E00120C1061548FDF757FC63
:1036D00020E00120C1061248FDF70AFD1AE0FFE7CD
:1036E00000F09EF9029002980F490968401A0028DC
:1036F00001D5FFE70EE000F093F97D21C9004018E5
:1037000009490860FFE70120C1060548FDF7FCFCF8
:1037100000E0FFE704B080BD2E022020E40120205D
:1037200000200A402D022020E001202080B582B038
:103730000A48FEF7C7F80B280CD1FFE70748FEF749
:10374000FBF8014601A8017001783548402200F0DD
:1037500071F800E0FFE702B080BDC0460080104075
:1037600080B586B005904A480078C007002801D18E
:10377000FFE752E02A4801903D21FCF7C7FC0146D3
:1037800001980491049A0021117003900498401C40
:10379000029003982349FCF7C3FC002808D1FFE7F7
:1037A000029801F0A1FAFCF74EFE0599C8612FE0DE
:1037B00003981D49FCF7B4FC002808D1FFE70298E4
:1037C00001F092FAFCF73FFE059908621FE00398AA
:1037D0001649FCF7A5FC002808D1FFE7029801F084
:1037E00083FAFCF730FE059948620FE00398104910
:1037F000FCF796FC002808D1FFE7029801F074FA64
:10380000FCF721FE05990860FFE7FFE7FFE7FFE708
:1038100003484021FCF76FFCFFE706B080BDC046BF
:10382000A0012020F75F0000F45F0000F15F0000BE
:10383000FA5F000010B583B0029001A801706946DC
:103840000A7000780D280AD1FFE7029A0F490B7819
:103850000020D0540E4B01221A70087014E00B485F
:10386000007869460978491E884208DAFFE701981E
:103870000299064C2278531C2370885403E00349B4
:1038800000200870FFE7FFE703B010BD2C022020E6
:103890000801202080B5034B052003210822FFF7F3
:1038A000F2F980BDC160000080B5FFF763F9FFF752
:1038B0000BF980BD80B5FEF769FFFFF7ABF8FEF7A7
:1038C0008FFF80BD10B586B000910146009805912C
:1038D00004A90870039202AA138005980978138836
:1038E0000122FDF7E9FCFFE705983D4940588006B5
:1038F000002801D4FFE7F7E701A900200880FFE7CF
:1039000001A8008802A9098888420DDAFFE7059816
:10391000FDF75CFC039901AA12888854FFE701981F
:10392000401C01A90880EBE706B010BD10B588B0B7
:10393000079006A80170059204A80380008801285A
:1039400009DBFFE704A80088082804DCFFE7002063
:10395000002805D103E00120002801D1FFE719E08C
:1039600004A801880020012903900DDBFFE704A8CB
:1039700001880120002201920929029001DB0198AF
:10398000029002980390FFE703990120884300F01A
:1039900023F9FFE7FFE70798114940588006002800
:1039A00001D4FFE7F7E70798059904AA0092128867
:1039B000FDF7E4FB009A079806A90978138800220E
:1039C000FDF77AFCFFE70798054940588006002874
:1039D00001D4FFE7F7E70798FDF7E6FB08B010BD55
:1039E0001812000080B584B0039000F019F802901E
:1039F000039801900198401C002804D0FFE701982B
:103A0000401C0190FFE7FFE700F00AF80299401A16
:103A10000199884201D2FFE7F6E704B080BD0000BB
:103A2000044800687047C04602490868401C0860A6
:103A30007047C0466404202080B582B00190009198
:103A40000198002801D1FFE70BE000980078C0073B
:103A5000002806D0FFE701988047009900200870F1
:103A6000FFE702B080BD80B584B01020019000F067
:103A700045F8019800F058F81220029000F03EF846
:103A8000029800F051F80F20039000F037F80398E7
:103A900000F04AF804B080BD80B584B0024603A8A7
:103AA000027002AA117001AA002111800078411E43
:103AB0008841800110700298507003483C21022315
:103AC000FFF734FF04B080BD00200F4082B00191A9
:103AD000009001984000400D0249401A411E884163
:103AE00002B07047FF07000081B000900098C00D41
:103AF000C0B2FF38411E884101B0704781B0014615
:103B00006846017000214056002809D4FFE7684646
:103B100001781F2001400120884002490860FFE72A
:103B200001B0704780E200E081B001466846017054
:103B300000214056002809D4FFE7684601781F207D
:103B400001400120884002490860FFE701B070474A
:103B500000E100E070B582B0024601A80270009159
:103B600000214056002816D4FFE7002401A9085779
:103B70000322D3431840174A805809578C07E50E93
:103B8000FF24AC40A043009CA401E4B2AC4020431D
:103B9000194088501AE001A908780F2420400838FD
:103BA0000322D34318400A4A8058002549578D07FD
:103BB000EE0EFF25B540A843009DAD01EDB2B54026
:103BC00028432140083919408850FFE702B070BDF2
:103BD0001CED00E000E400E081B00090FFE7FEE7AC
:103BE000054900200870704703490120087070479C
:103BF00001490220087070472D02202080B5034B38
:103C0000642000210622FFF71FF880BDB660000087
:103C100080B586B005900598FCF7F6FB1749FCF7D0
:103C200023FB0490CE4800780390002804D0FFE7DF
:103C3000039801280FD01DE0002002900121FFF71A
:103C4000ABF902990846FDF7EDFE0299049A084681
:103C5000FDF7C6FE0FE0012001900021FFF79CF95F
:103C600001990846FDF7DEFE0199049A0846FDF722
:103C7000B7FE00E0FFE706B080BDC04600007A4412
:103C800010B58AB0204805900068FCF7C8FB019188
:103C90000090584B0793412008900021062206927D
:103CA000FEF7D2FF05988068FCF7B9FB069A079BE0
:103CB0000446089803940C4603990194009101214D
:103CC000FEF7C2FF05984068FCF7A9FB069A079B20
:103CD0000446089804940C4604990194009102212A
:103CE000FEF7B2FF0598C068FCF799FB069A079BA0
:103CF0000446089809940C460999019400910321FF
:103D0000FEF7A2FF0AB010BD3002202080B582B0BD
:103D1000FFF774FF0D4B0021009106220192084627
:103D2000FEF792FF0098019A094B0121FEF78CFFE4
:103D30000098019A074B0221FEF786FF0098019A2E
:103D4000054B0321FEF780FF02B080BD1360000029
:103D50001F600000326000003E60000080B582B04D
:103D600001900091FFE70648FDF7DAFD002801D039
:103D7000FFE7F8E7019803490860019802B080BDA9
:103D8000008010402091104010B588B01848039072
:103D90000068FCF744FB01910090164B05932A2024
:103DA0000690002106220492FEF74EFF0398406819
:103DB000FCF735FB049A059B0446069802940C46D2
:103DC0000299019400910121FEF73EFF039880685B
:103DD000FCF725FB049A059B0446069807940C46BD
:103DE0000799019400910221FEF72EFF08B010BD43
:103DF000680120200560000080B582B0FFF7FEFE5C
:103E00000A4B00210091062201920846FEF71CFF92
:103E10000098019A064B0121FEF716FF0098019ABF
:103E2000044B0221FEF710FF02B080BDFE5F0000D0
:103E30002B6000000C6000000549002008707047EE
:103E4000034901200870704701490220087070473B
:103E50002E022020F0B58DB000200C90FFF7E4FA80
:103E6000FFF722FDFFF716FDFEF7F0F9FEF75CFE07
:103E7000FEF736FEFFF7F7FDFFE7FDF7F1FFFFF76F
:103E8000DDFBFFF717FD16480790FFF769FC079861
:103E90000068FCF7C4FA0246079808920991C069C5
:103EA000FCF7BDFA024607980A920B91006AFCF7EC
:103EB000B6FA044607980D46406AFCF7B0FA089A2D
:103EC000099B06460A980F460B9905970496039599
:103ED000029401910090034800F046F8CDE7C046F7
:103EE000E8012020E05F000010B586B005A901912F
:103EF00008701B480490007818210291414319482A
:103F00000390405800210091FDF79EF80099029A15
:103F10000398049B1B785A4380188068FDF794F837
:103F2000019B029A03991C781046604308581B783D
:103F30005A4389184968FDF787F8019B029A03994B
:103F40001C7810466043081880681B785A4389180B
:103F5000C968FDF779F804990598087006B010BD96
:103F600061042020080020200FB410B503A9044BE1
:103F7000044A029800F03CF910BC08BC04B0184791
:103F80005D3D00000000202037B514460846064B72
:103F90006A46214600F02CF904466946002000F0EC
:103FA000C3FC20463EBD0000294900002021020C30
:103FB00001D010211046020A01D01046083902092A
:103FC00001D01046091F820801D01046891E420800
:103FD00001D0881E7047081A70474100080200D0BF
:103FE00004200A0E01D001221043090EFF2901D13D
:103FF00002210843012800D10520704710B5012196
:10400000FCF727FB10BD10B5FCF798F810BD10B5F4
:1040100000210846FCF728F910BD5E2110B5C94300
:104020000807FCF716FB10BD014800687047000048
:10403000040020200000000002E008C8121F08C190
:10404000002AFAD17047000070470000000000000D
:10405000002001E001C1121F002AFBD170470000BF
:10406000014908607047000004002020F0B51FB42B
:1040700086B00998089A030D0021024314D05148D4
:10408000514A1818504305141198012810981AD055
:10409000281A401C00264D4F4D490096019104906E
:1040A000002812DA444211E01198012449A30128A2
:1040B00001D11098C1430698119A84600360C260D0
:1040C00041600BB0F0BD4042E4E70446210500200A
:1040D0003F4A001C51410391029012E0E00707D0D3
:1040E00032463B4601990098FCF7FCF8019100909C
:1040F00032463B4610461946FCF7F4F806460F4692
:104100006410002CEAD10498039B0028029A0999B4
:10411000089806DAFCF7E6F8019B009AFCF7E2F84B
:1041200005E0FCF7DFFB019B009AFCF7DBFB044694
:104130000E460022284BFCF76DFC03D80020C0433C
:10414000014607E00022254B20463146FCF718FBCC
:10415000FCF740FC102409E0002C0ADB0A220023B3
:10416000FCF7ACF9079B30321A55641E02460A432D
:10417000F2D11122641C079B121B1C19119B012BED
:1041800003D0012308430ED10AE0084304D01120D4
:1041900010900020119077E71098151A6D1E0BE013
:1041A0001098824202DD00236D1C03E0824201DA96
:1041B00000236D1E002BEED0069811998260C1601D
:1041C00030C07EE701FCFFFF104D000000001440EE
:1041D0000000F03F300000000000F0430000E03F2E
:1041E00030380A2801D201207047002070470000B3
:1041F000FFB597B00646002518E2252877D10024A0
:104200002746FD49049400E00443761C32780120DF
:10421000203A90400842F7D130782A280ED0022266
:10422000307801463039092916D804990A235943B0
:10423000303940181443761C0490F1E7189802C8EE
:1042400004911890002904DA0120400304434842F5
:10425000049002200443761C30782E2814D10420C8
:1042600004437078761C2A2809D11898761C80C8D7
:10427000189009E00A214F43303FC719761C307867
:10428000014630390929F5D930786C2810D006DC80
:104290004C281AD068280ED06A2817D104E0742858
:1042A00013D07A2812D110E00120400504430CE01D
:1042B0000121090501E0032109050C4371788142C0
:1042C00003D1012000052418761C761C307811904B
:1042D00066280BD013DC58287DD009DC00287BD061
:1042E0004528F6D04628F4D047281AD1A5E118E091
:1042F000632835D0642870D0652812D19DE17028DC
:104300006CD008DC6728F1D069287BD06E280DD0EE
:104310006F2806D1BAE073282ED0752871D078287E
:1043200059D01A9A199990476D1C7EE16002400F8E
:10433000022809D003280DD00428189801680DD050
:104340000D60001D189070E11898EA1701680D6063
:104350004A60F6E7189801680D80F2E70D70F0E703
:1043600018986A4601781172001D1890002050724A
:1043700002A80090012005E0189802C818900020BB
:104380000091C04361070DD5002101E00199491C4E
:104390000191B94212DA8142F8DB009A515C00299E
:1043A000F4D10BE0002101E00199491C0191814207
:1043B000FADB019A0099895C0029F5D101990498EA
:1043C0001A9B471A21463846199A00F097FA019924
:1043D000401945180BE04FE02CE113E04EE0009847
:1043E00000990078491C00911A9A199990470198F0
:1043F000401E0190401CF2D1214638461A9B199A62
:1044000010E137E00A200021009001916002410F85
:10441000022907D0189A01CA1892C2179446032994
:1044200008D00AE01898C01DC108C90005C9189134
:10443000944607E000B2C2179446042902D140B264
:10444000C1178C4600226146944506DA0A460021CF
:10445000404291418C462D2102E0210504D52B21BB
:104460006A461173012103E0E10701D02021F7E73B
:10447000029155E00A200AE0102008E01020009088
:104480000021042004430191082703E008200021B3
:10449000019100906002410F022907D0189A01CAC9
:1044A000189200229446032908D008E01898C01DED
:1044B000C108C90005C91891944603E080B20429D7
:1044C00000D1C0B200210291210729D5119970298C
:1044D00006D0009A1021019B4A401A4305D00EE0F5
:1044E00040216A461173012108E06146014306D06C
:1044F00030216A4611731199517302210291009A79
:104500000821019B4A401A430AD16146014301D167
:10451000610705D530216A46117301217F1E029182
:104520001199582904D035A10E910DA90D910DE0D6
:1045300037A1F9E76146019B009AFBF7BFFF0E9B8D
:104540008C469B5C0D9A521E0D921370614601437E
:10455000F0D10D9805A9081A20300190600703D505
:1045600001200004844300E001270198874201DD17
:10457000381A00E0002001990090411802980918AB
:104580000498401A0490E00306D421461A9B199A15
:10459000049800F0B3F94519002706E003A81A9A19
:1045A000C05D199990476D1C7F1C02988742F5DB0E
:1045B000E0030CD521461A9B199A049800F09EF945
:1045C000451904E01A9A3020199990476D1C0099FA
:1045D000481E00900029F5DC08E00D980D99007840
:1045E000491C0D911A9A199990476D1C0199481E02
:1045F00001900029F1DC63E10928010030313233F8
:10460000343536373839616263646566000000000E
:1046100030313233343536373839414243444546F8
:104620000000000000F05AF94519761C3078002887
:1046300000D0E2E528461BB0F0BD600700D4062795
:104640001898C01DC108C90048680A680831C30F1E
:10465000DB071891190001D09CA108E0210501D5C4
:104660009BA104E0E10701D09AA100E09AA14300D8
:1046700011985B08109165280CD006DC452809D0FC
:1046800046281DD0472841D141E0662818D0672828
:104690003CD13CE00021112F01DB112000E0781C0F
:1046A0000191009008A911A8FFF7E0FC139905916A
:1046B0000021119A15927F1C12980197009150E0E9
:1046C0000120C00703900120019008A9009711A8BC
:1046D000FFF7CCFC139A149905920022119B0092CB
:1046E00012981593059A0192002901D0104602E014
:1046F000791C40180190381A01D5019804E0404215
:10470000401E0090781C0190C01B029043E0012FD6
:1047100000DA01270021112F01DD112000E03846C9
:104720000191009008A911A8FFF7A0FC1399059129
:10473000119A0021129815920091019721070CD42B
:104740000599B94201DB019900E00191012904DDDD
:10475000159A491E515C302906D0B84201DA011D74
:1047600005DA0121029115E00199491EEDE70028C3
:1047700005DC0099411800910199091A03E0019A9A
:10478000411C914200DD01910099401A401C0290A9
:104790000120C0070390200706D4029901988142A6
:1047A00002DB0020C043029000206946C87707AFB3
:1047B000012103980337C907884224D002201190B1
:1047C0002B201290039800280CDA404203902D20F1
:1047D000129007E00A210398FBF751FE30317F1E4B
:1047E000039039701199481E11900029F2DC03984A
:1047F0000028EFD1791E12980870307820210840E7
:104800004530BF1E387006A8C01BC01D039010980D
:104810000078002800D00120019941180298C017A3
:104820000918039809180498401A401E0490E003E0
:1048300006D421461A9B199A049800F05FF845198E
:1048400010980078002803D01A9A199990476D1C87
:10485000E00324D521461A9B199A049800F04EF8DB
:1048600045191CE00098002807DB0099059888424C
:1048700003DD1598405C199901E0199930201A9AC6
:10488000904700986D1C401C00900298401E0290BA
:10489000002804D11A9A2E20199990476D1C01996D
:1048A000481E01900029DDDC05E038781A9A7F1C4B
:1048B000199990476D1C0399481E03900029F4DC58
:1048C00021461A9B199A0498ACE600002D000000BE
:1048D0002B0000002000000000000000F8B5044696
:1048E00000251E461746880404D405E039462020DA
:1048F000B0476D1C641EF9D52846F8BDFFB50446C7
:10490000002581B01E46C80301D5302700E02027CE
:10491000880404D505E038460399B0476D1C641E31
:10492000F9D5284605B0F0BD0A68531C0B6010701D
:1049300070470000F8B504464721400049060D22A3
:1049400041181206914253D83F21490688421BD98B
:1049500060007F214008C905FBF745FC0021C943E1
:10496000FBF777FE074600F0D5F9002C04DA2F4D4F
:104970002D4EA907484001E02D4E2E4D03218907F9
:10498000FBF735FC044606E000262146354608467E
:10499000FBF72DFC074628493846FBF728FC27493A
:1049A000FBF7CCFB3946FBF722FC2549FBF7C6FB9E
:1049B0003946FBF71CFC2349FBF7C0FB3946FBF7E4
:1049C00016FC2149FBF7BAFB009039462046FBF75D
:1049D0000EFC0099FBF70BFC074629462046FBF727
:1049E000ADFB3946FBF7AAFB3146FBF7A7FBF8BD49
:1049F00039214906884208D22046FFF7EEFA0428FA
:104A000001D1FFF70AFB2046F8BDFF2109068842C5
:104A100003D92046FFF7F2FAF8BD0120FFF720FB8B
:104A2000FFF7F5FAF8BD00000000C9BF22AAFDB9E2
:104A30000000C93F22AAFD3924FE1C3DC78AD83C8C
:104A40001E67383D1B93993DAFAA2A3EF0B50C4630
:104A500001461D224B00D2069F18E5260546360664
:104A6000620087B02046B7427BD21D27FF06D719C8
:104A7000B74276D24F0043003E0E1A0EB21A1B2ADE
:104A800007DD002902DA854807B0F0BD844807B089
:104A9000F0BD1A26F2422FDA002807DA002902DADE
:104AA000804807B0F0BD804807B0F0BD21462846D9
:104AB000FBF7DAFB0646FFF790FA042801D1FFF76F
:104AC000ACFA2846FFF789FA05462046FFF785FA33
:104AD00004463046FFF781FA042D01D0052D08D198
:104AE000042C01D0052C04D1002802D10220FFF7AC
:104AF000B7FA304607B0F0BD9F4211D9002902DA5B
:104B00006A4F6B4E01E06B4F6B4E23462C461D46A1
:104B100001220346D20708465440504019460BE094
:104B2000002807DA002902DA644F654E04E0654F79
:104B3000654E01E000263746421A012352001B064B
:104B40009A422FD2484061490CD5BF2000060290FE
:104B50003846FBF744FB07465D493046FBF73FFB11
:104B60000BE053E03F20000602903846FBF7E6FAE0
:104B7000074657493046FBF7E1FA064628460299B0
:104B8000FBF735FB2146FBF7D9FA00902146029846
:104B9000FBF72DFB2946FBF726FB0099FBF764FB8F
:104BA000044604E021462846FBF75EFB0446014626
:104BB000FBF71DFB47490090FBF719FB4649FBF744
:104BC000BDFA0099FBF713FB4449FBF7B7FA0099CC
:104BD000FBF70DFB4249FBF7B1FA0099FBF707FB26
:104BE0004049FBF7ABFA054620460099FBF7FFFA70
:104BF0002946FBF7FCFA3146FBF7A0FA2146FBF702
:104C00009DFA3946FBF79AFA07B0F0BDFF26360643
:104C1000B34201D8B24205D901462846FFF7F3F95D
:104C200007B0F0BD2F4607437F000AD0B3420CD136
:104C3000B2420AD101229207904391430D460446A5
:104C400018E7FF22D2051043F9E7B3420CD0470022
:104C50000AD0B2420ED04E000CD05340F0D4002AFD
:104C60000EDB9F26F6050DE0FF22D2051143E00F73
:104C7000C007FFE6C90FC907FF22D2051043F9E6B6
:104C80005F26F60531462846FBF7B1FA0546314660
:104C90002046FBF7ACFA04462946EBE6DB0FC9BF1A
:104CA000DB0FC93FDB0F49C0DB0F49400000C9BF24
:104CB00022AAFDB90000C93F22AAFD39000049C05F
:104CC00022AA7DBA0000494022AA7D3A0060ED3E4A
:104CD000C30ACE372DAD65BD8FB8D53D0FB511BE1A
:104CE00061C84C3EA8AAAABE30B583B00446FFF7FF
:104CF0009BF90546002000900246019001232146C1
:104D00006846FBF72BFC2846FFF7AAF901990098A3
:104D100003B030BD70B50546FBF7A7FC4100044663
:104D2000FF204908C005411AC90F07D0690049088A
:104D3000401AC00F02D10120FFF792F9204670BD42
:104D4000DDDDDDDDDCBBBBDDDDDDDDDDDDDDDDDDD8
:104D50009888888888888888777777777788888818
:104D600085555556666666666666666666688888B0
:104D70008333333222222222222222222228888DA9
:104D80000000000000000000002F000000000700ED
:104D9000070000147F147F1400242A7F2A120023A6
:104DA00013086462003649552250000000070000D5
:104DB00000001C224100000041221C000014083E9B
:104DC00008140008083E0808000000A06000000861
:104DD00008080808000060600000002010080402B5
:104DE000003E5149453E0000427F40000042615173
:104DF0004946002141454B31001814127F1000270D
:104E000045454539003C4A494930000171090503CF
:104E100000364949493600064949291E0000363600
:104E20000000000056360000000814224100001463
:104E30001414141400004122140800020151090640
:104E4000003E4955592E007C1211127C007F4949C1
:104E50004936003E41414122007F4141221C007FF2
:104E600049494941007F09090901003E4149497A00
:104E7000007F0808087F0000417F4100002040417A
:104E80003F01007F08142241007F40404040007FE6
:104E9000020C027F007F0408107F003E4141413E2A
:104EA000007F09090906003E4151215E007F091972
:104EB00029460046494949310001017F0101003F6F
:104EC0004040403F001F2040201F003F4038403FEF
:104ED0000063140814630007087008070061514953
:104EE000454300007F4141000002040810200000FB
:104EF00041417F0000040201020400404040404064
:104F0000000001020400002054545478007F4844FB
:104F1000443800384444442000384444487F003832
:104F20005454541800087E0901020018A4A4A47C5B
:104F3000007F080404780000447D40000040808425
:104F40007D00007F102844000000417F4000007C6D
:104F500004180478007C0804047800384444443879
:104F600000FC242424180018242418FC007C0804C5
:104F7000040800485454542000043F444020003C9E
:104F80004040207C001C2040201C003C4030403C25
:104F9000004428102844001CA0A0A07C00446454B5
:104FA0004C440000087F41000000007F000000002A
:104FB000417F0800000804081008FFFFFFFFFFFF03
:104FC000FFFFB3BFFFFFFFFDFDFDFFFFDF83D7D76F
:104FD000C1DFFF93B58BDBFFF3ADC383AD8FCFB3E1
:104FE0008593AFBFFFFDFFFFFFFFFFFFFF837DFF47
:104FF000FFBDC3FFFFFFFFE7C7EFE7FFFFFFEFE7DF
:10500000EFFFFF3FFFFFFFFFF7F7F7F7F7F7FFBFF0
:10501000FFFFFFFFFFBFCFF7F9FFFF83BDBD83FF9A
:10502000FFFFBB83FFFFFF9B9DADB3FFFF9BBDB5A4
:1050300083FFFFEFD783DFFFFF93B3B38FFFFF83C0
:10504000B5B58BFFFFFB9BE3FBFFFF83B5AD83FF94
:10505000FFA3ADADC3FFFFFFB7B7FFFFFFFF37FFF4
:10506000FFFFFFE7D7DBBDFFFFE7E7E7E7FFFFBD98
:10507000DBD7E7FFFFFB9DADF3FFE79B85A993E738
:10508000BFCFE3E38FFFFF83ABABA3DFE79BBDBDE8
:10509000BDDBFF83BBBBDBE7FF83ABABBBFFFF83AA
:1050A000EBEBE3FBC7BBBDBD9BFFFF83EFEF83FFD4
:1050B000FFFF83BBFFFF7F7F7F03FBFFFF83F7CBF8
:1050C000BFFFFF83BFBFBFFF8FB38FEF83FFFF83A0
:1050D000F7EFC3FFE79BBDBDBBC7FF83EBEBF3FB64
:1050E000C7BB9DBD3BC7FF83EBEB93FFFFB3B5ADE4
:1050F0008BFFFBFB83FBFBFBFF83BFBF83FFFFF348
:10510000CFCFF3FFFFC3EBC3E3FBFFBBD7C7BBFFAF
:10511000FFFB87F7FBFFFF9BABB3BBFFFFFF017DEF
:105120007FFFFFF9F7CFBFFFFF7F7D01FFFFFFFE8E
:10513000FEFEFEFF7F7F7F7F7F7FFFFEFEFFFFFF84
:10514000FF9FA7A78FBFFF81B7B78FFFFF8FB7B7AD
:10515000BFFFFF8FB7B781BFFF8F9797AFFFFFF7F5
:1051600083F3F3FFFF0F171727F7FF81F7F78FFF81
:10517000FFF787BFFFFFFF7F7F7785FFFF81EFC7C7
:10518000B7FFFFFF81BFFFFF87B7B78FB78FF787E5
:10519000F7F78FFFFF8FB7B78FFFF707B7B78FFF0F
:1051A000FF8FB7B70FFFF7B78FF7F7FFFFAFA797DF
:1051B00097FFFFF783B7B7FFF787BFBF87BFF7E753
:1051C000DFDFE7FFF7C7D7C7C7F7FFB7C7C7B7FF27
:1051D000FF675F9FE7F7FFB797A7B7FFFFFFFF8165
:1051E0007FFFFFFFFF00FFFFFF7F81FFFFFFFFFE4D
:1051F000FEFDFDFF000000000000000000000000B8
:1052000000000000000000F8000000000000003373
:105210003000000000160E00160E00000000000016
:105220000000000040C07840C0784000043F040403
:105230003F040400007088FC08300000001820FFC4
:10524000211E0000F008F000E018000000211C03FF
:105250001E211E0000F00888700000001E2123247B
:1052600019272110000000160E00000000000000A9
:1052700000000000000000E0180402000000000729
:105280001820400000020418E00000000040201830
:1052900007000000404080F0804040000202010F03
:1052A00001020200000000F0000000000101011FE7
:1052B00001010100000000000000000000B07000CB
:1052C00000000000000000000000000000010101DB
:1052D000010101010000000000000000003030006A
:1052E0000000000000000000806018040060180644
:1052F0000100000000E010080810E000000F10207E
:1053000020100F00001010F8000000000020203FC7
:105310002020000000700808088870000030282451
:1053200022213000003008888848300000182020F2
:1053300020110E000000C02010F800000007042417
:10534000243F240000F8088888080800001921205C
:1053500020110E0000E0108888180000000F1120B6
:1053600020110E0000380808C83808000000003F6F
:10537000000000000070880808887000001C2221CE
:1053800021221C0000E010080810E000000031227B
:1053900022110F00000000C0C0000000000000301B
:1053A00030000000000000C0C0000000000080B01D
:1053B000700000000000804020100800000102047E
:1053C00008102000404040404040400004040404D5
:1053D0000404040000081020408000000020100891
:1053E00004020100007048080808F00000000030C6
:1053F00036010000C030C828E810E0000718272454
:1054000023140B000000C038E0000000203C230201
:105410000227382008F8888888700000203F202064
:1054200020110E00C0300808080838000718202096
:105430002010080008F808080810E000203F20208D
:1054400020100F0008F88888E8081000203F20206E
:105450002320180008F88888E8081000203F200062
:1054600003000000C030080808380000071820209A
:10547000221E020008F808000008F808203F210159
:1054800001213F20000808F8080800000020203F04
:105490002020000000000808F8080800C080808074
:1054A0007F00000008F888C028180800203F20016D
:1054B0002638200008F8080000000000203F2020C7
:1054C0002020300008F8F800F8F80800203F003FDE
:1054D000003F200008F830C00008F808203F2000F6
:1054E00007183F00E01008080810E0000F10202007
:1054F00020100F0008F808080808F000203F2101DC
:1055000001010000E01008080810E0000F18242432
:1055100038504F0008F8888888887000203F2000A5
:10552000030C30200070880808083800003820215B
:1055300021221C00180808F8080818000000203F65
:105540002000000008F808000008F808001F2020CC
:1055500020201F000878880000C83808000007389D
:105560000E010000F80800F80008F800033C0700EE
:10557000073C0300081868808068180820302C0356
:10558000032C30200838C800C83808000000203F2D
:105590002000000010080808C8380800203826211C
:1055A00020201800000000FE020202000000007F20
:1055B00040404000000C30C000000000000000012E
:1055C0000638C00000020202FE0000000040404019
:1055D0007F000000002010080408102000000000D8
:1055E00000000000000000000000000080808080BB
:1055F000808080800002040800000000000000009D
:10560000000000000000808080800000001924223B
:1056100022223F2008F8008080000000003F112077
:1056200020110E000000008080800000000E11207C
:1056300020201100000000808088F800000E11205A
:1056400020103F200000808080800000001F222268
:1056500022221300008080F0888888180020203FD4
:10566000202000000000808080808000006B9494E7
:105670009493600008F8008080800000203F2100A3
:1056800000203F2000809898000000000020203F6C
:1056900020200000000000809898000000C080805A
:1056A000807F000008F8000080808000203F2402F6
:1056B0002D302000000808F8000000000020203FE6
:1056C000202000008080808080808000203F20009B
:1056D0003F20003F008080008080000000203F21AC
:1056E00000203F200000808080800000001F2020DC
:1056F00020201F00808000808000000080FFA1200B
:1057000020110E000000008080808000000E11201B
:1057100020A0FF80808080008080800020203F21AA
:10572000200001000000808080808000003324245D
:1057300024241900008080E0808000000000001F09
:10574000202000008080000000808000001F2020BA
:1057500020103F20808080000080808000010E307B
:105760000806010080800080008080800F300C03DC
:105770000C300F0000808000808080000020312EDF
:105780000E312000808080000080808080818E70BB
:105790001806010000808080808080000021302C6D
:1057A0002221300000000000807C02020000000086
:1057B000003F404000000000FF000000000000002B
:1057C000FF0000000002027C800000000040403F1B
:1057D00000000000008040408000008000000000C9
:1057E00000010100FFFFFFFFFFFFFFFFFFFFFFFFC3
:1057F000FFFFFFFFFFFFFF07FFFFFFFFFFFFFFCCE4
:10580000FFFFFFFFFFEFF3FDEFF3FDFFFFFFFFFFE4
:10581000FFFFFFFFFFBF3F87BF3F87FFFFFBC0FBCF
:10582000FBC0FBFFFF8F777703F7CFFFFFE7DFDFDB
:1058300000DEE1FF0FF70F7F9FE7FFFFFFCEF3FCD6
:10584000E1DEE1FFFF0FF7778FFFFFFFE1DEDCD343
:10585000E6D8DEEFFFEDF1FFFFFFFFFFFFFFFFFFE9
:10586000FFFFFFFFFFFFFF1FE7FBFDFFFFFFFFF84D
:10587000E7DFBFFFFFFDFBE71FFFFFFFFFBFDFE726
:10588000F8FFFFFFBFBF7F0F7FBFBFFFFDFDFEF033
:10589000FEFDFDFFFFFFFFFF1FFFFFFFFFFEFEFE00
:1058A000F0FEFEFEFFFFFFFFFFFFFFFFFF6F8FFF1A
:1058B000FFFFFFFFFFFFFFFFFFFFFFFFFFFEFEFEFB
:1058C000FEFEFEFFFFFFFFFFFFFFFFFFFFCFCFFF4B
:1058D000FFFFFFFFFFFFFFFF3FC7FBFFFF9FE7F853
:1058E000FFFFFFFFFF1FEFF7F7EF1FFFFFF0EFDFF7
:1058F000DFEFF0FFFFFFEFEF07FFFFFFFFFFDFDF4F
:10590000C0DFDFFFFF8FF7F7F7F70FFFFFCFD7DB22
:10591000DDDECFFFFFCFF7F7F7778FFFFFE7DFDEA3
:10592000DEDDE3FFFFFF7FBFCF07FFFFFFF9FADBFD
:10593000DBC0DBDBFF07777777F7F7FFFFE6DFDF1B
:10594000DFEEF1FFFF1FEF77776FFFFFFFF0EEDF76
:10595000DFDFE0FFFFE7F7F77797E7FFFFFFFFC124
:10596000FEFFFFFFFF8F77F7F7778FFFFFE3DDDEA7
:10597000DEDDE3FFFF0FF7F7F7EF1FFFFFFEEDDDC3
:10598000DDEEF0FFFFFFFF3F3FFFFFFFFFFFFFCF19
:10599000CFFFFFFFFFFFFF7FFFFFFFFFFFFFFF1FA7
:1059A000FFFFFFFFFFFF7FBFDFEFF7FFFFFEFDFB06
:1059B000F7EFDFFFFFBFBFBFBFBFBFFFFFFDFDFDB5
:1059C000FDFDFDFFFFF7EFDFBF7FFFFFFFDFEFF71D
:1059D000FBFDFEFFFF8FB7F7F7778FFFFFFFFFCFCE
:1059E000C8FFFFFF3FCF37D717EF1FFFF8E7D8D724
:1059F000D0D7E8FFFFFF3FC71FFFFFFFDFC3DCFD7E
:105A0000FDD8C7DFF7077777778FFFFFDFC0DFDFCE
:105A1000DFEEF1FF3FCFF7F7F7F7C7FFF8E7DFDF7C
:105A2000DFEFF7FFF707F7F7F7EF1FFFDFC0DFDF65
:105A3000DFEFF0FFF707777717F7EFFFDFC0DFDF64
:105A4000DCDFE7FFF707777717F7EFFFDFC0DFFF50
:105A5000FCFFFFFF3FCFF7F7F7C7FFFFF8E7DFDFF8
:105A6000DDE1FDFFF707F7FFFFF707F7DFC0DEFE19
:105A7000FEDEC0DFFFF7F707F7F7FFFFFFDFDFC04E
:105A8000DFDFFFFFFFFFF7F707F7F7FF3F7F7F7FBE
:105A900080FFFFFFF707773FD7E7F7FFDFC0DFFEA5
:105AA000D9C7DFFFF707F7FFFFFFFFFFDFC0DFDF2B
:105AB000DFDFCFFFF70707FF0707F7FFDFC0FEC1F4
:105AC000FEC0DFFFF707CF3FFFF707F7DFC0DFFFBD
:105AD000F8E7C0FF1FEFF7F7F7EF1FFFF0EFDFDF8B
