:020000040000FA
:1000000020462020D5000000D9000000DB000000C1
:1000100000000000000000000000000000000000E0
:10002000000000000000000000000000DD000000F3
:100030000000000000000000DF0000005940000048
:10004000E3000000E3000000E3000000E300000024
:10005000E3000000E3000000E3000000E300000014
:1000600000000000E3000000E300000000000000CA
:1000700000000000E3000000E300000091420000E7
:1000800081400000A140000061400000E30000004A
:10009000E3000000E300000000000000000000009A
:1000A000E3000000E300000000000000000000008A
:1000B000E300000000000000E3000000E300000097
:1000C0000348854600F0E4FC00480047E949000089
:1000D0002046202003480047FEE7FEE7FEE7FEE754
:1000E000FEE7FEE7C1000000D2B201E00270401C52
:1000F000491EFBD270470022F6E710B513460A46A8
:1001000004461946FFF7F0FF204610BDCAB2401E54
:100110004178401C8A4202D00029F9D10020704762
:1001200010B5002200E0521C835C8C5CA34201D11C
:10013000002BF8D1D8B2E1B2401A10BDF8B5024692
:100140004A40D40F42004B0052085B089A4202D248
:100150000246084611464A0023D0C30D4A00DDB2CC
:10016000120EAD1A202D35DA49020126490AF6058C
:100170008A19002C00D0524220214F1B1146B94051
:100180002A411018C20D9A4221D0002C17D0012DFF
:1001900008DCDA05801AD20F8019D207DBB200F032
:1001A00047FAF8BDDA05801A012340001B06C01883
:1001B00080185A428018CA0F1043490007E04908C6
:1001C000C2071143DA05801A80194008801800F030
:1001D00027FAF8BD61000122511A001BF7E701223E
:1001E000D2075140AAE70122D2075040A6E70246B3
:1001F00070B54A40D30FDB0740002DD04A002AD00B
:10020000010E140E000212020919400A520A841843
:10021000E50104465443000A120A2E045043A4196F
:100220004219200CC543AA18120C0125AD03521C1B
:10023000521912047F39240400D0521C104301D4F7
:100240004000491EC2B20C06C0092018401C4008DC
:10025000802A02D003E0002070BD40084000002941
:1002600000DA0020184370BD70B502464A40D50F31
:1002700040004A00ED0740085208002814D0002A28
:1002800012D0C40DD30D41020120C0055202490A0B
:10029000520AE41A091812187D34914201D3641CE1
:1002A00000E04900002C01DA002070BD00239142DB
:1002B00001D3891A0343400849000028F7D10029D7
:1002C0000AD0914202D10121C90705E0914201D231
:1002D000012101E00121C943E005C018401900F0E7
:1002E0009FF970BDF0B51FB488B00B990998002430
:1002F00048400999C00F490049080991C0070B9966
:100300000090490049080B9109990898A6460843AE
:100310001CD00B990A98084318D009980124400072
:10032000420D4800410D099824050003000B2043AD
:1003300009900B980003000B20430B9050181C49A8
:100340004018002201901446104605E000200146A6
:100350000DB0F0BD032801DA034600E003239C46FC
:10036000C11A0AAE0AE05F0008ADED5B4F00F75B13
:100370007D430027AA187C41491C5B1E6145F2DDC4
:10038000410004AB5A522104120C0A43240C401CB5
:100390000828DFDB019802900099704601910090D7
:1003A000059B049A0799069800F0C0F9D0E7000071
:1003B0000DFCFFFF0122D207002800DB101A0029E4
:1003C00000DB511A814201D801207047002070479C
:1003D0000122D207002800DB101A002900DB511A85
:1003E000814201D301207047002070470122D207CB
:1003F000002800DB101A002900DB511A814201D9C4
:1004000001207047002070470122D207002800DB3E
:10041000101A002900DB511A814201D101207047D6
:1004200000207047C217C10F504010B54018CA07CE
:100430009623002100F0FCF810BDC20F41004002DD
:100440000123400ADB05D207090EC0187F2901DA13
:1004500000207047962903DC9623591AC84001E012
:1004600096398840002AF4D040427047C20FD20724
:10047000400040080BD0C10D0723DB01C918400222
:100480000905400A1143C208400711437047002084
:1004900001467047CB0FDB07490010B549080246FB
:1004A0000A4307D00A0D07240903E401090B121BB4
:1004B000002A01DC002010BDC900440F0C43C1001C
:1004C000E018D205801800F0ABF810BD70B50446F6
:1004D000002903D000202022012310E0002801D0B1
:1004E0000020C043C046C0460DE02546D5408D42A1
:1004F00005D30D469540641B1D4695404019154691
:10050000521E002DF1DC214670BDF0B51FB4064629
:10051000002082B005464024019100901BE0019923
:1005200022460F46304600F0DBFA049A059B801AFB
:10053000994110D310461946224600F0C1FA361AE6
:100540008F410197224601200021009F00F0B8FA58
:1005500038184D4100902046641E0028DFDC019BC6
:1005600000982946324607B0F0BD00000FB400B530
:1005700089B00A460DA9009100230C99002ACB608E
:10058000234B0693234B079301D0042300E0002361
:10059000214A0292214A0892019302466B460020AA
:1005A00000F059FB09B008BC04B01847F0B585B09D
:1005B00007460020C04301901E46002015460C4609
:1005C0000091029104903B466A46314604A8FFF729
:1005D000CDFF049902466018002D05D0002901D0F6
:1005E000034600E023462B6000290ED0002A02DDDE
:1005F0000099814209D0001B019000943B466A4655
:100600003146029404A8FFF7B1FF05B0F0BD000029
:10061000AD0E0000CD0E0000FFFFFF7F290B000094
:10062000002904DA401C490001D14008400070470D
:1006300070B40024050C05D11024000402D1002957
:1006400021D01124050E01D100020834050F01D17B
:100650000001241D850F01D18000A41C002801DBAE
:100660004000641C002908D020252E1B0D46F540B3
:10067000A14000D001212943084301061B1B000AA9
:10068000DB1D02D5002070BC7047DB0518188018F0
:100690000029F8DA401C4900F5D170BC4008400040
:1006A0007047420005D04200120E52428A4201DBDE
:1006B00000207047C9050818704770B5002801DC94
:1006C000002070BD410040020126400AF605090ED7
:1006D0008019CA0701D14000491E4D100022114661
:1006E0003F353346CB409B18D418844201D8001BB9
:1006F0001A464000491C1729F3DD5100814202D2FD
:100700000021C94300E00021E8058018FFF788FFB9
:1007100070BD10B5002B08DA0024401C614192180E
:100720005B411A4301D14008400010BDF0B51FB431
:1007300082B005460C0003D0084604F01FFA02E020
:1007400004F01CFA2030024600902146284600F0B2
:10075000B7F9049B059A04460F4618431143084312
:1007600014D0184610431BD0009840210A1A18468E
:10077000059900F0B5F905460E46009A05990498CA
:1007800000F09EF9084305D0012004E020463946D8
:1007900007B0F0BD0020C11705430E432C4337437B
:1007A00000990E986305401A7905E40A00220C436B
:1007B000FD0A0A3002D500200146E9E701051019BB
:1007C00069410C9C0D9D00196941FFF7A2FFDFE70D
:1007D000F0B507460846584087B0C00F049048005F
:1007E0000E46590040084908BC1A884105D23846CF
:1007F00031461E4617460B46024658004008104335
:100800004CD0300D039040055900400D490D059026
:10081000401A0290402872DA18030121000B0905E2
:100820000843019004980092002805D00199524293
:100830000020884100920190029840210A1A0199F3
:10084000009800F03DF905460C466B4607CB00F0DA
:1008500058F9C0197141039A0E0D0023D71756405D
:100860001A467A40164344D0049A002A2DD0029AA0
:10087000012A039A15DC1205C01A9141012636059A
:10088000001C7141D20F059ED2070093019202967F
:100890002A462346FFF74AFF07B0F0BD38463146E7
:1008A000FAE71605224A0F46B218C01AB7410121CD
:1008B0000905001C4F4100187F4111461818794165
:1008C000E20F10436D19644113E0E2076D08154310
:1008D0006408C2071443039A01261205C01A914105
:1008E0003605001C7141CE07400830434908C01846
:1008F00051412A462346FFF70CFFCDE7FFE7049856
:1009000001224000C117121A00238B41049831467E
:10091000C417381AA141EEE730B40124E40763405C
:1009200030BC55E730B40124E407614030BC4FE7E8
:100930000000E0FFF0B50C465C4085B0E40FE40732
:1009400003944C0000266408590094464908024666
:100950000296224321D062460A431ED06200570D00
:100960004A000E032303550D012402462C49240599
:10097000781B1B0B360B401823432643614600901F
:100980001C46501AB44103D30098401C009002E06A
:10099000921800985B41002803DA0020014605B058
:1009A000F0BD0020012109050746864611E0644696
:1009B0001D46141BB54106D36546521BB341744610
:1009C00007430C43A646CD07400849082843921820
:1009D0005B4105460D43EAD11046184313D06046EB
:1009E000194650407140084306D06046101AB34182
:1009F00006D20122002306E000220123DB0702E0E9
:100A00000122D2435310009874460105381C6141FD
:100A1000029C039D00196941FFF77BFEBFE70000C0
:100A2000FD0300004A0009030123090B1B051943BC
:100A30000A4B10B5520D9A4202DA0020014610BD51
:100A4000064B34339A4203DC9A1A00F049F810BD81
:100A5000034BD21800F034F810BD0000FF03000073
:100A6000CDFBFFFF10B5002904DB0124E407404261
:100A70008C412146002B04DB1C460123DB0752423C
:100A8000A341994200D1904210BD00000000000037
:100A90001CB5094800900948019005460126009CB4
:100AA00005E0E36807CC33430C3C98471034AC4274
:100AB000F7D3FFF709FB0000B86D0000D86D000008
:100AC00010B5202A04DB0146203A9140002010BDD9
:100AD000914020239C1A0346E3401943904010BDE7
:100AE00010B5202A04DB0846203AD040002110BD72
:100AF0000B46D340D0402024A21A91400843194607
:100B000010BD10B5202A06DBCB170846203A10414D
:100B1000C1170B4306E00B461341D0402024A21A14
:100B200091400843194610BD10B50F21C0B24902CB
:100B300000F0F6F910BD0000FFB5087889B0154641
:100B4000FF2805D0491C2D2804D00022002407E0EE
:100B500000240BE00122F9E70A235C430419491C35
:100B60000878FF28F8D1002A00D0644200200490C1
:100B70002A7801462D2A01D02B2A0FD16D1C2D2A4F
:100B800002D00022049209E00122FBE700260A229B
:100B900033466D1C00F0ACF9381871412F78FF2FE7
:100BA000F4D10C9AA218069202460A4304D0FF23FD
:100BB000069A9133DA4205DA002109980A4606C0FE
:100BC0000DB0F0BD0024B74AB54D2646079200F09F
:100BD000B9F9029006980391002801DA474200E033
:100BE000074639050020AF4A001C51410191009091
:100BF00012E0F80707D022462B4630460799FFF748
:100C000071FB0646079122462B4610461946FFF710
:100C100069FB04460D467F10002FEAD10698019B20
:100C20000028009A0399029806DAFFF783FE3246FD
:100C3000079BFFF77FFE05E0FFF754FB3246079B5B
:100C4000FFF750FB049A002A02D00122D20751403C
:100C5000099A03C2B4E7FFB591B0002009900025BE
:100C6000ED432E209E685C681F460190B9696D1C9B
:100C7000129888470090396A88470028F6D1009872
:100C8000401C0AD00D20C0018443002E12DD0098C4
:100C90002B2809D02D280DD103E00020C04315B02A
:100CA000F0BD012080020443B9696D1C1298884789
:100CB000761E009003A9600501D52D2000E02B20B1
:100CC0006A461073491C0CA80F9102900AE0B9699A
:100CD0006D1C12988847009001204002044313982D
:100CE000761E0560002E02DD00983028EFD00199B5
:100CF0000098884245D18020044308E00998401EAE
:100D000009900120400204431399681C0860B969E6
:100D10006D1C761E1298884700903028EED030E087
:100D20000199884205D1200603D480200443761E11
:100D30001DE0009804F03CF8002825D0012149026C
:100D40000C43009807AA0F9903323038761E91425F
:100D500008D208700F98401C0F90200607D50998FC
:100D6000401E03E0200602D40998401C0990A0050B
:100D700002D51399681C0860B9696D1C12988847E0
:100D80000090002ECCDC59E0002E57DD009865283D
:100D900001D0452852D1A00550D50320000284433C
:100DA000B9696D1C761E129888470090002E0CDDE4
:100DB0002B2804D02D2808D1FF2001300443B96925
:100DC0006D1C12988847761E0090E00501D52D21F4
:100DD00000E02B21029801700298401C02900190C3
:100DE00025E00120400204430EA902980131761E3D
:100DF00088420ED20098029930380006000E087022
:100E000003D10299019881420AD90298401C0290AC
:100E100006E0E00501D5244801E02348404209905E
:100E2000B9696D1C12988847009013980560002ED0
:100E300004DD009803F0BCFF0028D2D1F9691298B4
:100E400088470F99FF200870029903AA08700020B4
:100E50000A900B900CA90AA8099BFFF76DFEA0054C
:100E600002D40120C0431AE72420044209D0E0073D
:100E700013D138680B9A0A99031D3B60006806C0BD
:100E80000BE00B990A98FFF705FB0146E00704D138
:100E90003868021D3A60006801602846FFE60000DD
:100EA000000014400000F03FF1D8FFFF4268002A24
:100EB00008D001680B78491C002B03D0521E06C0D5
:100EC000184670470121C160881E70474268002A99
:100ED0000BD0C3680168002B07D183688B4204D014
:100EE000491E521C06C0002070470020C0437047B6
:100EF00030B5434351435C18010C130C0D465D4360
:100F00002C1980B292B20546554351430A0C09048C
:100F10004D1962415843010C00044019514130BD44
:100F20007F2801D9002207E0054B42089A5CC007E0
:100F300000D112091207120F01209040084070479B
:100F4000105900000EB5054A029200220092134685
:100F50000192FFF7EBFB03B000BD0000330400007B
:100F600030B58C180278401C13071B0F01D1037891
:100F7000401C120906D10278401C03E005780D7070
:100F8000401C491C5B1EF9D101E00B70491C521E2C
:100F9000FBD1A142E6D3002030BD811E091F00BF56
:100FA000FCD2704784B003900291019203980068CC
:100FB0000090009801998843009000980299019A46
:100FC000114008430399086004B0704784B003904F
:100FD000029101920398006800900098019988435B
:100FE000009000980299019A114008430399086003
:100FF00004B0704782B00190009100980199952249
:101000005201885002B0704782B001900091009860
:10101000019995225201885002B0704782B0019028
:1010200000910098019995225201885002B07047B2
:1010300081B0009000988100444A885801235B06E3
:101040001843885001B0704782B001900091009819
:101050000199024A885002B07047C046D012000081
:1010600081B0009000990120C2027448885001B0FC
:101070007047C04610B584B0069C0390029101925F
:101080000093029801990843009908430699084380
:1010900003490843039989002C4A885004B010BDC5
:1010A0008100040081B0009000988100274A8120CF
:1010B000885001B07047C04681B000900098810010
:1010C000224A0020885001B07047C04682B001908B
:1010D0000091009816490843019989001B4A8850DD
:1010E00002B0704782B00190009100981049084307
:1010F00001998900154A885002B0704710B584B034
:10110000079C069C0390029101920093029801991A
:10111000084300990843069908430799084304497E
:10112000084303998900094A885004B010BDC0469D
:101130008000040082B00190009100988021084353
:1011400001998900014A885002B0704704804240EA
:1011500082B00190009101982721C901405800995F
:10116000084002B0704782B0019000910198272199
:10117000C90140580099084002B0704781B0009002
:1011800000994C4A4C48885001B0704782B0019099
:101190000091009801990C4A885002B07047C046EF
:1011A00082B00190009100980199074A885002B0DE
:1011B0007047C04682B00190009100980199024AA0
:1011C000885002B07047C0469012000082B0019073
:1011D000009100980199024A885002B07047C046B9
:1011E000B012000081B00090009909204202885896
:1011F00001231B021843885001B0704781B0009052
:101200000099084A885801231843885001B0704754
:1012100081B000900099034A8858042318438850ED
:1012200001B070472812000081B0009000990120A1
:10123000C2020248885001B07047C0460100002633
:1012400010B5002A0FD091235B01C3180020DC6980
:101250002405240F05D00C5C1C60401C8242F6D192
:10126000104680B210BD002080B210BD3C4A8358A9
:1012700080210B43835080180F22120243681340D1
:101280000122D2029342F7D102688A43026070477A
:1012900081B00090009802494058C0B201B0704738
:1012A0001C12000081B000900099024A0248885048
:1012B00001B0704704080000030000B181B0009045
:1012C0000099404A0020885001B0704780B584B032
:1012D000019101460198039102A90880039809220F
:1012E00052028018098803225202FFF75BFE04B005
:1012F00080BD70B50A780C231A4001242403051917
:101300006E689E43B2186A604978072211400359FB
:1013100093435918015170BD80B584B001910146C5
:101320000198039102A9088003980D4A8018098842
:1013300007221202FFF736FE04B080BD80B584B0EC
:10134000019101460198039102A908700398044A8B
:10135000801809780722FFF725FE04B080BDC0463B
:101360003812000082B0019068460170007801993F
:10137000014A885002B070472412000010B586B0B0
:101380000192024601980592049103AA107002A8E6
:1013900003800598094940180499490012781143BF
:1013A000074AFFF713FE05980649401802990904F9
:1013B000C91D054AFFF70AFE06B010BD1012000055
:1013C000FF070000141200000700FF0FF0B584B003
:1013D00001242202344B19680392914319606E492B
:1013E0000D686D04FCD5457E25409E69A6437419A1
:1013F0009C612024045D03252C40DE69AE43341932
:10140000DC611F4C256805262660466A37681F6226
:1014100076685E6207262E402660C4697F252D020D
:10142000DE69AE436406640C3419DC610768456804
:1014300082680092C66802690192426902929A69C2
:10144000104C14403A07120B2D03ADB2AA183243C8
:10145000009D2D072D0D1543019A1543029A154342
:10146000007E2843084A0240101998611868039AC0
:101470001043186008688005FCD504B0F0BDC04674
:10148000001340408D00F0FF72FF0F00064908680E
:101490000122904308607047034908680122120244
:1014A000904308607047C04608010B4039490868FE
:1014B00001221203104308607047C04681B0014604
:1014C0006846017000780249086001B07047C04664
:1014D00008030B4080B582B0014601A80180018855
:1014E0000F2002022B48FFF75DFD02B080BDC04611
:1014F000F0B5124B1D46083D2E680124A6432E6010
:101500000326360330401F68B74338181860186840
:10151000FF26B043C9B240181860286820432860ED
:1015200018682107002A06D0084318601A48016885
:10153000C905FCD5F0BD88431860F0BD10010B4013
:1015400080B582B0014601A80170017802480322EB
:10155000FFF728FD02B080BD00010B4080B582B0CE
:10156000014601A8017001780A483022FFF71AFDF0
:1015700002B080BD07498860074802689202FCD526
:10158000012212040B6813430B600168C906FCD5E5
:101590007047C04604010B4004020B4010B585B0F3
:1015A00000930B460099049003A80380029201ABBC
:1015B000197004991A7892008A18AF4C0849115191
:1015C0000299049A1B789B00D2183123DB01D15079
:1015D0000088044908430499D74A885005B010BDD3
:1015E000010002001200001081B000900099024A30
:1015F0000120885001B070470811000082B00190AE
:101600000091009B0199D94A88581843885002B02C
:101610007047C04681B0009000990120C202D948AD
:10162000885001B07047C04681B000900098812179
:1016300049014058C0B201B0704781B00090009895
:101640000321C902405801B070470000F0B5BA4A02
:1016500082183B4BC31808794E793A4D764C002ED0
:1016600023D0202804D00526F601002803D003E06B
:10167000354E002800D18826576F2F4037435767D3
:10168000976F2F4037439767566B26405663966B8C
:10169000264096630026566596658F26F6435F685A
:1016A00037405F609F6837409F608E7909682028C7
:1016B0000BD0002819D1491E5160D76E2F408821C8
:1016C0000F43D7661746703719E0491E5160D16E37
:1016D00029401D4F3943D166116F294039431167A5
:1016E00001214907194D174609E049085160D76E95
:1016F0002F400521C9010F43D766174670373C6854
:101700002C400C433C60D16A4B4C2140D162116BA0
:10171000214011630021D16411658F21C943D46F29
:101720000C40D4671C680C401C600643BD20304050
:101730001168074B0B40C018801C1060F0BDC046FC
:101740008418000024493E0001040000FFFFFFCF81
:101750004000FFCFB0B54A686C4BC250764A801843
:101760000A78222A58D8930001A4E3589F46C0461D
:101770000F180000191800000F18000019180000B9
:101780001918000019180000191800001918000095
:101790001918000019180000191800001918000085
:1017A0001918000019180000191800001918000075
:1017B000FD17000019180000FD170000191800009F
:1017C0001918000019180000191800001918000055
:1017D0001918000019180000191800001918000045
:1017E0001918000019180000191800001918000035
:1017F000FD17000019180000FD17000003231B0748
:1018000004689C4301235B07E318036004E003239F
:101810001B0704689C4304600B69C360CB68054CDC
:101820001C40C36A044D1D402B19C362097A114341
:101830000160B0BD777702008888FDFF81B000901D
:101840000099714A7148885001B0704782B0019088
:1018500000910098019911221202885002B070473D
:1018600010B507239B04194092008018024A84583F
:101870009C436118815010BD3018000010B5029CC7
:10188000A400001911431943014A815010BDC046FC
:101890005018000092008018014A81507047C046DD
:1018A0001018000010B50122120383180C789C60F8
:1018B0004B7883508978014A815010BD0C1100008B
:1018C00010B586B001930B4601460198059104A915
:1018D0000B8003AB1A8002AA10800598164C0019E1
:1018E00009881B88194312881143024AFFF75AFBE3
:1018F00006B010BD80FF000082B0019000910098FA
:101900000199024A885002B07047C046081800008A
:1019100082B001900091009801990322D202885070
:1019200002B0704781B000900099034A88580123A3
:101930001843885001B070470418000081B000902F
:10194000009911200202885801231843885001B0E1
:101950007047000082B001900091009B0199034AFA
:1019600088581843885002B07047C04628100000BD
:1019700081B0009000990120C2020248885001B055
:101980007047C0460100002681B000900098812178
:1019900049014058C0B201B070470000B0B51122F3
:1019A000120283580124A34383500B888C781C4374
:1019B0008B882343094C1C408358094D1D406319F3
:1019C00083508B79CC791C43097A21437E231940BB
:1019D000801842689A4351184160B0BD18670000F2
:1019E000E798FDFF81B00090009802494058C0B2CE
:1019F00001B070472411000081B000900099024AA4
:101A00000248885001B0704704080000030000B18C
:101A100080B584B003900291019203980B4940185D
:101A200002990B4AFFF7BEFA03980A494018019938
:101A30003F22FFF7B7FA0399074A8818895801220D
:101A40001140FFF7AFFA04B080BDC046101100008E
:101A5000FFFF0000141100000411000010B5012266
:101A6000120383180C789C604978815010BD80B5B2
:101A700082B001900091019811210902401800994B
:101A80000322D203FFF78EFA02B080BD81B000902E
:101A900000990120C20213204006885001B070470F
:101AA00080B586B0034605A8037004AB0293197095
:101AB0000392007818214143184840181021405ED5
:101AC000FEF7B0FC019003981549FEF790FB014624
:101AD0000198FEF7C9FB02990978CA00114988509C
:101AE00006B080BD80B584B0024603A8027002AA89
:101AF000019211700078182141430848401840694C
:101B0000FEF790FC0649FEF7AFFB01990978CA0081
:101B100004498918486004B080BDC04604002020F4
:101B20000000B6444003202080B582B001900198A7
:101B300002F050FE02B080BD80B584B002900191E9
:101B400002F048FD0090FFE702980D4940588006DA
:101B500000280DD4FFE702F03DFD0099401A0199DD
:101B6000884204D3FFE703A90120087004E0EBE7F3
:101B700003A900200870FFE703A8007804B080BD27
:101B80001812000080B582B012200090012100F0F0
:101B9000D9F9322002F0EEFC0098442100F0D2F98D
:101BA00013200A2100F0CEF91520032100F0CAF914
:101BB000C3480190022101720D49896AC160002168
:101BC00001700C4989684160007A800060210843F7
:101BD000C1B2112000F0B6F90198007880006221AE
:101BE0000843C1B2102000F0ADF902B080BDC0467C
:101BF000046B0000A469000080B58AB000F062F9AF
:101C00000021CF480190405EFEF70CFC7B21C90506
:101C1000FEF7EDFA5149FEF791FA01460198504A54
:101C2000089211600221405EFEF7FCFBA44902917C
:101C30004968FEF719FB089A014601985160042192
:101C4000405EFEF7EFFB02994968FEF70DFB089A2C
:101C50000146019891600621405EFEF7E3FB029980
:101C60004968FEF701FB089A01460198D1600821F6
:101C7000405EFEF7D7FB0299C968FEF7F5FA8E4978
:101C800003910969FEF7ABFA089A014601981161C0
:101C90000A21405EFEF7C6FB0299C968FEF7E4FA26
:101CA00003994969FEF79BFA089A01460198516128
:101CB0000C21405EFEF7B6FB0299C968FEF7D4FA24
:101CC00003998969FEF78BFA0146089881610069DA
:101CD00001F0A0FE014608980161406901F09AFEFA
:101CE000014608984161806901F094FE0899886175
:101CF000486805904868049088688968FEF777FA14
:101D00000499024605980692FEF771FA0699FEF7C5
:101D100015FA08990790C868C968FEF768FA079924
:101D2000FEF70CFA03F0DEFD0146089809910999C7
:101D30004068FEF799FA0146089841600999806861
:101D4000FEF792FA0146089881600999C068FEF78B
:101D50008BFA0899C8600AB080BDC0460000C8412F
:101D60004401202080B584B003AB1870029101A813
:101D70000280694600200880FFE76846008801A9C4
:101D80000988884210DAFFE7039869460A888018B4
:101D900002998918C0B2012200F008F8FFE7009804
:101DA000401C69460880E8E704B080BD80B588B073
:101DB00001920346019807AA1370069105A90291A2
:101DC0000880694803906A210491012302F079FB9D
:101DD000029B03980499069A1B8802F03FFB08B007
:101DE00080BDC04680B586B0FFF7CCFE7D20800068
:101DF00002F0C0FB00200590FFE705982D498842BE
:101E00003FDCFFE700F05EF84D4802900821405E9D
:101E1000FEF708FB2A490391C968FEF725FA014637
:101E2000254804900069FEF789F9049A0146029852
:101E300011610A21405EFEF7F5FA0399C968FEF7C1
:101E400013FA014604984069FEF778F9049A0146AE
:101E5000029851610C21405EFEF7E4FA0399C968CB
:101E6000FEF702FA014604988069FEF767F90499C3
:101E70008861022002F07EFBFFE70598401C059078
:101E8000BBE70D48019000690C490091FEF7ECF9A1
:101E900000990246019802614069FEF7E5F9009950
:101EA0000246019842618069FEF7DEF90199886176
:101EB00006B080BDE70300008001202000007A44C6
:101EC0007001202080B586B0202002A900910E224A
:101ED000FFF748FF009A507800021178401818491F
:101EE0000880D07800029378C018088150790002E9
:101EF0001379C0184881D07900029379C01888817D
:101F0000507A0002137AC0184880D07A0002937A7F
:101F1000C0188880507B0002127B8018C880888897
:101F200001AA1080C888888001984042C8804889EA
:101F300010808889488101984042888106B080BD20
:101F40006001202080B584B003AA107002A801703F
:101F5000039801AA10700298507003486A21022366
:101F600002F0AFFA04B080BD00000F4010B58AB097
:101F7000FFE702F02FFB099009987D490968401A94
:101F8000002801D5FFE7F1E002F024FB1430784986
:101F90000860FFE700200890FFE70898042800D9B0
:101FA000E4E008981822059242437248069081188E
:101FB00080584968FFF7CCF8059902460698531EE9
:101FC0009A4107AB1A70089A51434018007CC00729
:101FD000002811D1FFE707A80078C00700280BD11F
:101FE000FFE708981821414362484018807D01218D
:101FF0000840012815D0FFE70898182141435D48A3
:102000004018407D0121084001280AD0FFE70898C8
:102010001821414357484018007DC007002809D0C7
:10202000FFE70898182141435248411800204861B1
:102030000861FFE70898182141434E484018007C8A
:10204000C007002822D1FFE707A80078C0070028B2
:102050001CD0FFE7089918220392104648434549CF
:1020600004910B1801209875089C13466343CB1804
:102070005874089B5A438918C87402F0ABFA039A43
:102080000499089B5A4389188860FFE7089818212B
:10209000414338484018007CC007002818D0FFE7AB
:1020A00007A80078C007002812D1FFE70898182178
:1020B000019141432F48029041180120887402F099
:1020C00089FA019A0299089B5A438918C860FFE768
:1020D00008981821414327484018807DC0070028F0
:1020E00035D1FFE708981821414322484118C868B4
:1020F0008968884201D1FFE728E008981821414308
:102100001C484118C8688968401A80084A280ED8B7
:10211000FFE7089818210A4642431648831801220F
:102120005A75089A514341188868C8600DE00898AC
:1021300018210A4642430F48831801221A75089A4B
:10214000514341188868C860FFE7FFE7FFE707A829
:102150000078089918224A4306498918012210403C
:102160000874FFE70898401C089016E70AB010BDF5
:102170009C0120203400202080B59CB01B901B982F
:10218000FEF750F96549FEF76FF81A901A9800F0BB
:10219000EBF86F49149108680E9048680D908868B4
:1021A000C968FEF724F80D9902460E980F92FEF7C3
:1021B0001EF80F99FDF7C2FF01460846FDF7BEFF66
:1021C000149913904868119048681090886889683D
:1021D000FEF70DF81099024611981292FEF707F8D3
:1021E0001299FDF7ABFF01460846FDF7A7FF014630
:1021F0007F20C0051890FDF7F2FF0146139803F009
:102200000DFA1499464A90600868169088681590EF
:10221000C8684968FDF7EBFF1599024616981792B2
:10222000FDF7E5FF1799FDF7DAFF01460846FDF7D0
:1022300085FF189919901998FEF7BCF8002804D169
:10224000FFE77F20C0050C900FE019983549FEF795
:10225000BFF8002803D1FFE732480B9002E019983D
:102260000B90FFE70B980C90FFE70C9819901998CA
:1022700003F048F92A490A914860354904910868F1
:102280000290C868019048688968FDF7B0FF01991D
:10229000024602980392FDF7AAFF0399FDF74EFF4D
:1022A00001460846FDF74AFF0499089088680690A1
:1022B00088680590C868C968FDF799FF05990246C6
:1022C00006980792FDF793FF0799FDF737FF014640
:1022D0000846FDF733FF01467F20C005FDF77FFF6D
:1022E0000146089803F09AF901460A9801600068CF
:1022F0000D490991FDF77BFF099902460A98026092
:102300004068FDF774FF099902460A9842608068A8
:10231000FDF76DFF0A9988601CB080BD00007A440B
:10232000A0012020000080BFE12E654280B5FFF7AC
:1023300059FD07497F20C2050A6000204860886077
:10234000C860CA61034A0A6208614861886180BD49
:10235000AC012020CDCC4C3D80B582B001900198DD
:10236000FFF70AFF02B080BD80B5C6B04590FFF709
:1023700043FC564840680021FEF746F8002811D07B
:10238000FFE7524880680021FEF73EF8002809D098
:10239000FFE74E48C0680021FEF736F8002801D05C
:1023A000FFE736E24A49359148682C90C8682B907F
:1023B00008688968FDF71BFF2B9902462C982D921F
:1023C000FDF715FF2D99FDF70AFF01460846FDF7B9
:1023D000B5FE3599449008682F9048682E9088681B
:1023E000C968FDF704FF2E9902462F983092FDF739
:1023F000FEFE3099FDF7A2FE01460846FDF79EFE5F
:102400003599439008683290086831904868496867
:10241000FDF7EDFE3199024632983392FDF7E7FE63
:102420003399FDF7DCFE3599349088688968FDF7AB
:10243000DEFE01463498FDF7D2FE35993690C86825
:10244000C968FDF7D4FE3699FDF778FE4290F24850
:1024500041683A9181683991C0683890002000281D
:1024600006D1FFE73A9802F021F9002808D12BE0C5
:102470003A98FDF7FBFF02F00BF9002824D0FFE7A4
:102480000020002806D1FFE7399802F00FF9002854
:1024900008D119E03998FDF7E9FF02F0F9F80028B2
:1024A00012D0FFE70020002806D1FFE7389802F09D
:1024B000FDF800280ED107E03898FDF7D7FF02F0AD
:1024C000E7F8002806D1FFE7A3E1C0464401202039
:1024D000AC01202039980190429800903898439997
:1024E000FDF785FE0099024601980292FDF77FFEF6
:1024F0000299FDF774FE4190389804904498039037
:102500003A984299FDF773FE0399024604980592A2
:10251000FDF76DFE0599FDF762FE40903A98079031
:102520004398069039984499FDF761FE0699024652
:1025300007980892FDF75BFE0899FDF750FE3F9063
:10254000B6482A90006A4199FDF751FE2A9A4599AA
:1025500012690992FDF74BFE0999FDF7EFFD01465F
:102560002A980161006A4099FDF741FE2A9A45992F
:1025700052690A92FDF73BFE0A99FDF7DFFD01461D
:102580002A984161006A3F99FDF731FE2A9A4599E0
:1025900092690B92FDF72BFE0B99FDF7CFFD2A9A5E
:1025A0009061D069419912690C92FDF720FE0C9957
:1025B000FDF7C4FD014698481E900069FDF7BEFD79
:1025C0001E992A9A0861D069409952690D92FDF7C7
:1025D0000EFE0D99FDF7B2FD01461E984069FDF70C
:1025E000ADFD1E992A9A4861D0693F9992690E9271
:1025F000FDF7FDFD0E99FDF7A1FD01461E988069CE
:10260000FDF79CFD1E9902462A988A614268109245
:102610000A690F9280684969FDF7E9FD0F99024642
:1026200010980123DB075A401192FDF7E0FD0146A7
:102630001198FDF7D4FD1E9902462A981292C0689F
:102640008969FDF7D4FD01461298FDF7C8FD3F21C9
:1026500009062091FDF7CBFD1E9902462A983E926D
:10266000026814920A69139280688969FDF7BFFDB8
:102670001399024614981592FDF7B9FD1599FDF7C7
:102680005DFD1E9902462A981692C0684969FDF7B9
:10269000AEFD01461698FDF7A2FD2099FDF7A7FDB6
:1026A0001E9902462A983D92026818924A6917922A
:1026B00040688969FDF79BFD1799024618981992A1
:1026C000FDF795FD1999FDF78AFD1E9902462A9896
:1026D0001A92C0680969FDF78AFD1A99FDF72EFD67
:1026E0002099FDF784FD1E9902462A983C920268C3
:1026F0001C928A691B9240684969FDF778FD1B9915
:1027000002461C981D92FDF772FD1D99FDF716FDFE
:102710001E9902462A981F9280680969FDF767FD95
:1027200001461F98FDF75BFD2099FDF760FD2A9A91
:102730003B903E98459912682192FDF758FD2199EA
:10274000FDF7FCFC2A9A10603D9845995268229248
:10275000FDF74DFD2299FDF7F1FC2A9A50603C9857
:10276000459992682392FDF742FD2399FDF7E6FC17
:102770002A9A90603B984599D2682492FDF737FDDC
:102780002499FDF7DBFC2A99C86008682690086840
:10279000259048684968FDF72AFD25990246269844
:1027A0002792FDF724FD2799FDF7C8FC2A99289068
:1027B00088688968FDF71BFD2899FDF7BFFC2A99F9
:1027C0002990C868C968FDF712FD2999FDF7B6FC84
:1027D00003F088F801462A98379137990068FDF789
:1027E00043FD01462A98016037994068FDF73CFD9A
:1027F00001462A98416037998068FDF735FD01460A
:102800002A9881603799C068FDF72EFD2A99C86023
:10281000FFE746B080BDC04644012020AC01202027
:10282000E5480068806800280BD0FFE7E2490868A7
:1028300080680860002008714871AD490120087067
:10284000FFE77047C849012008707047C649052056
:1028500008707047C449042008707047C2490320BB
:1028600008707047C04902200870704780B582B078
:102870000D49019171310D4801F0B8FE01995931AE
:102880000B4801F0B3FE019929310A4801F0AEFE70
:1028900001994131084801F0A9FE01991131074819
:1028A00001F0A4FE02B080BD3400202045280000C5
:1028B000652800005D280000552800004D28000014
:1028C00010B586B0BC480068007B0290002804D098
:1028D000FFE70298012863D090E085480078C007A0
:1028E00000285CD0FFE700F037FAB3480068406981
:1028F000002805D0FFE7B048006840698047FFE73F
:1029000005A900200870FFE705A80078032842DC2D
:10291000FFE7A9494879059A821804A8027000784F
:1029200009680979884201DBFFE734E004A80078F0
:10293000A1490979884214D1FFE705A80078410030
:1029400004A80478601C9C4A126812680C23634334
:10295000D258019200902C4B0020082200F0ABFAD4
:1029600013E005A80078410004A80478601C924A8E
:10297000126812680C236343D25801920090224BD4
:102980000020082200F078FAFFE7FFE70598401CD6
:1029900005A90870B8E7564900200870FFE72EE047
:1029A00053480078C00700280AD0FFE700F0D4F9A8
:1029B00081480068406980474D4900200870FFE762
:1029C0007D4800680069002817D0FFE7FFE701F0A5
:1029D00001FE039003980B490968401A002801D5AD
:1029E000FFE70CE001F0F6FD323006490860FFE732
:1029F0007148006800698047FFE700E0FFE706B024
:102A000010BDC046D0012020296D00006A48006832
:102A1000007B012801D1FFE71AE0674908680068D8
:102A20000A790C21514340188068002810D0FFE734
:102A30006149086800680B790C225A438018806845
:102A40000860002008714871294901200870FFE7DB
:102A50007047C04658490879401C087108790968D0
:102A60000979884205DBFFE7534900200871487166
:102A7000FFE7514908794979401A042805DBFFE747
:102A80004D494879401C4871FFE7194901200870F9
:102A90007047C0464848007900280FD0FFE74649F4
:102AA0000879401E087108794979884205DAFFE7FC
:102AB00041494879401E4871FFE714E03E480168EB
:102AC0000979491E017100680079052806DBFFE7D6
:102AD000394908680079001F487103E03649002031
:102AE0004871FFE7FFE70249012008707047C046C0
:102AF000E800202080B582B01B48007801900528AE
:102B00002FD80198810001A040588746252B00004E
:102B1000272B0000332B00003F2B00004B2B000025
:102B2000572B00001EE0FFF795FF0F4900200870AB
:102B300018E0FFF7AFFF0C490020087012E0FFF724
:102B400065FF0949002008700CE0FFF769FE06499F
:102B50000020087006E000F009F803490020087022
:102B600000E0FFE702B080BD1006202080B51248CB
:102B70000068007B012801D1FFE714E00E490868D6
:102B800000680A790C2151434018406800280AD097
:102B9000FFE70949086800680A790C215143401889
:102BA00040688047FFE780BD034904480860002073
:102BB000087148717047C04608062020BC6B0000B1
:102BC00081B000200090FFE70098012815D8FFE7AA
:102BD0000098182242435B4989180301084AD0181B
:102BE000D2588A60C2684A6182680A614068C860D7
:102BF000FFE70098401C0090E6E701B07047C04630
:102C0000EC00202080B58CB002460BA802700AAA06
:102C100011800078022801D3FFE790E000210AA884
:102C2000405E012830DBFFE700210AA8405E4849EA
:102C3000884204D3FFE70AA946480880FFE70BA8AB
:102C4000079000781821089141433E4809904118A7
:102C50008868C968FEF7A4FA079A08990998127853
:102C60005143411808694969FEF7CEF9079A089956
:102C70000998127851434218405800230AA9C95EA6
:102C80001279FEF707FE5AE000210AA8405E0028EC
:102C900031D5FFE700210AA8405E2B49884204DCB9
:102CA000FFE70AA929480880FFE70BA804900078ED
:102CB0001821059141432348069041180869496944
:102CC000FEF76EFA049A0599069812785143411856
:102CD0008868C968FEF798F9049A059906981278E9
:102CE00051434218405800230AA9C95E494212794B
:102CF000FEF7D0FD22E00BA8019000781821029188
:102D000041431048039041188868C968FEF748FAA3
:102D1000019A029903981278514341180869496948
:102D2000FEF73EFA0199029A039809784A438118FE
:102D300080580A790021FEF7ADFDFFE7FFE70CB0F0
:102D400080BDC0460C012020EFD8FFFFF0D8000066
:102D5000112700001027000080B584B000200390E8
:102D6000FFE7039807281BDCFFE703A80178002092
:102D7000019000F0BFF801980290FFE702987F28C9
:102D800009DCFFE70120002101F068FCFFE7029861
:102D9000401C0290F2E7FFE70398401C0390E0E735
:102DA00004B080BD80B582B06420019001F0E2FBE8
:102DB00000200090AE2101F051FC0098D52101F0D7
:102DC0004DFC0098802101F049FC0098A82101F0F9
:102DD00045FC00983F2101F041FC0098D32101F00F
:102DE0003DFC0099084601F039FC0098402101F0B3
:102DF00035FC0098A12101F031FC0098C82101F0B8
:102E00002DFC0098DA2101F029FC0098122101F034
:102E100025FC0098812101F021FC0098CF2101F0D0
:102E20001DFC0098D92101F019FC0098F12101F056
:102E300015FC0098D82101F011FC0098302101F018
:102E40000DFC0098A42101F009FC0098A62101F0D6
:102E500005FC00988D2101F001FC0098142101F07F
:102E6000FDFB0098AF2101F0F9FB019801F082FB16
:102E7000FFF772FF02B080BD10B5CAB049AC049430
:102E8000208048A80190018047A8029002704693D4
:102E90004CA805904699059A06A8039001F05CFE9F
:102EA0000199029B039A0498007809781B7800F036
:102EB00035F94AB010BD10B5CAB049AC04942080B1
:102EC00048A80190018047A80290027046934CA840
:102ED00005904699059A06A8039001F03DFE0199D8
:102EE000029B039A0498007809781B7800F041F956
:102EF0004AB010BD80B586B0024605A801900270A8
:102F000004AA0292117001780F2001400020039062
:102F100001F0A4FB0199039809780909103101F027
:102F20009DFB029903980978B022114301F096FBAA
:102F300006B080BD10B588B007AC207006A801703F
:102F400005A8027004A803700078062820D1FFE7C6
:102F500007A8007806A90978FFF7CCFF00200390A6
:102F6000FFE70398052812DCFFE705A80178062093
:102F700048432B49401803994018C0380178012074
:102F800001F06CFBFFE70398401C0390E9E743E086
:102F900004A8007808283ED1FFE707A8007806A912
:102FA0000978FFF7A7FF00200290FFE702980728A3
:102FB00011DCFFE705A800780001184940180299C4
:102FC00040185449415C012001F048FBFFE702989A
:102FD000401C0290EAE707A800780699491CC9B28C
:102FE000FFF788FF00200190FFE70198072811DC18
:102FF000FFE705A80078000108494018019940182A
:103000004349415C012001F029FBFFE70198401C86
:103010000190EAE7FFE7FFE708B010BDC45D0000DC
:103020005059000010B588B007AC207006A8017098
:1030300005A8027004A803700078062820D1FFE7D5
:1030400007A8007806A90978FFF754FF002003902D
:10305000FFE70398052812DCFFE705A801780620A2
:1030600048432D49401803994018C0380178012081
:1030700001F0F4FAFFE70398401C0390E9E743E00E
:1030800004A8007808283ED1FFE707A8007806A921
:103090000978FFF72FFF00200290FFE7029807282A
:1030A00011DCFFE705A800780001184940180299D3
:1030B00040181849415C012001F0D0FAFFE702985E
:1030C000401C0290EAE707A800780699491CC9B29B
:1030D000FFF710FF00200190FFE70198072811DC9F
:1030E000FFE705A800780001084940180199401839
:1030F0000749415C012001F0B1FAFFE70198401C4B
:103100000190EAE7FFE7FFE708B010BDB4630000F5
:1031100008FEFFFF00FEFFFF8A5B000010B586B0CF
:1031200005AC207004A80170039202A8037001A9E5
:1031300000200870FFE7039801A90978405C002887
:1031400015D0FFE7059801A900910C7802A90B782A
:1031500019466143401804A90978039A125DC0B268
:10316000FFF7E8FE00990198401C0870E3E706B0FD
:1031700010BD10B586B005AC207004A80170039294
:1031800002A8037001A900200870FFE7039801A9B5
:103190000978405C002815D0FFE7059801A9009147
:1031A0000C7802A90B7819466143401804A90978E4
:1031B000039A125DC0B2FFF735FF00990198401CD9
:1031C0000870E3E706B010BD80B586B005900491A5
:1031D000059800680499FDF702F80390FFE703984B
:1031E0001649FDF7E7F8002806D1FFE703981649CE
:1031F000FCF7A4FF0390F2E7FFE703981049FDF7FF
:10320000E7F8002806D1FFE703980E49FCF796FF80
:103210000390F2E705980068029005990020086085
:10322000059803990122D207514000F00FF8019050
:10323000029805990860019806B080BD00003443EB
:10324000000034C30000B4430000B4C380B5B0B084
:103250002E902D912E983D21405C002803D1FFE750
:1032600000202F903AE22E983E21405C002807D0A3
:10327000FFE72E9800682D99FCF7B1FF2C9006E02F
:103280002D982E990968FCF7AAFF2C90FFE72C983F
:103290002E99C8602E983F21405C002810D0FFE78F
:1032A0002E99C8680122D2079043896AFDF79EF8DB
:1032B000002804D1FFE72E9840682F900EE2FFE728
:1032C0002E983C21405C2B90002805D0FFE72B98DE
:1032D000012800D116E1FCE12E984121405C002834
:1032E00019D0FFE72E99C8680122D2079043896B55
:1032F000FDF77CF8002809D1FFE72E982A90C168D5
:103300008068FCF71BFF2A99886003E02E99002053
:103310008860FFE708E02E982990C1688068FCF774
:103320000DFF29998860FFE72E984021405C002816
:1033300029D0FFE72E998868496BFDF73BF80028F4
:1033400004D1FFE72E98406B289018E02E998868EA
:10335000496B0122D2075140FDF73AF8002807D106
:10336000FFE72E98406B0121C9074840279003E0F2
:103370002E9880682790FFE727982890FFE72898E5
:103380002E998860FFE72E984221405C002829D1C1
:10339000FFE72E992691C8692190C8682390086A92
:1033A0008968FCF724FF2399024621982292FCF7B2
:1033B0001EFF2299FCF7C2FE269902462398259209
:1033C0004A6A24920969FCF70AFF01462498FCF72F
:1033D0000EFF2599FCF7B2FE269948602E99C86821
:1033E000086129E02E992091C8691C90C8681B903B
:1033F000086A8968FCF7FBFE1B9902461C981D921F
:10340000FCF7F5FE1D99FCF799FE014620981F91E7
:10341000416A1E912D998069FCF7E1FE01461E98D4
:10342000FCF7E5FE01461F98FCF788FE20994860EE
:103430002D982E998861FFE72E984321405C002843
:1034400029D1FFE72E994868C96AFCF7B3FF002825
:1034500004D1FFE72E98C06A1A9018E02E994868A8
:10346000C96A0122D2075140FCF7B2FF002807D1F8
:10347000FFE72E98C06A0121C9074840199003E070
:103480002E9840681990FFE719981A90FFE71A984C
:103490002E99486035E02E9918914868096BFCF721
:1034A0004DFE1899C96AFCF785FF002804D1FFE793
:1034B0002E98C06A179020E02E9916914868096BE3
:1034C000FCF73CFE1699C96A0122D2075140FCF76D
:1034D0007FFF002807D1FFE72E98C06A0121C907A6
:1034E0004840159006E02E994868096BFCF726FEC7
:1034F0001590FFE715981790FFE717982E994860E9
:10350000FFE7E7E02E984221405C002840D1FFE72A
:103510002E991491C8690E90C8681190096910918C
:10352000FCF75DFE1199024614980D92006AFCF7B3
:103530005EFE0D9902460E980F92FCF758FE0F9909
:10354000FCF7FCFD1099024614981392406A129001
:103550000846FCF7F3FD01461198FCF740FE14996C
:103560004969FCF7EBFD01461298FCF740FE139900
:10357000FCF7E4FD014614984068FCF7DFFD149960
:1035800048602E99086948612E99C86808613AE038
:103590002E990C91C8690890C86806900969FCF7D3
:1035A0001EFE069902460C980792006AFCF71FFE61
:1035B0000799024608980992FCF719FE0999FCF749
:1035C000BDFD01460C980B91416A0A912D998069C5
:1035D000FCF705FE01460A98FCF709FE01460B9828
:1035E000FCF7ACFD01460C984068FCF7A7FD0C9970
:1035F00048602E99086948612E99C86808612D981D
:103600002E998861FFE72E984321405C002829D13C
:10361000FFE72E994868C96AFCF7CCFE002804D160
:10362000FFE72E98C06A059018E02E994868C96A8D
:103630000122D2075140FCF7CBFE002807D1FFE75B
:103640002E98C06A0121C9074840049003E02E98D3
:1036500040680490FFE704980590FFE705982E99CD
:10366000486035E02E9903914868096BFCF766FDC8
:103670000399C96AFCF79EFE002804D1FFE72E9843
:10368000C06A029020E02E9901914868096BFCF70E
:1036900055FD0199C96A0122D2075140FCF798FEF5
:1036A000002807D1FFE72E98C06A0121C9074840CA
:1036B000009006E02E994868096BFCF73FFD0090EA
:1036C000FFE700980290FFE702982E994860FFE715
:1036D00000E0FFE72E9840682F90FFE72F9830B06A
:1036E00080BD000080B586B005AA107004910498D2
:1036F000A749FCF75FFE002803D1FFE7A448039029
:103700000FE004981249FCF763FE002803D1FFE79D
:103710000F48029002E004980290FFE7029803909D
:10372000FFE70398049005A800780190002804D0D2
:10373000FFE70198012804D007E004988D4908604C
:1037400004E004988F49086000E0FFE706B080BD00
:103750000000C0C082B001906846017000980199D5
:103760003D22885402B0704780B588B081483D2121
:10377000405C00281ED0FFE782483D21405C0028C5
:1037800018D0FFE74848059001687A48FFF75EFDCA
:10379000FCF753FE01460020FFF734FA05988168D4
:1037A0007848FFF753FDFCF748FE01460120FFF77C
:1037B00029FAFFE7002007903C4800780490002891
:1037C00008D0FFE7049801281BD0FFE704980228DF
:1037D00047D066E067483D21405C002810D0FFE7F5
:1037E00068483D21405C00280AD0FFE70021039192
:1037F0000846FFF777FF03990120FFF773FFFFE704
:1038000050E062483D21405C002829D0FFE729486C
:1038100001685E48FFF71AFD07902748022100F073
:10382000C6FE014606A801700078C007002804D033
:10383000FFE7564900208860FFE707987F21C90508
:103840000291FCF77BFC01460020FFF74BFF02983A
:103850000799FCF7C4FC01460120FFF743FFFFE78F
:1038600020E04C483D21405C002819D0FFE710487B
:1038700001684848FFF7A8FC079007987F21C90511
:103880000191FCF75BFC01460020FFF72BFF01983C
:103890000799FCF7A4FC01460120FFF723FFFFE78F
:1038A00000E0FFE708B080BD40032020D4012020C5
:1038B000A00120203803202030032020F0B587B05D
:1038C000FFF77EF92B4C2C48E0612C492162002146
:1038D000069161623D22029201230393A3543C2787
:1038E000E3553E26A355422504956155244BE362DA
:1038F000244CE0612448206203986162A054E055A2
:10390000A0556155E362214CE16121626162A154DD
:10391000E155A055412561551D490091E1624021C5
:1039200001916054E06A216AFCF79EFC009B019AB9
:10393000069960630498215402988121C905216089
:10394000069C14490591CC610C624C620C5403989E
:10395000CC5588554C55CB628854C86A096AFCF727
:1039600083FC049A0599034606984B63885407B074
:10397000F0BDC0465C02202000409C45A4509D4301
:1039800000401C46A00220205C4F4243E40220205D
:103990000000C0401802202070B584B003AC207035
:1039A00002A80090017019480190FDF746FE0146FB
:1039B0000098227818231D465543154A5519298227
:1039C00025781946694351181025495F26781D4608
:1039D000754355191226AD5F4E192578194669436E
:1039E000551869698919696125781946694351181B
:1039F000098A24786343D2185182007801F016F8BE
:103A000001980021FDF784FF04B070BD000009405B
:103A10000400202080B582B001900198FCF726FDBB
:103A2000034A044BFCF75EFCFCF734FD02B080BD9A
:103A3000D1A05DD046DF913F80B582B00F491048DC
:103A40000190FEF70BF801980E49FDF7A7FF0198CA
:103A50000021FEF70CF8019802210B22FDF7D8FF98
:103A6000019801218902FDF775FF0F20032100F065
:103A700053FE0198FDF762FF02B080BD746A00003A
:103A800000801040766A000080B582B00B490C4877
:103A90000190FDF707FF01980A49FDF75BFE0198C9
:103AA00001210091FDF7AAFD0099102000F034FEDD
:103AB0000198FDF799FD02B080BDC046806A000004
:103AC00000400840846A000080B590B00920FDF7EE
:103AD000F3FA0A20FDF7F0FA102002900421039176
:103AE000FDF728FB02996B480F90FDF7ADFA03999B
:103AF0001120FDF71FFB0F982021FDF7A5FA0120EB
:103B000008900721FDF7E2FA002009900621FDF751
:103B1000DDFA03990898099B0193C0040B9000906B
:103B20000F2004901A46FDF7E9FA0399099B0B98B8
:103B3000019300900E2005901A46FDF7DFFA0498D5
:103B4000FDF776FA0598FDF773FA099B0B98019338
:103B500000900220079003210E911A46FDF7CEFA3D
:103B6000099B0B980E9901930090052006901A4628
:103B7000FDF7C4FA0798FDF75BFA0698FDF758FAC7
:103B800007991420FDF7D6FA07991520FDF79EFA3C
:103B90003920FDF787FA2B20FDF784FA0898099958
:103BA0000B9B009102040A923B20FDF763FA0999EE
:103BB0000A9A0B9B00913620FDF75CFA09990A9A44
:103BC0000B9B00912F20FDF755FA09990A9A0B9B40
:103BD00000912320FDF74EFA09990A9A0B9B009158
:103BE0003720FDF747FA0B20FDF75CFA0C20FDF7B4
:103BF00059FA2520FDF756FA2620FDF753FA0999C0
:103C00000A9A0B9B00910D20FDF734FA09990A9A44
:103C10000B9B00911220FDF72DFA09990A9A0B9B34
:103C200000911320FDF726FA09990A9A0B9B00913F
:103C30002120FDF71FFA09990A9A0B9B0091222077
:103C4000FDF718FA09990A9A0B9B00912420FDF7B9
:103C500011FA09990A9A0B9B00912D20FDF70AFA97
:103C60000E9801040D91BE480C90FDF78FFA0C9848
:103C70000D99FDF7E9F90F980749FDF7BBF90E9982
:103C80000F98FDF783FA0F980449FDF7DDF910B09E
:103C900080BDC04600200A4000000408030004085C
:103CA00080B582B00B49B0480190FDF7FBFD01984B
:103CB0000949FDF74FFD019801210091FDF79EFC98
:103CC0000099112000F028FD0198FDF78DFC02B04D
:103CD00080BDC046986A00009C6A000080B582B032
:103CE0001249A2480190FDF704FB01980321490203
:103CF000FDF7ECFA0198FDF775FA0198FDF7DEFA89
:103D000001982721FDF72EFB019800210091FDF776
:103D100015FB00990198FDF7FFFA0198FDF778FA75
:103D20000198FDF76BFA02B080BDC046B06A000092
:103D300080B582B00A49D1480190FDF7B3FD0198E2
:103D40000849FDF707FD01980121FDF757FC1220F6
:103D5000022100F0E1FC0198FDF746FC02B080BDB5
:103D6000B26A0000B86A000080B582B000200190FD
:103D7000FDF7A4FB012000904002FDF7ABFB01988A
:103D8000FDF7DEFBFDF782FBFDF786FB009A0320C3
:103D900000030A21FDF7ACFB0648FDF717FB1020D6
:103DA000FDF7DCFBFDF782FB0198FDF7E3FB02B0BA
:103DB00080BDC046CC6A000080B5024800F024F9FE
:103DC00080BDC0468038010080B584B00F49654889
:103DD0000390FDF767FD03984921490201910023F3
:103DE00002931A46FDF7DAFB0199029A0398012320
:103DF000FDF7D4FB03980649FDF77EFD0398FDF718
:103E0000F3FB0398FDF78EFD04B080BDF46A00005B
:103E1000FFFF000080B582B0124955480190FDF7C0
:103E200068FA019803214902FDF750FA0198FDF75D
:103E3000D9F90198FDF742FA01980921FDF792FAA4
:103E4000019800210091FDF779FA00990198FDF79A
:103E500063FA0198FDF7DCF90198FDF7CFF902B09C
:103E600080BDC046F76A000080B500F02BF8FFF770
:103E70002BFEFFF779FF00F07DF8FFF7A5FFFFF7B6
:103E80000FFFFFF701FEFFF753FFFFF727FFFFF7D5
:103E9000C1FFFFF7D1FDFFF78FFF0649B8220020D1
:103EA000885405499C23C8540449C854044988547B
:103EB00080BDC0464C052020AC04202050032020AB
:103EC000F003202080B58AB025480090FDF756F910
:103ED000B4480190FDF752F948480290FDF7AEFC56
:103EE00020480390FDF7AAFC74480490FDF7A6FC57
:103EF0006A480590FDF7A2FC60480690FDF79EFC1D
:103F00001A480790FDF7CEF919480890FDF7CAF94D
:103F1000EB480990FDF770FD0098FDF7A1F80198B6
:103F2000FDF79EF80298FDF775FB0398FDF772FB0D
:103F30000498FDF76FFB0598FDF76CFB0698FDF7FD
:103F400069FB0798FDF770F90898FDF76DF9099876
:103F5000FDF70EFD1020FDF720F80AB080BDC04629
:103F600000000A40000009400080864000200F4009
:103F700000000F4080B586B01F4920480590FDF72E
:103F800091FC05981E49FDF761FB059800230293FB
:103F900019461A46FDF794FC029B059800931022DF
:103FA00001921946FDF76AFC029A05981146FDF741
:103FB00057FC029A059813490391FDF76BFC019A8F
:103FC000029B05980121049100911946FDF756FCCA
:103FD0000299049A0598FDF743FC0399049A059801
:103FE000FDF758FC0598FDF7FFFA05980321FDF74A
:103FF0002DFC06B080BDC046F96A00000020864056
:10400000FC6A00001127000080B584B0029002987D
:10401000401E000E002803D0FFE70120039011E0AE
:104020000298401E0949086000200190C043032106
:1040300000F072FB019806490860064A07211160EA
:104040000390FFE7039804B080BDC04614E000E091
:1040500018E000E010E000E080B500F0BFFA80BD9D
:1040600080B50648FDF7E0FA012805D1FFE700F02A
:104070009FF8FFF779FB00E0FFE780BD0000864076
:1040800080B50648FDF7D0FA012804D1FFE70520E6
:10409000FDF74AFD00E0FFE780BDC0460040084054
:1040A00080B50648FDF7C0FA012804D1FFE70520D6
:1040B000FEF752F900E0FFE780BDC0460080864071
:1040C00080B584B0354800780190002808D0FFE71B
:1040D000019801280AD0FFE7019802280CD025E0BA
:1040E000012081042F48FCF799FF20E00120810482
:1040F0002C48FDF75FF81AE0FFE700F06BFA039039
:10410000039827490968401A002801D5FFE743E0D2
:1041100000F060FA7D218900401821490860FFE71E
:10412000012081041F48FDF751F800E0FFE71E4819
:1041300000780090002808D0FFE7009801280AD0F6
:10414000FFE7009802280CD025E00120C1061548A1
:10415000FCF764FF20E00120C1061248FDF72AF8B1
:104160001AE0FFE700F036FA029002980F4909685A
:10417000401A002801D5FFE70EE000F02BFA7D2160
:10418000C900401809490860FFE70120C106054839
:10419000FDF71CF800E0FFE704B080BD3D032020E0
:1041A0002C03202000200A403C032020280320204C
:1041B00080B584B030490020087003A9087002A9B6
:1041C0000870FFE702A8007806282DD8FFE702A8AC
:1041D0000078C2002C48811880584968FCF7C3FF5A
:1041E00000280AD0FFE702A8027828490120885455
:1041F00021490878401C087005E002A8027823498C
:1042000000208854FFE702A801782048405C02990A
:10421000491C41430398401803A90870FFE702981E
:10422000401C02A90870CDE713480078002809D186
:10423000FFE712480068124908601248022100F0A6
:10424000C1F917E003A80078FCF7ECF801900A48E0
:104250000078FCF7E7F801460198FCF705F80146FD
:10426000074801600068054908600648012100F020
:10427000A9F9FFE704B080BD12062020E400202049
:104280003803202030032020AC00202013062020FB
:1042900080B582B00A48FDF777FB0B280CD1FFE709
:1042A0000748FDF79FFB014601A8017001784248CD
:1042B000402200F08BF800E0FFE702B080BDC0466E
:1042C0000080104080B586B0059057480078C00740
:1042D000002801D1FFE76DE05349002008703648FF
:1042E0003D21FBF713FF04900498002805D1FFE758
:1042F00031484021FBF7FFFE5CE004990020087084
:104300002D4803900498401C029003982B49FBF71A
:1043100007FF002808D1FFE7029801F0CDFAFCF76B
:10432000B9F80599C86140E003982549FBF7F8FE04
:10433000002819D1FFE7029801F0BEFAFCF7AAF8AD
:10434000059908620598006A0021FCF75DF80028CD
:1043500009D1FFE705990191C86A096AFBF784FF53
:1043600001994863FFE71FE003981649FBF7D8FE61
:10437000002808D1FFE7029801F09EFAFCF78AF8BE
:10438000059948620FE003980F49FBF7C9FE002822
:1043900008D1FFE7029801F08FFAFCF77BF8059946
:1043A0000860FFE7FFE7FFE7FFE703484021FBF76F
:1043B000A2FEFFE706B080BDD50120203A6C0000C8
:1043C000376C0000346C00003D6C000010B583B009
:1043D000029001A8017069460A7000780D280AD180
:1043E000FFE7029A0F490B780020D0540E4B0122B0
:1043F0001A70087014E00B48007869460978491E65
:10440000884208DAFFE701980299064C2278531C8B
:104410002370885403E0034900200870FFE7FFE79A
:1044200003B010BD340320204001202080B5034B91
:10443000052003210822FEF73EFD80BD2F6D000000
:1044400080B5FEF7AFFCFEF7AFFB80BD80B5FEF791
:104450000DFAFEF74FFBFEF733FA80BD10B586B0BC
:10446000009101460098059104A90870039202AAE0
:1044700013800598097813880122FCF77FFF0598BF
:104480006421FDF759FB002801D0FFE717E001A9DF
:1044900000200880FFE701A8008802A90988884257
:1044A0000DDAFFE70598FCF7F3FE039901AA1288DD
:1044B0008854FFE70198401C01A90880EBE706B08B
:1044C00010BD10B588B0079006A80170059204A829
:1044D00003800088012809DBFFE704A8008808287A
:1044E00004DCFFE70020002805D103E001200028BC
:1044F00001D1FFE719E004A80188002001290390F9
:104500000DDBFFE704A801880120002201920929A0
:10451000029001DB0198029002980390FFE7039953
:104520000120884300F03AF9FFE707986421FDF77E
:1045300003FB002801D0FFE71AE00798059904AAB9
:1045400000921288FCF77CFE009A079806A9097869
:1045500013880022FCF712FF07986421FDF7ECFA9C
:10456000002801D0FFE703E00798FCF77FFEFFE794
:1045700008B010BD80B584B0039000F02BF8029015
:10458000039801900198401C002804D0FFE701988F
:10459000401C0190FFE7FFE700F01CF80299401A69
:1045A0000199884201D2FFE7F6E704B080BD82B0EE
:1045B000019000910198006800990840411E8841CF
:1045C00002B0704782B00190009100980199086094
:1045D00002B07047044800687047C0460249086846
:1045E000401C08607047C0461C06202080B582B081
:1045F000019000910198002801D1FFE70BE000989D
:104600000078C007002806D0FFE70198804700998E
:1046100000200870FFE702B080BD80B584B0112093
:10462000009000F04DF8009800F060F81020019024
:1046300000F046F8019800F059F81220029000F0BE
:104640003FF8029800F052F80F20039000F038F87D
:10465000039800F04BF804B080BD000080B584B032
:10466000024603A8027002AA117001AA002111805B
:104670000078411E884180011070029850700348F4
:104680003C210223FFF71DFF04B080BD00200F4036
:1046900082B00191009001984000400D0249401AFB
:1046A000411E884102B07047FF07000081B00090B2
:1046B0000098C00DC0B2FF38411E884101B070475C
:1046C00081B001466846017000214056002809D497
:1046D000FFE7684601781F20014001208840024919
:1046E0000860FFE701B0704780E200E081B001465A
:1046F0006846017000214056002809D4FFE768464B
:1047000001781F2001400120884002490860FFE72E
:1047100001B0704700E100E070B582B0024601A828
:104720000270009100214056002816D4FFE70024B3
:1047300001A908570322D3431840174A8058095744
:104740008C07E50EFF24AC40A043009CA401E4B21A
:10475000AC402043194088501AE001A908780F2482
:10476000204008380322D34318400A4A80580025C5
:1047700049578D07EE0EFF25B540A843009DAD01BA
:10478000EDB2B54028432140083919408850FFE771
:1047900002B070BD1CED00E000E400E081B00090CC
:1047A000FFE7FEE705490020087070470349012034
:1047B0000870704701490220087070473C032020B0
:1047C00080B5034B642000210622FEF755FB80BD17
:1047D000246D000080B586B005900598FBF722FE99
:1047E0001749FBF741FD0490AE480078039000287C
:1047F00004D0FFE7039801280FD01DE000200290AD
:104800000121FFF7C9F802990846FDF76BF90299F3
:10481000049A0846FDF744F90FE0012001900021B9
:10482000FFF7BAF801990846FDF75CF90199049A77
:104830000846FDF735F900E0FFE706B080BDC04649
:1048400000007A4410B58AB0204805900068FBF754
:104850000DFE01910090AE4B07934120089000217E
:1048600006220692FEF708FB05988068FBF7FEFD1E
:10487000069A079B0446089803940C4603990194F2
:1048800000910121FEF7F8FA05984068FBF7EEFD6C
:10489000069A079B0446089804940C4604990194D0
:1048A00000910221FEF7E8FA0598C068FBF7DEFDEB
:1048B000069A079B0446089809940C4609990194A6
:1048C00000910321FEF7D8FA0AB010BD4003202062
:1048D00080B582B0FFF774FF0D4B002100910622D6
:1048E00001920846FEF7C8FA0098019A094B012187
:1048F000FEF7C2FA0098019A074B0221FEF7BCFAB4
:104900000098019A054B0321FEF7B6FA02B080BD6C
:10491000566C0000626C0000756C0000816C000039
:1049200010B588B0184803900068FBF79FFD01910F
:104930000090774B05932A200690002106220492CE
:10494000FEF79AFA03984068FBF790FD049A059BDE
:104950000446069802940C460299019400910121A4
:10496000FEF78AFA03988068FBF780FD049A059B9E
:104970000446069807940C46079901940091022179
:10498000FEF77AFA08B010BDA001202080B582B0F1
:10499000FFF716FF0A4B00210091062201920846FC
:1049A000FEF76AFA0098019A064B0121FEF764FAB5
:1049B0000098019A044B0221FEF75EFA02B080BD16
:1049C000416C00006E6C00004F6C00000549002037
:1049D00008707047034901200870704701490220A0
:1049E000087070473D03202080B582B00020019000
:1049F000FFF73AFA0C48FDF749F8FFF721FDFFF7FA
:104A000015FDFDF793FCFEF759FFFEF7A5F9FFF73B
:104A100004FEFFE7FDF7AAFAFFF752FBFFF716FDCA
:104A20003148FFF74FFCF5E70000084010B586B0AD
:104A300005A9019108701B48049000781821029183
:104A4000414319480390405800210091FCF74AFB6C
:104A50000099029A0398049B1B785A438018806837
:104A6000FCF740FB019B029A03991C7810466043B7
:104A700008581B785A4389184968FCF733FB019B97
:104A8000029A03991C7810466043081880681B78C6
:104A90005A438918C968FCF725FB049905980870E2
:104AA00006B010BD110620200400202080B582B081
:104AB0000C4800210191FEF74DFE01990A48FEF7CE
:104AC00049FE02B080BDC04680B582B005480121D4
:104AD0000191FEF73FFE01990348FEF73BFE02B04D
:104AE00080BDC0465C022020A002202080B582B09C
:104AF00006480068FBF7BAFC01910090044B2A209D
:104B000000210622FEF7B8F902B080BD380320204C
:104B1000486C000080B5FFF753FE034B00210622CE
:104B20000846FEF7A9F980BDDD6C000080B5084895
:104B30000021FEF70FFE80BD80B582B00448012140
:104B40000191FEF707FE01980249087002B080BD8E
:104B5000E4022020D401202037B514460846064B35
:104B60006A46214600F02CF904466946002000F010
:104B7000C3FC20463EBD0000F95400002021020C79
:104B800001D010211046020A01D01046083902094E
:104B900001D01046091F820801D01046891E420824
:104BA00001D0881E7047081A70474100080200D0E3
:104BB00004200A0E01D001221043090EFF2901D161
:104BC00002210843012800D10520704710B50121BA
:104BD000FBF767FD10BD10B5FBF7B0FA10BD10B5BF
:104BE00000210846FBF740FB10BD5E2110B5C9430C
:104BF0000807FBF756FD10BD01480068704700002C
:104C0000000020200000000002E008C8121F08C1B8
:104C1000002AFAD170470000704700000000000031
:104C2000002001E001C1121F002AFBD170470000E3
:104C3000014908607047000000002020F0B51FB453
:104C400086B00998089A030D0021024314D05148F8
:104C5000514A1818504305141198012810981AD079
:104C6000281A401C00264D4F4D4900960191049092
:104C7000002812DA444211E01198012449A30128C6
:104C800001D11098C1430698119A84600360C260F4
:104C900041600BB0F0BD4042E4E70446210500202E
:104CA0003F4A001C51410391029012E0E00707D0F7
:104CB00032463B4601990098FBF714FB01910090A6
:104CC00032463B4610461946FBF70CFB06460F469C
:104CD0006410002CEAD10498039B0028029A0999D9
:104CE000089806DAFBF7FEFA019B009AFBF7FAFA3E
:104CF00005E0FBF71FFE019B009AFBF71BFE044635
:104D00000E460022284BFBF7ADFE03D80020C0431F
:104D1000014607E00022254B20463146FBF758FDAF
:104D2000FBF780FE102409E0002C0ADB0A22002396
:104D3000FBF7EBFB079B30321A55641E02460A4311
:104D4000F2D11122641C079B121B1C19119B012B11
:104D500003D0012308430ED10AE0084304D01120F8
:104D600010900020119077E71098151A6D1E0BE037
:104D70001098824202DD00236D1C03E0824201DABA
:104D800000236D1E002BEED0069811998260C16041
:104D900030C07EE701FCFFFF104D00000000144012
:104DA0000000F03F300000000000F0430000E03F52
:104DB00030380A2801D201207047002070470000D7
:104DC000FFB597B00646002518E2252877D10024C4
:104DD0002746FD49049400E00443761C3278012004
:104DE000203A90400842F7D130782A280ED002228B
:104DF000307801463039092916D804990A235943D5
:104E0000303940181443761C0490F1E7189802C812
:104E100004911890002904DA012040030443484219
:104E2000049002200443761C30782E2814D10420EC
:104E300004437078761C2A2809D11898761C80C8FB
:104E4000189009E00A214F43303FC719761C30788B
:104E5000014630390929F5D930786C2810D006DCA4
:104E60004C281AD068280ED06A2817D104E074287C
:104E700013D07A2812D110E00120400504430CE041
:104E80000121090501E0032109050C4371788142E4
:104E900003D1012000052418761C761C307811906F
:104EA00066280BD013DC58287DD009DC00287BD085
:104EB0004528F6D04628F4D047281AD1A5E118E0B5
:104EC000632835D0642870D0652812D19DE1702800
:104ED0006CD008DC6728F1D069287BD06E280DD013
:104EE0006F2806D1BAE073282ED0752871D07828A3
:104EF00059D01A9A199990476D1C7EE16002400FB3
:104F0000022809D003280DD00428189801680DD074
:104F10000D60001D189070E11898EA1701680D6087
:104F20004A60F6E7189801680D80F2E70D70F0E727
:104F300018986A4601781172001D1890002050726E
:104F400002A80090012005E0189802C818900020DF
:104F50000091C04361070DD5002101E00199491C72
:104F60000191B94212DA8142F8DB009A515C0029C2
:104F7000F4D10BE0002101E00199491C019181422B
:104F8000FADB019A0099895C0029F5D1019904980E
:104F90001A9B471A21463846199A00F097FA019948
:104FA000401945180BE04FE02CE113E04EE000986B
:104FB00000990078491C00911A9A19999047019814
:104FC000401E0190401CF2D1214638461A9B199A86
:104FD00010E137E00A200021009001916002410FAA
:104FE000022907D0189A01CA1892C21794460329B9
:104FF00008D00AE01898C01DC108C90005C9189159
:10500000944607E000B2C2179446042902D140B288
:10501000C1178C4600226146944506DA0A460021F3
:10502000404291418C462D2102E0210504D52B21DF
:105030006A461173012103E0E10701D02021F7E75F
:10504000029155E00A200AE0102008E010200090AC
:105050000021042004430191082703E008200021D7
:10506000019100906002410F022907D0189A01CAED
:10507000189200229446032908D008E01898C01D11
:10508000C108C90005C91891944603E080B20429FB
:1050900000D1C0B200210291210729D511997029B0
:1050A00006D0009A1021019B4A401A4305D00EE019
:1050B00040216A461173012108E06146014306D090
:1050C00030216A4611731199517302210291009A9D
:1050D0000821019B4A401A430AD16146014301D18C
:1050E000610705D530216A46117301217F1E0291A7
:1050F0001199582904D035A10E910DA90D910DE0FB
:1051000037A1F9E76146019B009AFBF7FEF90E9B78
:105110008C469B5C0D9A521E0D92137061460143A2
:10512000F0D10D9805A9081A20300190600703D529
:1051300001200004844300E001270198874201DD3B
:10514000381A00E0002001990090411802980918CF
:105150000498401A0490E00306D421461A9B199A39
:10516000049800F0B3F94519002706E003A81A9A3D
:10517000C05D199990476D1C7F1C02988742F5DB32
:10518000E0030CD521461A9B199A049800F09EF969
:10519000451904E01A9A3020199990476D1C00991E
:1051A000481E00900029F5DC08E00D980D99007864
:1051B000491C0D911A9A199990476D1C0199481E26
:1051C00001900029F1DC63E109280100303132331C
:1051D0003435363738396162636465660000000033
:1051E000303132333435363738394142434445461D
:1051F0000000000000F05AF94519761C30780028AC
:1052000000D0E2E528461BB0F0BD600700D40627B9
:105210001898C01DC108C90048680A680831C30F42
:10522000DB071891190001D09CA108E0210501D5E8
:105230009BA104E0E10701D09AA100E09AA14300FC
:1052400011985B08109165280CD006DC452809D020
:1052500046281DD0472841D141E0662818D067284C
:105260003CD13CE00021112F01DB112000E0781C33
:105270000191009008A911A8FFF7E0FC139905918E
:105280000021119A15927F1C12980197009150E00D
:105290000120C00703900120019008A9009711A8E0
:1052A000FFF7CCFC139A149905920022119B0092EF
:1052B00012981593059A0192002901D0104602E038
:1052C000791C40180190381A01D5019804E0404239
:1052D000401E0090781C0190C01B029043E0012FFB
:1052E00000DA01270021112F01DD112000E03846EE
:1052F0000191009008A911A8FFF7A0FC139905914E
:10530000119A0021129815920091019721070CD44F
:105310000599B94201DB019900E00191012904DD01
:10532000159A491E515C302906D0B84201DA011D98
:1053300005DA0121029115E00199491EEDE70028E7
:1053400005DC0099411800910199091A03E0019ABE
:10535000411C914200DD01910099401A401C0290CD
:105360000120C0070390200706D4029901988142CA
:1053700002DB0020C043029000206946C87707AFD7
:10538000012103980337C907884224D002201190D5
:105390002B201290039800280CDA404203902D2015
:1053A000129007E00A210398FBF790F830317F1E36
:1053B000039039701199481E11900029F2DC03986E
:1053C0000028EFD1791E129808703078202108400B
:1053D0004530BF1E387006A8C01BC01D0390109832
:1053E0000078002800D00120019941180298C017C8
:1053F0000918039809180498401A401E0490E00305
:1054000006D421461A9B199A049800F05FF84519B2
:1054100010980078002803D01A9A199990476D1CAB
:10542000E00324D521461A9B199A049800F04EF8FF
:1054300045191CE00098002807DB00990598884270
:1054400003DD1598405C199901E0199930201A9AEA
:10545000904700986D1C401C00900298401E0290DE
:10546000002804D11A9A2E20199990476D1C019991
:10547000481E01900029DDDC05E038781A9A7F1C6F
:10548000199990476D1C0399481E03900029F4DC7C
:1054900021461A9B199A0498ACE600002D000000E2
:1054A0002B0000002000000000000000F8B50446BA
:1054B00000251E461746880404D405E039462020FE
:1054C000B0476D1C641EF9D52846F8BDFFB50446EB
:1054D000002581B01E46C80301D5302700E02027F3
:1054E000880404D505E038460399B0476D1C641E56
:1054F000F9D5284605B0F0BD0A68531C0B60107042
:1055000070470000F8B504464721400049060D22C7
:1055100041181206914253D83F21490688421BD9AF
:1055200060007F214008C905FAF75DFE0021C943EC
:10553000FBF7B7F8074600F0D5F9002C04DA2F4D39
:105540002D4EA907484001E02D4E2E4D032189071D
:10555000FAF74DFE044606E0002621463546084689
:10556000FAF745FE074628493846FAF740FE27492C
:10557000FAF7E4FD3946FAF73AFE2549FAF7DEFD77
:105580003946FAF734FE2349FAF7D8FD3946FAF7D7
:105590002EFE2149FAF7D2FD009039462046FAF74F
:1055A00026FE0099FAF723FE074629462046FAF719
:1055B000C5FD3946FAF7C2FD3146FAF7BFFDF8BD21
:1055C00039214906884208D22046FFF7EEFA04281E
:1055D00001D1FFF70AFB2046F8BDFF2109068842EA
:1055E00003D92046FFF7F2FAF8BD0120FFF720FBB0
:1055F000FFF7F5FAF8BD00000000C9BF22AAFDB907
:105600000000C93F22AAFD3924FE1C3DC78AD83CB0
:105610001E67383D1B93993DAFAA2A3EF0B50C4654
:1056200001461D224B00D2069F18E5260546360688
:10563000620087B02046B7427BD21D27FF06D719EC
:10564000B74276D24F0043003E0E1A0EB21A1B2A02
:1056500007DD002902DA854807B0F0BD844807B0AD
:10566000F0BD1A26F2422FDA002807DA002902DA02
:10567000804807B0F0BD804807B0F0BD21462846FD
:10568000FAF7F2FD0646FFF790FA042801D1FFF77A
:10569000ACFA2846FFF789FA05462046FFF785FA57
:1056A00004463046FFF781FA042D01D0052D08D1BC
:1056B000042C01D0052C04D1002802D10220FFF7D0
:1056C000B7FA304607B0F0BD9F4211D9002902DA7F
:1056D0006A4F6B4E01E06B4F6B4E23462C461D46C6
:1056E00001220346D20708465440504019460BE0B9
:1056F000002807DA002902DA644F654E04E0654F9E
:10570000654E01E000263746421A012352001B066F
:105710009A422FD2484061490CD5BF200006029022
:105720003846FAF75CFD07465D493046FAF757FD03
:105730000BE053E03F20000602903846FAF7FEFCEB
:10574000074657493046FAF7F9FC064628460299BB
:10575000FAF74DFD2146FAF7F1FC00902146029838
:10576000FAF745FD2946FAF73EFD0099FAF77CFD68
:10577000044604E021462846FAF776FD0446014631
:10578000FAF735FD47490090FAF731FD4649FAF737
:10579000D5FC0099FAF72BFD4449FAF7CFFC0099A4
:1057A000FAF725FD4249FAF7C9FC0099FAF71FFDFF
:1057B0004049FAF7C3FC054620460099FAF717FD61
:1057C0002946FAF714FD3146FAF7B8FC2146FAF7F4
:1057D000B5FC3946FAF7B2FC07B0F0BDFF26360635
:1057E000B34201D8B24205D901462846FFF7F3F982
:1057F00007B0F0BD2F4607437F000AD0B3420CD15B
:10580000B2420AD101229207904391430D460446C9
:1058100018E7FF22D2051043F9E7B3420CD0470046
:105820000AD0B2420ED04E000CD05340F0D4002A21
:105830000EDB9F26F6050DE0FF22D2051143E00F97
:10584000C007FFE6C90FC907FF22D2051043F9E6DA
:105850005F26F60531462846FAF7C9FC054631466B
:105860002046FAF7C4FC04462946EBE6DB0FC9BF25
:10587000DB0FC93FDB0F49C0DB0F49400000C9BF48
:1058800022AAFDB90000C93F22AAFD39000049C083
:1058900022AA7DBA0000494022AA7D3A0060ED3E6E
:1058A000C30ACE372DAD65BD8FB8D53D0FB511BE3E
:1058B00061C84C3EA8AAAABE30B583B00446FFF723
:1058C0009BF90546002000900246019001232146E5
:1058D0006846FAF76BFE2846FFF7AAF90199009887
:1058E00003B030BD70B50546FAF7E7FE4100044647
:1058F000FF204908C005411AC90F07D069004908AF
:10590000401AC00F02D10120FFF792F9204670BD66
:10591000DDDDDDDDDCBBBBDDDDDDDDDDDDDDDDDDFC
:10592000988888888888888877777777778888883C
:1059300085555556666666666666666666688888D4
:105940008333333222222222222222222228888DCD
:105950000000000000000000002F00000000070011
:10596000070000147F147F1400242A7F2A120023CA
:1059700013086462003649552250000000070000F9
:1059800000001C224100000041221C000014083EBF
:1059900008140008083E0808000000A06000000885
:1059A00008080808000060600000002010080402D9
:1059B000003E5149453E0000427F40000042615197
:1059C0004946002141454B31001814127F10002731
:1059D00045454539003C4A494930000171090503F4
:1059E00000364949493600064949291E0000363625
:1059F0000000000056360000000814224100001488
:105A00001414141400004122140800020151090664
:105A1000003E4955592E007C1211127C007F4949E5
:105A20004936003E41414122007F4141221C007F16
:105A300049494941007F09090901003E4149497A24
:105A4000007F0808087F0000417F4100002040419E
:105A50003F01007F08142241007F40404040007F0A
:105A6000020C027F007F0408107F003E4141413E4E
:105A7000007F09090906003E4151215E007F091996
:105A800029460046494949310001017F0101003F93
:105A90004040403F001F2040201F003F4038403F13
:105AA0000063140814630007087008070061514977
:105AB000454300007F41410000020408102000001F
:105AC00041417F0000040201020400404040404088
:105AD000000001020400002054545478007F484420
